S0140000526F626F7452756E477269642E737265634F
S11300000C9444000C9461000C9461000C94610005
S11300100C9461000C9461000C9461000C946100D8
S11300200C9461000C9411100C9461000C94610008
S11300300C9461000C94810C0C9461000C9461008C
S11300400C9461000C9461000C94890F0C94EC0FD7
S11300500C9461000C9461000C9461000C94610098
S11300600C9461000C94610005A84CCDB2D44EB937
S11300703836A9020C50B9918688083CA6AAAA2A47
S1130080BE000000803FF21011241FBECFEFD8E065
S1130090DEBFCDBF11E0A0E0B1E0E8EDFFE202C0B9
S11300A005900D92A236B107D9F722E0A2E6B1E09D
S11300B001C01D92A534B207E1F70E94E0000C9440
S11300C0DF170C940000CF93DF93EC0180E00E94D3
S11300D06B0D42E050E05983488323E030E03B83DA
S11300E02A835D834C8385E090E09F838E8361E067
S11300F070E0798768877B876A879D878C87398BCF
S1130100288B3B8B2A8B9D8B8C8B398F288F7B8FF5
S11301106A8F5D8F4C8F9F8F8E8FDF91CF91089563
S1130120CF93DF93EB01CC0FDD1FCC0FDD1FCC0F82
S1130130DD1FC80FD91F0E94D2050E941C06892BFF
S1130140D1F30E941C060E941C06892BB1F18991EF
S1130150999182309105A1F01CF4019739F02DC0DA
S113016083309105B9F00597F9F027C02AE939E9F8
S113017049E95EE362E586E490E00E940101DBCF99
S11301802AE939E949E95EE36CE486E490E00E94F7
S11301900101D1CF2AE037ED43E65FE366E480E571
S11301A090E00E940101C7CF2AE037ED43E65FE308
S11301B066E480E090E00E940101DF91CF91089510
S11301C0CF93DF93CDB7DEB768970FB6F894DEBF51
S11301D00FBECDBF0E944E05CE0101960E94630062
S11301E061E070E0CE0101960E94900080E090E012
S11301F068960FB6F894DEBF0FBECDBFDF91CF91E6
S113020008952F923F924F925F926F927F928F92B6
S11302109F92AF92BF92CF92DF92EF92FF920F9391
S11302201F93CF93DF93CDB7DEB766970FB6F894DD
S1130230DEBF0FBECDBF1C0129833A834B835C8391
S1130240663461F020F4623409F495C008C46C3457
S113025009F4A9C2623509F41BC101C48091D30118
S11302609091D4019101281B390B45E650E05A873F
S11302704987412C512C3201032E000C440B550BA1
S11302802D833E834F8358870E9491108B012BED61
S11302903FE049EC50E4C301B2010E94F9070E9417
S11302A0660823E839EF42E25EE30E94F9079B0106
S11302B0AC01C301B2010E949A064B015C016D813D
S11302C07E818F8198850E9444079B01AC01C50102
S11302D0B4010E94F9074B015C016091D301709154
S11302E0D401072E000C880B990B0E9444079B0134
S11302F0AC01C501B4010E949B060E940C07DC01FD
S1130300CB01BC010E94180F4801110FAA08BB08B9
S11303100E949110681979098A099B090E94420771
S11303206B017C0120E030E040E251E469817A8194
S11303308B819C810E94F9079B01AC01C701B60126
S11303400E940707882324F32AE037ED43E25CE3A5
S1130350C301B2010E949B062B013C01A985BA8509
S11303601197BA87A987AB2B09F08ECF3092D401AD
S11303702092D3017AC38091D3019091D401910149
S1130380281B390B45E650E05A874987412C512CEC
S11303903201032E000C440B550B2D833E834F83F7
S11303A058870E9491108B012BED3FE049EC50E4FB
S11303B0C301B2010E94F9070E94660823E839EFDD
S11303C042E25EE30E94F9079B01AC01C301B20162
S11303D00E949A064B015C016D817E818F81988514
S11303E00E9444079B01AC01C501B4010E94F907B6
S11303F04B015C016091D3017091D401072E000C74
S1130400880B990B0E9444079B01AC01C501B40100
S11304100E949B060E940C07DC01CB01BC010E94D8
S1130420180F4801110FAA08BB080E9491106819FF
S113043079098A099B090E9442076B017C0120E02B
S113044030E040E251E469817A818B819C810E9491
S1130450F9079B01AC01C701B6010E940707882375
S113046024F32AE037ED43E25CE3C301B2010E94C6
S11304709B062B013C01A985BA851197BA87A987E8
S1130480AB2B09F08ECF3092D4012092D301EDC270
S11304908091D1019091D201820D931D2091CF01C1
S11304A03091D001A101421B530B9A0105E610E0E3
S11304B01D821E821F821886AC01990F660B770B72
S11304C04D875E876F87788BB901330F880B990B43
S11304D0698B7A8B8B8B9C8B0E9491107E8B6D8B9E
S11304E06091D3017091D401072E000C880B990BF5
S11304F00E94440769877A878B879C872BED3FE0AE
S113050049EC50E46D817E818F8198850E94F907C2
S11305100E94660823E839EF42E25EE30E94F9078D
S11305202D813E814F8158850E949B064B015C01C1
S11305306091D1017091D201072E000C880B990BA8
S11305400E9444072B013C016D857E858F85988927
S11305500E944407A50194010E94F9079B01AC0184
S1130560C301B2010E949A0629853A854B855C85B0
S11305700E949B060E940C072B013C016091CF0155
S11305807091D001072E000C880B990B0E94440730
S11305906B017C0169897A898B899C890E94440753
S11305A0A50194010E94F9079B01AC01C701B601A2
S11305B00E949B0629853A854B855C850E949B0693
S11305C00E940C07DC01CB01B2010E94180F8D8937
S11305D09E894C01990FAA08BB080E9491106B01D7
S11305E07C0120E030E040E251E469817A818B8132
S11305F09C810E94F9072B013C01C701B6016819CF
S113060079098A099B090E944207A30192010E9469
S11306100707882314F32AE037ED43E25CE36D8196
S11306207E818F8198850E949B066D837E838F8354
S113063098870150110909F04FCF8827992782190B
S113064093099093D2018093D1013092D0012092EA
S1130650CF0105E610E019821A821B821C829C01DC
S1130660990F440B550B29873A874B875C87C12C1C
S1130670D12C76010E9491107E876D876091D30101
S11306807091D401072E000C880B990B0E9444072B
S113069069837A838B839C832BED3FE049EC50E4A0
S11306A0C701B6010E94F9070E94660823E839EFE2
S11306B042E25EE30E94F907A70196010E949B06AD
S11306C04B015C0169857A858B859C850E94440772
S11306D09B01AC01C501B4010E94F9074B015C0107
S11306E06091D1017091D201072E000C880B990BF7
S11306F00E944407A50194010E949A0629813A8127
S11307004B815C810E949B060E940C076D837E8353
S11307108F8398876091CF017091D001072E000CD0
S1130720880B990B0E944407A50194010E949B0623
S113073029813A814B815C810E949B060E940C07AF
S1130740DC01CB016D817E810E94180F4D855E8591
S11307504A01550FAA08BB080E949110681979092B
S11307608A099B090E9442079B01AC01C301B201A3
S11307700E94F407181684F32AE037ED43E25CE3A1
S1130780C701B6010E949B066B017C01015011094F
S113079009F070CF1092D2011092D1011092D001C1
S11307A01092CF0162C18091D1019091D201910147
S11307B0281B390B8091CF019091D001820D931D9C
S11307C065E670E07A8B698B1D821E821F82188613
S11307D0A901330F660B770B49875A876B877C8790
S11307E09C01990F440B550B2D873E874F87588BDF
S11307F00E9491108B012BED3FE049EC50E46D8198
S11308007E818F8198850E94F9070E94660823E8FB
S113081039EF42E25EE30E94F9072D813E814F8168
S113082058850E949B066B017C016091D1017091F7
S1130830D201072E000C880B990B0E9444074B0130
S11308405C0169857A858B859C850E944407A70194
S113085096010E94F9079B01AC01C501B4010E94F5
S11308609B060E940C074B015C016091CF017091C3
S1130870D001072E000C880B990B0E9444072B0112
S11308803C016D857E858F8598890E944407A70168
S113089096010E94F9079B01AC01C301B2010E94B9
S11308A09A060E940C07DC01CB01B4010E94180FC8
S11308B04801110FAA08BB080E9491102B013C01AA
S11308C020E030E040E251E469817A818B819C81AF
S11308D00E94F9076B017C01C301B201681979090F
S11308E08A099B090E944207A70196010E940707F3
S11308F0882314F32AE037ED43E25CE36D817E81C3
S11309008F8198850E949B066D837E838F83988751
S1130910A989BA891197BA8BA98BAB2B09F068CF37
S11309203092D2012092D101319421943108309235
S1130930D0012092CF0125E630E019821A821B8271
S11309401C82A101330C660B770B4D835E836F838E
S113095078873A872987812C912C54010E94911021
S11309608B012BED3FE049EC50E4C501B4010E943A
S1130970F9070E94660823E839EF42E25EE30E9429
S1130980F907A50194010E949B062B013C016D818E
S11309907E818F8198850E9444079B01AC01C3012D
S11309A0B2010E94F9072B013C016091D1017091C1
S11309B0D201072E000C880B990B0E944407A30157
S11309C092010E949B060E940C0769837A838B83A1
S11309D09C836091CF017091D001072E000C880B8D
S11309E0990B0E944407A30192010E949A060E9457
S11309F00C07DC01CB0169817A810E94180F280160
S1130A00110F660877080E94911064197509860908
S1130A1097090E9442079B01AC01C701B6010E94DD
S1130A20F407181684F32AE037ED43E25CE3C501CA
S1130A30B4010E949B064B015C0169857A85615073
S1130A4071097A876987672B09F088CF1092D201E0
S1130A501092D1011092D0011092CF0106C060E033
S1130A6070E080E090E00E94180F66960FB6F8944C
S1130A70DEBF0FBECDBFDF91CF911F910F91FF90CD
S1130A80EF90DF90CF90BF90AF909F908F907F902A
S1130A906F905F904F903F902F900895CF93DF9386
S1130AA080ED97E00E94EE101BC00E94C709EC0184
S1130AB00E94DB0DBE01DD0F880B990B0E943F0ED7
S1130AC081E391E00E94EA0D61E080E00E94620E01
S1130AD084E391E00E94EA0D84E690E00E945910BC
S1130AE080E10E945B0F882301F380E10E94470F9D
S1130AF088EE93E00E945910CCEEDFEFC832D105A6
S1130B0038F068ED7FEF88E290E00E94180F06C08D
S1130B1068E270E088ED9FEF0E94180F81E00E9468
S1130B20B21084E190E00E9459102196CC33D10593
S1130B3029F760E070E080E090E00E94180F1FC089
S1130B40599A519A61E087E392E00E94B810EC014F
S1130B500E94DB0D8BE391E00E94EA0DBE0180E070
S1130B6090E00E943F0E61E080E00E94620E8CE300
S1130B7091E00E94EA0D84E690E00E94591080E121
S1130B800E945B0F8823E1F280E10E94470F0E94DC
S1130B90DB0D8EE391E00E94EA0D599A519ADF91A0
S1130BA0CF910895CF93DF9361E087E392E00E94B1
S1130BB0B810EC0161E087E392E00E94AB100E9460
S1130BC0DB0DCE3987E0D80798F45F9A579AC8307E
S1130BD0D74038F46CE370E080E090E00E94180F96
S1130BE028C06CE370E087E390E00E94180F21C0F6
S1130BF0C33088E0D80798F0599A519AC939D84037
S1130C0038F060E070E08CE390E00E94180F11C0AF
S1130C1067E370E081E490E00E94180F0AC05998DD
S1130C20519A5F98579A67E370E087E390E00E94D7
S1130C30180FDF91CF9108950F931F93CF93DF93F4
S1130C40E5EDF1E011821082138212821582148282
S1130C5061E087E392E00E94AB10809137029091AB
S1130C603802893E934048F081E090E09093D601A9
S1130C708093D50161E070E002C060E070E0809193
S1130C803B0290913C02893E934040F081E090E029
S1130C909093D8018093D70162E070E080913F0285
S1130CA090914002893E934040F081E090E090931F
S1130CB0DA018093D90163E070E0E5EDF1E02BED1A
S1130CC031E0C0E0D0E081919191019709F421963F
S1130CD0E217F307C1F7072E000C880B990B0E944B
S1130CE03F0E61E080E00E94620E05ED11E0F80124
S1130CF060817181072E000C880B990B0E943F0EB6
S1130D00F80162817381072E000C880B990B0E94F5
S1130D103F0EF80164817581072E000C880B990B36
S1130D200E943F0E0E94DB0DCE01DF91CF911F91F7
S1130D300F9108955058BB27AA270E94B2060C941D
S1130D40BA070E94AC0738F00E94B30720F039F4C8
S1130D509F3F19F426F40C94A9070EF4E095E7FBE1
S1130D600C94A307E92F0E94CB0758F3BA17620724
S1130D7073078407950720F079F4A6F50C94ED0722
S1130D800EF4E0950B2EBA2FA02D0B01B9019001A2
S1130D900C01CA01A0011124FF27591B99F0593FE6
S1130DA050F4503E68F11A16F040A22F232F342F2E
S1130DB04427585FF3CF469537952795A795F0407C
S1130DC05395C9F77EF41F16BA0B620B730B840B91
S1130DD0BAF09150A1F0FF0FBB1F661F771F881F49
S1130DE0C2F70EC0BA0F621F731F841F48F48795A1
S1130DF077956795B795F7959E3F08F0B0CF939593
S1130E00880F08F09927EE0F9795879508950E940B
S1130E107F0708F481E008950E9413076894B111D4
S1130E200C94EE0708950E94D30788F09F5798F01A
S1130E30B92F9927B751B0F0E1F0660F771F881FDB
S1130E40991F1AF0BA95C9F714C0B13091F00E94F5
S1130E50ED07B1E008950C94ED07672F782F8827EC
S1130E60B85F39F0B93FCCF3869577956795B3951C
S1130E70D9F73EF490958095709561957F4F8F4F8B
S1130E809F4F0895E89409C097FB3EF49095809590
S1130E90709561957F4F8F4F9F4F9923A9F0F92F3C
S1130EA096E9BB279395F695879577956795B795BA
S1130EB0F111F8CFFAF4BB0F11F460FF1BC06F5FA0
S1130EC07F4F8F4F9F4F16C0882311F096E911C0B2
S1130ED0772321F09EE8872F762F05C0662371F0D3
S1130EE096E8862F70E060E02AF09A95660F771FE7
S1130EF0881FDAF7880F9695879597F90895990FC3
S1130F000008550FAA0BE0E8FEEF16161706E807CF
S1130F10F907C0F012161306E407F50798F0621BF0
S1130F20730B840B950B39F40A2661F0232B242BC5
S1130F30252B21F408950A2609F4A140A6958FEFE4
S1130F40811D811D089597F99F6780E870E060E036
S1130F5008959FEF80EC089500240A94161617064E
S1130F6018060906089500240A9412161306140696
S1130F7005060895092E0394000C11F4882352F0F9
S1130F80BB0F40F4BF2B11F460FF04C06F5F7F4FB1
S1130F908F4F9F4F089557FD9058440F551F59F098
S1130FA05F3F71F04795880F97FB991F61F09F3F52
S1130FB079F087950895121613061406551FF2CF7B
S1130FC04695F1DF08C0161617061806991FF1CFCB
S1130FD086957105610508940895E894BB276627F2
S1130FE07727CB0197F908950E947F0708F48FEFC4
S1130FF008950E940C080C94BA070E94AC0738F0BC
S11310000E94B30720F0952311F00C94A3070C94CD
S1131010A90711240C94EE070E94CB0770F3959F47
S1131020C1F3950F50E0551F629FF001729FBB27DB
S1131030F00DB11D639FAA27F00DB11DAA1F649F77
S11310406627B00DA11D661F829F2227B00DA11D2A
S1131050621F739FB00DA11D621F839FA00D611DB0
S1131060221F749F3327A00D611D231F849F600DD1
S1131070211D822F762F6A2F11249F5750409AF0FA
S1131080F1F088234AF0EE0FFF1FBB1F661F771F86
S1131090881F91505040A9F79E3F510580F00C9451
S11310A0A3070C94EE075F3FE4F3983ED4F38695D0
S11310B077956795B795F795E7959F5FC1F7FE2BF1
S11310C0880F911D9695879597F908959F930E948F
S11310D07E080F9007FCEE5F0C94A7089F3F31F049
S11310E0915020F4879577956795B795880F911D52
S11310F09695879597F908950C94A9070E94D307AC
S1131100D8F3E894E0E0BB279F57F0F02AED3FE0E6
S113111049EC06C0EE0FBB0F661F771F881F28F02F
S1131120B23A62077307840728F0B25A620B730B52
S1131130840BE3959A9572F7803830F49A95BB0F37
S1131140661F771F881FD2F790480C947008EF939E
S1131150E0FF07C0A2EA2AED3FE049EC5FEB0E9402
S1131160B2060E94BA070F90039401FC9058E8E677
S1131170F0E00C94BB089F938F937F936F93FF933E
S1131180EF939B01AC010E94F907EF91FF910E943C
S1131190CF082F913F914F915F910C94F907DF9302
S11311A0CF931F930F93FF92EF92DF927B018C01F9
S11311B0689406C0DA2EEF010E940C08FE01E89440
S11311C0A5912591359145915591A6F3EF010E9482
S11311D0B206FE019701A801DA9469F7DF90EF9057
S11311E0FF900F911F91CF91DF910895ECE7F0E00C
S11311F080818F7D80830895811103C00E94F60849
S1131200089580917C00806280937C000895809191
S11312107C0085FB882780F908950E9407098823AC
S113122021F08091790090E0089580917800909168
S1131230790008958032A0F497E890937A00909111
S11312407C00662311F0906C02C09F779064907EBE
S1131250982B90937C0080917A00806480937A002C
S11312600895A0E0B0E0E7E3F9E00C948B16EB01FD
S113127060E00E941A0980917A0086FDFCCF8E01FD
S1131280C12CD12C760180917A00806480937A00FD
S113129080917A0086FDFCCF0E940D09C80ED91EEC
S11312A0E11CF11C015011090115110561F7CE0172
S11312B096958795C034D10538F48C0D9D1DBE01DB
S11312C00E940A16CB010EC0A7019601280F391FF0
S11312D0411D511DCA01B9019E0140E050E00E9428
S11312E01E16C901CDB7DEB7E8E00C94A716CF925D
S11312F0DF92EF92FF92A0910001B09101019C0155
S11313000E945F166B017C010E940709882359F033
S1131310C701B60161587F4F8F4F9F4F2FEF30E0C9
S113132040E050E00AC0C701B60161507E4F8F4FC4
S11313309F4F2FEF33E040E050E00E941E16C9019A
S1131340FF90EF90DF90CF9008950E9431090E94A2
S1131350770908951F93CF93DF930E940709182FED
S11313600E94F6086AE070E086E00E94A509EC019C
S1131370812F0E94FC08CE01880F991F8C0F9D1F9E
S1131380019696958795DF91CF911F9108950E94BC
S1131390AA09089590916701E0916201F0916301B7
S11313A0992311F0849101C080812FEB280F2A31F9
S11313B010F4805E0895803249F49F012F5F3F4FFF
S11313C03093630120936201EF2B31F708951F934B
S11313D0CF93DF930E94CA09C0E0D0E01AE090EDF9
S11313E0980F9A30B8F49E01129FE001139FD00D1C
S11313F01124C80FD11D87FDDA95E0978091620111
S113140090916301019690936301809362010E941D
S1131410CA09E5CFCE01DF91CF911F9108951092B3
S11314206F0083E28093800081E1809381001092B9
S1131430820080E197E29093890080938800109263
S11314408B0010928A00229A789408958F929F922A
S1131450AF92BF92DF92EF92FF920F931F93CF93BD
S1131460DF935C018B01D42E80916401811105C04E
S113147081E0809364010E940F0A10920B01B7FE71
S113148005C0E894B7F82AE0F22E02C0FF24F394D2
S1131490E09081002E2D287FE22E48ECF49EC001BE
S11314A011248A159B05E0F4E50151E1A51657E2E4
S11314B0B50610F0C0E1D7E2BE017695679580E0ED
S11314C090E06058794687469F4F4E01A12CB12C7D
S11314D0A50194010E941E1659018E2D816024C01D
S11314E0C8E2FC9EC02D1124D0E0CA15DB0508F427
S11314F0E501BE01769567959E0140E050E08AE0E3
S1131500F81207C080E090E0605E734481449F4F0E
S113151006C080E090E060537D4E8C4E9F4F0E9449
S11315201E1659018E2D8260882E2AE0F21207C001
S1131530CE0105966AE070E00E940A16EB01C83EEF
S113154043E0D40759F09801DE010E945F1628EEAB
S113155033E040E050E00E944016890110926F0091
S113156080928100B0928900A09288002091880026
S1131570309189004D2D403108F04FE080E190E03A
S1131580841B9109A90102C0569547958A95E2F7F3
S113159050938B0040938A0010936A010093690171
S11315A086B38FEF86BB81E080936F00DF91CF918C
S11315B01F910F91FF90EF90DF90BF90AF909F909D
S11315C08F900895CF93DF93EB018F3F11F041117A
S11315D005C040E0BE0188EE93E043C0813130F0A5
S11315E050EF580F503618F05FE501C050E0852FDA
S11315F06CE00E94FE15682F74EF760390011124AD
S1131600250F311D2C30310540F4F901EE0FFF1F79
S1131610EC5EFE4F2081318102C020E030E0873053
S113162081F0082E02C0220F331F0A94E2F78230A1
S113163028F0C90105966AE070E00CC0C901905811
S11316400CC0C90136E0880F991F3A95E1F702965C
S113165065E070E00E940A16CB01403108F04FE0CB
S1131660BE010E94260ADF91CF910895A2E0B0E066
S1131670ECE3FBE00C94831690900A0180916601E0
S1131680882321F060916501611117C07724739458
S1131690B0ECAB2EBDE5BB2E1AE0612E04E0802E2B
S11316A080EDC82E87E0D82E94E0E92EF12C04EFCB
S11316B011E02FE0422E512C15C070E040E088EE7E
S11316C093E00E94260A1092650117C18636D4F56C
S11316D0813609F4A9C07CF58C3309F460C08E33DB
S11316E081F493940E94CA092091620130916301AC
S11316F02F5F3F4F3093630120936201853631F7AA
S113170052C0813209F08BC080920A01D092090143
S1131710C0920801F0920701E092060110930501BE
S11317200093040150920301409202011092660159
S1131730A4E09A2ED7CF8336A1F10CF478C010E040
S113174082E077C08D36C1F194F4873691F174F15B
S11317508C3609F064C00E94E709BC01909307012C
S113176080930601809108019091090151C082374C
S1131770C9F14CF48F3609F052C00E94E709982E43
S113178080930A01AFCF843781F1863709F047C0CF
S11317900E94E7099093030180930201A3CF9A94D6
S11317A0A1CF10E020C010E084E043C010E085E049
S11317B040C010E087E03DC00E94CA098C3619F48D
S11317C01092660104C07092660110926501209126
S11317D06201309163012F5F3F4F30936301209387
S11317E0620180CF11E080E024C00E94E709BC01BF
S11317F0C5010E940A16669EC001679E900D1124C1
S1131800909309018093080160910601709107018A
S11318100E940A16709305016093040163CF10922D
S113182063011092620169C010E089E002C010E017
S11318308BE0082F9CE0999E000D11240E94CA0998
S1131840982F977F933261F4209162013091630164
S11318502F5F3F4F30936301209362010F5FEECF00
S11318608D3271F420916201309163012F5F3F4FFB
S1131870309363012093620101500E94CA09F0CFA2
S113188060910401709105018153883050F4E09017
S11318900801F09009010E94E709BC01C7010E94F8
S11318A00A167B01F694E79469837A830E94CA0935
S11318B069817A818E3269F42091620130916301E9
S11318C02F5F3F4F30936301209362016E0D7F1DA4
S11318D0E9CF80916601882339F09B0136952795DD
S11318E020936501621B710940910201112311F0DB
S11318F08FEF01C0802F0E94E20A2296E0E10C944F
S11319009F161F920F920FB60F9211242F933F939D
S11319104F935F936F937F938F939F93AF93BF93F3
S1131920EF93FF938091690190916A019C0121508A
S1131930310930936A0120936901892B11F51092C2
S11319406F00789480918100887F8160809381000A
S113195080E197E2909389008093880010928B0035
S113196010928A0081E080930B0180916201909132
S11319706301892B31F080916801811102C00E94BA
S1131980360BFF91EF91BF91AF919F918F917F9112
S11319906F915F914F913F912F910F900FBE0F90D8
S11319A01F90189581E090E06F9364E06A95F1F7D9
S11319B06F910197C9F708950F931F93CF93DF9306
S11319C01AB157985A98289AC0E0D0E00E94D20CD5
S11319D05C9A0E94D20C09B15C980E94D20C5C9A69
S11319E00E94D20C5C98249607FF10C0AE0160E000
S11319F070E080916B0190916C01A0916D01B091A8
S1131A006E01481759076A077B0700F31AB9DF917B
S1131A10CF911F910F91089595B1282F217030E037
S1131A20220F331F482F467068E0469FA0011124FF
S1131A30242B9D7C292B25B99BB188708295807FAE
S1131A409F77892B8BB95C9A0E94D20C5C980E9478
S1131A50D20C0895A0E0B0E0E0E3FDE00C948C1615
S1131A60C82FD62EE42E8091DB01811105C081E0C0
S1131A708093DB010E94730D0E94DC0C14B1D5B17C
S1131A80FAB00BB12898DD2011F05A9A01C05A9887
S1131A9094B1926394B9579A81E0E81629F08C2F97
S1131AA082958F700E940C0D8C2F8F700E940C0DEC
S1131AB0FAB80BB914B9D5B9CDB7DEB7E7E00C94D1
S1131AC0A81642E060E00E942A0D089542E061E019
S1131AD00E942A0D08950E94660D089541E060E079
S1131AE00E942A0D089580E197E2A0E0B0E080937F
S1131AF06B0190936C01A0936D01B0936E01529AA7
S1131B00209A549A8EE190E00E94591083E00E943A
S1131B106E0D86E090E00E94591083E00E946E0DE5
S1131B2082E090E00E94591083E00E946E0D82E0F2
S1131B3090E00E94591082E00E946E0D82E090E0D5
S1131B400E94591088E20E94610D88E00E94610D94
S1131B5081E00E94610D86E00E94610D8CE00E948C
S1131B60610D089581E00E94610D80917101909151
S1131B707201892BF9F060E0A0E2262F30E0709129
S1131B800C0180910D0190E00197789FA001799F4D
S1131B90500D1124241735074CF4E0917101F09194
S1131BA07201E20FF31FA0836F5FE7CF10926F0102
S1131BB01092700108950E94B20D0895CF93DF939F
S1131BC0EC018991882319F00E94660DFACFDF9108
S1131BD0CF9108950E94DE0D0895AAE0B0E0E3EFEE
S1131BE0FDE00C948B161AE05AE0C52ED12CE12CA2
S1131BF0F12C062FA70196010E941E16CA01B901F5
S1131C001150E1E0F0E0EC0FFD1FE10FF11D005D6C
S1131C102AE0629F00191124008361157105810572
S1131C20910539F71A3058F4E1E0F0E0EC0FFD1FAC
S1131C30E10FF11D80810E94660D1F5FF3CF2A968C
S1131C40E8E00C94A716CF92DF92EF92FF926B011B
S1131C507C0197FF0BC0F094E094D094C094C11C15
S1131C60D11CE11CF11C8DE20E94660DC701B60176
S1131C700E94ED0DFF90EF90DF90CF9008950E94A9
S1131C80230E0895A5E0B0E0E8E4FEE00C9490167D
S1131C90182F80E8898380EC8A8384E98B8384ED20
S1131CA08C83FE01E60FF11D8181810F6D830E94FB
S1131CB0610D10936F016D81609370012596E3E0CF
S1131CC00C94AC160E94420E0895883058F491E0AA
S1131CD001C0990F8A95EAF7892FAAE2B0E0EBE2F6
S1131CE0F0E021C08E3060F498EF980F81E001C0DD
S1131CF0880F9A95EAF7A4E2B0E0E5E2F0E013C0B9
S1131D00853160F492EF980F81E001C0880F9A95B5
S1131D10EAF7A7E2B0E0E8E2F0E005C080E0A0E086
S1131D20B0E0E0E0F0E06F3F19F49081982709C03B
S1131D30662319F09081982B04C02081982F9095E8
S1131D40922390839C91982B9C93089583EF809386
S1131D50B00084BD82E08093B10085BD1092B400D0
S1131D601092B30018BC17BC60E086E00E94650EB8
S1131D7060E085E00E94650E60E08BE00E94650EE5
S1131D8060E083E00E94650E08958091DC0181117A
S1131D9005C081E08093DC010E94A60E0895CF93D4
S1131DA0DF93EC010E94C50ED7FF05C0D195C19504
S1131DB0D10981E001C080E0CF3FD10519F014F0D2
S1131DC0CFEFD0E0882319F018BCC7BD02C0C8BD4E
S1131DD017BCDF91CF910895CF93DF93EC010E945C
S1131DE0C50ED7FF05C0D195C195D10981E001C0C9
S1131DF080E0CF3FD10519F014F0CFEFD0E0882375
S1131E0029F01092B400C093B30004C0C093B4008E
S1131E101092B300DF91CF910895CF93DF93EB013C
S1131E200E94CF0ECE010E94EC0EDF91CF91089557
S1131E300E940D0F089584B18D7C84B985B18263AD
S1131E4085B985E090E06F9364E06A95F1F76F914E
S1131E500197C9F708958091DD01811105C081E0E2
S1131E608093DD010E941B0F0895CF93C82F0E9419
S1131E702B0F83B18C23E9F38AE090E00E94591080
S1131E8083B18C23B1F383B18C23CF9108950E9445
S1131E90350F0895A1E0B0E0E0E5FFE00C94911661
S1131EA089830E942B0F93B1909589818923219670
S1131EB0E2E00C94AD160E944A0F0895282F30E0FA
S1131EC09AE0899FF0011124ED58FE4F8085918599
S1131ED0009721F052814481541780F08AE0829F58
S1131EE0F001839FF00D1124ED58FE4F92818481FF
S1131EF098130EC0858181110AC008954281DC01C6
S1131F00A40FB11D6C9382818F5F8283E7CF12820D
S1131F1008951F920F920FB60F9211242F933F939F
S1131F204F935F936F937F938F939F93AF93BF93DD
S1131F30EF93FF936091C60080E00E945E0FFF91D3
S1131F40EF91BF91AF919F918F917F916F915F912D
S1131F504F913F912F910F900FBE0F901F901895A6
S1131F609AE0899FF0011124ED58FE4F86819781F4
S1131F70892B59F091818381981738F480818111DC
S1131F8004C08091C100806203C08091C1008F7D34
S1131F908093C10008959AE0899FF0011124ED58BF
S1131FA0FE4F268137812115310541F0418193810E
S1131FB0491720F49091C00095FD03C00E94B00F12
S1131FC008959181D901A90FB11D9C919093C600E8
S1131FD091819F5F9183F2CF1F920F920FB60F9260
S1131FE011242F933F934F935F936F937F938F931A
S1131FF09F93AF93BF93EF93FF9380E00E94CB0F27
S1132000FF91EF91BF91AF919F918F917F916F91CC
S11320105F914F913F912F910F900FBE0F901F90A2
S113202018952F928F939F932FB68091840190914E
S113203085010196809384019093850190E08091BD
S11320408601891F8093860190917E019C5F909305
S11320507E0180917D0180519742C0F090937E0172
S113206080937D0180917F019091800101968093FE
S11320707F019093800190E080918101891F80937A
S1132080810180918201891F809382012FBE9F91DB
S11320908F912F90189528EE33E0019748F0F901BD
S11320A06F9364E06A95F1F76F913197C9F7F5CFB3
S11320B008950E944B100895E0E7F0E080818E7F40
S11320C08083A0EBB0E08C9183608C93A1EBB0E0B3
S11320D08C91807F8C938C9182608C93B89A808150
S11320E081608083789408958091DE01811105C018
S11320F081E08093DE010E945C1008950E947410B8
S1132100E0E7F0E080818E7F808360917F017091B1
S1132110800180918101909182012081216020833E
S113212008950E947E1008950E947410E0E7F0E084
S113213080818E7F808310927F01109280011092A3
S113214081011092820110927E0110927D018081A2
S1132150816080830895462FBC0187E891E00E9446
S11321603C130895682F87E891E00E949A1408951B
S1132170462F20E0BC0187E891E00E946B1508958A
S11321800F93CF93DF9300D000D01F92CDB7DEB76B
S11321909C0185E0ECE2F1E0DE01119601900D92E4
S11321A08A95E1F7662311F00FEF01C003E145E0E2
S11321B0BE016F5F7F4F87E891E00E94921187E82C
S11321C091E00E9469110E9494100F900F900F905B
S11321D00F900F90DF91CF910F91089560E00E94CE
S11321E0C010089587E891E00E94E01508956F9368
S11321F064E06A95F1F76F910197C9F70895FC01BE
S1132200118210821382128215821482168268301F
S113221068F489E290E0918380838BE290E0938379
S113222082838AE290E0958384831FC06E3070F4C9
S113223083E290E09183808385E290E093838283BC
S113224084E290E09583848368500FC0653198F4EC
S113225086E290E09183808388E290E09383828396
S113226087E290E0958384836E5081E001C0880FFB
S11322706A95EAF786830895A7E0B0E0E2E4F1E125
S11322800C948F168C01FC0111821082138212822D
S11322901582148217821682613118F080E18087DA
S11322A002C0FC016087F801208B642FCE010196E7
S11322B00E94FF108F81F80181878B819C81938715
S11322C082878D819E81958784872796E4E00C948C
S11322D0AB16FC01A485B585109779F08C91918596
S11322E0892B8C93A285B3859C91818580958923C4
S11322F08C9388EC90E00E94F7100895FC01A4856B
S1132300B585109771F08C919185892B8C93A2855A
S1132310B3858C919185892B8C9388EC90E00E94F5
S1132320F7100895A7E0B0E0E8E9F1E10C94841611
S11323307C014B01642F3901402F20E00E943C11A5
S113234087010F5B1F4FF80110826701F2E4CF0E83
S1132350D11CF60110825701F3E4AF0EB11CF50154
S11323601082F70177866686512CF701808558160E
S113237050F5652C712CF401E60DF71D6081CE013A
S113238001960E94FF102F81F701E60DF71D218BA6
S113239089819A81F301EE0FFF1FEE0DFF1D92A3B9
S11323A081A38332910511F4F80108C086329105A6
S11323B011F4F60103C0899721F4F5018081822B81
S11323C080835394D2CF2796EFE00C94A016A0E01C
S11323D0B0E0EDEEF1E10C948616EC015B016C01CA
S11323E081E4C80ED11CF60180807E01F2E4EF0E78
S11323F0F11CF70170808E010D5B1F4FF801908076
S113240080E09885891748F4F501E80FF11DE80F7D
S1132410F11D118210828F5FF4CF84B1F601908197
S1132420892B84B987B1F7019081892B87B98AB147
S1132430F8019081892B8AB985B1F6019081892BA5
S113244085B988B1F7019081892B88B98BB1F801DE
S11324509081892B8BB98AE090E00E94F71094B1A7
S1132460F60180818095892384B997B1F701808131
S11324708095892387B99AB1F80180818095892351
S11324808AB995B1F60180818095892385B998B17F
S1132490F70180818095892388B99BB1F8018081F7
S11324A0809589238BB9E090B000D090B1008091E1
S11324B0B00083608093B00082E08093B1004091CB
S11324C0B20080E090E02E853F858217930720F5C7
S11324D0C090B2002C2D241B820F911D03B1081152
S11324E032C0F6B0F7102FC029B129112CC010C08A
S11324F0212F30E0A901440F551FF501E40FF51F0A
S113250060817181672B21F11F5F2885121780F389
S11325107F2C802E4C2DD7CFE092B000D092B1000A
S113252020E08885281730F5F501E20FF11DE20F50
S1132530F11D80819181892B21F48E859F85918362
S113254080832F5FEECF03B1F6B099B010E0DDCFFA
S1132550DE01A40FB51F91960D90BC91A02D4C9156
S1132560DE01A20FB31F51962C91422369F6918389
S11325708083CACFCDB7DEB7EDE00C94A216EF92FC
S1132580FF920F931F93CF93DF93FC019B01F09075
S11325907C0000917A0047B118B180917A0086FDE1
S11325A0FCCF80E09085891748F4D901A80FB11DAC
S11325B0A80FB11D1D921C928F5FF4CF97B182A119
S11325C08095892387B998B182A18095892388B998
S11325D087E880937A00E12C81A1E81610F0E12CC1
S11325E029C050E08085581718F5A52FB0E0EF01F9
S11325F0CA0FDB1F8989806480937C0080917A00F4
S1132600806480937A0080917A0086FDFCCF60918B
S1132610780070917900AA0FBB1FA20FB31F8D9190
S11326209C911197860F971F8D939C935F5FDACFD0
S1132630E394D2CF8085E816A0F4E901CE0DD11D34
S1132640CE0DD11D61A170E0CB0195958795A88130
S1132650B9818A0F9B1F0E940A1679836883E394C9
S1132660E9CFF0927C0000937A0018B947B9CDB74E
S1132670DEB7E6E00C94A916A0E2B0E0E2E4F3E1F0
S11326800C948C168C017B01D42E8FEF840F823036
S113269018F4C8010E947E11D80150968C91B7019C
S11326A0811110C0C8010E94E711C8010E9469117C
S11326B0B2E0DB123AC0BE016F5F7F4FC8010E94D7
S11326C0E7110FC0C8010E94BF12C8010E9469111E
S11326D0E2E0DE122AC0BE016F5F7F4FC8010E9494
S11326E0BF1240E0F80180854817F8F4842F90E089
S11326F0880F991FF701E80FF91F21E030E02C0F34
S11327003D1F820F931FD8011E962D913C911F9758
S1132710DC018D919C91281B390B80819181820F62
S1132720931F918380834F5FDDCFA096E7E00C94E5
S1132730A8162F923F925F926F927F928F929F92F0
S1132740AF92BF92CF92DF92EF92FF920F931F93BB
S1132750CF93DF93CDB7DEB7C056D1090FB6F89447
S1132760DEBF0FBECDBF8C014B015A01522EDA01E0
S11327708D919C91892B31F0F40180819181892B79
S1132780F1F424C0D80118968C9190E0880F991F19
S11327900E94BE16F50191838083009709F4B1C0AD
S11327A0FC0120E030E0D80118968C9190E02817C5
S11327B0390714F7119211922F5F3F4FF4CFE12C98
S11327C0F12C6E01B1E2CB0ED11C21C0F801808541
S11327D090E0880F991F0E94BE16D4018D939C939C
S11327E0009709F48EC0FC0120E030E0D80118966F
S11327F08C9190E02817390714F7D8011E968D9113
S11328009C911F97819391932F5F3F4FEFCF452D5D
S1132810BE016F5B7F4FC8010E943C13F8016084C6
S1132820712CFE01EF5BFF4FC6019E012F5F3F4FEE
S1132830190120E030E0261537054CF5E114F104C8
S113284089F0DC016D917C91408151816417750799
S113285048F0D1016D917C91408151814617570711
S113286048F00DC040815181DC014D935C93E1142B
S1132870F10479F740815181D1014D935C932F5F2D
S11328803F4FB2E02B0E311C32960296D4CFEFEFBD
S1132890EE1AFE0AFAE0EF16F10409F0B8CF9E0131
S11328A02F5F3F4F7901360180E090E0F8012085E9
S11328B030E0821793072CF5D7012D913D917D01CE
S11328C0B3016C197D09D501ED91FC91E60FF71F59
S11328D0408151814217530710F431832083F3015F
S11328E0219131913F01D401ED91FC91E60FF71F45
S11328F0408151812417350710F4318320830196D8
S1132900D5CFC05ADF4F0FB6F894DEBF0FBECDBF90
S1132910DF91CF911F910F91FF90EF90DF90CF90B7
S1132920BF90AF909F908F907F906F905F903F90FB
S11329302F9008951F93CF93DF93EC01162F8FEF01
S1132940860F823018F0662359F014C021E0AE01DE
S11329504E5F5F4FBE01CE010E949913123051F4B5
S1132960AE014A5F5F4FBE016C5F7F4F20E0CE0136
S11329700E949913DF91CF911F910895A0E0B0E0D8
S1132980E4ECF4E10C948A16EC018B01B42E842F50
S11329908D7F51F48C819D81892B09F497C08E81A0
S11329A09F81892B09F492C08FEF8B0D823050F4F4
S11329B088819981892B09F489C08A819B81892B1B
S11329C009F484C04B2DB801CE010E943C13780158
S11329D000E010E0C12CD12C888590E0C816D906FF
S11329E00CF074C081E0B8120AC0EA81FB81E00FE8
S11329F0F11F0190F081E02DA881B9810DC08C8177
S1132A009D812E813F81B1100CC0F901E00FF11FAF
S1132A100190F081E02DDC01A00FB11F8D919C91FC
S1132A2028C0FC01E00FF11F40815181E881F98148
S1132A30E00FF11F80819181EE85FF8548175907CA
S1132A4010F4CF0104C08E0F9F1F841B950BD90176
S1132A50A00FB11F2D913C91AA81BB81A00FB11F82
S1132A604D915C912417350720F0E40FF51FE21B0C
S1132A70F30BE81BF90BA9F0D7012D913C9140E031
S1132A8050E0281B390B41095109A8EEB3E00E941C
S1132A906E169F0140E050E00E94401637FD0AC0C8
S1132AA002C020E030E0293EB3E03B072CF028EEE2
S1132AB033E002C020E030E0F701219331937F013D
S1132AC0FFEFCF1ADF0A0E5F1F4F86CFCDB7DEB7F9
S1132AD0E9E00C94A616A0E0B0E0E1E7F5E10C947F
S1132AE08116EC018B01822E0E94BE142884E80119
S1132AF0412C512C320100E010E0C12CD12C760184
S1132B00312C912C58EEA52E53E0B52E921421F1C0
S1132B10E991F991882021F0C5018E1B9F0BFC01DE
S1132B20E93CF10524F4E333F10574F002C03324E5
S1132B303394DF01A30192010E947916C60ED71EB9
S1132B40E81EF91E0E0F1F1F939498EE490E93E092
S1132B50591E611C711CDACF31101EC0492D50E082
S1132B604150510924EF31E0429FC001439F900D31
S1132B70529F900D11242091CB013091CC01281744
S1132B803907B4F088EE93E0489F9001499F300DD7
S1132B90589F300D11240EC0980140E050E0C70149
S1132BA0B6010E941E163093CC012093CB0102C0C3
S1132BB020E030E0C901CDB7DEB7E2E10C949D1608
S1132BC0CF93DF93EC018A819B81009711F00E94DF
S1132BD056178E819F81009711F00E9456178881A5
S1132BE09981009711F00E9456178C819D8100975E
S1132BF011F00E945617DF91CF910895991B79E047
S1132C0004C0991F961708F0961B881F7A95C9F778
S1132C1080950895AA1BBB1B51E107C0AA1FBB1FC7
S1132C20A617B70710F0A61BB70B881F991F5A9554
S1132C30A9F780959095BC01CD010895A1E21A2EC3
S1132C40AA1BBB1BFD010DC0AA1FBB1FEE1FFF1F4C
S1132C50A217B307E407F50720F0A21BB30BE40B9C
S1132C60F50B661F771F881F991F1A9469F76095E3
S1132C707095809590959B01AC01BD01CF0108959D
S1132C80052E97FB1EF400940E94571657FD07D09B
S1132C900E941E1607FC03D04EF40C945716509550
S1132CA04095309521953F4F4F4F5F4F0895909534
S1132CB08095709561957F4F8F4F9F4F0895A29F88
S1132CC0B001B39FC001A39F700D811D1124911DFC
S1132CD0B29F700D811D1124911D08950E945F16ED
S1132CE0A59F900DB49F900DA49F800D911D11245C
S1132CF00895B7FF0C946E160E946E16821B930BF8
S1132D0008952F923F924F925F926F927F928F928B
S1132D109F92AF92BF92CF92DF92EF92FF920F9366
S1132D201F93CF93DF93CDB7DEB7CA1BDB0B0FB670
S1132D30F894DEBF0FBECDBF09942A88398848882D
S1132D405F846E847D848C849B84AA84B984C884C3
S1132D50DF80EE80FD800C811B81AA81B981CE0FBA
S1132D60D11D0FB6F894DEBF0FBECDBFED0108959F
S1132D70EE0FFF1F0590F491E02D09940F931F931C
S1132D80CF93DF938230910510F482E090E0E091DC
S1132D904302F091440220E030E0A0E0B0E030973C
S1132DA019F1408151810281138148175907C8F0F4
S1132DB08417950769F4109731F012960C931297C3
S1132DC013961C9327C0009343021093440222C01D
S1132DD02115310519F04217530718F49A01BD0162
S1132DE0EF01DF01F801DBCF21153105F9F0281BD4
S1132DF0390B2430310580F48A819B81611571057A
S1132E0021F0FB019383828304C090934402809356
S1132E104302FE01329644C0FE01E20FF31F819388
S1132E20919322503109398328833AC02091410279
S1132E3030914202232B41F4209110013091110171
S1132E40309342022093410220910E0130910F01F0
S1132E502115310541F42DB73EB74091120150912F
S1132E601301241B350BE0914102F0914202E21759
S1132E70F307A0F42E1B3F0B2817390778F0AC0199
S1132E804E5F5F4F2417350748F04E0F5F1F509376
S1132E904202409341028193919302C0E0E0F0E04A
S1132EA0CF01DF91CF911F910F910895CF93DF93BD
S1132EB0009709F481C0FC01329713821282A09119
S1132EC04302B0914402109781F420813181820F32
S1132ED0931F20914102309142022817390751F57E
S1132EE0F0934202E093410267C0ED0120E030E03C
S1132EF0CE17DF0740F44A815B819E0141155105DD
S1132F00F1F0EA01F5CFD383C28340815181840F6C
S1132F10951FC817D90759F488819981840F951F83
S1132F200296918380838A819B8193838283211576
S1132F30310529F4F0934402E09343023DC0E901D2
S1132F40FB83EA8349915991C40FD51FEC17FD0700
S1132F5061F480819181840F951F0296E901998320
S1132F608883828193819B838A83E0E0F0E01296D8
S1132F708D919C911397009719F0FD01DC01F7CF17
S1132F808D919C9111979D012E5F3F4F820F931F4E
S1132F9020914102309142022817390769F4309791
S1132FA029F4109244021092430202C01382128246
S1132FB0B0934202A0934102DF91CF91089510E0B3
S1132FC0C3E4D0E004C0FE010E94B8162196C434C4
S10B2FD0D107C9F7F894FFCF03
S1132FD888130F00F4010400D0070401080200005C
S1132FE8450220009C01B501CF01EA01070226022F
S1132FF8470269028E02B502DE020A030E0F10119F
S1133008126D56006472756B204200202000476FD1
S113301821006472756B206F700042206B6E6F70B4
S113302800646963687462696A0068656565656CEB
S1053038000092
S9030000FC
