:100000000C945D000C947A000C947A000C947A00A5
:100010000C947A000C947A000C947A000C947A0078
:100020000C947A000C94D2130C947A000C947A00FD
:100030000C947A000C9434100C947A000C947A008E
:100040000C947A000C947A000C944A130C94AD131F
:100050000C947A000C947A000C947A000C947A0038
:100060000C947A000C947A0005A84CCDB2D44EB909
:100070003836A9020C50B9918688083CA6AAAA2A4B
:10008000BE000000803F3E6733323E3E63333200A5
:100090003E6633323E3E613332003E6633323E3E90
:1000A000613332003E6733323E3E633332003E6797
:1000B00033323E3E63333200B31411241FBECFEF00
:1000C000D8E0DEBFCDBF11E0A0E0B1E0E2E8F7E3A9
:1000D00002C005900D92A638B107D9F722E0A6E834
:1000E000B1E001C01D92AE36B207E1F70E94B10344
:1000F0000C94B41B0C940000CF92DF92EF92FF920D
:100100000F931F93FB010081118122813381FC0138
:10011000C080D180E280F380FB01C082D182E28284
:10012000F382FC0100831183228333831F910F919B
:10013000FF90EF90DF90CF9008952F923F924F92D3
:100140005F926F927F928F929F92AF92BF92CF9267
:10015000DF92EF92FF920F931F93CF93DF93CDB770
:10016000DEB7A5970FB6F894DEBF0FBECDBF9BA339
:100170008AA36CA37DA3069698A38F8FB6C07E8EAC
:100180006D8EF3010190F081E02DFA8FE98FBF01B0
:10019000FF0F880B990B0E949D0A6B017C013C8E1E
:1001A0002B8EF10100811181B801012E000C880B0A
:1001B000990B0E949D0A4B015C019B01AC010E94BE
:1001C000520B698B7A8B8B8B9C8BA5019401C5019B
:1001D000B4010E94520B4B015C01A7019601C701BB
:1001E000B6010E94520B9B01AC01C501B4010E94F3
:1001F000F4090E94CD0B6B017C01F20161937193B4
:10020000819391932F01E98B59A280809180A280E4
:10021000B380A50194010E944D0B1816D4F4B201CD
:100220008D899E890E947C00F301828193812081C7
:1002300031813383228391838083F1018281938191
:100240002081318133832283918380831F8A188E9A
:1002500036C0C701B6010E94650A7B01C501B40121
:100260000E94650AE616F70651F5EB8DFC8D82813A
:1002700093810817190719F5ED8DFE8D8281938101
:10028000298D3A8D28173907D4F4698979A18D8988
:100290009E890E947C00ED8DFE8D8281938120815C
:1002A00031813383228391838083EB8DFC8D828126
:1002B0009381208131813383228391838083F2E093
:1002C0006F0E711C22E0220E311C8D899E890496CE
:1002D0009E8B8D8BEF8DF8A16E167F0609F04FCFA8
:1002E0002F89388D2130310569F06AA07BA02CA0C0
:1002F0003DA0CE0101962C019E8B8D8B91E09F8BB2
:10030000188E3DCFA5960FB6F894DEBF0FBECDBFB9
:10031000DF91CF911F910F91FF90EF90DF90CF90E1
:10032000BF90AF909F908F907F906F905F904F9015
:100330003F902F900895FC0142E050E051834083AC
:1003400083E090E0938382835583448325E030E00B
:100350003783268361E070E07187608773876287E7
:1003600035872487918B808B938B828B358B248B65
:10037000918F808F738F628F558F448F378F268F29
:1003800091A380A353A342A395A384A337A326A339
:100390000895CF93DF93CDB7DEB760970FB6F8948B
:1003A000DEBF0FBECDBF90E1E4E1F1E0DE011196CA
:1003B00001900D929A95E1F7E1E0F0E0EC0FFD1F5E
:1003C00094E0899FE00DF11D1124E60FF11D80815D
:1003D000813021F0F8F0823079F032C02AE939E931
:1003E00049E95EE362E586E490E00E94F10384EF70
:1003F00091E00E941A1424C02AE939E949E95EE330
:100400006CE486E490E00E94F10384EF91E00E94A6
:100410001A1416C02AE939E949E95EE362E586E47F
:1004200090E00E94F1032AE939E949E95EE362E5D7
:1004300086E490E00E94F10384EF91E00E941A1498
:1004400060960FB6F894DEBF0FBECDBFDF91CF919F
:100450000895892B31F010923702109236021092D3
:10046000050280913602909137028617970734F47F
:100470006091050281E00E94C90108956091050222
:1004800083E00E94C9010895892B31F01092350252
:10049000109234021092050280913402909135023C
:1004A0008617970734F46091050280E00E94C90125
:1004B00008956091050282E00E94C90108958F921B
:1004C0009F92AF92BF92CF92DF92EF92FF920F93E3
:1004D0001F93CF93DF936B01CC0CDD1CCC0CDD1C88
:1004E000CC0CDD1CC80ED91EE12CF12CA12CB12C9A
:1004F000CFEFD1E088248394912C0E94FC08E9EF8F
:10050000F1E000E010E081919191019711F40F5F0B
:100510001F4FCE17DF07B9F70E94B6080E948D095A
:100520000E94FC08892B49F3023011050CF472C0BB
:10053000599A519A0E94FC08892B09F45CC0F50174
:10054000EE0FFF1FEC0DFD1D808191818230910522
:10055000F9F01CF4019739F04CC08330910549F152
:100560000597C1F146C086E990E00E941A142AE975
:1005700039E949E95EE362E586E490E00E94F1032F
:100580008FEFA81AB80A81E591E00E94AB1131C043
:100590002AE939E949E95EE36CE486E490E00E94E7
:1005A000F1038FEFA81AB80A81E591E00E94AB1120
:1005B00020C02AE037ED43E65FE366E48CE390E099
:1005C0000E94F1038FEFA81AB80A83E591E00E9418
:1005D000AB110FC02AE037ED43E65FE366E480E04D
:1005E00090E00E94F10386E890E00E949310E82CCE
:1005F000F92C0E949C1181E0E816F10409F07DCFEE
:100600002AE037ED43E65FE366E480E090E00E9495
:10061000F10303C00E94FC08EECFDF91CF911F9140
:100620000F91FF90EF90DF90CF90BF90AF909F9091
:100630008F900895AF92BF92CF92DF92EF92FF9288
:100640000F931F93CF93DF935C01D62FC72FCA015F
:1006500060E070E00E945F0202C00E94B6080E9443
:10066000FC08892BD1F37501CD2EDC2E88E0A80E75
:10067000B11C55C00E94FC08892B91F168817981D9
:1006800080913602909137026817790729F481E04A
:1006900090E00E94290207C0F8016081718181E029
:1006A00090E00E9444022881398180913602909125
:1006B000370228173907A1F4F80120813181809190
:1006C0003402909135022817390751F480E990E0FF
:1006D0000E94931084EF91E00E941A140E949C11D2
:1006E0000E94B608288139818091360290913702A4
:1006F0002817390759F0F80120813181809134029F
:10070000909135022817390709F0B4CFF2E0EF0EC7
:10071000F11C82E0C80ED11CEA14FB04B9F0E70119
:100720002881398180913602909137022817390744
:1007300069F38601F6012081318180913402909124
:1007400035022817390709F095CFE0CFDF91CF9117
:100750001F910F91FF90EF90DF90CF90BF90AF90DF
:100760000895CF93DF93CDB7DEB7E0970FB6F89437
:10077000DEBF0FBECDBF0E943E08CE0101960E9493
:100780009B0188E0E4E2F1E0DE01919601900D9298
:100790008A95E1F788E0ECE2F1E0DE0199960190BC
:1007A0000D928A95E1F7BE01675D7F4FCE0181967C
:1007B0000E949D00AE014F5F5F4FBE01675D7F4F9E
:1007C000CE0181960E941A030E949C1180E090E065
:1007D000E0960FB6F894DEBF0FBECDBFDF91CF918C
:1007E00008952F923F924F925F926F927F928F92D5
:1007F0009F92AF92BF92CF92DF92EF92FF920F93B0
:100800001F93CF93DF93CDB7DEB766970FB6F894FB
:10081000DEBF0FBECDBF1C0129833A834B835C83AF
:10082000663461F020F4623409F495C008C46C3475
:1008300009F4A9C2623509F41BC101C48091F70112
:100840009091F8019101281B390B45E650E05A8739
:100850004987412C512C3201032E000C440B550BBF
:100860002D833E834F8358870E9452148B012BEDBA
:100870003FE049EC50E4C301B2010E94520B0E94D8
:10088000BF0B23E839EF42E25EE30E94520B9B016B
:10089000AC01C301B2010E94F3094B015C016D81FF
:1008A0007E818F8198850E949D0A9B01AC01C501C4
:1008B000B4010E94520B4B015C016091F7017091F1
:1008C000F801072E000C880B990B0E949D0A9B01D2
:1008D000AC01C501B4010E94F4090E94650ADC0163
:1008E000CB01BC010E94D9124801110FAA08BB0814
:1008F0000E945214681979098A099B090E949B0A6F
:100900006B017C0120E030E040E251E469817A81B2
:100910008B819C810E94520B9B01AC01C701B601E7
:100920000E94600A882324F32AE037ED43E25CE367
:10093000C301B2010E94F4092B013C01A985BA85CB
:100940001197BA87A987AB2B09F08ECF3092F801A7
:100950002092F7017AC38091F7019091F8019101FB
:10096000281B390B45E650E05A874987412C512C0A
:100970003201032E000C440B550B2D833E834F8315
:1009800058870E9452148B012BED3FE049EC50E454
:10099000C301B2010E94520B0E94BF0B23E839EF42
:1009A00042E25EE30E94520B9B01AC01C301B20123
:1009B0000E94F3094B015C016D817E818F819885D6
:1009C0000E949D0A9B01AC01C501B4010E94520B1B
:1009D0004B015C016091F7017091F801072E000C4A
:1009E000880B990B0E949D0A9B01AC01C501B401C3
:1009F0000E94F4090E94650ADC01CB01BC010E943F
:100A0000D9124801110FAA08BB080E945214681994
:100A100079098A099B090E949B0A6B017C0120E0ED
:100A200030E040E251E469817A818B819C810E94AF
:100A3000520B9B01AC01C701B6010E94600A8823DA
:100A400024F32AE037ED43E25CE3C301B2010E94E4
:100A5000F4092B013C01A985BA851197BA87A987AA
:100A6000AB2B09F08ECF3092F8012092F701EDC246
:100A70008091F5019091F601820D931D2091F30173
:100A80003091F401A101421B530B9A0105E610E0DD
:100A90001D821E821F821886AC01990F660B770B90
:100AA0004D875E876F87788BB901330F880B990B61
:100AB000698B7A8B8B8B9C8B0E9452147E8B6D8BF7
:100AC0006091F7017091F801072E000C880B990BCB
:100AD0000E949D0A69877A878B879C872BED3FE070
:100AE00049EC50E46D817E818F8198850E94520B84
:100AF0000E94BF0B23E839EF42E25EE30E94520BF3
:100B00002D813E814F8158850E94F4094B015C0183
:100B10006091F5017091F601072E000C880B990B7E
:100B20000E949D0A2B013C016D857E858F859889E9
:100B30000E949D0AA50194010E94520B9B01AC01E9
:100B4000C301B2010E94F30929853A854B855C8572
:100B50000E94F4090E94650A2B013C016091F30197
:100B60007091F401072E000C880B990B0E949D0ACE
:100B70006B017C0169897A898B899C890E949D0A15
:100B8000A50194010E94520B9B01AC01C701B60163
:100B90000E94F40929853A854B855C850E94F409F9
:100BA0000E94650ADC01CB01B2010E94D9128D8935
:100BB0009E894C01990FAA08BB080E9452146B0130
:100BC0007C0120E030E040E251E469817A818B8150
:100BD0009C810E94520B2B013C01C701B601681990
:100BE00079098A099B090E949B0AA30192010E942C
:100BF000600A882314F32AE037ED43E25CE36D8159
:100C00007E818F8198850E94F4096D837E838F8316
:100C100098870150110909F04FCF88279927821929
:100C200093099093F6018093F5013092F40120929C
:100C3000F30105E610E019821A821B821C829C01D6
:100C4000990F440B550B29873A874B875C87C12C3A
:100C5000D12C76010E9452147E876D876091F70136
:100C60007091F801072E000C880B990B0E949D0AC9
:100C700069837A838B839C832BED3FE049EC50E4BE
:100C8000C701B6010E94520B0E94BF0B23E839EF47
:100C900042E25EE30E94520BA70196010E94F40912
:100CA0004B015C0169857A858B859C850E949D0A34
:100CB0009B01AC01C501B4010E94520B4B015C01C8
:100CC0006091F5017091F601072E000C880B990BCD
:100CD0000E949D0AA50194010E94F30929813A818D
:100CE0004B815C810E94F4090E94650A6D837E83BA
:100CF0008F8398876091F3017091F401072E000CA7
:100D0000880B990B0E949D0AA50194010E94F40989
:100D100029813A814B815C810E94F4090E94650A15
:100D2000DC01CB016D817E810E94D9124D855E85EB
:100D30004A01550FAA08BB080E9452146819790984
:100D40008A099B090E949B0A9B01AC01C301B20165
:100D50000E944D0B181684F32AE037ED43E25CE362
:100D6000C701B6010E94F4096B017C010150110911
:100D700009F070CF1092F6011092F5011092F40173
:100D80001092F30162C18091F5019091F6019101F9
:100D9000281B390B8091F3019091F401820D931D72
:100DA00065E670E07A8B698B1D821E821F82188631
:100DB000A901330F660B770B49875A876B877C87AE
:100DC0009C01990F440B550B2D873E874F87588BFD
:100DD0000E9452148B012BED3FE049EC50E46D81F1
:100DE0007E818F8198850E94520B0E94BF0B23E861
:100DF00039EF42E25EE30E94520B2D813E814F812A
:100E000058850E94F4096B017C016091F501709195
:100E1000F601072E000C880B990B0E949D0A4B01CE
:100E20005C0169857A858B859C850E949D0AA70156
:100E300096010E94520B9B01AC01C501B4010E94B6
:100E4000F4090E94650A4B015C016091F301709105
:100E5000F401072E000C880B990B0E949D0A2B01B0
:100E60003C016D857E858F8598890E949D0AA7012A
:100E700096010E94520B9B01AC01C301B2010E947A
:100E8000F3090E94650ADC01CB01B4010E94D9126A
:100E90004801110FAA08BB080E9452142B013C0103
:100EA00020E030E040E251E469817A818B819C81CD
:100EB0000E94520B6B017C01C301B20168197909D0
:100EC0008A099B090E949B0AA70196010E94600A59
:100ED000882314F32AE037ED43E25CE36D817E81E1
:100EE0008F8198850E94F4096D837E838F83988714
:100EF000A989BA891197BA8BA98BAB2B09F068CF56
:100F00003092F6012092F50131942194310830920B
:100F1000F4012092F30125E630E019821A821B8247
:100F20001C82A101330C660B770B4D835E836F83AC
:100F300078873A872987812C912C54010E9452147A
:100F40008B012BED3FE049EC50E4C501B4010E9458
:100F5000520B0E94BF0B23E839EF42E25EE30E948E
:100F6000520BA50194010E94F4092B013C016D81F3
:100F70007E818F8198850E949D0A9B01AC01C301EF
:100F8000B2010E94520B2B013C016091F50170915E
:100F9000F601072E000C880B990B0E949D0AA301F5
:100FA00092010E94F4090E94650A69837A838B8307
:100FB0009C836091F3017091F401072E000C880B63
:100FC000990B0E949D0AA30192010E94F3090E94BD
:100FD000650ADC01CB0169817A810E94D91228015E
:100FE000110F660877080E94521464197509860962
:100FF00097090E949B0A9B01AC01C701B6010E94A0
:101000004D0B181684F32AE037ED43E25CE3C5018B
:10101000B4010E94F4094B015C0169857A85615035
:1010200071097A876987672B09F088CF1092F601DA
:101030001092F5011092F4011092F30106C060E0E5
:1010400070E080E090E00E94D91266960FB6F894A6
:10105000DEBF0FBECDBFDF91CF911F910F91FF90EB
:10106000EF90DF90CF90BF90AF909F908F907F9048
:101070006F905F904F903F902F900895CF93DF93A4
:1010800080ED97E00E94AF141BC00E947A0DEC0126
:101090000E949C11BE01DD0F880B990B0E9400126B
:1010A00085E591E00E94AB1161E080E00E9423128F
:1010B00088E591E00E94AB1184E690E00E941A144A
:1010C00080E10E941C13882301F380E10E94081331
:1010D00088EE93E00E941A14CCEEDFEFC832D105FF
:1010E00038F068ED7FEF88E290E00E94D91206C0E8
:1010F00068E270E088ED9FEF0E94D91281E00E94C3
:10110000731484E190E00E941A142196CC33D10527
:1011100029F760E070E080E090E00E94D91215C0ED
:1011200061E080E692E00E947914EC010E949C113B
:101130008FE591E00E94AB11BE0180E090E00E943B
:10114000001284E690E00E941A1480E10E941C13B1
:10115000882331F380E10E9408130E949C1182E6EB
:1011600091E00E94AB11DF91CF910895CF93DF936F
:1011700061E080E692E00E947914EC0161E080E693
:1011800092E00E946C140E949C11CE3987E0D8072F
:1011900098F45F9A579AC830D74038F46CE370E0FF
:1011A00080E090E00E94D91224C06CE370E087E3F5
:1011B00090E00E94D9121DC0C33088E0D80798F093
:1011C000599A519AC939D84038F060E070E08CE300
:1011D00090E00E94D9120DC067E370E081E490E0D6
:1011E0000E94D91206C067E370E087E390E00E9496
:1011F000D912DF91CF9108950F931F93CF93DF936F
:101200008EEA90E00E949310E9EFF1E011821082E3
:10121000138212821582148261E080E692E00E94BD
:101220006C1480916002909161028D3D954048F070
:1012300081E090E09093FA018093F901C1E0D0E061
:1012400002C0C0E0D0E080916402909165028D3DC3
:10125000954040F081E090E09093FC018093FB0189
:10126000C2E0D0E080916802909169028D3D954086
:1012700040F081E090E09093FE018093FD01C3E097
:10128000D0E0BE010D2E000C880B990B0E940012BD
:1012900061E080E00E94231209EF11E0F801608113
:1012A0007181072E000C880B990B0E940012F80127
:1012B00062817381072E000C880B990B0E9400122B
:1012C000F80164817581072E000C880B990B0E9430
:1012D00000120E949C11CE01DF91CF911F910F91BE
:1012E000089512C00E949C1186E691E00E94AB1105
:1012F00061E080E00E9423128EE691E00E94AB1133
:1013000084E690E00E941A1480E10E941C13882356
:1013100049F380E10E940813089585E00E94E10CE2
:10132000909304028093030287E00E94E10C9C01E9
:101330009093090280930802609103027091040265
:101340006B507109ECE1F8E0CF010E94DF19709356
:10135000070260930602B9016B507109CF010E9428
:10136000DF1970930B0260930A020E949C11809116
:101370000602909107029C012B503109293031055A
:1013800078F40E949C1184EA90E00E94931085E713
:1013900091E00E94AB1188EC90E00E941A1420C0EA
:1013A00001970997E8F40E949C118AE990E00E9455
:1013B00093108EE791E00E94AB1161E080E00E9403
:1013C000231285E791E00E94AB112AE037ED43E656
:1013D0005FE366E480E090E00E94F1030E947109FF
:1013E00080E090E008955058BB27AA270E940B0A7E
:1013F0000C94130B0E94050B38F00E940C0B20F08C
:1014000039F49F3F19F426F40C94020B0EF4E09586
:10141000E7FB0C94FC0AE92F0E94240B58F3BA173F
:10142000620773078407950720F079F4A6F50C94FA
:10143000460B0EF4E0950B2EBA2FA02D0B01B9012F
:1014400090010C01CA01A0011124FF27591B99F03A
:10145000593F50F4503E68F11A16F040A22F232F46
:10146000342F4427585FF3CF469537952795A79596
:10147000F0405395C9F77EF41F16BA0B620B730B3D
:10148000840BBAF09150A1F0FF0FBB1F661F771FAE
:10149000881FC2F70EC0BA0F621F731F841F48F463
:1014A000879577956795B795F7959E3F08F0B0CFEC
:1014B0009395880F08F09927EE0F979587950895D3
:1014C0000E94D80A08F481E008950E946C0A68948A
:1014D000B1110C94470B08950E942C0B88F09F5774
:1014E00098F0B92F9927B751B0F0E1F0660F771F48
:1014F000881F991F1AF0BA95C9F714C0B13091F03E
:101500000E94460BB1E008950C94460B672F782F8C
:101510008827B85F39F0B93FCCF386957795679502
:10152000B395D9F73EF490958095709561957F4F6E
:101530008F4F9F4F0895E89409C097FB3EF4909514
:101540008095709561957F4F8F4F9F4F9923A9F09C
:10155000F92F96E9BB279395F6958795779567952B
:10156000B795F111F8CFFAF4BB0F11F460FF1BC06F
:101570006F5F7F4F8F4F9F4F16C0882311F096E902
:1015800011C0772321F09EE8872F762F05C06623B0
:1015900071F096E8862F70E060E02AF09A95660F69
:1015A000771F881FDAF7880F9695879597F9089522
:1015B000990F0008550FAA0BE0E8FEEF1616170664
:1015C000E807F907C0F012161306E407F50798F0CC
:1015D000621B730B840B950B39F40A2661F0232BE5
:1015E000242B252B21F408950A2609F4A140A69561
:1015F0008FEF811D811D089597F99F6780E870E046
:1016000060E008959FEF80EC089500240A94161678
:10161000170618060906089500240A9412161306E0
:10162000140605060895092E0394000C11F488236E
:1016300052F0BB0F40F4BF2B11F460FF04C06F5F8A
:101640007F4F8F4F9F4F089557FD9058440F551F60
:1016500059F05F3F71F04795880F97FB991F61F034
:101660009F3F79F087950895121613061406551FAB
:10167000F2CF4695F1DF08C0161617061806991F17
:10168000F1CF86957105610508940895E894BB270C
:1016900066277727CB0197F908950E94D80A08F4A6
:1016A0008FEF08950E94650B0C94130B0E94050B9D
:1016B00038F00E940C0B20F0952311F00C94FC0ADA
:1016C0000C94020B11240C94470B0E94240B70F312
:1016D000959FC1F3950F50E0551F629FF001729FD7
:1016E000BB27F00DB11D639FAA27F00DB11DAA1FE6
:1016F000649F6627B00DA11D661F829F2227B00D33
:10170000A11D621F739FB00DA11D621F839FA00DBD
:10171000611D221F749F3327A00D611D231F849F0D
:10172000600D211D822F762F6A2F11249F57504064
:101730009AF0F1F088234AF0EE0FFF1FBB1F661FDF
:10174000771F881F91505040A9F79E3F510580F0A8
:101750000C94FC0A0C94470B5F3FE4F3983ED4F3DF
:10176000869577956795B795F795E7959F5FC1F74C
:10177000FE2B880F911D9695879597F908959F9355
:101780000E94240C0F9007FCEE5F0C944D0C19F492
:1017900016F40C94020B0C940D0C0E942C0BB8F355
:1017A0009923C9F3B6F39F57550B87FF0E941B0C73
:1017B0000024A0E640EA900180585695979528F4B9
:1017C000805C660F771F881F20F0261737074807B1
:1017D00030F4621B730B840B202931294A2BA69508
:1017E00017940794202531254A2758F7660F771F4D
:1017F000881F20F026173707480730F4620B730B59
:10180000840B200D311D411DA09581F7B901842F56
:101810009158880F9695879508959F3F31F0915084
:1018200020F4879577956795B795880F911D9695C4
:10183000879597F9089591505040660F771F881F3C
:10184000D2F708950C94020B0E942C0BD8F3E89465
:10185000E0E0BB279F57F0F02AED3FE049EC06C0DF
:10186000EE0FBB0F661F771F881F28F0B23A620782
:101870007307840728F0B25A620B730B840BE3954D
:101880009A9572F7803830F49A95BB0F661F771FD0
:10189000881FD2F790480C940F0CEF93E0FF07C01D
:1018A000A2EA2AED3FE049EC5FEB0E940B0A0E949E
:1018B000130B0F90039401FC9058E8E6F0E00C94B1
:1018C000610C9F938F937F936F93FF93EF939B0193
:1018D000AC010E94520BEF91FF910E94750C2F9169
:1018E0003F914F915F910C94520BDF93CF931F93D5
:1018F0000F93FF92EF92DF927B018C01689406C0F8
:10190000DA2EEF010E94650BFE01E894A591259166
:10191000359145915591A6F3EF010E940B0AFE0106
:101920009701A801DA9469F7DF90EF90FF900F918B
:101930001F91CF91DF910895ECE7F0E080818F7DDA
:1019400080830895811103C00E949C0C08958091AA
:101950007C00806280937C00089580917C0085FBF0
:10196000882780F908950E94AD0C882321F080918A
:10197000790090E008958091780090917900089521
:101980008032A0F497E890937A0090917C006623CF
:1019900011F0906C02C09F779064907E982B90938A
:1019A0007C0080917A00806480937A00089560E0E2
:1019B0000E94C00C80917A0086FDFCCF0E94B30C7F
:1019C00008950E94D70C0895A0E0B0E0EAEEFCE094
:1019D0000C94601AEB0160E00E94C00C80917A00C8
:1019E00086FDFCCF8E01C12CD12C760180917A002E
:1019F000806480937A0080917A0086FDFCCF0E94FB
:101A0000B30CC80ED91EE11CF11C015011090115BF
:101A1000110561F7CE0196958795C034D10538F44C
:101A20008C0D9D1DBE010E94CB19CB010EC0A701DC
:101A30009601280F391F411D511DCA01B9019E0190
:101A400040E050E00E94F319C901CDB7DEB7E8E0ED
:101A50000C947C1ACF92DF92EF92FF92A09100013A
:101A6000B09101019C010E94341A6B017C010E941B
:101A7000AD0C882359F0C701B60161587F4F8F4FD5
:101A80009F4F2FEF30E040E050E00AC0C701B601A1
:101A900061507E4F8F4F9F4F2FEF33E040E050E07B
:101AA0000E94F319C901FF90EF90DF90CF90089545
:101AB0000E94E40C0E942A0D08951F93CF93DF9398
:101AC0000E94AD0C182F0E949C0C6AE070E086E02A
:101AD0000E94580DEC01812F0E94A20CCE01880FAC
:101AE000991F8C0F9D1F019696958795DF91CF9139
:101AF0001F9108950E945D0D089590918B01E091D2
:101B00008601F0918701992311F0849101C08081B1
:101B10002FEB280F2A3110F4805E0895803249F4AB
:101B20009F012F5F3F4F3093870120938601EF2B5A
:101B300031F708951F93CF93DF930E947D0DC0E08E
:101B4000D0E01AE090ED980F9A30B8F49E01129F01
:101B5000E001139FD00D1124C80FD11D87FDDA9528
:101B6000E09780918601909187010196909387017B
:101B7000809386010E947D0DE5CFCE01DF91CF914C
:101B80001F91089510926F0083E28093800081E19D
:101B9000809381001092820080E197E29093890007
:101BA0008093880010928B0010928A00229A789479
:101BB00008958F929F92AF92BF92DF92EF92FF9221
:101BC0000F931F93CF93DF935C018B01D42E8091F1
:101BD0008801811105C081E0809388010E94C20DB7
:101BE00010920B01B7FE05C0E894B7F82AE0F22E78
:101BF00002C0FF24F394E09081002E2D287FE22E76
:101C000048ECF49EC00111248A159B05E0F4E5011F
:101C100051E1A51657E2B50610F0C0E1D7E2BE01CA
:101C20007695679580E090E06058794687469F4FAB
:101C30004E01A12CB12CA50194010E94F319590168
:101C40008E2D816024C0C8E2FC9EC02D1124D0E0FE
:101C5000CA15DB0508F4E501BE01769567959E017E
:101C600040E050E08AE0F81207C080E090E0605E5B
:101C7000734481449F4F06C080E090E060537D4EE6
:101C80008C4E9F4F0E94F31959018E2D8260882E31
:101C90002AE0F21207C0CE0105966AE070E00E94C9
:101CA000CB19EB01C83E43E0D40759F09801DE019F
:101CB0000E94341A28EE33E040E050E00E94151AEA
:101CC000890110926F0080928100B0928900A092E9
:101CD000880020918800309189004D2D403108F016
:101CE0004FE080E190E0841B9109A90102C0569564
:101CF00047958A95E2F750938B0040938A001093A2
:101D00008E0100938D0186B38FEF86BB81E08093B7
:101D10006F00DF91CF911F910F91FF90EF90DF90B7
:101D2000BF90AF909F908F900895CF93DF93EB017A
:101D30008F3F11F0411105C040E0BE0188EE93E0F5
:101D400043C0813130F050EF580F503618F05FE546
:101D500001C050E0852F6CE00E94BF19682F74EF1E
:101D6000760390011124250F311D2C30310540F4EC
:101D7000F901EE0FFF1FEC5CFE4F2081318102C0A4
:101D800020E030E0873081F0082E02C0220F331FA0
:101D90000A94E2F7823028F0C90105966AE070E003
:101DA0000CC0C90190580CC0C90136E0880F991FBA
:101DB0003A95E1F7029665E070E00E94CB19CB01FD
:101DC000403108F04FE0BE010E94D90DDF91CF9164
:101DD0000895A2E0B0E0EFEEFEE00C94581A909067
:101DE0000A0180918A01882321F0609189016111A3
:101DF00017C077247394B0ECAB2EBDE5BB2E1AE070
:101E0000612E04E0802E80EDC82E87E0D82E94E06D
:101E1000E92EF12C04EF11E02FE0422E512C15C0D9
:101E200070E040E088EE93E00E94D90D10928901A5
:101E300017C18636D4F5813609F4A9C07CF58C33F8
:101E400009F460C08E3381F493940E947D0D20913B
:101E50008601309187012F5F3F4F30938701209398
:101E60008601853631F752C0813209F08BC08092ED
:101E70000A01D0920901C0920801F0920701E09294
:101E80000601109305010093040150920301409252
:101E9000020110928A01A4E09A2ED7CF8336A1F1D5
:101EA0000CF478C010E082E077C08D36C1F194F474
:101EB000873691F174F18C3609F064C00E949A0D56
:101EC000BC019093070180930601809108019091D5
:101ED000090151C08237C9F14CF48F3609F052C064
:101EE0000E949A0D982E80930A01AFCF843781F11A
:101EF000863709F047C00E949A0D909303018093A2
:101F00000201A3CF9A94A1CF10E020C010E084E09A
:101F100043C010E085E040C010E087E03DC00E9473
:101F20007D0D8C3619F410928A0104C070928A01DA
:101F30001092890120918601309187012F5F3F4FD8
:101F4000309387012093860180CF11E080E024C088
:101F50000E949A0DBC01C5010E94CB19669EC0016A
:101F6000679E900D11249093090180930801609160
:101F70000601709107010E94CB19709305016093CF
:101F8000040163CF109287011092860169C010E0AE
:101F900089E002C010E08BE0082F9CE0999E000DC4
:101FA00011240E947D0D982F977F933261F4209128
:101FB0008601309187012F5F3F4F30938701209337
:101FC00086010F5FEECF8D3271F420918601309142
:101FD00087012F5F3F4F3093870120938601015087
:101FE0000E947D0DF0CF6091040170910501815335
:101FF000883050F4E0900801F09009010E949A0D99
:10200000BC01C7010E94CB197B01F694E794698358
:102010007A830E947D0D69817A818E3269F42091E4
:102020008601309187012F5F3F4F309387012093C6
:1020300086016E0D7F1DE9CF80918A01882339F0DA
:102040009B013695279520938901621B7109409168
:102050000201112311F08FEF01C0802F0E94950E15
:102060002296E0E10C94741A1F920F920FB60F9211
:1020700011242F933F934F935F936F937F938F938D
:102080009F93AF93BF93EF93FF9380918D019091B6
:102090008E019C012150310930938E0120938D01D6
:1020A000892B11F510926F00789480918100887FC0
:1020B00081608093810080E197E290938900809312
:1020C000880010928B0010928A0081E080930B01AF
:1020D0008091860190918701892B31F080918C014C
:1020E000811102C00E94E90EFF91EF91BF91AF9163
:1020F0009F918F917F916F915F914F913F912F9120
:102100000F900FBE0F901F90189510926F00909334
:1021100087018093860181E080938B011092890171
:102120000E94E90E08950E948510089581E090E0D4
:102130006F9364E06A95F1F76F910197C9F708957D
:102140000F931F93CF93DF931AB157985A98289AF9
:10215000C0E0D0E00E9496105C9A0E94961009B1EF
:102160005C980E9496105C9A0E9496105C98249647
:1021700007FF10C0AE0160E070E080918F01909188
:102180009001A0919101B0919201481759076A07F7
:102190007B0700F31AB9DF91CF911F910F9108953A
:1021A00095B1282F217030E0220F331F482F467041
:1021B00068E0469FA0011124242B9D7C292B25B982
:1021C0009BB188708295807F9F77892B8BB95C9AB1
:1021D0000E9496105C980E9496100895A0E0B0E0CE
:1021E000E4EFF0E10C94611AC82FD62EE42E809112
:1021F000FF01811105C081E08093FF010E9434112D
:102200000E94A01014B1D5B1FAB00BB12898DD200E
:1022100011F05A9A01C05A9894B1926394B9579A9E
:1022200081E0E81629F08C2F82958F700E94D010E3
:102230008C2F8F700E94D010FAB80BB914B9D5B991
:10224000CDB7DEB7E7E00C947D1A42E060E00E9473
:10225000EE10089542E061E00E94EE10089541E022
:1022600060E00E94EE10089580E197E2A0E0B0E007
:1022700080938F0190939001A0939101B09392016C
:10228000529A209A549A8EE190E00E941A1483E0A8
:102290000E942F1186E090E00E941A1483E00E94B1
:1022A0002F1182E090E00E941A1483E00E942F1107
:1022B00082E090E00E941A1482E00E942F1182E0D6
:1022C00090E00E941A1488E20E94251188E00E9482
:1022D000251181E00E94251186E00E9425118CE0E5
:1022E0000E942511089581E00E9425118091950199
:1022F00090919601892BF9F060E0A0E2262F30E062
:1023000070910C0180910D0190E00197789FA001E0
:10231000799F500D1124241735074CF4E091950155
:10232000F0919601E20FF31FA0836F5FE7CF109249
:1023300093011092940108950E9473110895CF9310
:10234000DF93EC018991882319F00E942A11FACFBA
:10235000DF91CF9108950E949F110895AAE0B0E007
:10236000E4EBF1E10C94601A1AE05AE0C52ED12C8E
:10237000E12CF12C062FA70196010E94F319CA0146
:10238000B9011150E1E0F0E0EC0FFD1FE10FF11D8C
:10239000005D2AE0629F0019112400836115710518
:1023A0008105910539F71A3058F4E1E0F0E0EC0FBF
:1023B000FD1FE10FF11D80810E942A111F5FF3CFE5
:1023C0002A96E8E00C947C1ACF92DF92EF92FF926B
:1023D0006B017C0197FF0BC0F094E094D094C09403
:1023E000C11CD11CE11CF11C8DE20E942A11C70105
:1023F000B6010E94AE11FF90EF90DF90CF9008954C
:102400000E94E4110895A5E0B0E0E9E0F2E10C9447
:10241000651A182F80E8898380EC8A8384E98B838E
:1024200084ED8C83FE01E60FF11D8181810F6D83A8
:102430000E942511109393016D816093940125965C
:10244000E3E00C94811A0E9403120895883058F436
:1024500091E001C0990F8A95EAF7892FAAE2B0E0CE
:10246000EBE2F0E021C08E3060F498EF980F81E04D
:1024700001C0880F9A95EAF7A4E2B0E0E5E2F0E047
:1024800013C0853160F492EF980F81E001C0880F8E
:102490009A95EAF7A7E2B0E0E8E2F0E005C080E054
:1024A000A0E0B0E0E0E0F0E06F3F19F49081982701
:1024B00009C0662319F09081982B04C02081982FC1
:1024C0009095922390839C91982B9C93089583EFF1
:1024D0008093B00084BD82E08093B10085BD1092EE
:1024E000B4001092B30018BC17BC60E086E00E94F4
:1024F000261260E085E00E94261260E08BE00E94D8
:10250000261260E083E00E94261208958091000266
:10251000811105C081E0809300020E946712089536
:10252000CF93DF93EC010E948612D7FF05C0D195AF
:10253000C195D10981E001C080E0CF3FD10519F0FC
:1025400014F0CFEFD0E0882319F018BCC7BD02C04B
:10255000C8BD17BCDF91CF910895CF93DF93EC01F5
:102560000E948612D7FF05C0D195C195D10981E09F
:1025700001C080E0CF3FD10519F014F0CFEFD0E0DB
:10258000882329F01092B400C093B30004C0C09314
:10259000B4001092B300DF91CF910895CF93DF93F1
:1025A000EB010E949012CE010E94AD12DF91CF91FB
:1025B00008950E94CE12089584B18D7C84B985B1AE
:1025C000826385B985E090E06F9364E06A95F1F7E6
:1025D0006F910197C9F7089580910102811105C09B
:1025E00081E0809301020E94DC120895CF93C82FEE
:1025F0000E94EC1283B18C23E9F38AE090E00E9400
:102600001A1483B18C23B1F383B18C23CF91089535
:102610000E94F6120895A1E0B0E0E1E1F3E10C942C
:10262000661A89830E94EC1293B19095898189235F
:102630002196E2E00C94821A0E940B130895282F31
:1026400030E09AE0899FF0011124E956FE4F808521
:102650009185009721F052814481541780F08AE0DF
:10266000829FF001839FF00D1124E956FE4F928165
:10267000848198130EC0858181110AC0089542811A
:10268000DC01A40FB11D6C9382818F5F8283E7CF41
:10269000128208951F920F920FB60F9211242F935A
:1026A0003F934F935F936F937F938F939F93AF93DA
:1026B000BF93EF93FF936091C60080E00E941F13C9
:1026C000FF91EF91BF91AF919F918F917F916F910A
:1026D0005F914F913F912F910F900FBE0F901F90E0
:1026E00018959AE0899FF0011124E956FE4F8681E2
:1026F0009781892B59F091818381981738F48081D3
:10270000811104C08091C100806203C08091C1002A
:102710008F7D8093C10008959AE0899FF001112474
:10272000E956FE4F268137812115310541F041815F
:102730009381491720F49091C00095FD03C00E9439
:10274000711308959181D901A90FB11D9C919093A6
:10275000C60091819F5F9183F2CF1F920F920FB6B7
:102760000F9211242F933F934F935F936F937F9317
:102770008F939F93AF93BF93EF93FF9380E00E945B
:102780008C13FF91EF91BF91AF919F918F917F91AA
:102790006F915F914F913F912F910F900FBE0F90CE
:1027A0001F9018952F928F939F932FB68091A80119
:1027B0009091A90101968093A8019093A90190E0BE
:1027C0008091AA01891F8093AA019091A2019C5F28
:1027D0009093A2018091A10180519742C0F0909303
:1027E000A2018093A1018091A3019091A40101967F
:1027F0008093A3019093A40190E08091A501891F8B
:102800008093A5018091A601891F8093A6012FBE08
:102810009F918F912F90189528EE33E0019748F003
:10282000F9016F9364E06A95F1F76F913197C9F7F9
:10283000F5CF08950E940C140895E0E7F0E0808140
:102840008E7F8083A0EBB0E08C9183608C93A1EBB2
:10285000B0E08C91807F8C938C9182608C93B89A3D
:102860008081816080837894089580910202811133
:1028700005C081E0809302020E941D1408950E9409
:102880003514E0E7F0E080818E7F80836091A301C2
:102890007091A4018091A5019091A60120812160F1
:1028A000208308950E943F1408950E943514E0E7A4
:1028B000F0E080818E7F80831092A3011092A401AA
:1028C0001092A5011092A6011092A2011092A101EE
:1028D0008081816080830895462FBC018BEA91E05E
:1028E0000E94FD160895682F8BEA91E00E945B1804
:1028F0000895462F20E0BC018BEA91E00E942C193C
:1029000008950F93CF93DF9300D000D01F92CDB7DF
:10291000DEB79C0185E0ECE4F1E0DE011196019068
:102920000D928A95E1F7662311F00FEF01C003E1E4
:1029300045E0BE016F5F7F4F8BEA91E00E94531527
:102940008BEA91E00E942A150E9455140F900F9077
:102950000F900F900F90DF91CF910F91089560E04D
:102960000E94811408958BEA91E00E94A1190895B4
:102970006F9364E06A95F1F76F910197C9F7089535
:10298000FC01118210821382128215821482168237
:10299000683068F489E290E0918380838BE290E074
:1029A000938382838AE290E0958384831FC06E3094
:1029B00070F483E290E09183808385E290E09383DA
:1029C000828384E290E09583848368500FC06531F0
:1029D00098F486E290E09183808388E290E093838C
:1029E000828387E290E0958384836E5081E001C00A
:1029F000880F6A95EAF786830895A7E0B0E0E3E0E0
:102A0000F5E10C94641A8C01FC011182108213828E
:102A100012821582148217821682613118F080E1C9
:102A2000808702C0FC016087F801208B642FCE01F3
:102A300001960E94C0148F81F80181878B819C814F
:102A4000938782878D819E81958784872796E4E08E
:102A50000C94801AFC01A485B585109779F08C91AF
:102A60009185892B8C93A285B3859C9181858095D6
:102A700089238C9388EC90E00E94B8140895FC019F
:102A8000A485B585109771F08C919185892B8C93D5
:102A9000A285B3858C919185892B8C9388EC90E0ED
:102AA0000E94B8140895A7E0B0E0E9E5F5E10C94C0
:102AB000591A7C014B01642F3901402F20E00E94FC
:102AC000FD1487010F5B1F4FF80110826701F2E4CC
:102AD000CF0ED11CF60110825701F3E4AF0EB11CEA
:102AE000F5011082F70177866686512CF701808503
:102AF000581650F5652C712CF401E60DF71D608118
:102B0000CE0101960E94C0142F81F701E60DF71D3A
:102B1000218B89819A81F301EE0FFF1FEE0DFF1DBE
:102B200092A381A38332910511F4F80108C0863283
:102B3000910511F4F60103C0899721F4F501808114
:102B4000822B80835394D2CF2796EFE00C94751A92
:102B5000A0E0B0E0EEEAF5E10C945B1AEC015B0159
:102B60006C0181E4C80ED11CF60180807E01F2E484
:102B7000EF0EF11CF70170808E010D5B1F4FF80105
:102B8000908080E09885891748F4F501E80FF11DE1
:102B9000E80FF11D118210828F5FF4CF84B1F6012E
:102BA0009081892B84B987B1F7019081892B87B9EE
:102BB0008AB1F8019081892B8AB985B1F60190819B
:102BC000892B85B988B1F7019081892B88B98BB1A0
:102BD000F8019081892B8BB98AE090E00E94B814AB
:102BE00094B1F60180818095892384B997B1F7016A
:102BF00080818095892387B99AB1F8018081809579
:102C000089238AB995B1F60180818095892385B998
:102C100098B1F70180818095892388B99BB1F8012B
:102C20008081809589238BB9E090B000D090B1006D
:102C30008091B00083608093B00082E08093B10007
:102C40004091B20080E090E02E853F858217930787
:102C500020F5C090B2002C2D241B820F911D03B1D2
:102C6000081132C0F6B0F7102FC029B129112CC0BD
:102C700010C0212F30E0A901440F551FF501E40FCA
:102C8000F51F60817181672B21F11F5F2885121765
:102C900080F37F2C802E4C2DD7CFE092B000D092C5
:102CA000B10020E08885281730F5F501E20FF11D0D
:102CB000E20FF11D80819181892B21F48E859F8502
:102CC000918380832F5FEECF03B1F6B099B010E00F
:102CD000DDCFDE01A40FB51F91960D90BC91A02D04
:102CE0004C91DE01A20FB31F51962C91422369F63D
:102CF00091838083CACFCDB7DEB7EDE00C94771A0D
:102D0000EF92FF920F931F93CF93DF93FC019B01F0
:102D1000F0907C0000917A0047B118B180917A0060
:102D200086FDFCCF80E09085891748F4D901A80F73
:102D3000B11DA80FB11D1D921C928F5FF4CF97B1EA
:102D400082A18095892387B998B182A18095892332
:102D500088B987E880937A00E12C81A1E81610F009
:102D6000E12C29C050E08085581718F5A52FB0E058
:102D7000EF01CA0FDB1F8989806480937C008091FA
:102D80007A00806480937A0080917A0086FDFCCF7F
:102D90006091780070917900AA0FBB1FA20FB31F3A
:102DA0008D919C911197860F971F8D939C935F5FD8
:102DB000DACFE394D2CF8085E816A0F4E901CE0DF6
:102DC000D11DCE0DD11D61A170E0CB0195958795E8
:102DD000A881B9818A0F9B1F0E94CB1979836883D0
:102DE000E394E9CFF0927C0000937A0018B947B9D8
:102DF000CDB7DEB7E6E00C947E1AA0E2B0E0E3E0E7
:102E0000F7E10C94611A8C017B01D42E8FEF840FB3
:102E1000823018F4C8010E943F15D80150968C9159
:102E2000B701811110C0C8010E94A815C8010E94F5
:102E30002A15B2E0DB123AC0BE016F5F7F4FC801B6
:102E40000E94A8150FC0C8010E948016C8010E94E8
:102E50002A15E2E0DE122AC0BE016F5F7F4FC80173
:102E60000E94801640E0F80180854817F8F4842F0E
:102E700090E0880F991FF701E80FF91F21E030E07B
:102E80002C0F3D1F820F931FD8011E962D913C9150
:102E90001F97DC018D919C91281B390B80819181BA
:102EA000820F931F918380834F5FDDCFA096E7E071
:102EB0000C947D1A2F923F925F926F927F928F9225
:102EC0009F92AF92BF92CF92DF92EF92FF920F93B9
:102ED0001F93CF93DF93CDB7DEB7C056D1090FB69E
:102EE000F894DEBF0FBECDBF8C014B015A01522EAC
:102EF000DA018D919C91892B31F0F40180819181CF
:102F0000892BF1F424C0D80118968C9190E0880F99
:102F1000991F0E94931AF50191838083009709F409
:102F2000B1C0FC0120E030E0D80118968C9190E00F
:102F30002817390714F7119211922F5F3F4FF4CFE2
:102F4000E12CF12C6E01B1E2CB0ED11C21C0F801B5
:102F5000808590E0880F991F0E94931AD4018D9369
:102F60009C93009709F48EC0FC0120E030E0D8016A
:102F700018968C9190E02817390714F7D8011E96FF
:102F80008D919C911F97819391932F5F3F4FEFCF2E
:102F9000452DBE016F5B7F4FC8010E94FD16F801F1
:102FA0006084712CFE01EF5BFF4FC6019E012F5F15
:102FB0003F4F190120E030E0261537054CF5E114AC
:102FC000F10489F0DC016D917C914081518164179D
:102FD000750748F0D1016D917C9140815181461770
:102FE000570748F00DC040815181DC014D935C933F
:102FF000E114F10479F740815181D1014D935C9343
:103000002F5F3F4FB2E02B0E311C32960296D4CF89
:10301000EFEFEE1AFE0AFAE0EF16F10409F0B8CF6E
:103020009E012F5F3F4F7901360180E090E0F8016B
:10303000208530E0821793072CF5D7012D913D9123
:103040007D01B3016C197D09D501ED91FC91E60F6D
:10305000F71F408151814217530710F431832083B9
:10306000F301219131913F01D401ED91FC91E60FE3
:10307000F71F408151812417350710F431832083D5
:103080000196D5CFC05ADF4F0FB6F894DEBF0FBE02
:10309000CDBFDF91CF911F910F91FF90EF90DF9007
:1030A000CF90BF90AF909F908F907F906F905F90E8
:1030B0003F902F9008951F93CF93DF93EC01162F2D
:1030C0008FEF860F823018F0662359F014C021E08C
:1030D000AE014E5F5F4FBE01CE010E945A17123003
:1030E00051F4AE014A5F5F4FBE016C5F7F4F20E03D
:1030F000CE010E945A17DF91CF911F910895A0E051
:10310000B0E0E5E8F8E10C945F1AEC018B01B42E15
:10311000842F8D7F51F48C819D81892B09F497C078
:103120008E819F81892B09F492C08FEF8B0D8230A5
:1031300050F488819981892B09F489C08A819B8107
:10314000892B09F484C04B2DB801CE010E94FD16D5
:10315000780100E010E0C12CD12C888590E0C816E1
:10316000D9060CF074C081E0B8120AC0EA81FB8174
:10317000E00FF11F0190F081E02DA881B9810DC011
:103180008C819D812E813F81B1100CC0F901E00F2F
:10319000F11F0190F081E02DDC01A00FB11F8D9196
:1031A0009C9128C0FC01E00FF11F40815181E88112
:1031B000F981E00FF11F80819181EE85FF8548172D
:1031C000590710F4CF0104C08E0F9F1F841B950B6D
:1031D000D901A00FB11F2D913C91AA81BB81A00FF5
:1031E000B11F4D915C912417350720F0E40FF51FB6
:1031F000E21BF30BE81BF90BA9F0D7012D913C91D1
:1032000040E050E0281B390B41095109A8EEB3E01A
:103210000E94431A9F0140E050E00E94151A37FDBA
:103220000AC002C020E030E0293EB3E03B072CF0AA
:1032300028EE33E002C020E030E0F7012193319323
:103240007F01FFEFCF1ADF0A0E5F1F4F86CFCDB78A
:10325000DEB7E9E00C947B1AA0E0B0E0E2E3F9E12C
:103260000C94561AEC018B01822E0E947F18288440
:10327000E801412C512C320100E010E0C12CD12C8E
:103280007601312C912C58EEA52E53E0B52E9214D8
:1032900021F1E991F991882021F0C5018E1B9F0B46
:1032A000FC01E93CF10524F4E333F10574F002C0BC
:1032B00033243394DF01A30192010E944E1AC60EFB
:1032C000D71EE81EF91E0E0F1F1F939498EE490E8D
:1032D00093E0591E611C711CDACF31101EC0492DBC
:1032E00050E04150510924EF31E0429FC001439F1B
:1032F000900D529F900D11242091EF013091F0011B
:1033000028173907B4F088EE93E0489F9001499F51
:10331000300D589F300D11240EC0980140E050E050
:10332000C701B6010E94F3193093F0012093EF0119
:1033300002C020E030E0C901CDB7DEB7E2E10C9475
:10334000721ACF93DF93EC018A819B81009711F071
:103350000E942B1B8E819F81009711F00E942B1BD6
:1033600088819981009711F00E942B1B8C819D818F
:10337000009711F00E942B1BDF91CF910895991BAC
:1033800079E004C0991F961708F0961B881F7A955C
:10339000C9F780950895AA1BBB1B51E107C0AA1F5E
:1033A000BB1FA617B70710F0A61BB70B881F991FE6
:1033B0005A95A9F780959095BC01CD01089597FB8A
:1033C000072E16F4009407D077FD09D00E94CB1980
:1033D00007FC05D03EF4909581959F4F0895709518
:1033E00061957F4F0895A1E21A2EAA1BBB1BFD0118
:1033F0000DC0AA1FBB1FEE1FFF1FA217B307E407D4
:10340000F50720F0A21BB30BE40BF50B661F771F2B
:10341000881F991F1A9469F760957095809590950B
:103420009B01AC01BD01CF010895052E97FB1EF451
:1034300000940E942C1A57FD07D00E94F31907FC34
:1034400003D04EF40C942C1A50954095309521954C
:103450003F4F4F4F5F4F08959095809570956195C0
:103460007F4F8F4F9F4F0895A29FB001B39FC00120
:10347000A39F700D811D1124911DB29F700D811DA0
:103480001124911D08950E94341AA59F900DB49F98
:10349000900DA49F800D911D11240895B7FF0C94E9
:1034A000431A0E94431A821B930B08952F923F9256
:1034B0004F925F926F927F928F929F92AF92BF9244
:1034C000CF92DF92EF92FF920F931F93CF93DF93F0
:1034D000CDB7DEB7CA1BDB0B0FB6F894DEBF0FBE4D
:1034E000CDBF09942A88398848885F846E847D849A
:1034F0008C849B84AA84B984C884DF80EE80FD809C
:103500000C811B81AA81B981CE0FD11D0FB6F89411
:10351000DEBF0FBECDBFED010895EE0FFF1F05907A
:10352000F491E02D09940F931F93CF93DF93823092
:10353000910510F482E090E0E0916C02F0916D0250
:1035400020E030E0A0E0B0E0309719F140815181F7
:103550000281138148175907C8F08417950769F449
:10356000109731F012960C93129713961C9327C064
:1035700000936C0210936D0222C02115310519F0E1
:103580004217530718F49A01BD01EF01DF01F8015A
:10359000DBCF21153105F9F0281B390B243031051B
:1035A00080F48A819B816115710521F0FB01938371
:1035B000828304C090936D0280936C02FE01329668
:1035C00044C0FE01E20FF31F819391932250310911
:1035D000398328833AC020916A0230916B02232BF1
:1035E00041F4209110013091110130936B0220932E
:1035F0006A0220910E0130910F012115310541F42D
:103600002DB73EB74091120150911301241B350B89
:10361000E0916A02F0916B02E217F307A0F42E1B0F
:103620003F0B2817390778F0AC014E5F5F4F241726
:10363000350748F04E0F5F1F50936B0240936A02AC
:103640008193919302C0E0E0F0E0CF01DF91CF9150
:103650001F910F910895CF93DF93009709F481C0D4
:10366000FC01329713821282A0916C02B0916D021C
:10367000109781F420813181820F931F20916A027B
:1036800030916B022817390751F5F0936B02E093E4
:103690006A0267C0ED0120E030E0CE17DF0740F49A
:1036A0004A815B819E0141155105F1F0EA01F5CF98
:1036B000D383C28340815181840F951FC817D907D6
:1036C00059F488819981840F951F02969183808394
:1036D0008A819B81938382832115310529F4F0939C
:1036E0006D02E0936C023DC0E901FB83EA834991DE
:1036F0005991C40FD51FEC17FD0761F480819181AA
:10370000840F951F0296E9019983888382819381B2
:103710009B838A83E0E0F0E012968D919C91139751
:10372000009719F0FD01DC01F7CF8D919C91119765
:103730009D012E5F3F4F820F931F20916A023091AF
:103740006B022817390769F4309729F410926D023B
:1037500010926C0202C013821282B0936B02A0938B
:103760006A02DF91CF91089510E0CCE5D0E004C06B
:10377000FE010E948D1A2196CD35D107C9F7F89424
:02378000FFCF79
:1037820088130F00F4010400D007040108020000AE
:103792006E02200003010002020301000002030185
:1037A2000100020300000300020004000400020002
:1037B200030000009C01B501CF01EA0107022602C5
:1037C200470269028E02B502DE020A030E0F1011D1
:1037D20012520046006D56006472756B2042002042
:1037E2002000476F21006472756B206F70004220C9
:1037F2006B6E6F7000646963687462696A00686501
:063802006565656C000025
:00000001FF
