:100000000C943A000C9457000C9457000C94570031
:100010000C9457000C9457000C9457000C94570004
:100020000C9457000C94510D0C9457000C945700ED
:100030000C9457000C94B3090C9457000C9457007F
:100040000C9457000C9457000C94C90C0C942C0D74
:100050000C9457000C9457000C9457000C945700C4
:100060000C9457000C9457003E6633323E3E613389
:1000700032001C0E11241FBECFEFD8E0DEBFCDBF73
:1000800011E0A0E0B1E0E4E5FAE202C005900D92D3
:10009000AA37B107D9F722E0AAE7B1E001C01D9263
:1000A000A536B207E1F70E9460040C941D150C946C
:1000B00000002F923F924F925F926F927F928F92A9
:1000C0009F92AF92BF92CF92DF92EF92FF920F93E7
:1000D0001F93CF93DF93CDB7DEB72C970FB6F8946D
:1000E000DEBF0FBECDBF382E492E562E672E8E0195
:1000F000075F1F4FFE013196E62EF72EAC01DA01A5
:100100006D917D91AD01D7012D913D917D01260F1E
:10011000371F21933193E017F10789F70896772469
:100120007394212C812C912C71C040815181E280EB
:10013000F380E416F50624F553834283F182E082CE
:10014000AB85BC8512964D915C9113976D917C9116
:10015000119713967C936E9312974D935C93D901EC
:1001600012964D915C9113976D917C911197139616
:100170007C936E9312974D935C93682D792D36C0C6
:100180004E155F0599F5D901CD90DC901197129627
:10019000ED90FC901397CE14DF0441F5AB85BC8540
:1001A000CD90DC9011971296ED90FC901397CE14A1
:1001B000DF04E4F45383428351834083AB85BC85E1
:1001C0001396DC92CE921297ED92FC92D901129680
:1001D0006D917C9113974D915C91119713965C935F
:1001E0004E9312976D937C93682D792D32964B85A3
:1001F0005C854E5F5F4F5C874B872E5F3F4F841758
:10020000950709F092CF6130710549F0252D362D03
:100210003B864C86FE013196672D722D86CF2C963B
:100220000FB6F894DEBF0FBECDBFDF91CF911F9107
:100230000F91FF90EF90DF90CF90BF90AF909F9085
:100240008F907F906F905F904F903F902F90089588
:10025000FC0142E050E05183408381E090E09383D1
:10026000828355834483978386839187808723E0A5
:1002700030E0338722875587448765E070E07787D1
:100280006687918B808B938B828B758B648B31A36C
:1002900020A333A322A375A364A331AB20AB93ABFC
:1002A00082AB55AB44AB97AB86AB51AF40AF73AFAE
:1002B00062AFE05CFF4F31832083538342833583F9
:1002C0002483778366830895EF92FF921F93CF93E1
:1002D000DF93CDB7DEB760970FB6F894DEBF0FBEE1
:1002E000CDBF90E1E4E1F1E0DE01119601900D92C5
:1002F0009A95E1F7FB019081981709F44CC07B01B6
:10030000182FE1E0F0E0EC0FFD1F84E0189FE00DF6
:10031000F11D1124E90FF11D8081813021F048F198
:100320008230A1F038C064EC7FEF8CE390E00E9453
:10033000580C8EE091E00E94990D60E070E080E042
:1003400090E00E94580CF701108325C06CE370E028
:1003500084EC9FEF0E94580C8EE091E00E94990D72
:1003600060E070E080E090E00E94580CF70110839C
:1003700012C064EC7FEF8CE390E00E94580C8CE19B
:1003800092E00E94990D60E070E080E090E00E94B1
:10039000580CF701108360960FB6F894DEBF0FBEBD
:1003A000CDBFDF91CF911F91FF90EF900895CF9334
:1003B000DF93EA0162957295707F7627607F7627DA
:1003C000860F971F28813981220F331FFC01E20F0E
:1003D000F31F808191818230910591F11CF4019786
:1003E00049F080C08330910509F450C0059709F4A5
:1003F00063C078C06CE370E08CE390E00E94580C1E
:100400008AEA90E00E94990D60E070E080E090E060
:100410000E94580C64EC7FEF8CE390E00E94580C33
:100420008EE091E00E94990D60E070E080E090E045
:100430000E94580C8881998101969983888352C0C3
:100440006CE370E08CE390E00E94580C8AEA90E044
:100450000E94990D60E070E080E090E00E94580CEE
:100460006CE370E084EC9FEF0E94580C8EE091E00A
:100470000E94990D60E070E080E090E00E94580CCE
:10048000888199810196998388832CC06CE370E000
:100490008CE390E00E94580C8AEA90E00E94990D4B
:1004A00060E070E080E090E00E94580C88819981C3
:1004B00001969983888316C060E070E080E090E048
:1004C0000E94580C81E090E09093F2018093F1013A
:1004D0001092F4011092F301198218829093EC01AA
:1004E0008093EB01DF91CF9108956F927F928F926D
:1004F0009F92AF92BF92CF92DF92EF92FF920F93B3
:100500001F93CF93DF934C013B015A01E9010E94F5
:100510001B0B60E080E00E94A20B68817981072EAE
:10052000000C880B990B0E947F0B61E080E00E9419
:10053000A20BD8016D917C91072E000C880B990BB2
:100540000E947F0B8091ED019091EE01892B81F447
:100550006CE370E08CE390E00E94580C8AEA90E033
:100560000E94990D60E070E080E090E00E94580CDD
:100570008091ED019091EE01019721F41092EE012E
:100580001092ED01D501ED91FC91EE0FFF1FE80DEA
:10059000F91D20813181888199812817390709F453
:1005A00081C0F70140815181452B09F090C082172D
:1005B000930774F5B60183E00E9464018091F30112
:1005C0009091F401019749F488819981019699836A
:1005D00088831092F4011092F3010E941B0B60E0DB
:1005E00080E00E94A20B68817981072E000C880BA5
:1005F000990B0E947F0B61E080E00E94A20BD80162
:100600006D917C91072E000C880B990B0E947F0B3B
:10061000D501ED91FC91EE0FFF1FE80DF91D208132
:100620003181888199812817390774F5B60181E0F5
:100630000E9464018091F3019091F401019749F4C3
:10064000888199810197998388831092F40110928F
:10065000F3010E941B0B60E080E00E94A20B688106
:100660007981072E000C880B990B0E947F0B61E0AB
:1006700080E00E94A20BF80160817181072E000CBE
:10068000880B990B0E947F0BD501ED91FC91EE0F29
:10069000FF1FE80DF91D208131818881998128177C
:1006A0003907A9F481E090E0F70191838083D501B7
:1006B000ED91FC91EE0FFF1FE60DF71D408151817A
:1006C000F8012081318142175307C1F4DAC0D50106
:1006D0008D919C91880F991FF301E80FF91F4081BC
:1006E0005181F801208131814217530709F4BEC0BE
:1006F000D7018D919C91019709F0D3C0241735073C
:100700007CF5B60180E00E9464018091F301909134
:10071000F401019751F4F801808191810196918350
:1007200080831092F4011092F3010E941B0B60E091
:1007300080E00E94A20B68817981072E000C880B53
:10074000990B0E947F0B61E080E00E94A20BD80110
:100750006D917C91072E000C880B990B0E947F0BEA
:10076000D501ED91FC91EE0FFF1FE60DF71D2081E5
:100770003181F801808191812817390784F5B6010C
:1007800082E00E9464018091F3019091F40101974D
:1007900059F4D8018D919C91119701978D939C9359
:1007A0001092F4011092F3010E941B0B60E080E0B4
:1007B0000E94A20B68817981072E000C880B990B8F
:1007C0000E947F0B61E080E00E94A20BF801608133
:1007D0007181072E000C880B990B0E947F0BD501AD
:1007E0008D919C91880F991FF401E80FF91F4081AA
:1007F0005181288139814217530709F052C0F30112
:10080000E80FF91F20813181F8018081918128173B
:10081000390709F046C060E070E080E090E00E9497
:10082000580C0E941B0B85E591E00E942A0BD50114
:100830008D919C91119701968D939C93059721F42E
:10084000B60183E50E94640188E690E00E94120AE6
:1008500088EE93E00E94990DF7011182108281E0E9
:1008600090E09093EE018093ED011BC0F401E80F3E
:10087000F91F20813181888199812817390789F4EE
:10088000CACFD5018D919C91880F991FF401E80F73
:10089000F91F20813181888199812817390709F44E
:1008A000BACFDF91CF911F910F91FF90EF90DF9022
:1008B000CF90BF90AF909F908F907F906F90089552
:1008C0008F929F92AF92BF92CF92DF92EF92FF9260
:1008D0000F931F93CF93DF93CDB7DEB7C057D109E6
:1008E0000FB6F894DEBF0FBECDBF0E9438058AE078
:1008F000E4E2F1E0DE01119601900D928A95E1F7B4
:100900008AE0EEE2F1E0DE011B9601900D928A95FD
:10091000E1F71E8A1D8A188E1F8A1A8E198E1B8E69
:10092000BE01655F7F4FCE0101960E945900AF96D0
:100930001FAE1EAEAF97CE014D960E942801E196E4
:100940001FAE1EAEE19788248394912C61E08FE462
:1009500092E00E94D50D0E94BC05019761F0809144
:10096000ED019091EE01892B31F40E94D105909216
:10097000F4018092F3018091F1019091F201892BB1
:1009800069F40E94BC05019749F4AE0143595F4FD9
:1009900060E070E0CE014D960E94D7018091F10198
:1009A0009091F201019721F40E94BC05019731F06A
:1009B0008091ED019091EE010197B1F4CE014C963A
:1009C0005C0101976C0102977C018E01095E1F4F4B
:1009D0009E012B5E3F4FAE0141595F4FBE01655FE7
:1009E0007F4F48970E947502E1968EAD9FADE197CB
:1009F000059709F0ABCF1092EC011092EB01AF9686
:100A00001FAE1EAEAF9761E08FE492E00E94D50D5D
:100A10000E94BC05019719F00E94D1050DC00E94EB
:100A2000BC05019749F4AE0143595F4F63E070E0A4
:100A3000CE014D960E94D7018091EB019091EC017F
:100A4000019709F780E090E0C059DF4F0FB6F894A6
:100A5000DEBF0FBECDBFDF91CF911F910F91FF90F1
:100A6000EF90DF90CF90BF90AF909F908F900895C0
:100A7000CF93DF931092EE011092ED011092F401EA
:100A80001092F3011092F2011092F1011092EC0118
:100A90001092EB0180ED97E00E94180E1BC00E949F
:100AA000F906EC010E941B0BBE01DD0F880B990BB0
:100AB0000E947F0B8DE591E00E942A0B61E080E0AF
:100AC0000E94A20B80E691E00E942A0B84E690E04F
:100AD0000E94990D80E10E949B0C882301F380E124
:100AE0000E94870C88EE93E00E94990DCCEEDFEF18
:100AF000C832D10538F068ED7FEF88E290E00E94BF
:100B0000580C06C068E270E088ED9FEF0E94580C18
:100B100081E00E94DC0D84E190E00E94990D219615
:100B2000CC33D10529F760E070E080E090E00E94CE
:100B3000580C15C061E08FE492E00E94E20DEC01D8
:100B40000E941B0B87E691E00E942A0BBE0180E009
:100B500090E00E947F0B84E690E00E94990D80E176
:100B60000E949B0C882331F380E10E94870C0E9435
:100B70001B0BDF91CF91089580914F02909150020D
:100B80008032934058F481E090E0209157023091F8
:100B900058022032334020F480E0089581E090E054
:100BA0000895CF93DF9361E08FE492E00E94E20D1D
:100BB000805D974020915B0230915C02AC01421B4A
:100BC000530B9A01E0915F02F0916002E80FF91F68
:100BD000F0936002E0935F0290935C0280935B026B
:100BE00064E170E00E944813EB01CF0160E177E21D
:100BF0000E944813CE01860F971FB901660F771F19
:100C0000260F371F332314F42F5F3F4F3595279559
:100C1000820F931F8D33910514F08CE390E0843C98
:100C20005FEF950714F484EC9FEF992334F46CE3A1
:100C300070E0CC960E94580C08C06CE370E0681B12
:100C4000790B8CE390E00E94580CDF91CF910895CE
:100C5000ECE7F0E080818F7D80830895811103C0EF
:100C60000E942806089580917C00806280937C0019
:100C7000089580917C0085FB882780F908950E9463
:100C80003906882321F08091790090E008958091C1
:100C900078009091790008958032A0F497E89093BD
:100CA0007A0090917C00662311F0906C02C09F77CF
:100CB0009064907E982B90937C0080917A00806461
:100CC00080937A000895A0E0B0E0E9E6F6E00C94A5
:100CD000CF13EB0160E00E944C0680917A0086FD04
:100CE000FCCF8E01C12CD12C760180917A008064DA
:100CF00080937A0080917A0086FDFCCF0E943F06A7
:100D0000C80ED91EE11CF11C015011090115110575
:100D100061F7CE0196958795C034D10538F48C0DD6
:100D20009D1DBE010E943413CB010EC0A701960188
:100D3000280F391F411D511DCA01B9019E0140E014
:100D400050E00E945C13C901CDB7DEB7E8E00C9417
:100D5000EB13CF92DF92EF92FF92A0910001B0913E
:100D600001019C010E94A3136B017C010E943906C2
:100D7000882359F0C701B60161587F4F8F4F9F4FAD
:100D80002FEF30E040E050E00AC0C701B6016150EB
:100D90007E4F8F4F9F4F2FEF33E040E050E00E9497
:100DA0005C13C901FF90EF90DF90CF9008950E94EF
:100DB00063060E94A90608951F93CF93DF930E94B4
:100DC0003906182F0E9428066AE070E086E00E942B
:100DD000D706EC01812F0E942E06CE01880F991FA5
:100DE0008C0F9D1F019696958795DF91CF911F914E
:100DF00008950E94DC06089590917F01E0917A01A8
:100E0000F0917B01992311F0849101C080812FEB37
:100E1000280F2A3110F4805E0895803249F49F0132
:100E20002F5F3F4F30937B0120937A01EF2B31F7F7
:100E300008951F93CF93DF930E94FC06C0E0D0E09B
:100E40001AE090ED980F9A30B8F49E01129FE001DD
:100E5000139FD00D1124C80FD11D87FDDA95E0979F
:100E600080917A0190917B01019690937B01809310
:100E70007A010E94FC06E5CFCE01DF91CF911F9150
:100E8000089510926F0083E28093800081E1809347
:100E900081001092820080E197E290938900809314
:100EA000880010928B0010928A00229A78940895FC
:100EB0008F929F92AF92BF92DF92EF92FF920F9329
:100EC0001F93CF93DF935C018B01D42E80917C0123
:100ED000811105C081E080937C010E94410710923E
:100EE0000B01B7FE05C0E894B7F82AE0F22E02C065
:100EF000FF24F394E09081002E2D287FE22E48EC11
:100F0000F49EC00111248A159B05E0F4E50151E12E
:100F1000A51657E2B50610F0C0E1D7E2BE017695FE
:100F2000679580E090E06058794687469F4F4E0174
:100F3000A12CB12CA50194010E945C1359018E2DA6
:100F4000816024C0C8E2FC9EC02D1124D0E0CA15E7
:100F5000DB0508F4E501BE01769567959E0140E04A
:100F600050E08AE0F81207C080E090E0605E7344D1
:100F700081449F4F06C080E090E060537D4E8C4ED0
:100F80009F4F0E945C1359018E2D8260882E2AE0AB
:100F9000F21207C0CE0105966AE070E00E94341399
:100FA000EB01C83E43E0D40759F09801DE010E94EE
:100FB000A31328EE33E040E050E00E947E13890145
:100FC00010926F0080928100B0928900A0928800F8
:100FD00020918800309189004D2D403108F04FE07C
:100FE00080E190E0841B9109A90102C056954795C4
:100FF0008A95E2F750938B0040938A001093820108
:101000000093810186B38FEF86BB81E080936F00F0
:10101000DF91CF911F910F91FF90EF90DF90BF90E4
:10102000AF909F908F900895CF93DF93EB018F3F08
:1010300011F0411105C040E0BE0188EE93E043C0CD
:10104000813130F050EF580F503618F05FE501C095
:1010500050E0852F6CE00E942813682F74EF760310
:1010600090011124250F311D2C30310540F4F90178
:10107000EE0FFF1FE85CFE4F2081318102C020E0AF
:1010800030E0873081F0082E02C0220F331F0A940F
:10109000E2F7823028F0C90105966AE070E00CC0E2
:1010A000C90190580CC0C90136E0880F991F3A95C4
:1010B000E1F7029665E070E00E943413CB01403105
:1010C00008F04FE0BE010E945807DF91CF910895CC
:1010D000A2E0B0E0EEE6F8E00C94C71390900A01AD
:1010E00080917E01882321F060917D01611117C0FC
:1010F00077247394B0ECAB2EBDE5BB2E1AE0612EC5
:1011000004E0802E80EDC82E87E0D82E94E0E92EF2
:10111000F12C04EF11E02FE0422E512C15C070E0AD
:1011200040E088EE93E00E94580710927D0117C1BD
:101130008636D4F5813609F4A9C07CF58C3309F4E0
:1011400060C08E3381F493940E94FC0620917A0152
:1011500030917B012F5F3F4F30937B0120937A01C9
:10116000853631F752C0813209F08BC080920A0176
:10117000D0920901C0920801F0920701E0920601A5
:101180001093050100930401509203014092020163
:1011900010927E01A4E09A2ED7CF8336A1F10CF4F1
:1011A00078C010E082E077C08D36C1F194F48736C4
:1011B00091F174F18C3609F064C00E941907BC01EA
:1011C0009093070180930601809108019091090195
:1011D00051C08237C9F14CF48F3609F052C00E94D9
:1011E0001907982E80930A01AFCF843781F1863793
:1011F00009F047C00E9419079093030180930201F0
:10120000A3CF9A94A1CF10E020C010E084E043C0A7
:1012100010E085E040C010E087E03DC00E94FC0681
:101220008C3619F410927E0104C070927E011092E7
:101230007D0120917A0130917B012F5F3F4F3093E8
:101240007B0120937A0180CF11E080E024C00E94CE
:101250001907BC01C5010E943413669EC001679E38
:10126000900D11249093090180930801609106016B
:10127000709107010E94341370930501609304017B
:1012800063CF10927B0110927A0169C010E089E06F
:1012900002C010E08BE0082F9CE0999E000D112405
:1012A0000E94FC06982F977F933261F420917A0177
:1012B00030917B012F5F3F4F30937B0120937A0168
:1012C0000F5FEECF8D3271F420917A0130917B0166
:1012D0002F5F3F4F30937B0120937A0101500E9492
:1012E000FC06F0CF609104017091050181538830B4
:1012F00050F4E0900801F09009010E941907BC0128
:10130000C7010E9434137B01F694E79469837A83C2
:101310000E94FC0669817A818E3269F420917A01FB
:1013200030917B012F5F3F4F30937B0120937A01F7
:101330006E0D7F1DE9CF80917E01882339F09B01DE
:101340003695279520937D01621B7109409102011A
:10135000112311F08FEF01C0802F0E9414082296F4
:10136000E0E10C94E3131F920F920FB60F92112439
:101370002F933F934F935F936F937F938F939F939D
:10138000AF93BF93EF93FF9380918101909182017E
:101390009C01215031093093820120938101892BD6
:1013A00011F510926F00789480918100887F8160A0
:1013B0008093810080E197E2909389008093880078
:1013C00010928B0010928A0081E080930B01809133
:1013D0007A0190917B01892B31F0809180018111FC
:1013E00002C00E946808FF91EF91BF91AF919F9159
:1013F0008F917F916F915F914F913F912F910F90BE
:101400000FBE0F901F90189510926F0090937B0164
:1014100080937A0181E080937F0110927D010E9488
:10142000680808950E94040A089581E090E06F938F
:1014300064E06A95F1F76F910197C9F708950F93EA
:101440001F93CF93DF931AB157985A98289AC0E008
:10145000D0E00E94150A5C9A0E94150A09B15C98B6
:101460000E94150A5C9A0E94150A5C98249607FF50
:1014700010C0AE0160E070E0809183019091840122
:10148000A0918501B0918601481759076A077B072B
:1014900000F31AB9DF91CF911F910F91089595B183
:1014A000282F217030E0220F331F482F467068E04C
:1014B000469FA0011124242B9D7C292B25B99BB18B
:1014C00088708295807F9F77892B8BB95C9A0E9468
:1014D000150A5C980E94150A0895A0E0B0E0E3E7C1
:1014E000FAE00C94D013C82FD62EE42E8091E70199
:1014F000811105C081E08093E7010E94B30A0E9438
:101500001F0A14B1D5B1FAB00BB12898DD2011F043
:101510005A9A01C05A9894B1926394B9579A81E04B
:10152000E81629F08C2F82958F700E944F0A8C2F1D
:101530008F700E944F0AFAB80BB914B9D5B9CDB75C
:10154000DEB7E7E00C94EC1342E060E00E946D0A25
:10155000089542E061E00E946D0A089541E060E074
:101560000E946D0A089580E197E2A0E0B0E08093C8
:10157000830190938401A0938501B0938601529AD0
:10158000209A549A8EE190E00E94990D83E00E9487
:10159000AE0A86E090E00E94990D83E00E94AE0AB8
:1015A00082E090E00E94990D83E00E94AE0A82E002
:1015B00090E00E94990D82E00E94AE0A82E090E0E5
:1015C0000E94990D88E20E94A40A88E00E94A40A61
:1015D00081E00E94A40A86E00E94A40A8CE00E9496
:1015E000A40A089581E00E94A40A80918901909143
:1015F0008A01892BF9F060E0A0E2262F30E070919B
:101600000C0180910D0190E00197789FA001799FD6
:10161000500D1124241735074CF4E0918901F09105
:101620008A01E20FF31FA0836F5FE7CF109287015B
:101630001092880108950E94F20A0895CF93DF93D3
:10164000EC018991882319F00E94A90AFACFDF9151
:10165000CF9108950E941E0B0895AAE0B0E0E3E345
:10166000FBE00C94CF131AE05AE0C52ED12CE12CEC
:10167000F12C062FA70196010E945C13CA01B90143
:101680001150E1E0F0E0EC0FFD1FE10FF11D005DF6
:101690002AE0629F001911240083611571058105FC
:1016A000910539F71A3058F4E1E0F0E0EC0FFD1F36
:1016B000E10FF11D80810E94A90A1F5FF3CF2A96D6
:1016C000E8E00C94EB13CF92DF92EF92FF926B0164
:1016D0007C0197FF0BC0F094E094D094C094C11C9F
:1016E000D11CE11CF11C8DE20E94A90AC701B601C0
:1016F0000E942D0BFF90EF90DF90CF9008950E94F5
:10170000630B0895A5E0B0E0E8E8FBE00C94D41387
:10171000182F80E8898380EC8A8384E98B8384EDA9
:101720008C83FE01E60FF11D8181810F6D830E9484
:10173000A40A109387016D81609388012596E3E0E8
:101740000C94F0130E94820B0895883058F491E0B5
:1017500001C0990F8A95EAF7892FAAE2B0E0EBE27F
:10176000F0E021C08E3060F498EF980F81E001C066
:10177000880F9A95EAF7A4E2B0E0E5E2F0E013C042
:10178000853160F492EF980F81E001C0880F9A953F
:10179000EAF7A7E2B0E0E8E2F0E005C080E0A0E010
:1017A000B0E0E0E0F0E06F3F19F49081982709C0C5
:1017B000662319F09081982B04C02081982F909572
:1017C000922390839C91982B9C93089583EF809310
:1017D000B00084BD82E08093B10085BD1092B4005A
:1017E0001092B30018BC17BC60E086E00E94A50B05
:1017F00060E085E00E94A50B60E08BE00E94A50BF5
:1018000060E083E00E94A50B08958091E8018111BA
:1018100005C081E08093E8010E94E60B0895CF9314
:10182000DF93EC010E94050CD7FF05C0D195C1954F
:10183000D10981E001C080E0CF3FD10519F014F05B
:10184000CFEFD0E0882319F018BCC7BD02C0C8BDD7
:1018500017BCDF91CF910895CF93DF93EC010E94E5
:10186000050CD7FF05C0D195C195D10981E001C014
:1018700080E0CF3FD10519F014F0CFEFD0E08823FE
:1018800029F01092B400C093B30004C0C093B40018
:101890001092B300DF91CF910895CF93DF93EB01C6
:1018A0000E940F0CCE010E942C0CDF91CF91089565
:1018B0000E944D0C089584B18D7C84B985B18263FA
:1018C00085B985E090E06F9364E06A95F1F76F91D8
:1018D0000197C9F708958091E901811105C081E060
:1018E0008093E9010E945B0C0895CF93C82F0E945A
:1018F0006B0C83B18C23E9F38AE090E00E94990D90
:1019000083B18C23B1F383B18C23CF9108950E94CE
:10191000750C0895A1E0B0E0E0E9FCE00C94D5136B
:1019200089830E946B0C93B19095898189232196BC
:10193000E2E00C94F1130E948A0C0895282F30E005
:101940009AE0899FF0011124E557FE4F808591852B
:10195000009721F052814481541780F08AE0829FE1
:10196000F001839FF00D1124E557FE4F9281848191
:1019700098130EC0858181110AC008954281DC014F
:10198000A40FB11D6C9382818F5F8283E7CF128297
:1019900008951F920F920FB60F9211242F933F9329
:1019A0004F935F936F937F938F939F93AF93BF9367
:1019B000EF93FF936091C60080E00E949E0CFF9120
:1019C000EF91BF91AF919F918F917F916F915F91B7
:1019D0004F913F912F910F900FBE0F901F90189530
:1019E0009AE0899FF0011124E557FE4F8681978187
:1019F000892B59F091818381981738F48081811166
:101A000004C08091C100806203C08091C1008F7DBD
:101A10008093C10008959AE0899FF0011124E55751
:101A2000FE4F268137812115310541F04181938197
:101A3000491720F49091C00095FD03C00E94F00C5E
:101A400008959181D901A90FB11D9C919093C60071
:101A500091819F5F9183F2CF1F920F920FB60F92E9
:101A600011242F933F934F935F936F937F938F93A3
:101A70009F93AF93BF93EF93FF9380E00E940B0D72
:101A8000FF91EF91BF91AF919F918F917F916F9156
:101A90005F914F913F912F910F900FBE0F901F902C
:101AA00018952F928F939F932FB680919C019091C0
:101AB0009D01019680939C0190939D0190E08091FF
:101AC0009E01891F80939E01909196019C5F909347
:101AD00096018091950180519742C0F090939601B4
:101AE0008093950180919701909198010196809340
:101AF00097019093980190E080919901891F8093BC
:101B0000990180919A01891F80939A012FBE9F911C
:101B10008F912F90189528EE33E0019748F0F90146
:101B20006F9364E06A95F1F76F913197C9F7F5CF3C
:101B300008950E948B0D0895E0E7F0E080818E7F8C
:101B40008083A0EBB0E08C9183608C93A1EBB0E03C
:101B50008C91807F8C938C9182608C93B89A8081D9
:101B600081608083789408958091EA01811105C095
:101B700081E08093EA010E949C0D08950E94B40DBB
:101B8000E0E7F0E080818E7F8083109297011092D1
:101B900098011092990110929A0110929601109258
:101BA00095018081816080830895462FBC018FE973
:101BB00091E00E9466100895682F8FE991E00E94DD
:101BC000C4110895462F20E0BC018FE991E00E94E6
:101BD000951208950F93CF93DF9300D000D01F92FA
:101BE000CDB7DEB79C0185E0E0E5F1E0DE011196BE
:101BF00001900D928A95E1F7662311F00FEF01C075
:101C000003E145E0BE016F5F7F4F8FE991E00E94E5
:101C1000BC0E8FE991E00E94930E0E94BE0D0F90C2
:101C20000F900F900F900F90DF91CF910F9108952B
:101C300060E00E94EA0D08958FE991E00E940A1386
:101C400008956F9364E06A95F1F76F910197C9F772
:101C50000895FC011182108213821282158214826F
:101C60001682683068F489E290E0918380838BE289
:101C700090E0938382838AE290E0958384831FC0FF
:101C80006E3070F483E290E09183808385E290E08F
:101C90009383828384E290E09583848368500FC0AD
:101CA000653198F486E290E09183808388E290E049
:101CB0009383828387E290E0958384836E5081E0F2
:101CC00001C0880F6A95EAF786830895A7E0B0E01F
:101CD000ECE6FEE00C94D3138C01FC01118210821F
:101CE000138212821582148217821682613118F0D3
:101CF00080E1808702C0FC016087F801208B642F9F
:101D0000CE0101960E94290E8F81F80181878B8177
:101D10009C81938782878D819E8195878487279672
:101D2000E4E00C94EF13FC01A485B585109779F0DD
:101D30008C919185892B8C93A285B3859C9181850B
:101D4000809589238C9388EC90E00E94210E089561
:101D5000FC01A485B585109771F08C919185892B34
:101D60008C93A285B3858C919185892B8C9388EC7B
:101D700090E00E94210E0895A7E0B0E0E2ECFEE0C2
:101D80000C94C8137C014B01642F3901402F20E0D3
:101D90000E94660E87010F5B1F4FF80110826701DA
:101DA000F2E4CF0ED11CF60110825701F3E4AF0E1E
:101DB000B11CF5011082F70177866686512CF70178
:101DC0008085581650F5652C712CF401E60DF71D31
:101DD0006081CE0101960E94290E2F81F701E60D48
:101DE000F71D218B89819A81F301EE0FFF1FEE0D04
:101DF000FF1D92A381A38332910511F4F80108C05D
:101E00008632910511F4F60103C0899721F4F5019A
:101E10008081822B80835394D2CF2796EFE00C945D
:101E2000E413A0E0B0E0E7E1FFE00C94CA13EC019A
:101E30005B016C0181E4C80ED11CF60180807E013B
:101E4000F2E4EF0EF11CF70170808E010D5B1F4F65
:101E5000F801908080E09885891748F4F501E80F33
:101E6000F11DE80FF11D118210828F5FF4CF84B154
:101E7000F6019081892B84B987B1F7019081892B74
:101E800087B98AB1F8019081892B8AB985B1F601A9
:101E90009081892B85B988B1F7019081892B88B908
:101EA0008BB1F8019081892B8BB98AE090E00E9478
:101EB000210E94B1F60180818095892384B997B170
:101EC000F70180818095892387B99AB1F8018081D3
:101ED000809589238AB995B1F601808180958923FF
:101EE00085B998B1F70180818095892388B99BB124
:101EF000F8018081809589238BB9E090B000D09063
:101F0000B1008091B00083608093B00082E0809344
:101F1000B1004091B20080E090E02E853F858217AD
:101F2000930720F5C090B2002C2D241B820F911D29
:101F300003B1081132C0F6B0F7102FC029B1291132
:101F40002CC010C0212F30E0A901440F551FF5010E
:101F5000E40FF51F60817181672B21F11F5F2885D8
:101F6000121780F37F2C802E4C2DD7CFE092B0003B
:101F7000D092B10020E08885281730F5F501E20FF6
:101F8000F11DE20FF11D80819181892B21F48E8555
:101F90009F85918380832F5FEECF03B1F6B099B018
:101FA00010E0DDCFDE01A40FB51F91960D90BC911E
:101FB000A02D4C91DE01A20FB31F51962C9142230C
:101FC00069F691838083CACFCDB7DEB7EDE00C947C
:101FD000E613EF92FF920F931F93CF93DF93FC01D1
:101FE0009B01F0907C0000917A0047B118B180917C
:101FF0007A0086FDFCCF80E09085891748F4D901EE
:10200000A80FB11DA80FB11D1D921C928F5FF4CFB8
:1020100097B182A18095892387B998B182A18095D3
:10202000892388B987E880937A00E12C81A1E8169A
:1020300010F0E12C29C050E08085581718F5A52F25
:10204000B0E0EF01CA0FDB1F8989806480937C00B8
:1020500080917A00806480937A0080917A0086FD76
:10206000FCCF6091780070917900AA0FBB1FA20F7E
:10207000B31F8D919C911197860F971F8D939C9301
:102080005F5FDACFE394D2CF8085E816A0F4E90150
:10209000CE0DD11DCE0DD11D61A170E0CB01959566
:1020A0008795A881B9818A0F9B1F0E943413798379
:1020B0006883E394E9CFF0927C0000937A0018B92A
:1020C00047B9CDB7DEB7E6E00C94ED13A0E2B0E07F
:1020D000ECE6F0E10C94D0138C017B01D42E8FEF51
:1020E000840F823018F4C8010E94A80ED8015096BF
:1020F0008C91B701811110C0C8010E94110FC80155
:102100000E94930EB2E0DB123AC0BE016F5F7F4FB8
:10211000C8010E94110F0FC0C8010E94E90FC80139
:102120000E94930EE2E0DE122AC0BE016F5F7F4F75
:10213000C8010E94E90F40E0F80180854817F8F4D3
:10214000842F90E0880F991FF701E80FF91F21E015
:1021500030E02C0F3D1F820F931FD8011E962D914A
:102160003C911F97DC018D919C91281B390B80813C
:102170009181820F931F918380834F5FDDCFA09663
:10218000E7E00C94EC132F923F925F926F927F9254
:102190008F929F92AF92BF92CF92DF92EF92FF9277
:1021A0000F931F93CF93DF93CDB7DEB7C056D109FE
:1021B0000FB6F894DEBF0FBECDBF8C014B015A01A4
:1021C000522EDA018D919C91892B31F0F40180819E
:1021D0009181892BF1F424C0D80118968C9190E05C
:1021E000880F991F0E94FC13F5019183808300974B
:1021F00009F4B1C0FC0120E030E0D80118968C91C0
:1022000090E02817390714F7119211922F5F3F4F72
:10221000F4CFE12CF12C6E01B1E2CB0ED11C21C028
:10222000F801808590E0880F991F0E94FC13D4016B
:102230008D939C93009709F48EC0FC0120E030E060
:10224000D80118968C9190E02817390714F7D80117
:102250001E968D919C911F97819391932F5F3F4F75
:10226000EFCF452DBE016F5B7F4FC8010E94661006
:10227000F8016084712CFE01EF5BFF4FC6019E01E7
:102280002F5F3F4F190120E030E0261537054CF550
:10229000E114F10489F0DC016D917C914081518160
:1022A0006417750748F0D1016D917C91408151818F
:1022B0004617570748F00DC040815181DC014D930E
:1022C0005C93E114F10479F740815181D1014D9380
:1022D0005C932F5F3F4FB2E02B0E311C329602967B
:1022E000D4CFEFEFEE1AFE0AFAE0EF16F10409F090
:1022F000B8CF9E012F5F3F4F7901360180E090E01B
:10230000F801208530E0821793072CF5D7012D9135
:102310003D917D01B3016C197D09D501ED91FC91D1
:10232000E60FF71F408151814217530710F43183A4
:102330002083F301219131913F01D401ED91FC9172
:10234000E60FF71F408151812417350710F43183C0
:1023500020830196D5CFC05ADF4F0FB6F894DEBF69
:102360000FBECDBFDF91CF911F910F91FF90EF90E6
:10237000DF90CF90BF90AF909F908F907F906F90A5
:102380005F903F902F9008951F93CF93DF93EC01C0
:10239000162F8FEF860F823018F0662359F014C085
:1023A00021E0AE014E5F5F4FBE01CE010E94C3101F
:1023B000123051F4AE014A5F5F4FBE016C5F7F4F38
:1023C00020E0CE010E94C310DF91CF911F910895AC
:1023D000A0E0B0E0EEEEF1E10C94CE13EC018B0145
:1023E000B42E842F8D7F51F48C819D81892B09F42B
:1023F00097C08E819F81892B09F492C08FEF8B0D3E
:10240000823050F488819981892B09F489C08A81AE
:102410009B81892B09F484C04B2DB801CE010E9409
:102420006610780100E010E0C12CD12C888590E086
:10243000C816D9060CF074C081E0B8120AC0EA814F
:10244000FB81E00FF11F0190F081E02DA881B9819F
:102450000DC08C819D812E813F81B1100CC0F9018E
:10246000E00FF11F0190F081E02DDC01A00FB11F02
:102470008D919C9128C0FC01E00FF11F408151819A
:10248000E881F981E00FF11F80819181EE85FF8560
:102490004817590710F4CF0104C08E0F9F1F841BEB
:1024A000950BD901A00FB11F2D913C91AA81BB8141
:1024B000A00FB11F4D915C912417350720F0E40F58
:1024C000F51FE21BF30BE81BF90BA9F0D7012D91C7
:1024D0003C9140E050E0281B390B41095109A8EE1E
:1024E000B3E00E94B2139F0140E050E00E947E13CF
:1024F00037FD0AC002C020E030E0293EB3E03B07D0
:102500002CF028EE33E002C020E030E0F701219308
:1025100031937F01FFEFCF1ADF0A0E5F1F4F86CF87
:10252000CDB7DEB7E9E00C94EA13A0E0B0E0EBE948
:10253000F2E10C94C513EC018B01822E0E94E8118C
:102540002884E801412C512C320100E010E0C12C1C
:10255000D12C7601312C912C58EEA52E53E0B52EBE
:10256000921421F1E991F991882021F0C5018E1B87
:102570009F0BFC01E93CF10524F4E333F10574F011
:1025800002C033243394DF01A30192010E94BD13E2
:10259000C60ED71EE81EF91E0E0F1F1F939498EE4D
:1025A000490E93E0591E611C711CDACF31101EC018
:1025B000492D50E04150510924EF31E0429FC001C4
:1025C000439F900D529F900D11242091E301309173
:1025D000E40128173907B4F088EE93E0489F900192
:1025E000499F300D589F300D11240EC0980140E0D6
:1025F00050E0C701B6010E945C133093E4012093C0
:10260000E30102C020E030E0C901CDB7DEB7E2E16E
:102610000C94E113CF93DF93EC018A819B810097A7
:1026200011F00E9494148E819F81009711F00E94F6
:10263000941488819981009711F00E9494148C81E0
:102640009D81009711F00E949414DF91CF9108951D
:10265000991B79E004C0991F961708F0961B881FF4
:102660007A95C9F780950895AA1BBB1B51E107C055
:10267000AA1FBB1FA617B70710F0A61BB70B881F12
:10268000991F5A95A9F780959095BC01CD010895A1
:1026900097FB072E16F4009407D077FD09D00E940F
:1026A000341307FC05D03EF4909581959F4F089513
:1026B000709561957F4F0895A1E21A2EAA1BBB1B4E
:1026C000FD010DC0AA1FBB1FEE1FFF1FA217B307FE
:1026D000E407F50720F0A21BB30BE40BF50B661F14
:1026E000771F881F991F1A9469F7609570958095D8
:1026F00090959B01AC01BD01CF010895052E97FB7C
:102700001EF400940E94951357FD07D00E945C139D
:1027100007FC03D04EF40C949513509540953095DA
:1027200021953F4F4F4F5F4F08959095809570953D
:1027300061957F4F8F4F9F4F0895EE0FFF1F0590BC
:10274000F491E02D0994A29FB001B39FC001A39F13
:10275000700D811D1124911DB29F700D811D1124DA
:10276000911D08950E94A313A59F900DB49F900DF5
:10277000A49F800D911D11240895B7FF0C94B213EE
:102780000E94B213821B930B08952F923F924F9297
:102790005F926F927F928F929F92AF92BF92CF92F1
:1027A000DF92EF92FF920F931F93CF93DF93CDB7FA
:1027B000DEB7CA1BDB0B0FB6F894DEBF0FBECDBF72
:1027C00009942A88398848885F846E847D848C8443
:1027D0009B84AA84B984C884DF80EE80FD800C814C
:1027E0001B81AA81B981CE0FD11D0FB6F894DEBF2F
:1027F0000FBECDBFED0108950F931F93CF93DF93CD
:102800008230910510F482E090E0E0916302F09153
:10281000640220E030E0A0E0B0E0309719F14081A0
:1028200051810281138148175907C8F08417950711
:1028300069F4109731F012960C93129713961C932B
:1028400027C0009363021093640222C02115310552
:1028500019F04217530718F49A01BD01EF01DF0187
:10286000F801DBCF21153105F9F0281B390B243095
:10287000310580F48A819B816115710521F0FB018E
:102880009383828304C09093640280936302FE0169
:10289000329644C0FE01E20FF31F819391932250C0
:1028A0003109398328833AC0209161023091620254
:1028B000232B41F4209110013091110130936202D9
:1028C0002093610220910E0130910F0121153105F5
:1028D00041F42DB73EB74091120150911301241BD2
:1028E000350BE0916102F0916202E217F307A0F468
:1028F0002E1B3F0B2817390778F0AC014E5F5F4F56
:102900002417350748F04E0F5F1F50936202409323
:1029100061028193919302C0E0E0F0E0CF01DF918A
:10292000CF911F910F910895CF93DF93009709F4F2
:1029300081C0FC01329713821282A0916302B09190
:102940006402109781F420813181820F931F2091BE
:102950006102309162022817390751F5F093620243
:10296000E093610267C0ED0120E030E0CE17DF07A1
:1029700040F44A815B819E0141155105F1F0EA0165
:10298000F5CFD383C28340815181840F951FC8172F
:10299000D90759F488819981840F951F02969183F4
:1029A00080838A819B81938382832115310529F459
:1029B000F0936402E09363023DC0E901FB83EA8384
:1029C00049915991C40FD51FEC17FD0761F480811F
:1029D0009181840F951F0296E901998388838281F2
:1029E00093819B838A83E0E0F0E012968D919C9125
:1029F0001397009719F0FD01DC01F7CF8D919C91A1
:102A000011979D012E5F3F4F820F931F209161020E
:102A1000309162022817390769F4309729F410922F
:102A200064021092630202C013821282B0936202A7
:102A3000A0936102DF91CF91089510E0C9E3D0E047
:102A400004C0FE010E949D132196CA33D107C9F725
:042A5000F894FFCF28
:102A540088130F00F4010400D007040108020000E9
:102A640065022000030100020203010000020301C9
:102A74000100020304000100040002000400040039
:102A840003000100010000009C01B501CF01EA012F
:102A940007022602470269028E02B502DE020A0319
:102AA4000E0F10111250726F64756374006D56002E
:102AB4006472756B2042002020006472756B206F75
:0A2AC400700042206B6E6F7000007E
:00000001FF
