S0140000526F626F7452756E477269642E737265634F
S11300000C9464000C9481000C9481000C94810085
S11300100C9481000C9481000C9481000C94810058
S11300200C9481000C9463150C9481000C94810051
S11300300C9481000C94C5110C9481000C948100E3
S11300400C9481000C9481000C94DB140C943E15E8
S11300500C9481000C9481000C9481000C94810018
S11300600C9481000C948100E501E801FC0110026C
S1130070240237024A025E027802AD02BC02CB02BD
S1130080EF02130337037A035E0305A84CCDB2D401
S11300904EB93836A9020C50B9918688083CA6AAF4
S11300A0AA2ABE000000803F3E6733323E3E6333DF
S11300B032003E6733323E3E633332003E673332B2
S11300C03E3E633332003D1611241FBECFEFD8E00D
S11300D0DEBFCDBF11E0A0E0B1E0EEE6FAE302C07E
S11300E005900D92A236B107D9F722E0A2E6B1E05D
S11300F001C01D92AF33B207E1F70E94EA040C94E9
S11301002A1D0C940000CF92DF92EF92FF920F937E
S11301101F93FB010081118122813381FC01C08086
S1130120D180E280F380FB01C082D182E282F3823B
S1130130FC0100831183228333831F910F91FF906D
S1130140EF90DF90CF9008952F923F924F925F925D
S11301506F927F928F929F92AF92BF92CF92DF92D3
S1130160EF92FF920F931F93CF93DF93CDB7DEB738
S1130170A5970FB6F894DEBF0FBECDBF9BA38AA38D
S11301806CA37DA3069698A38F8FB6C07E8E6D8ECA
S1130190F3010190F081E02DFA8FE98FBF01FF0F89
S11301A0880B990B0E943B0C6B017C013C8E2B8EBF
S11301B0F10100811181B801012E000C880B990B0B
S11301C00E943B0C4B015C019B01AC010E94F00CB2
S11301D0698B7A8B8B8B9C8BA5019401C501B4012F
S11301E00E94F00C4B015C01A7019601C701B60106
S11301F00E94F00C9B01AC01C501B4010E94920B5A
S11302000E946B0D6B017C01F201619371938193E8
S113021091932F01E98B59A280809180A280B380B1
S1130220A50194010E94EB0C1816D4F4B2018D8937
S11302309E890E948300F301828193812081318110
S11302403383228391838083F1018281938120818E
S1130250318133832283918380831F8A188E36C031
S1130260C701B6010E94030C7B01C501B4010E94C1
S1130270030CE616F70651F5EB8DFC8D8281938114
S11302800817190719F5ED8DFE8D82819381298D4B
S11302903A8D28173907D4F4698979A18D899E8903
S11302A00E948300ED8DFE8D8281938120813181B6
S11302B03383228391838083EB8DFC8D82819381B0
S11302C0208131813383228391838083F2E06F0E16
S11302D0711C22E0220E311C8D899E8904969E8B0E
S11302E08D8BEF8DF8A16E167F0609F04FCF2F8905
S11302F0388D2130310569F06AA07BA02CA03DA087
S1130300CE0101962C019E8B8D8B91E09F8B188ED4
S11303103DCFA5960FB6F894DEBF0FBECDBFDF91DB
S1130320CF911F910F91FF90EF90DF90CF90BF90EE
S1130330AF909F908F907F906F905F904F903F9081
S11303402F9008952F923F924F925F926F927F92D7
S11303508F929F92AF92BF92CF92DF92EF92FF92D1
S11303600F931F93CF93DF938C0185E090E0F80106
S113037091A780A7C1E0D0E00F2EF7E08F2E912C3B
S1130380F02D0F2EF6E0AF2EB12CF02D0F2EF5E050
S1130390CF2ED12CF02D6894EE24E2F8F12C0F2E00
S11303A0F3E06F2E712CF02D6894442441F8512C05
S11303B022242394312C0E94550A89309105D8F7C0
S11303C0FC01EC5CFF4F0C94AA1B0E94010AF3CFC2
S11303D0FE01EE0FFF1FE00FF11F318220822AE998
S11303E039E949E95EE362E58CE390E00E94300577
S11303F00E94010A2196DFCFFE01EE0FFF1FE00FDE
S1130400F11F518240822AE939E949E95EE36CE44B
S11304108CE390E00E9430050E94010A2196CBCF24
S11304202AE939E949E95EE36CE48CE390E00E944F
S113043030050E94010AFE01EE0FFF1FE00FF11FBD
S1130440718260822196B7CFFE01EE0FFF1FE00F8D
S1130450F11FF182E0822AE037ED43E65FE366E4D0
S113046080E590E00E9430050E94010AA4CFFE01BD
S1130470EE0FFF1FE00FF11FD182C0822AE037ED9B
S113048043E65FE366E480E590E00E9430050E9465
S1130490010A91CF2AE939E949E95EE36CE48CE386
S11304A090E00E9430050E94010A2196FE01EE0FA1
S11304B0FF1FE00FF11FB182A0827DCFFE01EE0F7E
S11304C0FF1FE00FF11F918280822AE939E949E98F
S11304D05EE362E58CE390E00E9430052AE939E9A5
S11304E049E95EE362E580E090E00E94300563CF75
S11304F0FE01EE0FFF1FE00FF11F88E090E09183F3
S113050080831C161D060CF0FAC0D80121E030E0EF
S1130510E12CF12C80E090E048E26894882483F890
S1130520912C0F2EF6E06F2E712CF02D0F2EF3E090
S11305304F2E512CF02D6894CC24C1F8D12CAA2430
S1130540A394B12CED91FD913197E830F10508F0B9
S1130550D1C0E35CFF4F0C94AA1B429FF001439F60
S1130560F00D1124E00FF11FBC01660F771FE60F99
S1130570F71FB182A082BEC0429FF001439FF00DDD
S11305801124E00FF11FBC01660F771FE60FF71F60
S1130590D182C082AFC06D917C9111976730710593
S11305A079F4429FF001439FF00D1124E00FF11FF5
S11305B0BC01660F771FE60FF71FB182A0829AC0B5
S11305C0429FF001439FF00D1124E00FF11FBC0185
S11305D0660F771FE60FF71FD182C0828BC06D9123
S11305E07C9111976730710579F4429FF001439F24
S11305F0F00D1124E00FF11FBC01660F771FE60F09
S1130600F71FB182A08276C0429FF001439FF00D94
S11306101124E00FF11FBC01660F771FE60FF71FCF
S11306205182408267C06D917C911197673071054A
S113063079F4429FF001439FF00D1124E00FF11F64
S1130640BC01660F771FE60FF71FB182A08252C06C
S1130650429FF001439FF00D1124E00FF11FBC01F4
S1130660660F771FE60FF71FD182C08243C0FFEFEA
S1130670EF1AFF0A429FB001439F700D1124600FCF
S1130680711FFC01EE0FFF1FE60FF71F71826082DE
S113069052E0E516F10471F5FC013197EE0FFF1FEE
S11306A0E60FF71F608171816630710519F5959623
S11306B05C924E929497E12CF12C1CC0429FF00165
S11306C0439FF00D1124E00FF11FBC01660F771F4B
S11306D0E60FF71F9182808264E170E06150710936
S11306E0E9F7FD013297118210822430310514F4A8
S11306F02F5F3F4F0196C817D90709F023CFCE01CA
S1130700DF91CF911F910F91FF90EF90DF90CF90E9
S1130710BF90AF909F908F907F906F905F904F901D
S11307203F902F900895CF92DF92EF92FF920F9314
S11307301F93CF93DF936C01EB017A018901413060
S1130740510511F001E010E0C230D10549F42AE965
S113075039E949E95EE362E586E490E00E94300508
S113076028E22C9FC0012D9F900D1124E801CC0F8D
S1130770DD1FC80FD91FCC0DDD1D0E94010A0E9488
S1130780550A892BD1F30E94550A892BC9F1E1142A
S1130790F104B1F58991999182309105A1F01CF48D
S11307A0019739F02DC083309105B9F00597F9F020
S11307B027C02AE939E949E95EE362E586E490E085
S11307C00E943005DACF2AE939E949E95EE36CE4AD
S11307D086E490E00E943005D0CF2AE037ED43E66E
S11307E05FE366E480E590E00E943005C6CF2AE02E
S11307F037ED43E65FE366E480E090E00E94300575
S1130800DF91CF911F910F91FF90EF90DF90CF90E8
S113081008954F925F926F927F928F929F92AF92C0
S1130820BF92CF92DF92EF92FF920F931F93CF93D9
S1130830DF93082F192FD62FC72F4A01CA010E9410
S1130840A2013C019C0140E050E061E070E0C40181
S11308500E9493032AE037ED43E65FE362E586E412
S113086090E00E94300582E390E00E94AB152AE0FC
S113087037ED43E65FE362E580E090E00E943005F7
S1130880C02ED12EED2EFC2EA12CB12C00E010E0B8
S113089044244394512C0CC084E0A816B10411F4F0
S11308A0042D152DE2E0CE0ED11CF2E0EF0EF11C6A
S11308B0E60188819981992354F42AE037ED43E6CF
S11308C05FE36CE486E490E00E94300519C01816DA
S11308D019061CF00130110599F42AE037ED43E6BE
S11308E05FE362E586E490E00E94300509C02AE0F7
S11308F037ED43E65FE366E48AE590E00E94300565
S113090088819981892B99F70130110581F32AE0B7
S113091037ED43E65FE366E480E090E00E94300553
S1130920E70188819981992374F42AE037ED43E63D
S11309305FE36CE486E490E00E943005888199814D
S1130940892B71F41AC018161906C4F72AE037ED7A
S113095043E65FE362E586E490E00E943005EECF73
S11309602AE037ED43E65FE366E48AE590E00E941F
S1130970300588819981892B99F782EB90E00E9458
S1130980241288EC90E00E94AB158FEFA81AB80AE5
S1130990E5E0AE16B10409F07FCF930141E050E0E9
S11309A061E070E0C4010E94930388EA90E00E9431
S11309B02412DF91CF911F910F91FF90EF90DF9060
S11309C0CF90BF90AF909F908F907F906F905F90EB
S11309D04F9008950F931F93CF93DF93CDB7DEB756
S11309E0C056D1090FB6F894DEBF0FBECDBF0E942A
S11309F07D09CE0101960E94A2018C01BE01675AB5
S1130A007F4FCE018F5A9F4F0E948C0BBE01675AB5
S1130A107F4FCE018F5A9F4F0E94A400980140E05F
S1130A2050E061E070E0CE0101960E949303AE01B4
S1130A304F5F5F4FBE01675A7F4FCE018F5A9F4F62
S1130A400E94090480E090E0C05ADF4F0FB6F8948A
S1130A50DEBF0FBECDBFDF91CF911F910F910895DF
S1130A602F923F924F925F926F927F928F929F92BA
S1130A70AF92BF92CF92DF92EF92FF920F931F93A8
S1130A80CF93DF93CDB7DEB766970FB6F894DEBF8A
S1130A900FBECDBF1C0129833A834B835C8366342C
S1130AA061F020F4623409F495C008C46C3409F48C
S1130AB0A9C2623509F41BC101C48091D30190918C
S1130AC0D4019101281B390B45E650E05A87498728
S1130AD0412C512C3201032E000C440B550B2D8359
S1130AE03E834F8358870E94E3158B012BED3FE033
S1130AF049EC50E4C301B2010E94F00C0E945D0D68
S1130B0023E839EF42E25EE30E94F00C9B01AC0162
S1130B10C301B2010E94910B4B015C016D817E8186
S1130B208F8198850E943B0C9B01AC01C501B401E7
S1130B300E94F00C4B015C016091D3017091D401CF
S1130B40072E000C880B990B0E943B0C9B01AC01F7
S1130B50C501B4010E94920B0E94030CDC01CB017D
S1130B60BC010E946A144801110FAA08BB080E9424
S1130B70E315681979098A099B090E94390C6B01EC
S1130B807C0120E030E040E251E469817A818B818C
S1130B909C810E94F00C9B01AC01C701B6010E942C
S1130BA0FE0B882324F32AE037ED43E25CE3C30120
S1130BB0B2010E94920B2B013C01A985BA851197C1
S1130BC0BA87A987AB2B09F08ECF3092D40120923B
S1130BD0D3017AC38091D3019091D4019101281B50
S1130BE0390B45E650E05A874987412C512C320194
S1130BF0032E000C440B550B2D833E834F835887E3
S1130C000E94E3158B012BED3FE049EC50E4C30156
S1130C10B2010E94F00C0E945D0D23E839EF42E21C
S1130C205EE30E94F00C9B01AC01C301B2010E947F
S1130C30910B4B015C016D817E818F8198850E94AF
S1130C403B0C9B01AC01C501B4010E94F00C4B01AB
S1130C505C016091D3017091D401072E000C880BC4
S1130C60990B0E943B0C9B01AC01C501B4010E948D
S1130C70920B0E94030CDC01CB01BC010E946A149C
S1130C804801110FAA08BB080E94E31568197909E5
S1130C908A099B090E94390C6B017C0120E030E039
S1130CA040E251E469817A818B819C810E94F00C3D
S1130CB09B01AC01C701B6010E94FE0B882324F3FB
S1130CC02AE037ED43E25CE3C301B2010E94920BD8
S1130CD02B013C01A985BA851197BA87A987AB2B4B
S1130CE009F08ECF3092D4012092D301EDC28091CD
S1130CF0D1019091D201820D931D2091CF013091A9
S1130D00D001A101421B530B9A0105E610E01D829C
S1130D101E821F821886AC01990F660B770B4D87D4
S1130D205E876F87788BB901330F880B990B698BBA
S1130D307A8B8B8B9C8B0E94E3157E8B6D8B6091E1
S1130D40D3017091D401072E000C880B990B0E94DB
S1130D503B0C69877A878B879C872BED3FE049ECB6
S1130D6050E46D817E818F8198850E94F00C0E94F1
S1130D705D0D23E839EF42E25EE30E94F00C2D8121
S1130D803E814F8158850E94920B4B015C0160911A
S1130D90D1017091D201072E000C880B990B0E948F
S1130DA03B0C2B013C016D857E858F8598890E94C3
S1130DB03B0CA50194010E94F00C9B01AC01C30102
S1130DC0B2010E94910B29853A854B855C850E946E
S1130DD0920B0E94030C2B013C016091CF01709196
S1130DE0D001072E000C880B990B0E943B0C6B0161
S1130DF07C0169897A898B899C890E943B0CA501B5
S1130E0094010E94F00C9B01AC01C701B6010E9441
S1130E10920B29853A854B855C850E94920B0E9432
S1130E20030CDC01CB01B2010E946A148D899E89F6
S1130E304C01990FAA08BB080E94E3156B017C01C1
S1130E4020E030E040E251E469817A818B819C8129
S1130E500E94F00C2B013C01C701B6016819790905
S1130E608A099B090E94390CA30192010E94FE0B7E
S1130E70882314F32AE037ED43E25CE36D817E813D
S1130E808F8198850E94920B6D837E838F839887D0
S1130E900150110909F04FCF882799278219930926
S1130EA09093D2018093D1013092D0012092CF014E
S1130EB005E610E019821A821B821C829C01990F9C
S1130EC0440B550B29873A874B875C87C12CD12C5F
S1130ED076010E94E3157E876D876091D30170913E
S1130EE0D401072E000C880B990B0E943B0C6983DC
S1130EF07A838B839C832BED3FE049EC50E4C7015C
S1130F00B6010E94F00C0E945D0D23E839EF42E225
S1130F105EE30E94F00CA70196010E94920B4B0124
S1130F205C0169857A858B859C850E943B0C9B01BD
S1130F30AC01C501B4010E94F00C4B015C0160914D
S1130F40D1017091D201072E000C880B990B0E94DD
S1130F503B0CA50194010E94910B29813A814B819C
S1130F605C810E94920B0E94030C6D837E838F83AD
S1130F7098876091CF017091D001072E000C880BE7
S1130F80990B0E943B0CA50194010E94920B2981AC
S1130F903A814B815C810E94920B0E94030CDC011C
S1130FA0CB016D817E810E946A144D855E854A0164
S1130FB0550FAA08BB080E94E315681979098A0924
S1130FC09B090E94390C9B01AC01C301B2010E9430
S1130FD0EB0C181684F32AE037ED43E25CE3C70117
S1130FE0B6010E94920B6B017C010150110909F0BA
S1130FF070CF1092D2011092D1011092D0011092B0
S1131000CF0162C18091D1019091D2019101281B3D
S1131010390B8091CF019091D001820D931D65E62B
S113102070E07A8B698B1D821E821F821886A9014B
S1131030330F660B770B49875A876B877C879C0134
S1131040990F440B550B2D873E874F87588B0E9471
S1131050E3158B012BED3FE049EC50E46D817E817B
S11310608F8198850E94F00C0E945D0D23E839EF72
S113107042E25EE30E94F00C2D813E814F8158854F
S11310800E94920B6B017C016091D1017091D2019D
S1131090072E000C880B990B0E943B0C4B015C0142
S11310A069857A858B859C850E943B0CA7019601F6
S11310B00E94F00C9B01AC01C501B4010E94920B8B
S11310C00E94030C4B015C016091CF017091D0012F
S11310D0072E000C880B990B0E943B0C2B013C0142
S11310E06D857E858F8598890E943B0CA7019601AA
S11310F00E94F00C9B01AC01C301B2010E94910B50
S11311000E94030CDC01CB01B4010E946A14480163
S1131110110FAA08BB080E94E3152B013C0120E033
S113112030E040E251E469817A818B819C810E94A4
S1131130F00C6B017C01C301B201681979098A09B9
S11311409B090E94390CA70196010E94FE0B88237B
S113115014F32AE037ED43E25CE36D817E818F81F5
S113116098850E94920B6D837E838F839887A989CB
S1131170BA891197BA8BA98BAB2B09F068CF30923F
S1131180D2012092D1013194219431083092D001BE
S11311902092CF0125E630E019821A821B821C823C
S11311A0A101330C660B770B4D835E836F837887C5
S11311B03A872987812C912C54010E94E3158B01D5
S11311C02BED3FE049EC50E4C501B4010E94F00C62
S11311D00E945D0D23E839EF42E25EE30E94F00CC9
S11311E0A50194010E94920B2B013C016D817E812B
S11311F08F8198850E943B0C9B01AC01C301B20115
S11312000E94F00C2B013C016091D1017091D2013C
S1131210072E000C880B990B0E943B0CA301920132
S11312200E94920B0E94030C69837A838B839C83B4
S11312306091CF017091D001072E000C880B990B9F
S11312400E943B0CA30192010E94910B0E94030C8B
S1131250DC01CB0169817A810E946A142801110F93
S1131260660877080E94E3156419750986099709C9
S11312700E94390C9B01AC01C701B6010E94EB0C22
S1131280181684F32AE037ED43E25CE3C501B401A8
S11312900E94920B4B015C0169857A85615071094A
S11312A07A876987672B09F088CF1092D201109250
S11312B0D1011092D0011092CF0106C060E070E01D
S11312C080E090E00E946A1466960FB6F894DEBF40
S11312D00FBECDBFDF91CF911F910F91FF90EF9083
S11312E0DF90CF90BF90AF909F908F907F906F9042
S11312F05F904F903F902F900895CF93DF9380EDB0
S113130097E00E9439161BC00E940B0FEC010E944B
S11313102D13BE01DD0F880B990B0E94911381E3FD
S113132091E00E943C1361E080E00E94B41384E3E6
S113133091E00E943C1384E690E00E94AB1580E1AA
S11313400E94AD14882301F380E10E94991488EE71
S113135093E00E94AB15CCEEDFEFC832D10538F034
S113136068ED7FEF88E290E00E946A1406C068E2AC
S113137070E088ED9FEF0E946A1481E00E94FD15E1
S113138084E190E00E94AB152196CC33D10529F776
S113139060E070E080E090E00E946A141FC0599AF7
S11313A0519A61E081E392E00E940316EC010E94ED
S11313B02D138BE391E00E943C13BE0180E090E08A
S11313C00E94911361E080E00E94B4138CE391E0E9
S11313D00E943C1384E690E00E94AB1580E10E94D9
S11313E0AD148823E1F280E10E9499140E942D1328
S11313F08EE391E00E943C13599A519ADF91CF9168
S11314000895CF93DF9361E081E392E00E94031695
S1131410EC010E942D13CE3987E0D807C8F45F9AF7
S1131420579AC830D74050F42AE037ED43E65FE3DB
S11314306CE48CE390E00E94300534C02AE037ED80
S113144043E65FE36CE48DE290E00E9430052AC03D
S1131450C33088E0D807C8F0599A519AC939D8409E
S113146050F02AE037ED43E65FE362E58CE390E079
S11314700E94300517C02AE037ED43E65FE362E5DA
S11314808DE290E00E9430050DC05998519A5F9802
S1131490579A2AE037ED43E65FE366E48CE390E095
S11314A00E943005DF91CF91089561E081E392E0DD
S11314B00E9403168091310290913202893027E014
S11314C0920700F12091330230913402283E3340D8
S11314D0C8F42091350230913602283E334008F09A
S11314E0FBC02091370230913802283E334008F087
S11314F0F3C02091390230913A02283E334008F477
S1131500CAC0EAC0883E23E0920700F52091330266
S113151030913402283E3340C8F420913502309192
S11315203602283E334008F0DDC020913702309166
S11315303802283E334008F0D5C02091390230915A
S11315403A022930374008F4CDC0A8C0893027E0DA
S1131550920708F4D3C02091330230913402283E1C
S11315603340B0F4209135023091360229303740AF
S113157078F02091370230913802283E334040F40D
S11315802091390230913A022930374008F089C05D
S11315902091330230913402293047E03407B0F00F
S11315A04091350250913602483E534078F44091C0
S11315B03702509138024930574040F04091390287
S11315C050913A024930574008F06EC0283E3340EB
S11315D0C8F420913502309136022930374008F49E
S11315E095C02091370230913802283E334008F0EC
S11315F07FC02091390230913A02283E334008F4EA
S113160056C076C0883E23E0920718F52091330235
S113161030913402283E3340E0F42091330230917B
S11316203402283E3340A8F420913502309136022A
S1131630283E334070F42091370230913802283E1E
S1131640334038F42091390230913A02283E334035
S113165088F18930974088F1809133029091340267
S11316608930974068F18091350290913602893033
S1131670974048F180913702909138028930974021
S113168028F18091390290913A028930974008F10B
S113169088E090E0089582E090E0089581E090E091
S11316A0089586E090E0089583E090E0089585E051
S11316B090E0089587E090E0089580E090E0089538
S11316C080E090E0089580E090E0089580E090E06C
S11316D0089580E090E00895883E43E0940708F080
S11316E03ACF1BCF893067E0960708F03BCF06C09E
S11316F0883E23E0920708F490CFABCF883E43E0C6
S1131700940708F483CF80E090E00895883E63E076
S1131710960708F482CF9DCF8CEB90E00E942412B0
S113172008955058BB27AA270E94A90B0C94B10C0A
S11317300E94A30C38F00E94AA0C20F039F49F3FB9
S113174019F426F40C94A00C0EF4E095E7FB0C9429
S11317509A0CE92F0E94C20C58F3BA176207730758
S11317608407950720F079F4A6F50C94E40C0EF4A4
S1131770E0950B2EBA2FA02D0B01B90190010C019D
S1131780CA01A0011124FF27591B99F0593F50F4B5
S1131790503E68F11A16F040A22F232F342F44270D
S11317A0585FF3CF469537952795A795F040539505
S11317B0C9F77EF41F16BA0B620B730B840BBAF0D5
S11317C09150A1F0FF0FBB1F661F771F881FC2F740
S11317D00EC0BA0F621F731F841F48F48795779554
S11317E06795B795F7959E3F08F0B0CF9395880F0E
S11317F008F09927EE0F9795879508950E94760C27
S113180008F481E008950E940A0C6894B1110C94C4
S1131810E50C08950E94CA0C88F09F5798F0B92FE0
S11318209927B751B0F0E1F0660F771F881F991F11
S11318301AF0BA95C9F714C0B13091F00E94E40CC3
S1131840B1E008950C94E40C672F782F8827B85FD3
S113185039F0B93FCCF3869577956795B395D9F769
S11318603EF490958095709561957F4F8F4F9F4F73
S11318700895E89409C097FB3EF49095809570957F
S113188061957F4F8F4F9F4F9923A9F0F92F96E9C8
S1131890BB279395F695879577956795B795F1113D
S11318A0F8CFFAF4BB0F11F460FF1BC06F5F7F4FDA
S11318B08F4F9F4F16C0882311F096E911C07723EC
S11318C021F09EE8872F762F05C0662371F096E8F5
S11318D0862F70E060E02AF09A95660F771F881FC4
S11318E0DAF7880F9695879597F90895990F000868
S11318F0550FAA0BE0E8FEEF16161706E807F907DE
S1131900C0F012161306E407F50798F0621B730B78
S1131910840B950B39F40A2661F0232B242B252BF9
S113192021F408950A2609F4A140A6958FEF811D9C
S1131930811D089597F99F6780E870E060E008953D
S11319409FEF80EC089500240A94161617061806D3
S11319500906089500240A941216130614060506AF
S11319600895092E0394000C11F4882352F0BB0F40
S113197040F4BF2B11F460FF04C06F5F7F4F8F4FA3
S11319809F4F089557FD9058440F551F59F05F3FDE
S113199071F04795880F97FB991F61F09F3F79F08D
S11319A087950895121613061406551FF2CF46950F
S11319B0F1DF08C0161617061806991FF1CF869591
S11319C07105610508940895E894BB276627772775
S11319D0CB0197F908950E94760C08F48FEF0895CF
S11319E00E94030D0C94B10C0E94A30C38F00E94C9
S11319F0AA0C20F0952311F00C949A0C0C94A00CD2
S1131A0011240C94E50C0E94C20C70F3959FC1F351
S1131A10950F50E0551F629FF001729FBB27F00D98
S1131A20B11D639FAA27F00DB11DAA1F649F6627ED
S1131A30B00DA11D661F829F2227B00DA11D621F3C
S1131A40739FB00DA11D621F839FA00D611D221FF6
S1131A50749F3327A00D611D231F849F600D211DDA
S1131A60822F762F6A2F11249F5750409AF0F1F05D
S1131A7088234AF0EE0FFF1FBB1F661F771F881FC6
S1131A8091505040A9F79E3F510580F00C949A0C58
S1131A900C94E50C5F3FE4F3983ED4F38695779578
S1131AA06795B795F795E7959F5FC1F7FE2B880F6C
S1131AB0911D9695879597F908959F930E94C20D5D
S1131AC00F9007FCEE5F0C94EB0D19F416F40C94D4
S1131AD0A00C0C94AB0D0E94CA0CB8F39923C9F363
S1131AE0B6F39F57550B87FF0E94B90D0024A0E65B
S1131AF040EA900180585695979528F4805C660FCB
S1131B00771F881F20F026173707480730F4621B19
S1131B10730B840B202931294A2BA695179407941B
S1131B20202531254A2758F7660F771F881F20F094
S1131B3026173707480730F4620B730B840B200D0C
S1131B40311D411DA09581F7B901842F9158880F4B
S1131B509695879508959F3F31F0915020F487958D
S1131B6077956795B795880F911D9695879597F901
S1131B70089591505040660F771F881FD2F708953B
S1131B800C94A00C0E94CA0CD8F3E894E0E0BB27A4
S1131B909F57F0F02AED3FE049EC06C0EE0FBB0F73
S1131BA0661F771F881F28F0B23A620773078407FD
S1131BB028F0B25A620B730B840BE3959A9572F773
S1131BC0803830F49A95BB0F661F771F881FD2F7B1
S1131BD090480C94AD0DEF93E0FF07C0A2EA2AED04
S1131BE03FE049EC5FEB0E94A90B0E94B10C0F90FF
S1131BF0039401FC9058EAE8F0E00C94FF0D9F93E5
S1131C008F937F936F93FF93EF939B01AC010E949B
S1131C10F00CEF91FF910E94130E2F913F914F9181
S1131C205F910C94F00CDF93CF931F930F93FF926B
S1131C30EF92DF927B018C01689406C0DA2EEF01EB
S1131C400E94030DFE01E894A591259135914591DB
S1131C505591A6F3EF010E94A90BFE019701A8017B
S1131C60DA9469F7DF90EF90FF900F911F91CF9175
S1131C70DF910895ECE7F0E080818F7D8083089503
S1131C80811103C00E943A0E089580917C00806205
S1131C9080937C00089580917C0085FB882780F9DF
S1131CA008950E944B0E882321F08091790090E0E2
S1131CB00895809178009091790008958032A0F47D
S1131CC097E890937A0090917C00662311F0906CD1
S1131CD002C09F779064907E982B90937C008091B3
S1131CE07A00806480937A000895A0E0B0E0EBE786
S1131CF0FEE00C94DC1BEB0160E00E945E0E809120
S1131D007A0086FDFCCF8E01C12CD12C7601809106
S1131D107A00806480937A0080917A0086FDFCCFFB
S1131D200E94510EC80ED91EE11CF11C015011096C
S1131D300115110561F7CE0196958795C034D1053B
S1131D4038F48C0D9D1DBE010E94551BCB010EC0A5
S1131D50A7019601280F391F411D511DCA01B90160
S1131D609E0140E050E00E94691BC901CDB7DEB777
S1131D70E8E00C94F81BCF92DF92EF92FF92A091CF
S1131D800001B09101019C010E94B01B6B017C0118
S1131D900E944B0E882359F0C701B60161587F4F4A
S1131DA08F4F9F4F2FEF30E040E050E00AC0C70153
S1131DB0B60161507E4F8F4F9F4F2FEF33E040E0CD
S1131DC050E00E94691BC901FF90EF90DF90CF9013
S1131DD008950E94750E0E94BB0E08951F93CF9321
S1131DE0DF930E944B0E182F0E943A0E6AE070E0B7
S1131DF086E00E94E90EEC01812F0E94400ECE0184
S1131E00880F991F8C0F9D1F019696958795DF91DA
S1131E10CF911F9108950E94EE0E0895909167014D
S1131E20E0916201F0916301992311F0849101C062
S1131E3080812FEB280F2A3110F4805E08958032C0
S1131E4049F49F012F5F3F4F309363012093620158
S1131E50EF2B31F708951F93CF93DF930E940E0F5A
S1131E60C0E0D0E01AE090ED980F9A30B8F49E01EB
S1131E70129FE001139FD00D1124C80FD11D87FDBF
S1131E80DA95E097809162019091630101969093B5
S1131E906301809362010E940E0FE5CFCE01DF91B2
S1131EA0CF911F91089510926F0083E28093800078
S1131EB081E1809381001092820080E197E2909307
S1131EC089008093880010928B0010928A00229AD5
S1131ED0789408958F929F92AF92BF92DF92EF927F
S1131EE0FF920F931F93CF93DF935C018B01D42E4A
S1131EF080916401811105C081E0809364010E9496
S1131F00530F10920B01B7FE05C0E894B7F82AE00E
S1131F10F22E02C0FF24F394E09081002E2D287F3E
S1131F20E22E48ECF49EC00111248A159B05E0F4CE
S1131F30E50151E1A51657E2B50610F0C0E1D7E27C
S1131F40BE017695679580E090E0605879468746B3
S1131F509F4F4E01A12CB12CA50194010E94691B35
S1131F6059018E2D816024C0C8E2FC9EC02D11242D
S1131F70D0E0CA15DB0508F4E501BE017695679546
S1131F809E0140E050E08AE0F81207C080E090E053
S1131F90605E734481449F4F06C080E090E06053CC
S1131FA07D4E8C4E9F4F0E94691B59018E2D82607D
S1131FB0882E2AE0F21207C0CE0105966AE070E08E
S1131FC00E94551BEB01C83E43E0D40759F0980129
S1131FD0DE010E94B01B28EE33E040E050E00E9496
S1131FE08B1B890110926F0080928100B09289004E
S1131FF0A092880020918800309189004D2D4031B5
S113200008F04FE080E190E0841B9109A90102C02F
S1132010569547958A95E2F750938B0040938A0032
S113202010936A010093690186B38FEF86BB81E048
S113203080936F00DF91CF911F910F91FF90EF90EC
S1132040DF90BF90AF909F908F900895CF93DF93D0
S1132050EB018F3F11F0411105C040E0BE0188EE55
S113206093E043C0813130F050EF580F503618F0F0
S11320705FE501C050E0852F6CE00E94491B682F8A
S113208074EF760390011124250F311D2C30310596
S113209040F4F901EE0FFF1FEC5EFE4F2081318109
S11320A002C020E030E0873081F0082E02C0220F09
S11320B0331F0A94E2F7823028F0C90105966AE0DA
S11320C070E00CC0C90190580CC0C90136E0880FFB
S11320D0991F3A95E1F7029665E070E00E94551B5E
S11320E0CB01403108F04FE0BE010E946A0FDF913E
S11320F0CF910895A2E0B0E0E0E8F0E10C94D41BA5
S113210090900A0180916601882321F06091650115
S1132110611117C077247394B0ECAB2EBDE5BB2ED0
S11321201AE0612E04E0802E80EDC82E87E0D82EC0
S113213094E0E92EF12C04EF11E02FE0422E512C13
S113214015C070E040E088EE93E00E946A0F1092A0
S1132150650117C18636D4F5813609F4A9C07CF52A
S11321608C3309F460C08E3381F493940E940E0F73
S113217020916201309163012F5F3F4F30936301DF
S113218020936201853631F752C0813209F08BC049
S113219080920A01D0920901C0920801F0920701CD
S11321A0E09206011093050100930401509203018B
S11321B04092020110926601A4E09A2ED7CF833692
S11321C0A1F10CF478C010E082E077C08D36C1F143
S11321D094F4873691F174F18C3609F064C00E944E
S11321E02B0FBC0190930701809306018091080195
S11321F09091090151C08237C9F14CF48F3609F02E
S113220052C00E942B0F982E80930A01AFCF8437BF
S113221081F1863709F047C00E942B0F9093030188
S113222080930201A3CF9A94A1CF10E020C010E0C4
S113223084E043C010E085E040C010E087E03DC08A
S11322400E940E0F8C3619F41092660104C070922D
S113225066011092650120916201309163012F5F44
S11322603F4F309363012093620180CF11E080E0FF
S113227024C00E942B0FBC01C5010E94551B669E01
S1132280C001679E900D1124909309018093080169
S113229060910601709107010E94551B709305011E
S11322A06093040163CF109263011092620169C0CC
S11322B010E089E002C010E08BE0082F9CE0999EBA
S11322C0000D11240E940E0F982F977F933261F412
S11322D020916201309163012F5F3F4F309363017E
S11322E0209362010F5FEECF8D3271F42091620171
S11322F0309163012F5F3F4F30936301209362015C
S113230001500E940E0FF0CF6091040170910501FD
S11323108153883050F4E0900801F09009010E9444
S11323202B0FBC01C7010E94551B7B01F694E79457
S113233069837A830E940E0F69817A818E3269F4EF
S113234020916201309163012F5F3F4F309363010D
S1132350209362016E0D7F1DE9CF80916601882371
S113236039F09B013695279520936501621B71090D
S113237040910201112311F08FEF01C0802F0E94C0
S113238026102296E0E10C94F01B1F920F920FB6D8
S11323900F9211242F933F934F935F936F937F93E7
S11323A08F939F93AF93BF93EF93FF9380916901B2
S11323B090916A019C012150310930936A01209364
S11323C06901892B11F510926F0078948091810036
S11323D0887F81608093810080E197E290938900F7
S11323E08093880010928B0010928A0081E0809381
S11323F00B018091620190916301892B31F08091EE
S11324006801811102C00E947A10FF91EF91BF917F
S1132410AF919F918F917F916F915F914F913F9178
S11324202F910F900FBE0F901F90189510926F0070
S1132430909363018093620181E08093670110921D
S113244065010E947A1008950E941612089581E091
S113245090E06F9364E06A95F1F76F910197C9F783
S113246008950F931F93CF93DF931AB157985A98F7
S1132470289AC0E0D0E00E9427125C9A0E9427129A
S113248009B15C980E9427125C9A0E9427125C98FA
S1132490249607FF10C0AE0160E070E080916B01EC
S11324A090916C01A0916D01B0916E01481759078C
S11324B06A077B0700F31AB9DF91CF911F910F913F
S11324C0089595B1282F217030E0220F331F482F33
S11324D0467068E0469FA0011124242B9D7C292B83
S11324E025B99BB188708295807F9F77892B8BB9A2
S11324F05C9A0E9427125C980E9427120895A0E01B
S1132500B0E0E5E8F2E10C94DD1BC82FD62EE42EF2
S11325108091D501811105C081E08093D5010E948D
S1132520C5120E94311214B1D5B1FAB00BB128987A
S1132530DD2011F05A9A01C05A9894B1926394B96B
S1132540579A81E0E81629F08C2F82958F700E94AB
S113255061128C2F8F700E946112FAB80BB914B9F2
S1132560D5B9CDB7DEB7E7E00C94F91B42E060E0E3
S11325700E947F12089542E061E00E947F12089554
S113258041E060E00E947F12089580E197E2A0E0BC
S1132590B0E080936B0190936C01A0936D01B093B4
S11325A06E01529A209A549A8EE190E00E94AB15E3
S11325B083E00E94C01286E090E00E94AB1583E0A5
S11325C00E94C01282E090E00E94AB1583E00E945A
S11325D0C01282E090E00E94AB1582E00E94C0121B
S11325E082E090E00E94AB1588E20E94B61288E077
S11325F00E94B61281E00E94B61286E00E94B612D2
S11326008CE00E94B612089581E00E94B612809177
S1132610710190917201892BF9F060E0A0E2262FFC
S113262030E070910C0180910D0190E00197789F4A
S1132630A001799F500D1124241735074CF4E09123
S11326407101F0917201E20FF31FA0836F5FE7CF76
S113265010926F011092700108950E94041308955E
S1132660CF93DF93EC018991882319F00E94BB1268
S1132670FACFDF91CF9108950E9430130895AAE014
S1132680B0E0E5E4F3E10C94DC1B1AE05AE0C52E5B
S1132690D12CE12CF12C062FA70196010E94691B75
S11326A0CA01B9011150E1E0F0E0EC0FFD1FE10FA8
S11326B0F11D005D2AE0629F001911240083611559
S11326C071058105910539F71A3058F4E1E0F0E01D
S11326D0EC0FFD1FE10FF11D80810E94BB121F5FF3
S11326E0F3CF2A96E8E00C94F81BCF92DF92EF9296
S11326F0FF926B017C0197FF0BC0F094E094D0949F
S1132700C094C11CD11CE11CF11C8DE20E94BB12BF
S1132710C701B6010E943F13FF90EF90DF90CF9066
S113272008950E9475130895A5E0B0E0EAE9F3E185
S11327300C94E11B182F80E8898380EC8A8384E958
S11327408B8384ED8C83FE01E60FF11D8181810F63
S11327506D830E94B61210936F016D8160937001B6
S11327602596E3E00C94FD1B0E9494130895883091
S113277058F491E001C0990F8A95EAF7892FAAE2EB
S1132780B0E0EBE2F0E021C08E3060F498EF980FF7
S113279081E001C0880F9A95EAF7A4E2B0E0E5E28F
S11327A0F0E013C0853160F492EF980F81E001C02E
S11327B0880F9A95EAF7A7E2B0E0E8E2F0E005C0F6
S11327C080E0A0E0B0E0E0E0F0E06F3F19F4908139
S11327D0982709C0662319F09081982B04C02081A2
S11327E0982F9095922390839C91982B9C93089575
S11327F083EF8093B00084BD82E08093B10085BDF7
S11328001092B4001092B30018BC17BC60E086E0CC
S11328100E94B71360E085E00E94B71360E08BE08C
S11328200E94B71360E083E00E94B713089580917B
S1132830D601811105C081E08093D6010E94F8136E
S11328400895CF93DF93EC010E941714D7FF05C0BE
S1132850D195C195D10981E001C080E0CF3FD10578
S113286019F014F0CFEFD0E0882319F018BCC7BDDD
S113287002C0C8BD17BCDF91CF910895CF93DF93F9
S1132880EC010E941714D7FF05C0D195C195D10959
S113289081E001C080E0CF3FD10519F014F0CFEF03
S11328A0D0E0882329F01092B400C093B30004C090
S11328B0C093B4001092B300DF91CF910895CF93E9
S11328C0DF93EB010E942114CE010E943E14DF919C
S11328D0CF9108950E945F14089584B18D7C84B9CA
S11328E085B1826385B985E090E06F9364E06A9571
S11328F0F1F76F910197C9F708958091D70181117C
S113290005C081E08093D7010E946D140895CF9390
S1132910C82F0E947D1483B18C23E9F38AE090E0F0
S11329200E94AB1583B18C23B1F383B18C23CF9177
S113293008950E9487140895A1E0B0E0E2EAF4E16A
S11329400C94E21B89830E947D1493B19095898134
S113295089232196E2E00C94FE1B0E949C140895A6
S1132960282F30E09AE0899FF0011124ED58FE4FA2
S113297080859185009721F052814481541780F01D
S11329808AE0829FF001839FF00D1124ED58FE4FE1
S11329909281848198130EC0858181110AC00895A3
S11329A04281DC01A40FB11D6C9382818F5F82830D
S11329B0E7CF128208951F920F920FB60F9211243F
S11329C02F933F934F935F936F937F938F939F9333
S11329D0AF93BF93EF93FF936091C60080E00E9492
S11329E0B014FF91EF91BF91AF919F918F917F911F
S11329F06F915F914F913F912F910F900FBE0F9068
S1132A001F9018959AE0899FF0011124ED58FE4F0C
S1132A1086819781892B59F091818381981738F4A5
S1132A208081811104C08091C100806203C08091C3
S1132A30C1008F7D8093C10008959AE0899FF001C1
S1132A401124ED58FE4F268137812115310541F0BF
S1132A5041819381491720F49091C00095FD03C0F2
S1132A600E94021508959181D901A90FB11D9C916D
S1132A709093C60091819F5F9183F2CF1F920F9232
S1132A800FB60F9211242F933F934F935F936F933D
S1132A907F938F939F93AF93BF93EF93FF9380E0C4
S1132AA00E941D15FF91EF91BF91AF919F918F915E
S1132AB07F916F915F914F913F912F910F900FBE36
S1132AC00F901F9018952F928F939F932FB68091FC
S1132AD084019091850101968093840190938501EE
S1132AE090E080918601891F8093860190917E01F8
S1132AF09C5F90937E0180917D0180519742C0F04C
S1132B0090937E0180937D0180917F01909180015B
S1132B10019680937F019093800190E080918101E0
S1132B20891F8093810180918201891F8093820192
S1132B302FBE9F918F912F90189528EE33E0019727
S1132B4048F0F9016F9364E06A95F1F76F9131975A
S1132B50C9F7F5CF08950E949D150895E0E7F0E0C8
S1132B6080818E7F8083A0EBB0E08C9183608C9316
S1132B70A1EBB0E08C91807F8C938C9182608C93DC
S1132B80B89A808181608083789408958091D80177
S1132B90811105C081E08093D8010E94AE1508958B
S1132BA00E94C615E0E7F0E080818E7F808360910B
S1132BB07F01709180018091810190918201208137
S1132BC02160208308950E94D01508950E94C6159F
S1132BD0E0E7F0E080818E7F808310927F01109285
S1132BE08001109281011092820110927E01109254
S1132BF07D018081816080830895682F87E891E05A
S1132C000E94E5190895462F20E0BC0187E891E071
S1132C100E94B61A08950F93CF93DF9300D000D08B
S1132C201F92CDB7DEB79C0185E0ECE2F1E0DE0156
S1132C30119601900D928A95E1F7662311F00FEF3A
S1132C4001C003E145E0BE016F5F7F4F87E891E07B
S1132C500E94DD1687E891E00E94B4160E94E615F2
S1132C600F900F900F900F900F90DF91CF910F91D5
S1132C70089560E00E940B16089587E891E00E9491
S1132C802B1B08956F9364E06A95F1F76F91019798
S1132C90C9F70895FC0111821082138212821582F1
S1132CA014821682683068F489E290E0918380830C
S1132CB08BE290E0938382838AE290E0958384831D
S1132CC01FC06E3070F483E290E09183808385E2CC
S1132CD090E09383828384E290E0958384836850B8
S1132CE00FC0653198F486E290E09183808388E296
S1132CF090E09383828387E290E0958384836E508F
S1132D0081E001C0880F6A95EAF786830895A7E0F9
S1132D10B0E0EDE8F6E10C94E01B8C01FC011182BB
S1132D2010821382128215821482178216826131F4
S1132D3018F080E1808702C0FC016087F801208BD5
S1132D40642FCE0101960E944A168F81F801818773
S1132D508B819C81938782878D819E8195878487CF
S1132D602796E4E00C94FC1BFC01A485B585109720
S1132D7079F08C919185892B8C93A285B3859C9154
S1132D808185809589238C9388EC90E00E9442167B
S1132D900895FC01A485B585109771F08C919185F7
S1132DA0892B8C93A285B3858C919185892B8C93E7
S1132DB088EC90E00E9442160895A7E0B0E0E3EEAC
S1132DC0F6E10C94D51B7C014B01642F3901402F93
S1132DD020E00E94871687010F5B1F4FF8011082C5
S1132DE06701F2E4CF0ED11CF60110825701F3E41F
S1132DF0AF0EB11CF5011082F70177866686512C5F
S1132E00F7018085581650F5652C712CF401E60DF8
S1132E10F71D6081CE0101960E944A162F81F701A9
S1132E20E60DF71D218B89819A81F301EE0FFF1FB7
S1132E30EE0DFF1D92A381A38332910511F4F801D5
S1132E4008C08632910511F4F60103C0899721F474
S1132E50F5018081822B80835394D2CF2796EFE0B3
S1132E600C94F11BA0E0B0E0E8E3F7E10C94D71B6D
S1132E70EC015B016C0181E4C80ED11CF601808079
S1132E807E01F2E4EF0EF11CF70170808E010D5B00
S1132E901F4FF801908080E09885891748F4F50168
S1132EA0E80FF11DE80FF11D118210828F5FF4CF3E
S1132EB084B1F6019081892B84B987B1F70190819F
S1132EC0892B87B98AB1F8019081892B8AB985B198
S1132ED0F6019081892B85B988B1F7019081892BFE
S1132EE088B98BB1F8019081892B8BB98AE090E085
S1132EF00E94421694B1F60180818095892384B999
S1132F0097B1F70180818095892387B99AB1F80137
S1132F108081809589238AB995B1F6018081809555
S1132F20892385B998B1F70180818095892388B96F
S1132F309BB1F8018081809589238BB9E090B00022
S1132F40D090B1008091B00083608093B00082E0A3
S1132F508093B1004091B20080E090E02E853F85DF
S1132F608217930720F5C090B2002C2D241B820FEA
S1132F70911D03B1081132C0F6B0F7102FC029B16A
S1132F8029112CC010C0212F30E0A901440F551F76
S1132F90F501E40FF51F60817181672B21F11F5F3B
S1132FA02885121780F37F2C802E4C2DD7CFE092EA
S1132FB0B000D092B10020E08885281730F5F501E3
S1132FC0E20FF11DE20FF11D80819181892B21F423
S1132FD08E859F85918380832F5FEECF03B1F6B0FA
S1132FE099B010E0DDCFDE01A40FB51F91960D90CE
S1132FF0BC91A02D4C91DE01A20FB31F51962C91D0
S1133000422369F691838083CACFCDB7DEB7EDE062
S11330100C94F31BEF92FF920F931F93CF93DF93C4
S1133020FC019B01F0907C0000917A0047B118B13B
S113303080917A0086FDFCCF80E09085891748F462
S1133040D901A80FB11DA80FB11D1D921C928F5F4D
S1133050F4CF97B182A18095892387B998B182A1D1
S11330608095892388B987E880937A00E12C81A12F
S1133070E81610F0E12C29C050E08085581718F5A7
S1133080A52FB0E0EF01CA0FDB1F8989806480930C
S11330907C0080917A00806480937A0080917A0029
S11330A086FDFCCF6091780070917900AA0FBB1F58
S11330B0A20FB31F8D919C911197860F971F8D932B
S11330C09C935F5FDACFE394D2CF8085E816A0F4B7
S11330D0E901CE0DD11DCE0DD11D61A170E0CB0152
S11330E095958795A881B9818A0F9B1F0E94551BCE
S11330F079836883E394E9CFF0927C0000937A00AB
S113310018B947B9CDB7DEB7E6E00C94FA1BA0E2D4
S1133110B0E0EDE8F8E10C94DD1B8C017B01D42ECA
S11331208FEF840F823018F4C8010E94C916D801A9
S113313050968C91B701811110C0C8010E943217BA
S1133140C8010E94B416B2E0DB123AC0BE016F5F40
S11331507F4FC8010E9432170FC0C8010E940A188D
S1133160C8010E94B416E2E0DE122AC0BE016F5FFD
S11331707F4FC8010E940A1840E0F8018085481773
S1133180F8F4842F90E0880F991FF701E80FF91FD6
S113319021E030E02C0F3D1F820F931FD8011E96B3
S11331A02D913C911F97DC018D919C91281B390B2B
S11331B080819181820F931F918380834F5FDDCF44
S11331C0A096E7E00C94F91B2F923F925F926F92C6
S11331D07F928F929F92AF92BF92CF92DF92EF92A3
S11331E0FF920F931F93CF93DF93CDB7DEB7C056F3
S11331F0D1090FB6F894DEBF0FBECDBF8C014B01D1
S11332005A01522EDA018D919C91892B31F0F401EF
S113321080819181892BF1F424C0D80118968C9176
S113322090E0880F991F0E94091CF5019183808307
S1133230009709F4B1C0FC0120E030E0D8011896F1
S11332408C9190E02817390714F7119211922F5F8F
S11332503F4FF4CFE12CF12C6E01B1E2CB0ED11C27
S113326021C0F801808590E0880F991F0E94091CF5
S1133270D4018D939C93009709F48EC0FC0120E047
S113328030E0D80118968C9190E02817390714F78C
S1133290D8011E968D919C911F97819391932F5FD6
S11332A03F4FEFCF452DBE016F5B7F4FC8010E949A
S11332B08718F8016084712CFE01EF5BFF4FC60193
S11332C09E012F5F3F4F190120E030E0261537059E
S11332D04CF5E114F10489F0DC016D917C9140819D
S11332E051816417750748F0D1016D917C9140813B
S11332F051814617570748F00DC040815181DC01C8
S11333004D935C93E114F10479F740815181D1012B
S11333104D935C932F5F3F4FB2E02B0E311C3296DE
S11333200296D4CFEFEFEE1AFE0AFAE0EF16F1049C
S113333009F0B8CF9E012F5F3F4F7901360180E03D
S113334090E0F801208530E0821793072CF5D7012F
S11333502D913D917D01B3016C197D09D501ED914C
S1133360FC91E60FF71F408151814217530710F477
S113337031832083F301219131913F01D401ED91F7
S1133380FC91E60FF71F408151812417350710F493
S1133390318320830196D5CFC05ADF4F0FB6F894FE
S11333A0DEBF0FBECDBFDF91CF911F910F91FF9074
S11333B0EF90DF90CF90BF90AF909F908F907F90D1
S11333C06F905F903F902F9008951F93CF93DF935A
S11333D0EC01162F8FEF860F823018F0662359F018
S11333E014C021E0AE014E5F5F4FBE01CE010E94CA
S11333F0E418123051F4AE014A5F5F4FBE016C5FB6
S11334007F4F20E0CE010E94E418DF91CF911F91FD
S11334100895A0E0B0E0EFE0FAE10C94DB1BEC01CE
S11334208B01B42E842F8D7F51F48C819D81892B47
S113343009F497C08E819F81892B09F492C08FEF84
S11334408B0D823050F488819981892B09F489C0CD
S11334508A819B81892B09F484C04B2DB801CE014C
S11334600E948718780100E010E0C12CD12C8885D7
S113347090E0C816D9060CF074C081E0B8120AC0F6
S1133480EA81FB81E00FF11F0190F081E02DA8811A
S1133490B9810DC08C819D812E813F81B1100CC0FA
S11334A0F901E00FF11F0190F081E02DDC01A00F84
S11334B0B11F8D919C9128C0FC01E00FF11F408148
S11334C05181E881F981E00FF11F80819181EE85BE
S11334D0FF854817590710F4CF0104C08E0F9F1FB2
S11334E0841B950BD901A00FB11F2D913C91AA818A
S11334F0BB81A00FB11F4D915C912417350720F0BB
S1133500E40FF51FE21BF30BE81BF90BA9F0D7013D
S11335102D913C9140E050E0281B390B41095109A1
S1133520A8EEB3E00E94BF1B9F0140E050E00E9460
S11335308B1B37FD0AC002C020E030E0293EB3E017
S11335403B072CF028EE33E002C020E030E0F70126
S1133550219331937F01FFEFCF1ADF0A0E5F1F4FD4
S113356086CFCDB7DEB7E9E00C94F71BA0E0B0E05E
S1133570ECEBFAE10C94D21BEC018B01822E0E943D
S1133580091A2884E801412C512C320100E010E092
S1133590C12CD12C7601312C912C58EEA52E53E060
S11335A0B52E921421F1E991F991882021F0C501F9
S11335B08E1B9F0BFC01E93CF10524F4E333F10578
S11335C074F002C033243394DF01A30192010E94FA
S11335D0CA1BC60ED71EE81EF91E0E0F1F1F93949A
S11335E098EE490E93E0591E611C711CDACF31101C
S11335F01EC0492D50E04150510924EF31E0429F53
S1133600C001439F900D529F900D11242091CB0136
S11336103091CC0128173907B4F088EE93E0489F25
S11336209001499F300D589F300D11240EC0980110
S113363040E050E0C701B6010E94691B3093CC0101
S11336402093CB0102C020E030E0C901CDB7DEB742
S1133650E2E10C94EE1BCF93DF93EC018A819B8112
S1133660009711F00E94A11C8E819F81009711F098
S11336700E94A11C88819981009711F00E94A11CCD
S11336808C819D81009711F00E94A11CDF91CF9144
S11336900895991B79E004C0991F961708F0961BAA
S11336A0881F7A95C9F780950895AA1BBB1B51E121
S11336B007C0AA1FBB1FA617B70710F0A61BB70B9E
S11336C0881F991F5A95A9F780959095BC01CD0143
S11336D00895A1E21A2EAA1BBB1BFD010DC0AA1F4F
S11336E0BB1FEE1FFF1FA217B307E407F50720F067
S11336F0A21BB30BE40BF50B661F771F881F991FE2
S11337001A9469F760957095809590959B01AC012A
S1133710BD01CF010895052E97FB1EF400940E946D
S1133720A21B57FD07D00E94691B07FC03D04EF46F
S11337300C94A21B50954095309521953F4F4F4FC7
S11337405F4F089590958095709561957F4F8F4F49
S11337509F4F0895EE0FFF1F0590F491E02D0994FB
S1133760A29FB001B39FC001A39F700D811D1124BE
S1133770911DB29F700D811D1124911D08950E9409
S1133780B01BA59F900DB49F900DA49F800D911D1B
S113379011240895B7FF0C94BF1B0E94BF1B821B0A
S11337A0930B08952F923F924F925F926F927F9264
S11337B08F929F92AF92BF92CF92DF92EF92FF923D
S11337C00F931F93CF93DF93CDB7DEB7CA1BDB0BE9
S11337D00FB6F894DEBF0FBECDBF09942A8839888E
S11337E048885F846E847D848C849B84AA84B98495
S11337F0C884DF80EE80FD800C811B81AA81B981A1
S1133800CE0FD11D0FB6F894DEBF0FBECDBFED01B4
S113381008950F931F93CF93DF938230910510F493
S113382082E090E0E0913D02F0913E0220E030E041
S1133830A0E0B0E0309719F14081518102811381F9
S113384048175907C8F08417950769F4109731F0A1
S113385012960C93129713961C9327C000933D0263
S113386010933E0222C02115310519F04217530767
S113387018F49A01BD01EF01DF01F801DBCF211536
S11338803105F9F0281B390B2430310580F48A8185
S11338909B816115710521F0FB019383828304C030
S11338A090933E0280933D02FE01329644C0FE0195
S11338B0E20FF31F819391932250310939832883B6
S11338C03AC020913B0230913C02232B41F42091D9
S11338D010013091110130933C0220933B0220915E
S11338E00E0130910F012115310541F42DB73EB77A
S11338F04091120150911301241B350BE0913B02BE
S1133900F0913C02E217F307A0F42E1B3F0B28179B
S1133910390778F0AC014E5F5F4F2417350748F044
S11339204E0F5F1F50933C0240933B02819391934F
S113393002C0E0E0F0E0CF01DF91CF911F910F9141
S11339400895CF93DF93009709F481C0FC01329767
S113395013821282A0913D02B0913E02109781F42D
S113396020813181820F931F20913B0230913C02D0
S11339702817390751F5F0933C02E0933B0267C0E6
S1133980ED0120E030E0CE17DF0740F44A815B818F
S11339909E0141155105F1F0EA01F5CFD383C283AD
S11339A040815181840F951FC817D90759F4888124
S11339B09981840F951F0296918380838A819B81CC
S11339C0938382832115310529F4F0933E02E09319
S11339D03D023DC0E901FB83EA8349915991C40F3B
S11339E0D51FEC17FD0761F480819181840F951F29
S11339F00296E90199838883828193819B838A83D8
S1133A00E0E0F0E012968D919C911397009719F0E5
S1133A10FD01DC01F7CF8D919C9111979D012E5FE3
S1133A203F4F820F931F20913B0230913C02281795
S1133A30390769F4309729F410923E0210923D023E
S1133A4002C013821282B0933C02A0933B02DF9126
S1133A50CF91089510E0C3E6D0E004C0FE010E94B7
S1113A60AA1B2196C436D107C9F7F894FFCFEC
S1133A6E88130F00F4010400D007040108020000BB
S1133A7E3F0220009C01B501CF01EA010702260294
S1133A8E470269028E02B502DE020A030E0F1011FE
S1133A9E126D56006472756B204200202000476F31
S1133AAE21006472756B206F700042206B6E6F7014
S1133ABE00646963687462696A0068656565656C4B
S1053ACE0000F2
S9030000FC
