S0140000526F626F7452756E477269642E737265634F
S11300000C9449000C9466000C9466000C946600F1
S11300100C9466000C9466000C9466000C946600C4
S11300200C9466000C9415130C9466000C946600F2
S11300300C9466000C94770F0C9466000C94660084
S11300400C9466000C9466000C948D120C94F012BF
S11300500C9466000C9466000C9466000C94660084
S11300600C9466000C94660005A84CCDB2D44EB92D
S11300703836A9020C50B9918688083CA6AAAA2A47
S1130080BE000000803F3E6633323E3E61333200A4
S1130090F61311241FBECFEFD8E0DEBFCDBF11E0B1
S11300A0A0E0B1E0E0EEF5E302C005900D92AE38B9
S11300B0B107D9F722E0AEE8B1E001C01D92A6373E
S11300C0B207E1F70E948C030C94E31A0C9400002D
S11300D0CF92DF92EF92FF920F931F93FB01008167
S11300E0118122813381FC01C080D180E280F380C0
S11300F0FB01C082D182E282F382FC01008311837E
S1130100228333831F910F91FF90EF90DF90CF9064
S113011008952F923F924F925F926F927F928F92A7
S11301209F92AF92BF92CF92DF92EF92FF920F9382
S11301301F93CF93DF93CDB7DEB7A5970FB6F8948F
S1130140DEBF0FBECDBF9BA38AA36CA37DA306967F
S113015098A38F8FB6C07E8E6D8EF3010190F081CF
S1130160E02DFA8FE98FBF01FF0F880B990B0E94D6
S1130170ED096B017C013C8E2B8EF1010081118114
S1130180B801012E000C880B990B0E94ED094B015C
S11301905C019B01AC010E94A20A698B7A8B8B8B58
S11301A09C8BA5019401C501B4010E94A20A4B01D4
S11301B05C01A7019601C701B6010E94A20A9B0136
S11301C0AC01C501B4010E9444090E941D0B6B01DE
S11301D07C01F20161937193819391932F01E98BD7
S11301E059A280809180A280B380A50194010E94CD
S11301F09D0A1816D4F4B2018D899E890E94680064
S1130200F30182819381208131813383228391831D
S11302108083F10182819381208131813383228320
S1130220918380831F8A188E36C0C701B6010E944D
S1130230B5097B01C501B4010E94B509E616F706AC
S113024051F5EB8DFC8D828193810817190719F5FF
S1130250ED8DFE8D82819381298D3A8D2817390782
S1130260D4F4698979A18D899E890E946800ED8DF5
S1130270FE8D828193812081318133832283918316
S11302808083EB8DFC8D8281938120813181338346
S1130290228391838083F2E06F0E711C22E0220E90
S11302A0311C8D899E8904969E8B8D8BEF8DF8A1D0
S11302B06E167F0609F04FCF2F89388D2130310516
S11302C069F06AA07BA02CA03DA0CE0101962C0170
S11302D09E8B8D8B91E09F8B188E3DCFA5960FB68C
S11302E0F894DEBF0FBECDBFDF91CF911F910F9168
S11302F0FF90EF90DF90CF90BF90AF909F908F9042
S11303007F906F905F904F903F902F900895FC01E5
S113031083E090E09183808342E050E05383428302
S113032025E030E03583248361E070E071876087E5
S11303307387628735872487918B808B938B828B1D
S1130340358B248B918F808F738F628F558F448F61
S1130350378F268F91A380A353A342A395A384A38D
S113036037A326A30895CF93DF93CDB7DEB7609765
S11303700FB6F894DEBF0FBECDBF90E1E4E1F1E02B
S1130380DE01119601900D929A95E1F7E1E0F0E01B
S1130390EC0FFD1F94E0899FE00DF11D1124E60F81
S11303A0F11D8081813021F038F1823099F03EC016
S11303B02AE939E949E95EE362E586E490E00E94CE
S11303C0CC0381E591E00E94EE1084EF91E00E945D
S11303D05D132CC02AE939E949E95EE36CE486E45B
S11303E090E00E94CC0383E591E00E94EE1084EF3C
S11303F091E00E945D131AC02AE939E949E95EE3F4
S113040062E586E490E00E94CC032AE939E949E9EF
S11304105EE362E586E490E00E94CC0386E691E028
S11304200E94EE1084EF91E00E945D1360960FB677
S1130430F894DEBF0FBECDBFDF91CF910895892B15
S113044031F010923F0210923E0210920D02809100
S11304503E0290913F028617970734F460910D0293
S113046081E00E94B301089560910D0283E00E942F
S1130470B3010895892B31F010923D0210923C0291
S113048010920D0280913C0290913D0286179707CD
S113049034F460910D0280E00E94B30108956091EC
S11304A00D0282E00E94B3010895EF92FF920F9330
S11304B01F93CF93DF938B01000F111F000F111FA8
S11304C0000F111F080F191FE12CF12C0E941C09A9
S11304D0EC010E94D708892BC9F32197B9F7F701DA
S11304E0EE0FFF1FE00FF11F808191818230910593
S11304F0F9F01CF4019739F0E9CF8330910549F103
S11305000597C1F1E3CF86E990E00E945D132AE9E3
S113051039E949E95EE362E586E490E00E94CC03B0
S11305208FEFE81AF80A81E591E00E94EE10CECF31
S11305302AE939E949E95EE36CE486E490E00E9443
S1130540CC038FEFE81AF80A81E591E00E94EE10DF
S1130550BDCF2AE037ED43E65FE366E48CE390E049
S11305600E94CC038FEFE81AF80A85E591E00E9417
S1130570EE10ACCF2AE037ED43E65FE366E480E0BB
S113058090E00E94CC035F9A579A2AE037ED43E645
S11305905FE366E480E090E00E94CC03DF91CF91BA
S11305A01F910F91FF90EF900895AF92BF92CF9259
S11305B0DF92EF92FF920F931F93CF93DF936C011F
S11305C05B01CA0160E070E00E94550287E591E09A
S11305D00E94EE10E12CF12C0E94D708892B09F41B
S11305E088C061E080E00E946611B7010F2C000C06
S11305F0880B990B0E944311C701880F991F86012C
S1130600080F191FF8014081518120913E02309159
S11306103F024217530709F46CC0E501C80FD91F04
S11306202881398180913C0290913D022817390735
S113063009F45FC00E94D708892BE1F1F8016081B9
S1130640718180913E0290913F026817790729F4E5
S113065081E090E00E941F0206C06881798181E0F8
S113066090E00E943A02F8012081318180913E029B
S113067090913F0228173907E9F428813981809144
S11306803C0290913D0228173907A1F42AE037ED86
S113069043E65FE366E480E090E00E94CC0386E8F2
S11306A090E00E94D60FFFEFEF1AFF0A88EB9BE061
S11306B00E945D130E949108C701880F991F86014B
S11306C0080F191FF8014081518120913E02309199
S11306D03F024217530769F0E501C80FD91F28816B
S11306E0398180913C0290913D022817390709F025
S11306F0A1CFFFEFEF1AFF0A84E0E816F1040CF42F
S11307006BCFDF91CF911F910F91FF90EF90DF900E
S1130710CF90BF90AF900895CF93DF93CDB7DEB75E
S1130720E0970FB6F894DEBF0FBECDBF0E94190844
S1130730CE0101960E94870188E0E4E2F1E0DE0147
S1130740919601900D928A95E1F788E0ECE2F1E050
S1130750DE01999601900D928A95E1F7BE01675DDD
S11307607F4FCE0181960E948900AE014F5F5F4F9B
S1130770BE01675D7F4FCE0181960E94D5020E9423
S1130780DF1080E090E0E0960FB6F894DEBF0FBE75
S1130790CDBFDF91CF9108952F923F924F925F92F8
S11307A06F927F928F929F92AF92BF92CF92DF927D
S11307B0EF92FF920F931F93CF93DF93CDB7DEB7E2
S11307C066970FB6F894DEBF0FBECDBF1C01298318
S11307D03A834B835C83663461F020F4623409F419
S11307E095C008C46C3409F4A9C2623509F41BC16C
S11307F001C48091FF01909100029101281B390BE3
S113080045E650E05A874987412C512C3201032E8A
S1130810000C440B550B2D833E834F8358870E9455
S113082095138B012BED3FE049EC50E4C301B20179
S11308300E94A20A0E940F0B23E839EF42E25EE312
S11308400E94A20A9B01AC01C301B2010E944309A8
S11308504B015C016D817E818F8198850E94ED0939
S11308609B01AC01C501B4010E94A20A4B015C01C9
S11308706091FF0170910002072E000C880B990B08
S11308800E94ED099B01AC01C501B4010E94440919
S11308900E94B509DC01CB01BC010E941C12480175
S11308A0110FAA08BB080E949513681979098A09CF
S11308B09B090E94EB096B017C0120E030E040E2DF
S11308C051E469817A818B819C810E94A20A9B01F7
S11308D0AC01C701B6010E94B009882324F32AE0C1
S11308E037ED43E25CE3C301B2010E9444092B01EA
S11308F03C01A985BA851197BA87A987AB2B09F062
S11309008ECF309200022092FF017AC38091FF01C2
S1130910909100029101281B390B45E650E05A875B
S11309204987412C512C3201032E000C440B550BEA
S11309302D833E834F8358870E9495138B012BEDA3
S11309403FE049EC50E4C301B2010E94A20A0E94B4
S11309500F0B23E839EF42E25EE30E94A20A9B01F7
S1130960AC01C301B2010E9443094B015C016D81DA
S11309707E818F8198850E94ED099B01AC01C501A0
S1130980B4010E94A20A4B015C016091FF017091C5
S11309900002072E000C880B990B0E94ED099B01A5
S11309A0AC01C501B4010E9444090E94B509DC01EF
S11309B0CB01BC010E941C124801110FAA08BB08FC
S11309C00E949513681979098A099B090E94EB0909
S11309D06B017C0120E030E040E251E469817A81DE
S11309E08B819C810E94A20A9B01AC01C701B601C4
S11309F00E94B009882324F32AE037ED43E25CE344
S1130A00C301B2010E9444092B013C01A985BA85A6
S1130A101197BA87A987AB2B09F08ECF30920002C9
S1130A202092FF01EDC28091FD019091FE01820DA3
S1130A30931D2091FB013091FC01A101421B530B3A
S1130A409A0105E610E01D821E821F821886AC0101
S1130A50990F660B770B4D875E876F87788BB9018B
S1130A60330F880B990B698B7A8B8B8B9C8B0E9431
S1130A7095137E8B6D8B6091FF0170910002072EA0
S1130A80000C880B990B0E94ED0969877A878B8784
S1130A909C872BED3FE049EC50E46D817E818F8192
S1130AA098850E94A20A0E940F0B23E839EF42E2C4
S1130AB05EE30E94A20A2D813E814F8158850E94E7
S1130AC044094B015C016091FD017091FE01072E08
S1130AD0000C880B990B0E94ED092B013C016D85DC
S1130AE07E858F8598890E94ED09A50194010E9455
S1130AF0A20A9B01AC01C301B2010E9443092985EA
S1130B003A854B855C850E9444090E94B5092B01F6
S1130B103C016091FB017091FC01072E000C880BD5
S1130B20990B0E94ED096B017C0169897A898B8993
S1130B309C890E94ED09A50194010E94A20A9B01CF
S1130B40AC01C701B6010E94440929853A854B8549
S1130B505C850E9444090E94B509DC01CB01B20105
S1130B600E941C128D899E894C01990FAA08BB080A
S1130B700E9495136B017C0120E030E040E251E4D7
S1130B8069817A818B819C810E94A20A2B013C019C
S1130B90C701B601681979098A099B090E94EB0902
S1130BA0A30192010E94B009882314F32AE037EDCF
S1130BB043E25CE36D817E818F8198850E944409C4
S1130BC06D837E838F8398870150110909F04FCF7D
S1130BD088279927821993099093FE018093FD0138
S1130BE03092FC012092FB0105E610E019821A8282
S1130BF01B821C829C01990F440B550B29873A8751
S1130C004B875C87C12CD12C76010E9495137E877B
S1130C106D876091FF0170910002072E000C880B14
S1130C20990B0E94ED0969837A838B839C832BED56
S1130C303FE049EC50E4C701B6010E94A20A0E94B9
S1130C400F0B23E839EF42E25EE30E94A20AA701F8
S1130C5096010E9444094B015C0169857A858B8564
S1130C609C850E94ED099B01AC01C501B4010E9461
S1130C70A20A4B015C016091FD017091FE01072EF7
S1130C80000C880B990B0E94ED09A50194010E94A8
S1130C90430929813A814B815C810E9444090E9465
S1130CA0B5096D837E838F8398876091FB01709172
S1130CB0FC01072E000C880B990B0E94ED09A5017D
S1130CC094010E94440929813A814B815C810E94EC
S1130CD044090E94B509DC01CB016D817E810E942B
S1130CE01C124D855E854A01550FAA08BB080E9457
S1130CF09513681979098A099B090E94EB099B01DC
S1130D00AC01C301B2010E949D0A181684F32AE0C3
S1130D1037ED43E25CE3C701B6010E9444096B016D
S1130D207C010150110909F070CF1092FE0110925C
S1130D30FD011092FC011092FB0162C18091FD0142
S1130D409091FE019101281B390B8091FB01909138
S1130D50FC01820D931D65E670E07A8B698B1D8220
S1130D601E821F821886A901330F660B770B4987F1
S1130D705A876B877C879C01990F440B550B2D87F1
S1130D803E874F87588B0E9495138B012BED3FE0D4
S1130D9049EC50E46D817E818F8198850E94A20A7E
S1130DA00E940F0B23E839EF42E25EE30E94A20A9D
S1130DB02D813E814F8158850E9444096B017C013D
S1130DC06091FD017091FE01072E000C880B990BB8
S1130DD00E94ED094B015C0169857A858B859C85B0
S1130DE00E94ED09A70196010E94A20A9B01AC0191
S1130DF0C501B4010E9444090E94B5094B015C017C
S1130E006091FB017091FC01072E000C880B990B7B
S1130E100E94ED092B013C016D857E858F859889A3
S1130E200E94ED09A70196010E94A20A9B01AC0150
S1130E30C301B2010E9443090E94B509DC01CB0140
S1130E40B4010E941C124801110FAA08BB080E9499
S1130E5095132B013C0120E030E040E251E469812C
S1130E607A818B819C810E94A20A6B017C01C3015F
S1130E70B201681979098A099B090E94EB09A70143
S1130E8096010E94B009882314F32AE037ED43E267
S1130E905CE36D817E818F8198850E9444096D8316
S1130EA07E838F839887A989BA891197BA8BA98B76
S1130EB0AB2B09F068CF3092FE012092FD013194F2
S1130EC0219431083092FC012092FB0125E630E0A8
S1130ED019821A821B821C82A101330C660B770BC8
S1130EE04D835E836F8378873A872987812C912C81
S1130EF054010E9495138B012BED3FE049EC50E423
S1130F00C501B4010E94A20A0E940F0B23E839EF25
S1130F1042E25EE30E94A20AA50194010E944409F0
S1130F202B013C016D817E818F8198850E94ED09A2
S1130F309B01AC01C301B2010E94A20A2B013C0136
S1130F406091FD017091FE01072E000C880B990B36
S1130F500E94ED09A30192010E9444090E94B5096F
S1130F6069837A838B839C836091FB017091FC017C
S1130F70072E000C880B990B0E94ED09A301920126
S1130F800E9443090E94B509DC01CB0169817A8181
S1130F900E941C122801110F660877080E949513FD
S1130FA064197509860997090E94EB099B01AC0134
S1130FB0C701B6010E949D0A181684F32AE037ED92
S1130FC043E25CE3C501B4010E9444094B015C01A6
S1130FD069857A85615071097A876987672B09F079
S1130FE088CF1092FE011092FD011092FC01109224
S1130FF0FB0106C060E070E080E090E00E941C12FB
S113100066960FB6F894DEBF0FBECDBFDF91CF91C9
S11310101F910F91FF90EF90DF90CF90BF90AF9012
S11310209F908F907F906F905F904F903F902F9004
S11310300895CF93DF9380ED97E00E94F2131BC0D5
S11310400E94BD0CEC010E94DF10BE01DD0F880B75
S1131050990B0E9443118EE591E00E94EE1061E02D
S113106080E00E94661181E691E00E94EE1084E621
S113107090E00E945D1380E10E945F12882301F3D7
S113108080E10E944B1288EE93E00E945D13CCEE47
S1131090DFEFC832D10538F068ED7FEF88E290E0E9
S11310A00E941C1206C068E270E088ED9FEF0E9467
S11310B01C1281E00E94B61384E190E00E945D134B
S11310C02196CC33D10529F760E070E080E090E010
S11310D00E941C1215C061E088E692E00E94BC13D5
S11310E0EC010E94DF1088E691E00E94EE10BE0140
S11310F080E090E00E94431184E690E00E945D133A
S113110080E10E945F12882331F380E10E944B1238
S11311100E94DF108BE691E00E94EE10DF91CF91E8
S11311200895CF93DF9361E088E692E00E94BC13B8
S1131130EC0161E088E692E00E94AF130E94DF10A8
S1131140CE3987E0D80798F45F9A579AC830D740C9
S113115038F46CE370E080E090E00E941C1224C03C
S11311606CE370E087E390E00E941C121DC0C33062
S113117088E0D80798F0599A519AC939D84038F07C
S113118060E070E08CE390E00E941C120DC067E305
S113119070E081E490E00E941C1206C067E370E0F6
S11311A087E390E00E941C12DF91CF910895CF93C2
S11311B0DF93E1E0F2E01182108213821282158241
S11311C0148261E088E692E00E94AF138091680285
S11311D0909169028D3D954048F081E090E09093B4
S11311E0020280930102C1E0D0E002C0C0E0D0E07E
S11311F080916C0290916D028D3D954040F081E0AC
S113120090E09093040280930302C2E0D0E08091C6
S11312107002909171028D3D954040F081E090E024
S11312209093060280930502C3E0D0E00E94DF1091
S1131230CE01DF91CF9108950F931F93CF93DF9346
S1131240C7E0D2E00E94D708E1E0F2E000E010E05D
S113125081919191019711F40F5F1F4FEC17FD07D6
S1131260B9F70E9491080E94D708892B59F381E0AD
S113127090E00230110514F480E090E0DF91CF910A
S11312801F910F9108955058BB27AA270E945B090C
S11312900C94630A0E94550A38F00E945C0A20F0FC
S11312A039F49F3F19F426F40C94520A0EF4E09595
S11312B0E7FB0C944C0AE92F0E94740A58F3BA17FE
S11312C0620773078407950720F079F4A6F50C9458
S11312D0960A0EF4E0950B2EBA2FA02D0B01B9013E
S11312E090010C01CA01A0011124FF27591B99F098
S11312F0593F50F4503E68F11A16F040A22F232FA4
S1131300342F4427585FF3CF469537952795A795F3
S1131310F0405395C9F77EF41F16BA0B620B730B9A
S1131320840BBAF09150A1F0FF0FBB1F661F771F0B
S1131330881FC2F70EC0BA0F621F731F841F48F4C0
S1131340879577956795B795F7959E3F08F0B0CF49
S11313509395880F08F09927EE0F97958795089530
S11313600E94280A08F481E008950E94BC09689448
S1131370B1110C94970A08950E947C0A88F09F5733
S113138098F0B92F9927B751B0F0E1F0660F771FA5
S1131390881F991F1AF0BA95C9F714C0B13091F09B
S11313A00E94960AB1E008950C94960A672F782F4C
S11313B08827B85F39F0B93FCCF386957795679560
S11313C0B395D9F73EF490958095709561957F4FCC
S11313D08F4F9F4F0895E89409C097FB3EF4909572
S11313E08095709561957F4F8F4F9F4F9923A9F0FA
S11313F0F92F96E9BB279395F69587957795679589
S1131400B795F111F8CFFAF4BB0F11F460FF1BC0CC
S11314106F5F7F4F8F4F9F4F16C0882311F096E95F
S113142011C0772321F09EE8872F762F05C066230D
S113143071F096E8862F70E060E02AF09A95660FC6
S1131440771F881FDAF7880F9695879597F908957F
S1131450990F0008550FAA0BE0E8FEEF16161706C1
S1131460E807F907C0F012161306E407F50798F029
S1131470621B730B840B950B39F40A2661F0232B42
S1131480242B252B21F408950A2609F4A140A695BE
S11314908FEF811D811D089597F99F6780E870E0A3
S11314A060E008959FEF80EC089500240A941616D6
S11314B0170618060906089500240A94121613063E
S11314C0140605060895092E0394000C11F48823CC
S11314D052F0BB0F40F4BF2B11F460FF04C06F5FE8
S11314E07F4F8F4F9F4F089557FD9058440F551FBE
S11314F059F05F3F71F04795880F97FB991F61F092
S11315009F3F79F087950895121613061406551F08
S1131510F2CF4695F1DF08C0161617061806991F74
S1131520F1CF86957105610508940895E894BB2769
S113153066277727CB0197F908950E94280A08F4B3
S11315408FEF08950E94B50A0C94630A0E94550A0D
S113155038F00E945C0A20F0952311F00C944C0A98
S11315600C94520A11240C94970A0E94740A70F382
S1131570959FC1F3950F50E0551F629FF001729F34
S1131580BB27F00DB11D639FAA27F00DB11DAA1F43
S1131590649F6627B00DA11D661F829F2227B00D90
S11315A0A11D621F739FB00DA11D621F839FA00D1B
S11315B0611D221F749F3327A00D611D231F849F6B
S11315C0600D211D822F762F6A2F11249F575040C2
S11315D09AF0F1F088234AF0EE0FFF1FBB1F661F3D
S11315E0771F881F91505040A9F79E3F510580F006
S11315F00C944C0A0C94970A5F3FE4F3983ED4F39E
S1131600869577956795B795F795E7959F5FC1F7A9
S1131610FE2B880F911D9695879597F908959F93B2
S11316200E94740B0F9007FCEE5F0C949D0B19F451
S113163016F40C94520A0C945D0B0E947C0AB8F3C5
S11316409923C9F3B6F39F57550B87FF0E946B0B81
S11316500024A0E640EA900180585695979528F416
S1131660805C660F771F881F20F02617370748070E
S113167030F4621B730B840B202931294A2BA69565
S113168017940794202531254A2758F7660F771FAA
S1131690881F20F026173707480730F4620B730BB6
S11316A0840B200D311D411DA09581F7B901842FB4
S11316B09158880F9695879508959F3F31F09150E2
S11316C020F4879577956795B795880F911D969522
S11316D0879597F9089591505040660F771F881F9A
S11316E0D2F708950C94520A0E947C0AD8F3E89425
S11316F0E0E0BB279F57F0F02AED3FE049EC06C03D
S1131700EE0FBB0F661F771F881F28F0B23A6207DF
S11317107307840728F0B25A620B730B840BE395AA
S11317209A9572F7803830F49A95BB0F661F771F2D
S1131730881FD2F790480C945F0BEF93E0FF07C02B
S1131740A2EA2AED3FE049EC5FEB0E945B090E94AC
S1131750630A0F90039401FC9058E8E6F0E00C94BF
S1131760B10B9F938F937F936F93FF93EF939B01A1
S1131770AC010E94A20AEF91FF910E94C50B2F9128
S11317803F914F915F910C94A20ADF93CF931F93E3
S11317900F93FF92EF92DF927B018C01689406C055
S11317A0DA2EEF010E94B50AFE01E894A591259175
S11317B0359145915591A6F3EF010E945B09FE0115
S11317C09701A801DA9469F7DF90EF90FF900F91E9
S11317D01F91CF91DF910895ECE7F0E080818F7D38
S11317E080830895811103C00E94EC0B08958091B9
S11317F07C00806280937C00089580917C0085FB4E
S1131800882780F908950E94FD0B882321F0809198
S1131810790090E00895809178009091790008957E
S11318208032A0F497E890937A0090917C0066232C
S113183011F0906C02C09F779064907E982B9093E7
S11318407C0080917A00806480937A000895A0E0FF
S1131850B0E0EDE2FCE00C948F19EB0160E00E9433
S1131860100C80917A0086FDFCCF8E01C12CD12C06
S1131870760180917A00806480937A0080917A0066
S113188086FDFCCF0E94030CC80ED91EE11CF11C7E
S1131890015011090115110561F7CE01969587953F
S11318A0C034D10538F48C0D9D1DBE010E940E1963
S11318B0CB010EC0A7019601280F391F411D511DF0
S11318C0CA01B9019E0140E050E00E942219C901F9
S11318D0CDB7DEB7E8E00C94AB19CF92DF92EF926C
S11318E0FF92A0910001B09101019C010E94631933
S11318F06B017C010E94FD0B882359F0C701B601DE
S113190061587F4F8F4F9F4F2FEF30E040E050E002
S11319100AC0C701B60161507E4F8F4F9F4F2FEF12
S113192033E040E050E00E942219C901FF90EF909B
S1131930DF90CF9008950E94270C0E946D0C0895AB
S11319401F93CF93DF930E94FD0B182F0E94EC0B83
S11319506AE070E086E00E949B0CEC01812F0E94FB
S1131960F20BCE01880F991F8C0F9D1F019696953F
S11319708795DF91CF911F9108950E94A00C08953F
S113198090919301E0918E01F0918F01992311F0D0
S1131990849101C080812FEB280F2A3110F4805EDE
S11319A00895803249F49F012F5F3F4F30938F0198
S11319B020938E01EF2B31F708951F93CF93DF937C
S11319C00E94C00CC0E0D0E01AE090ED980F9A306D
S11319D0B8F49E01129FE001139FD00D1124C80F8B
S11319E0D11D87FDDA95E09780918E0190918F014A
S11319F0019690938F0180938E010E94C00CE5CFD5
S1131A00CE01DF91CF911F91089510926F0083E270
S1131A108093800081E1809381001092820080E1B4
S1131A2097E2909389008093880010928B00109223
S1131A308A00229A789408958F929F92AF92BF92CF
S1131A40DF92EF92FF920F931F93CF93DF935C018A
S1131A508B01D42E80919001811105C081E0809387
S1131A6090010E94050D10920B01B7FE05C0E89489
S1131A70B7F82AE0F22E02C0FF24F394E09081002C
S1131A802E2D287FE22E48ECF49EC00111248A15E5
S1131A909B05E0F4E50151E1A51657E2B50610F007
S1131AA0C0E1D7E2BE017695679580E090E060588A
S1131AB0794687469F4F4E01A12CB12CA501940174
S1131AC00E94221959018E2D816024C0C8E2FC9E17
S1131AD0C02D1124D0E0CA15DB0508F4E501BE01D0
S1131AE0769567959E0140E050E08AE0F81207C0C1
S1131AF080E090E0605E734481449F4F06C080E0C4
S1131B0090E060537D4E8C4E9F4F0E9422195901E4
S1131B108E2D8260882E2AE0F21207C0CE0105962F
S1131B206AE070E00E940E19EB01C83E43E0D4075E
S1131B3059F09801DE010E94631928EE33E040E079
S1131B4050E00E944419890110926F008092810034
S1131B50B0928900A0928800209188003091890079
S1131B604D2D403108F04FE080E190E0841B910955
S1131B70A90102C0569547958A95E2F750938B00C8
S1131B8040938A00109396010093950186B38FEFDA
S1131B9086BB81E080936F00DF91CF911F910F91FD
S1131BA0FF90EF90DF90BF90AF909F908F9008953B
S1131BB0CF93DF93EB018F3F11F0411105C040E05B
S1131BC0BE0188EE93E043C0813130F050EF580FEE
S1131BD0503618F05FE501C050E0852F6CE00E949C
S1131BE00219682F74EF760390011124250F311D1B
S1131BF02C30310540F4F901EE0FFF1FEC5CFE4F71
S1131C002081318102C020E030E0873081F0082E4D
S1131C1002C0220F331F0A94E2F7823028F0C90170
S1131C2005966AE070E00CC0C90190580CC0C90167
S1131C3036E0880F991F3A95E1F7029665E070E067
S1131C400E940E19CB01403108F04FE0BE010E9402
S1131C501C0DDF91CF910895A2E0B0E0E2E3FEE035
S1131C600C94871990900A0180919201882321F0A5
S1131C7060919101611117C077247394B0ECAB2E7D
S1131C80BDE5BB2E1AE0612E04E0802E80EDC82E47
S1131C9087E0D82E94E0E92EF12C04EF11E02FE038
S1131CA0422E512C15C070E040E088EE93E00E9473
S1131CB01C0D1092910117C18636D4F5813609F4B2
S1131CC0A9C07CF58C3309F460C08E3381F49394FD
S1131CD00E94C00C20918E0130918F012F5F3F4FE5
S1131CE030938F0120938E01853631F752C08132B3
S1131CF009F08BC080920A01D0920901C0920801B8
S1131D00F0920701E092060110930501009304018B
S1131D10509203014092020110929201A4E09A2E83
S1131D20D7CF8336A1F10CF478C010E082E077C0FD
S1131D308D36C1F194F4873691F174F18C3609F043
S1131D4064C00E94DD0CBC019093070180930601DE
S1131D50809108019091090151C08237C9F14CF476
S1131D608F3609F052C00E94DD0C982E80930A0130
S1131D70AFCF843781F1863709F047C00E94DD0C6C
S1131D809093030180930201A3CF9A94A1CF10E012
S1131D9020C010E084E043C010E085E040C010E0C3
S1131DA087E03DC00E94C00C8C3619F41092920159
S1131DB004C0709292011092910120918E01309191
S1131DC08F012F5F3F4F30938F0120938E0180CF7F
S1131DD011E080E024C00E94DD0CBC01C5010E941A
S1131DE00E19669EC001679E900D112490930901FF
S1131DF08093080160910601709107010E940E19F9
S1131E00709305016093040163CF10928F011092C7
S1131E108E0169C010E089E002C010E08BE0082F59
S1131E209CE0999E000D11240E94C00C982F977F6E
S1131E30933261F420918E0130918F012F5F3F4FD7
S1131E4030938F0120938E010F5FEECF8D3271F4AA
S1131E5020918E0130918F012F5F3F4F30938F017E
S1131E6020938E0101500E94C00CF0CF60910401B8
S1131E70709105018153883050F4E0900801F0908E
S1131E8009010E94DD0CBC01C7010E940E197B01EF
S1131E90F694E79469837A830E94C00C69817A81FD
S1131EA08E3269F420918E0130918F012F5F3F4F64
S1131EB030938F0120938E016E0D7F1DE9CF8091A9
S1131EC09201882339F09B0136952795209391013F
S1131ED0621B710940910201112311F08FEF01C0BF
S1131EE0802F0E94D80D2296E0E10C94A3191F9232
S1131EF00F920FB60F9211242F933F934F935F933A
S1131F006F937F938F939F93AF93BF93EF93FF93BD
S1131F1080919501909196019C0121503109309353
S1131F20960120939501892B11F510926F007894F6
S1131F3080918100887F81608093810080E197E2B5
S1131F40909389008093880010928B0010928A00ED
S1131F5081E080930B0180918E0190918F01892BF8
S1131F6031F080919401811102C00E942C0EFF91E6
S1131F70EF91BF91AF919F918F917F916F915F91FD
S1131F804F913F912F910F900FBE0F901F90189576
S1131F9010926F0090938F0180938E0181E0809363
S1131FA09301109291010E942C0E08950E94C80F73
S1131FB0089581E090E06F9364E06A95F1F76F9182
S1131FC00197C9F708950F931F93CF93DF931AB125
S1131FD057985A98289AC0E0D0E00E94D90F5C9A8A
S1131FE00E94D90F09B15C980E94D90F5C9A0E9493
S1131FF0D90F5C98249607FF10C0AE0160E070E032
S11320008091970190919801A0919901B0919A01C2
S1132010481759076A077B0700F31AB9DF91CF9174
S11320201F910F91089595B1282F217030E0220F50
S1132030331F482F467068E0469FA0011124242BCB
S11320409D7C292B25B99BB188708295807F9F77D1
S1132050892B8BB95C9A0E94D90F5C980E94D90F86
S11320600895A0E0B0E0E7E3F0E10C949019C82FE4
S1132070D62EE42E80910702811105C081E0809361
S113208007020E9477100E94E30F14B1D5B1FAB091
S11320900BB12898DD2011F05A9A01C05A9894B1D6
S11320A0926394B9579A81E0E81629F08C2F8295AF
S11320B08F700E9413108C2F8F700E941310FAB827
S11320C00BB914B9D5B9CDB7DEB7E7E00C94AC19A8
S11320D042E060E00E943110089542E061E00E9415
S11320E03110089541E060E00E943110089580E1CC
S11320F097E2A0E0B0E08093970190939801A093B9
S11321009901B0939A01529A209A549A8EE190E0E0
S11321100E945D1383E00E94721086E090E00E94AA
S11321205D1383E00E94721082E090E00E945D13D0
S113213083E00E94721082E090E00E945D1382E0CE
S11321400E94721082E090E00E945D1388E20E9477
S1132150681088E00E94681081E00E94681086E0A0
S11321600E9468108CE00E946810089581E00E942B
S1132170681080919D0190919E01892BF9F060E097
S1132180A0E2262F30E070910C0180910D0190E0C7
S11321900197789FA001799F500D112424173507CA
S11321A04CF4E0919D01F0919E01E20FF31FA08396
S11321B06F5FE7CF10929B0110929C0108950E94DB
S11321C0B6100895CF93DF93EC018991882319F019
S11321D00E946D10FACFDF91CF9108950E94E21012
S11321E00895AAE0B0E0E7EFF0E10C948F191AE04B
S11321F05AE0C52ED12CE12CF12C062FA701960113
S11322000E942219CA01B9011150E1E0F0E0EC0F7B
S1132210FD1FE10FF11D005D2AE0629F00191124EA
S11322200083611571058105910539F71A3058F459
S1132230E1E0F0E0EC0FFD1FE10FF11D80810E9451
S11322406D101F5FF3CF2A96E8E00C94AB19CF9280
S1132250DF92EF92FF926B017C0197FF0BC0F09429
S1132260E094D094C094C11CD11CE11CF11C8DE2FB
S11322700E946D10C701B6010E94F110FF90EF900B
S1132280DF90CF9008950E9427110895A5E0B0E053
S1132290ECE4F1E10C949419182F80E8898380EC24
S11322A08A8384E98B8384ED8C83FE01E60FF11D20
S11322B08181810F6D830E94681010939B016D8151
S11322C060939C012596E3E00C94B0190E9446119A
S11322D00895883058F491E001C0990F8A95EAF77F
S11322E0892FAAE2B0E0EBE2F0E021C08E3060F486
S11322F098EF980F81E001C0880F9A95EAF7A4E25D
S1132300B0E0E5E2F0E013C0853160F492EF980F9D
S113231081E001C0880F9A95EAF7A7E2B0E0E8E20D
S1132320F0E005C080E0A0E0B0E0E0E0F0E06F3F66
S113233019F49081982709C0662319F09081982B8D
S113234004C02081982F9095922390839C91982B80
S11323509C93089583EF8093B00084BD82E08093C2
S1132360B10085BD1092B4001092B30018BC17BC24
S113237060E086E00E94691160E085E00E946911D6
S113238060E08BE00E94691160E083E00E946911C3
S1132390089580910802811105C081E080930802AC
S11323A00E94AA110895CF93DF93EC010E94C911F2
S11323B0D7FF05C0D195C195D10981E001C080E066
S11323C0CF3FD10519F014F0CFEFD0E0882319F0F6
S11323D018BCC7BD02C0C8BD17BCDF91CF9108951A
S11323E0CF93DF93EC010E94C911D7FF05C0D195AB
S11323F0C195D10981E001C080E0CF3FD10519F03A
S113240014F0CFEFD0E0882329F01092B400C093E9
S1132410B30004C0C093B4001092B300DF91CF9115
S11324200895CF93DF93EB010E94D311CE010E9454
S1132430F011DF91CF9108950E941112089584B193
S11324408D7C84B985B1826385B985E090E06F9312
S113245064E06A95F1F76F910197C9F70895809147
S11324600902811105C081E0809309020E941F12B4
S11324700895CF93C82F0E942F1283B18C23E9F3C0
S11324808AE090E00E945D1383B18C23B1F383B1A1
S11324908C23CF9108950E9439120895A1E0B0E0F1
S11324A0E4E5F2E10C94951989830E942F1293B10B
S11324B09095898189232196E2E00C94B1190E94B8
S11324C04E120895282F30E09AE0899FF0011124DC
S11324D0E156FE4F80859185009721F05281448119
S11324E0541780F08AE0829FF001839FF00D11243D
S11324F0E156FE4F9281848198130EC0858181112B
S11325000AC008954281DC01A40FB11D6C9382813D
S11325108F5F8283E7CF128208951F920F920FB6C6
S11325200F9211242F933F934F935F936F937F9355
S11325308F939F93AF93BF93EF93FF936091C600E4
S113254080E00E946212FF91EF91BF91AF919F9141
S11325508F917F916F915F914F913F912F910F9048
S11325600FBE0F901F9018959AE0899FF0011124D7
S1132570E156FE4F86819781892B59F091818381A1
S1132580981738F48081811104C08091C100806261
S113259003C08091C1008F7D8093C10008959AE0AB
S11325A0899FF0011124E156FE4F268137812115C0
S11325B0310541F041819381491720F49091C00085
S11325C095FD03C00E94B41208959181D901A90F09
S11325D0B11D9C919093C60091819F5F9183F2CF2E
S11325E01F920F920FB60F9211242F933F934F9384
S11325F05F936F937F938F939F93AF93BF93EF9367
S1132600FF9380E00E94CF12FF91EF91BF91AF91B1
S11326109F918F917F916F915F914F913F912F91F6
S11326200F900FBE0F901F9018952F928F939F932A
S11326302FB68091B0019091B10101968093B001C1
S11326409093B10190E08091B201891F8093B2010F
S11326509091AA019C5F9093AA018091A901805155
S11326609742C0F09093AA018093A9018091AB0195
S11326709091AC0101968093AB019093AC0190E0F2
S11326808091AD01891F8093AD018091AE01891FB6
S11326908093AE012FBE9F918F912F90189528EEB5
S11326A033E0019748F0F9016F9364E06A95F1F71C
S11326B06F913197C9F7F5CF08950E944F1308958C
S11326C0E0E7F0E080818E7F8083A0EBB0E08C9126
S11326D083608C93A1EBB0E08C91807F8C938C9180
S11326E082608C93B89A8081816080837894089505
S11326F080910A02811105C081E080930A020E9440
S1132700601308950E947813E0E7F0E080818E7FE3
S113271080836091AB017091AC018091AD01909187
S1132720AE0120812160208308950E9482130895C0
S11327300E947813E0E7F0E080818E7F808310921E
S1132740AB011092AC011092AD011092AE01109247
S1132750AA011092A9018081816080830895462F87
S1132760BC0183EB91E00E9440160895682F83EB2F
S113277091E00E949E170895462F20E0BC0183EB50
S113278091E00E946F1808950F93CF93DF9300D0C8
S113279000D01F92CDB7DEB79C0185E0ECE4F1E0F8
S11327A0DE01119601900D928A95E1F7662311F0EE
S11327B00FEF01C003E145E0BE016F5F7F4F83EB84
S11327C091E00E94961483EB91E00E946D140E94A4
S11327D098130F900F900F900F900F90DF91CF915F
S11327E00F91089560E00E94C413089583EB91E073
S11327F00E94E41808956F9364E06A95F1F76F916D
S11328000197C9F70895FC01118210821382128284
S1132810158214821682683068F489E290E091830C
S113282080838BE290E0938382838AE290E09583B5
S113283084831FC06E3070F483E290E091838083C0
S113284085E290E09383828384E290E0958384839D
S113285068500FC0653198F486E290E091838083DC
S113286088E290E09383828387E290E09583848377
S11328706E5081E001C0880F6A95EAF78683089557
S1132880A7E0B0E0E6E4F4E10C9493198C01FC01B8
S11328901182108213821282158214821782168288
S11328A0613118F080E1808702C0FC016087F80183
S11328B0208B642FCE0101960E9403148F81F801AE
S11328C081878B819C81938782878D819E81958767
S11328D084872796E4E00C94AF19FC01A485B585A0
S11328E0109779F08C919185892B8C93A285B3856F
S11328F09C918185809589238C9388EC90E00E943B
S1132900FB130895FC01A485B585109771F08C9193
S11329109185892B8C93A285B3858C919185892B84
S11329208C9388EC90E00E94FB130895A7E0B0E03C
S1132930ECE9F4E10C9488197C014B01642F390112
S1132940402F20E00E94401487010F5B1F4FF801C5
S113295010826701F2E4CF0ED11CF60110825701F8
S1132960F3E4AF0EB11CF5011082F7017786668699
S1132970512CF7018085581650F5652C712CF40103
S1132980E60DF71D6081CE0101960E9403142F818C
S1132990F701E60DF71D218B89819A81F301EE0F72
S11329A0FF1FEE0DFF1D92A381A38332910511F445
S11329B0F80108C08632910511F4F60103C0899725
S11329C021F4F5018081822B80835394D2CF279602
S11329D0EFE00C94A419A0E0B0E0E1EFF4E10C9472
S11329E08A19EC015B016C0181E4C80ED11CF6016B
S11329F080807E01F2E4EF0EF11CF70170808E01FD
S1132A000D5B1F4FF801908080E09885891748F48A
S1132A10F501E80FF11DE80FF11D118210828F5F9F
S1132A20F4CF84B1F6019081892B84B987B1F70181
S1132A309081892B87B98AB1F8019081892B8AB951
S1132A4085B1F6019081892B85B988B1F701908110
S1132A50892B88B98BB1F8019081892B8BB98AE0D5
S1132A6090E00E94FB1394B1F60180818095892344
S1132A7084B997B1F70180818095892387B99AB188
S1132A80F8018081809589238AB995B1F601808106
S1132A908095892385B998B1F70180818095892330
S1132AA088B99BB1F8018081809589238BB9E09026
S1132AB0B000D090B1008091B00083608093B000EA
S1132AC082E08093B1004091B20080E090E02E85D6
S1132AD03F858217930720F5C090B2002C2D241B4C
S1132AE0820F911D03B1081132C0F6B0F7102FC048
S1132AF029B129112CC010C0212F30E0A901440FA5
S1132B00551FF501E40FF51F60817181672B21F1D9
S1132B101F5F2885121780F37F2C802E4C2DD7CF72
S1132B20E092B000D092B10020E08885281730F5FB
S1132B30F501E20FF11DE20FF11D80819181892BD6
S1132B4021F48E859F85918380832F5FEECF03B11F
S1132B50F6B099B010E0DDCFDE01A40FB51F919659
S1132B600D90BC91A02D4C91DE01A20FB31F519684
S1132B702C91422369F691838083CACFCDB7DEB707
S1132B80EDE00C94A619EF92FF920F931F93CF934D
S1132B90DF93FC019B01F0907C0000917A0047B127
S1132BA018B180917A0086FDFCCF80E0908589176A
S1132BB048F4D901A80FB11DA80FB11D1D921C9294
S1132BC08F5FF4CF97B182A18095892387B998B19B
S1132BD082A18095892388B987E880937A00E12CC3
S1132BE081A1E81610F0E12C29C050E08085581727
S1132BF018F5A52FB0E0EF01CA0FDB1F89898064A7
S1132C0080937C0080917A00806480937A00809124
S1132C107A0086FDFCCF6091780070917900AA0F4C
S1132C20BB1FA20FB31F8D919C911197860F971F05
S1132C308D939C935F5FDACFE394D2CF8085E816BF
S1132C40A0F4E901CE0DD11DCE0DD11D61A170E01E
S1132C50CB0195958795A881B9818A0F9B1F0E9406
S1132C600E1979836883E394E9CFF0927C00009392
S1132C707A0018B947B9CDB7DEB7E6E00C94AD19C0
S1132C80A0E2B0E0E6E4F6E10C9490198C017B013B
S1132C90D42E8FEF840F823018F4C8010E9482145E
S1132CA0D80150968C91B701811110C0C8010E94BF
S1132CB0EB14C8010E946D14B2E0DB123AC0BE01ED
S1132CC06F5F7F4FC8010E94EB140FC0C8010E94C0
S1132CD0C315C8010E946D14E2E0DE122AC0BE01D1
S1132CE06F5F7F4FC8010E94C31540E0F8018085E3
S1132CF04817F8F4842F90E0880F991FF701E80F24
S1132D00F91F21E030E02C0F3D1F820F931FD801E3
S1132D101E962D913C911F97DC018D919C91281B4F
S1132D20390B80819181820F931F918380834F5F40
S1132D30DDCFA096E7E00C94AC192F923F925F92FE
S1132D406F927F928F929F92AF92BF92CF92DF92B7
S1132D50EF92FF920F931F93CF93DF93CDB7DEB71C
S1132D60C056D1090FB6F894DEBF0FBECDBF8C019B
S1132D704B015A01522EDA018D919C91892B31F02D
S1132D80F40180819181892BF1F424C0D801189633
S1132D908C9190E0880F991F0E94C219F5019183CC
S1132DA08083009709F4B1C0FC0120E030E0D80131
S1132DB018968C9190E02817390714F71192119204
S1132DC02F5F3F4FF4CFE12CF12C6E01B1E2CB0E1B
S1132DD0D11C21C0F801808590E0880F991F0E94C2
S1132DE0C219D4018D939C93009709F48EC0FC0101
S1132DF020E030E0D80118968C9190E0281739072C
S1132E0014F7D8011E968D919C911F9781939193ED
S1132E102F5F3F4FEFCF452DBE016F5B7F4FC80142
S1132E200E944016F8016084712CFE01EF5BFF4F95
S1132E30C6019E012F5F3F4F190120E030E02615A7
S1132E4037054CF5E114F10489F0DC016D917C91B6
S1132E50408151816417750748F0D1016D917C91CF
S1132E60408151814617570748F00DC04081518178
S1132E70DC014D935C93E114F10479F740815181B5
S1132E80D1014D935C932F5F3F4FB2E02B0E311C69
S1132E9032960296D4CFEFEFEE1AFE0AFAE0EF165E
S1132EA0F10409F0B8CF9E012F5F3F4F790136013D
S1132EB080E090E0F801208530E0821793072CF53C
S1132EC0D7012D913D917D01B3016C197D09D50187
S1132ED0ED91FC91E60FF71F408151814217530792
S1132EE010F431832083F301219131913F01D40106
S1132EF0ED91FC91E60FF71F4081518124173507AE
S1132F0010F4318320830196D5CFC05ADF4F0FB61A
S1132F10F894DEBF0FBECDBFDF91CF911F910F910B
S1132F20FF90EF90DF90CF90BF90AF909F908F90E5
S1132F307F906F905F903F902F9008951F93CF9351
S1132F40DF93EC01162F8FEF860F823018F0662383
S1132F5059F014C021E0AE014E5F5F4FBE01CE01B7
S1132F600E949D16123051F4AE014A5F5F4FBE01BC
S1132F706C5F7F4F20E0CE010E949D16DF91CF91C0
S1132F801F910895A0E0B0E0E8ECF7E10C948E19ED
S1132F90EC018B01B42E842F8D7F51F48C819D81A3
S1132FA0892B09F497C08E819F81892B09F492C0E3
S1132FB08FEF8B0D823050F488819981892B09F42D
S1132FC089C08A819B81892B09F484C04B2DB80167
S1132FD0CE010E944016780100E010E0C12CD12CF3
S1132FE0888590E0C816D9060CF074C081E0B81248
S1132FF00AC0EA81FB81E00FF11F0190F081E02D0E
S1133000A881B9810DC08C819D812E813F81B11031
S11330100CC0F901E00FF11F0190F081E02DDC01FB
S1133020A00FB11F8D919C9128C0FC01E00FF11FEE
S113303040815181E881F981E00FF11F8081918104
S1133040EE85FF854817590710F4CF0104C08E0F91
S11330509F1F841B950BD901A00FB11F2D913C918B
S1133060AA81BB81A00FB11F4D915C912417350734
S113307020F0E40FF51FE21BF30BE81BF90BA9F09A
S1133080D7012D913C9140E050E0281B390B4109B8
S11330905109A8EEB3E00E9472199F0140E050E08C
S11330A00E94441937FD0AC002C020E030E0293EE6
S11330B0B3E03B072CF028EE33E002C020E030E020
S11330C0F701219331937F01FFEFCF1ADF0A0E5FDF
S11330D01F4F86CFCDB7DEB7E9E00C94AA19A0E064
S11330E0B0E0E5E7F8E10C948519EC018B01822E40
S11330F00E94C2172884E801412C512C320100E0BF
S113310010E0C12CD12C7601312C912C58EEA52E37
S113311053E0B52E921421F1E991F991882021F020
S1133120C5018E1B9F0BFC01E93CF10524F4E3333C
S1133130F10574F002C033243394DF01A30192013A
S11331400E947D19C60ED71EE81EF91E0E0F1F1F02
S1133150939498EE490E93E0591E611C711CDACFCA
S113316031101EC0492D50E04150510924EF31E087
S1133170429FC001439F900D529F900D11242091B6
S1133180F7013091F80128173907B4F088EE93E07D
S1133190489F9001499F300D589F300D11240EC057
S11331A0980140E050E0C701B6010E942219309313
S11331B0F8012093F70102C020E030E0C901CDB747
S11331C0DEB7E2E10C94A119CF93DF93EC018A817D
S11331D09B81009711F00E945A1A8E819F8100975B
S11331E011F00E945A1A88819981009711F00E9467
S11331F05A1A8C819D81009711F00E945A1ADF910E
S1133200CF910895991B79E004C0991F961708F08F
S1133210961B881F7A95C9F780950895AA1BBB1B36
S113322051E107C0AA1FBB1FA617B70710F0A61BC2
S1133230B70B881F991F5A95A9F780959095BC01E3
S1133240CD010895A1E21A2EAA1BBB1BFD010DC0DE
S1133250AA1FBB1FEE1FFF1FA217B307E407F50742
S113326020F0A21BB30BE40BF50B661F771F881F1E
S1133270991F1A9469F760957095809590959B01B4
S1133280AC01BD01CF010895052E97FB1EF40094F7
S11332900E945B1957FD07D00E94221907FC03D036
S11332A04EF40C945B1950954095309521953F4F01
S11332B04F4F5F4F089590958095709561957F4F1E
S11332C08F4F9F4F0895A29FB001B39FC001A39F4A
S11332D0700D811D1124911DB29F700D811D11244B
S11332E0911D08950E946319A59F900DB49F900DA0
S11332F0A49F800D911D11240895B7FF0C94721999
S11333000E947219821B930B08952F923F924F9241
S11333105F926F927F928F929F92AF92BF92CF9261
S1133320DF92EF92FF920F931F93CF93DF93CDB76A
S1133330DEB7CA1BDB0B0FB6F894DEBF0FBECDBFE2
S113334009942A88398848885F846E847D848C84B3
S11333509B84AA84B984C884DF80EE80FD800C81BC
S11333601B81AA81B981CE0FD11D0FB6F894DEBF9F
S11333700FBECDBFED010895EE0FFF1F0590F49130
S1133380E02D09940F931F93CF93DF93823091051F
S113339010F482E090E0E0917402F091750220E074
S11333A030E0A0E0B0E0309719F140815181028112
S11333B0138148175907C8F08417950769F41097C3
S11333C031F012960C93129713961C9327C0009316
S11333D074021093750222C02115310519F04217A9
S11333E0530718F49A01BD01EF01DF01F801DBCFA7
S11333F021153105F9F0281B390B2430310580F4EF
S11334008A819B816115710521F0FB01938382837D
S113341004C09093750280937402FE01329644C0F6
S1133420FE01E20FF31F81939193225031093983F6
S113343028833AC02091720230917302232B41F405
S11334402091100130911101309373022093720284
S113345020910E0130910F012115310541F42DB752
S11334603EB74091120150911301241B350BE0919A
S11334707202F0917302E217F307A0F42E1B3F0BC4
S11334802817390778F0AC014E5F5F4F24173507D2
S113349048F04E0F5F1F5093730240937202819362
S11334A0919302C0E0E0F0E0CF01DF91CF911F9152
S11334B00F910895CF93DF93009709F481C0FC0125
S11334C0329713821282A0917402B0917502109700
S11334D081F420813181820F931F209172023091F7
S11334E073022817390751F5F0937302E0937202BF
S11334F067C0ED0120E030E0CE17DF0740F44A81D9
S11335005B819E0141155105F1F0EA01F5CFD383AA
S1133510C28340815181840F951FC817D90759F47C
S113352088819981840F951F0296918380838A8173
S11335309B81938382832115310529F4F0937502CD
S1133540E09374023DC0E901FB83EA8349915991F8
S1133550C40FD51FEC17FD0761F480819181840F9E
S1133560951F0296E90199838883828193819B83C5
S11335708A83E0E0F0E012968D919C911397009776
S113358019F0FD01DC01F7CF8D919C9111979D01FC
S11335902E5F3F4F820F931F20917202309173026E
S11335A02817390769F4309729F41092750210929C
S11335B0740202C013821282B0937302A093720247
S11335C0DF91CF91089510E0C8E4D0E004C0FE017B
S11335D00E94BC192196C934D107C9F7F894FFCFCA
S11335E088130F00F4010400D0070401080200004E
S11335F0760220000301000202030100000203011D
S113360001000203000003000200040004000200A1
S1133610030000009C01B501CF01EA010702260264
S1133620470269028E02B502DE020A030E0F101170
S11336301252004C004600446F6E654421006D56E2
S1133640006472756B204200202000476F210064E3
S113365072756B206F700042206B6E6F700064692E
S111366063687462696A0068656565656C007C
S9030000FC
