S0140000526F626F7452756E477269642E737265634F
S11300000C9434000C9449000C9449000C9449005D
S11300100C9449000C9449000C9449000C94490038
S11300200C9449000C9449000C9449000C94490028
S11300300C9449000C9449000C9449000C94490018
S11300400C9449000C9449000C9449000C94490008
S11300500C9449000C9449000C9449000C944900F8
S11300600C9449000C94490011241FBECFEFD8E032
S1130070DEBFCDBF11E0A0E0B1E0E4EBF7E002C0E9
S113008005900D92A031B107D9F70E9471010C942B
S1130090D8030C940000CF92DF92EF92FF920F935B
S11300A01F93FB010081118122813381FC01C080F7
S11300B0D180E280F380FB01C082D182E282F382AC
S11300C0FC0100831183228333831F910F91FF90DE
S11300D0EF90DF90CF9008952F923F924F925F92CE
S11300E06F927F928F929F92AF92BF92CF92DF9244
S11300F0EF92FF920F931F93CF93DF93CDB7DEB7A9
S1130100A5970FB6F894DEBF0FBECDBF9BA38AA3FD
S11301106CA37DA3069698A38F8FB6C07E8E6D8E3A
S1130120F3010190F081E02DFA8FE98FBF01FF0FF9
S1130130880B990B0E945B026B017C013C8E2B8E19
S1130140F10100811181B801012E000C880B990B7B
S11301500E945B024B015C019B01AC010E94EC021A
S1130160698B7A8B8B8B9C8BA5019401C501B4019F
S11301700E94EC024B015C01A7019601C701B60184
S11301800E94EC029B01AC01C501B4010E94B701BD
S11301900E945F036B017C01F2016193719381936F
S11301A091932F01E98B59A280809180A280B38022
S11301B0A50194010E94E7021816D4F4B2018D89B6
S11301C09E890E944B00F3018281938120813181B9
S11301D03383228391838083F101828193812081FF
S11301E0318133832283918380831F8A188E36C0A2
S11301F0C701B6010E9423027B01C501B4010E941C
S11302002302E616F70651F5EB8DFC8D828193816E
S11302100817190719F5ED8DFE8D82819381298DBB
S11302203A8D28173907D4F4698979A18D899E8973
S11302300E944B00ED8DFE8D82819381208131815E
S11302403383228391838083EB8DFC8D8281938120
S1130250208131813383228391838083F2E06F0E86
S1130260711C22E0220E311C8D899E8904969E8B7E
S11302708D8BEF8DF8A16E167F0609F04FCF2F8975
S1130280388D2130310569F06AA07BA02CA03DA0F7
S1130290CE0101962C019E8B8D8B91E09F8B188E45
S11302A03DCFA5960FB6F894DEBF0FBECDBFDF914C
S11302B0CF911F910F91FF90EF90DF90CF90BF905F
S11302C0AF909F908F907F906F905F904F903F90F2
S11302D02F90089525E030E0FC0131A720A7FFCF3F
S11302E0FFCF0F931F93CF93DF93CDB7DEB7C05BE0
S11302F0D1090FB6F894DEBF0FBECDBFCE01019673
S11303000E946A018C0188E0E0E0F1E0DE01AF5573
S1130310BF4F01900D928A95E1F788E0E8E0F1E0A3
S1130320DE01A755BF4F01900D928A95E1F7BE01FA
S113033067557F4FCE018F559F4F0E946C009801E7
S113034040E050E061E070E0CE0101960E9470014F
S113035080E090E0C055DF4F0FB6F894DEBF0FBECB
S1130360CDBFDF91CF911F910F9108955058BB27B6
S1130370AA270E94CE010C94AD020E949F0238F07D
S11303800E94A60220F039F49F3F19F426F40C943D
S11303909C020EF4E095E7FB0C949602E92F0E9470
S11303A0BE0258F3BA17620773078407950720F053
S11303B079F4A6F50C94E0020EF4E0950B2EBA2F16
S11303C0A02D0B01B90190010C01CA01A001112457
S11303D0FF27591B99F0593F50F4503E68F11A1603
S11303E0F040A22F232F342F4427585FF3CF469594
S11303F037952795A795F0405395C9F77EF41F16B6
S1130400BA0B620B730B840BBAF09150A1F0FF0F7F
S1130410BB1F661F771F881FC2F70EC0BA0F621F6B
S1130420731F841F48F4879577956795B795F7955B
S11304309E3F08F0B0CF9395880F08F09927EE0FF0
S11304409795879508950E942A026894B1110C9497
S1130450E10208950E94C60288F09F5798F0B92FD0
S11304609927B751B0F0E1F0660F771F881F991FE5
S11304701AF0BA95C9F714C0B13091F00E94E002A5
S1130480B1E008950C94E002672F782F8827B85FB5
S113049039F0B93FCCF3869577956795B395D9F73D
S11304A03EF490958095709561957F4F8F4F9F4F47
S11304B00895E89409C097FB3EF490958095709553
S11304C061957F4F8F4F9F4F9923A9F0F92F96E99C
S11304D0BB279395F695879577956795B795F11111
S11304E0F8CFFAF4BB0F11F460FF1BC06F5F7F4FAE
S11304F08F4F9F4F16C0882311F096E911C07723C0
S113050021F09EE8872F762F05C0662371F096E8C8
S1130510862F70E060E02AF09A95660F771F881F97
S1130520DAF7880F9695879597F9089597F99F6755
S113053080E870E060E008959FEF80EC0895002467
S11305400A941616170618060906089500240A9434
S113055012161306140605060895092E0394000CBA
S113056011F4882352F0BB0F40F4BF2B11F460FF49
S113057004C06F5F7F4F8F4F9F4F089557FD905872
S1130580440F551F59F05F3F71F04795880F97FB53
S1130590991F61F09F3F79F087950895121613060D
S11305A01406551FF2CF4695F1DF08C0161617063C
S11305B01806991FF1CF8695710561050894089571
S11305C0E894BB2766277727CB0197F908950E9403
S11305D09F0308F48FEF08950E94FF020C94AD026C
S11305E00E949F0238F00E94A60220F0952311F089
S11305F00C9496020C949C0211240C94E1020E9427
S1130600BE0270F3959FC1F3950F50E0551F629F92
S1130610F001729FBB27F00DB11D639FAA27F00D57
S1130620B11DAA1F649F6627B00DA11D661F829F7E
S11306302227B00DA11D621F739FB00DA11D621F63
S1130640839FA00D611D221F749F3327A00D611D80
S1130650231F849F600D211D822F762F6A2F112462
S11306609F5750409AF0F1F088234AF0EE0FFF1F95
S1130670BB1F661F771F881F91505040A9F79E3FEC
S1130680510580F00C9496020C94E1025F3FE4F370
S1130690983ED4F3869577956795B795F795E79542
S11306A09F5FC1F7FE2B880F911D9695879597F94B
S11306B0089519F416F40C949C020C94C3030E943C
S11306C0C602B8F39923C9F3B6F39F57550B87FFB6
S11306D00E94D1030024A0E640EA90018058569578
S11306E0979528F4805C660F771F881F20F02617E3
S11306F03707480730F4621B730B840B2029312918
S11307004A2BA69517940794202531254A2758F794
S1130710660F771F881F20F026173707480730F425
S1130720620B730B840B200D311D411DA09581F7C5
S1130730B901842F9158880F969587950895990F3C
S11307400008550FAA0BE0E8FEEF16161706E80797
S1130750F907C0F012161306E407F50798F0621BB8
S1130760730B840B950B39F40A2661F0232B242B8D
S1130770252B21F408950A2609F4A140A6958FEFAC
S1130780811D811D08959F3F31F0915020F487957C
S113079077956795B795880F911D9695879597F9E5
S11307A0089591505040660F771F881FD2F708951F
S10707B0F894FFCFE7
S11307B40200050003000400030001000400020019
S9030000FC
