:100000000C945F000C947C000C947C000C947C009D
:100010000C947C000C947C000C947C000C947C0070
:100020000C947C000C949F100C947C000C947C002D
:100030000C947C000C949A0C0C947C000C947C0026
:100040000C947C000C947C000C94E10F0C947A10BE
:100050000C947C000C947C000C947C000C947C0030
:100060000C947C000C947C00D408DA08DA08DA08D6
:10007000DA08DA08DA08DA08C008DA08CA08DA089A
:10008000DA08DA08AA08DA08DA08B508DA08DA08B5
:10009000DA08DA08DA08DA08DA08DA08DA08DA0850
:1000A000DA08DA08DA08DA089F08DA08DA08DA087B
:1000B00097083E6633323E3E613332006A111124A6
:1000C0001FBECFEFD8E0DEBFCDBF11E0A0E0B1E0B2
:1000D000E0EFF0E302C005900D92AA38B107D9F71E
:1000E00022E0AAE8B1E001C01D92A837B207E1F70B
:1000F0000E94B5060C946B180C9400002F923F924E
:100100004F925F926F927F928F929F92AF92BF9227
:10011000CF92DF92EF92FF920F931F93CF93DF93D3
:1001200000D000D000D0CDB7DEB79A838983662E89
:10013000772E2DB73EB73C832B838091F7019091AA
:10014000F801BC01660F771FADB7BEB7A61BB70B92
:100150000FB6F894BEBF0FBEADBF11963A2E4B2E10
:100160000197181619060CF09FC0E981FA81462DF7
:10017000572D625071096E0F7F1F8D0121913191B2
:10018000DA018D919D91AD01820F931FD8018D935E
:100190009D938D01E617F70789F786C0208131818D
:1001A000BFEFCB1ADB0A428153814217530724F574
:1001B0003383228351834083DC0112962D913C913D
:1001C00013974D915C91119713965C934E931297F0
:1001D0002D933C93AD81BE8112962D913C91139746
:1001E0004D915C91119713965C934E9312972D93BA
:1001F0003C93A82CB92C36C02417350799F5ED800F
:10020000FE80D7010D911C91119712964D915C9132
:1002100013970417150731F5DC010D911C91119707
:1002200012964D915C91139704171507DCF43383F4
:10023000228331832083DC0113961C930E93129743
:100240004D935C93D70112962D913C9113974D914C
:100250005C91119713965C934E9312972D933C9358
:10026000A82CB92C329602962D813E812E5F3F4FED
:100270003E832D832091F7013091F80121503109FF
:10028000C216D3060CF48ACFAA94AB2899F0E32DBA
:10029000F42D89819A81A62DB72DC12CD12CA52CA6
:1002A000B22CBE83AD83E6CF55245394212C812CF0
:1002B000912CEDCF8B819C810FB6F8949EBF0FBE21
:1002C0008DBF26960FB6F894DEBF0FBECDBFDF916F
:1002D000CF911F910F91FF90EF90DF90CF90BF9043
:1002E000AF909F908F907F906F905F904F903F90D6
:1002F0002F900895FC0142E050E05183408381E05B
:1003000090E0938382835583448397838683918788
:10031000808723E030E0338722875587448765E074
:1003200070E077876687918B808B938B828B758B40
:10033000648B31A320A333A322A375A364A331ABA1
:1003400020AB93AB82AB55AB44AB97AB86AB51AF15
:1003500040AF73AF62AFE05CFF4F318320835383C4
:10036000428335832483778366830895EF92FF92D7
:100370001F93CF93DF93CDB7DEB760970FB6F89496
:10038000DEBF0FBECDBF90E1ECE1F1E0DE011196E2
:1003900001900D929A95E1F7FB019081981709F46D
:1003A0004CC07B01182FE1E0F0E0EC0FFD1F84E072
:1003B000189FE00DF11D1124E90FF11D808181309E
:1003C00021F048F18230A1F038C064EC7FEF8CE37B
:1003D00090E00E94420F8EE091E00E94E71060E002
:1003E00070E080E090E00E94420FF701108325C08A
:1003F0006CE370E084EC9FEF0E94420F8EE091E08E
:100400000E94E71060E070E080E090E00E94420F00
:10041000F701108312C064EC7FEF8CE390E00E9440
:10042000420F8CE192E00E94E71060E070E080E013
:1004300090E00E94420FF701108360960FB6F89487
:10044000DEBF0FBECDBFDF91CF911F91FF90EF9028
:100450000895CF93DF93EA0162957295707F7627B6
:10046000607F7627860F971F28813981220F331FDF
:10047000FC01E20FF31F808191818230910591F19F
:100480001CF4019749F080C08330910509F450C0F5
:10049000059709F463C078C06CE370E08CE390E0EA
:1004A0000E94420F84EB90E00E94E71060E070E051
:1004B00080E090E00E94420F64EC7FEF8CE390E0DC
:1004C0000E94420F88E191E00E94E71060E070E036
:1004D00080E090E00E94420F888199810196998383
:1004E000888352C06CE370E08CE390E00E94420F7E
:1004F00084EB90E00E94E71060E070E080E090E024
:100500000E94420F6CE370E084EC9FEF0E94420F68
:1005100088E191E00E94E71060E070E080E090E008
:100520000E94420F888199810196998388832CC00B
:100530006CE370E08CE390E00E94420F84EB90E06B
:100540000E94E71060E070E080E090E00E94420FBF
:100550008881998101969983888316C060E070E054
:1005600080E090E00E94420F81E090E090930502CD
:1005700080930402109207021092060219821882D8
:100580009093FF018093FE01DF91CF9108952F9208
:100590003F924F925F926F927F928F929F92AF9213
:1005A000BF92CF92DF92EF92FF920F931F93CF9360
:1005B000DF93EC013B014A015901270116010E941A
:1005C000050E60E080E00E948C0ED5016D917C915B
:1005D000072E000C880B990B0E94690E61E080E0E9
:1005E0000E948C0EF80160817181072E000C880B2F
:1005F000990B0E94690E8091000290910102892B53
:1006000081F46CE370E08CE390E00E94420F8AEA90
:1006100090E00E94E71060E070E080E090E00E94CF
:10062000420F8091000290910102019721F41092F3
:10063000010210920002D401CD90DC90E090F7010D
:10064000F090F801F601EE0FFF1FEC0FFD1F208167
:100650003181F501808191812817390709F49DC105
:10066000D2014D915C91452B29F09BC184309105BD
:1006700009F47DC0821793072CF004979CF5CE14E3
:10068000DF0481F5B10183E00E94B601809106028A
:1006900090910702019751F4F501808191810196B3
:1006A0009183808310920702109206020E94050E29
:1006B00060E080E00E948C0ED5016D917C91072E48
:1006C000000C880B990B0E94690E61E080E00E948B
:1006D0008C0EF80160817181072E000C880B990B3C
:1006E0000E94690ED5012D913C91D401ED91FC91B0
:1006F000EE0FFF1FEC0FFD1F808191818217930782
:1007000034F0253031059CF1CE14DF0481F5B101C0
:1007100081E00E94B6018091060290910702019744
:1007200051F4F5018081918101979183808310922A
:100730000702109206020E94050E60E080E00E940F
:100740008C0ED5016D917C91072E000C880B990BB6
:100750000E94690E61E080E00E948C0EF8016081C9
:100760007181072E000C880B990B0E94690ED40131
:10077000ED91FC91EE0FFF1FEC0FFD1F20813181E9
:10078000F5018081918128173907B1F481E090E06B
:10079000D2018D939C93D401ED91FC91EE0FFF1F3C
:1007A000E60DF71D20813181F801808191812817A4
:1007B000390701F59C0117C0D401ED91FC91EE0FB2
:1007C000FF1FE60DF71D20813181F80180819181A5
:1007D0002817390739F0D2014D915C91413051050C
:1007E00011F408C09C01CE14DF0409F0F0C000979A
:1007F00009F4DCC0821793072CF099239CF5CE14E2
:10080000DF0481F5B10180E00E94B601809106020B
:1008100090910702019751F4F8018081918101962E
:100820009183808310920702109206020E94050EA7
:1008300060E080E00E948C0ED5016D917C91072EC6
:10084000000C880B990B0E94690E61E080E00E9409
:100850008C0EF80160817181072E000C880B990BBA
:100860000E94690ED8012D913C91D401ED91FC912B
:10087000EE0FFF1FE60DF71D808191818217930710
:100880003CF012161306A4F5CE14DF0409F09FC045
:10089000B10182E00E94B6018091060290910702A8
:1008A000019751F4F80180819181019791838083B0
:1008B00010920702109206020E94050E60E080E08E
:1008C0000E948C0ED5016D917C91072E000C880B37
:1008D000990B0E94690E61E080E00E948C0EF80185
:1008E00060817181072E000C880B990B0E94690EA4
:1008F000D4018D919C91880F991FF5012081318140
:10090000C80FD91F488159814217530759F4F30181
:10091000E80FF91F40815181D8018D919C914817B2
:10092000590779F0CE14DF0409F0C3C02430310533
:1009300009F0BFC0F80180819181892B09F458C06A
:10094000B8C060E070E080E090E00E94420F0E943A
:10095000050E89E491E00E94140ED4018D919C91C2
:10096000119701968D939C93CE14DF0421F4B1016D
:1009700083E50E94B60182EB90E00E94F90C88EEBC
:1009800093E00E94E710F2011182108281E090E072
:1009900090930102809300028CC0CE14DF04E1F139
:1009A00040C0CE14DF0409F052C060CED4018D9156
:1009B0009C91880F991FF50120813181C80FD91FA3
:1009C000488159814217530709F0B0CF65C0D4015F
:1009D0008D919C91880F991FF50120813181C80F5D
:1009E000D91F488159814217530709F062C08FCF40
:1009F00060E070E080E090E00E94420F0E94050EEF
:100A000089E491E00E94140ED4018D919C9111977C
:100A100001968D939C93ABCF8430910509F02DCE38
:100A2000A6CE81E090E0F20191838083D401ED9124
:100A3000FC91EE0FFF1FE60DF71D20813181F801BB
:100A4000808191812817390709F0D4CEC0CFD40115
:100A5000ED91FC91EE0FFF1FE60DF71D2081318116
:100A6000F801808191812817390709F0B4CEAFCF02
:100A700060E070E080E090E00E94420F0E94050E6E
:100A800089E491E00E94140ED4018D919C911197FC
:100A900001968D939C936BCFF301E80FF91F408172
:100AA0005181F801808191814817590709F03ACFA7
:100AB000DFCFDF91CF911F910F91FF90EF90DF90EB
:100AC000CF90BF90AF909F908F907F906F905F90EE
:100AD0004F903F902F9008958F929F92AF92BF9228
:100AE000CF92DF92EF92FF920F931F93CF93DF93FA
:100AF000CDB7DEB7C458D1090FB6F894DEBF0FBE2C
:100B0000CDBF47EF51E0BE016B5E7F4FCE01019636
:100B10000E94B0071AA619A61CA61BA61EA61DA6F3
:100B20001FA6BE016B5E7F4FCE0101960E947E0024
:100B3000CF57DF4F19821882C158D040CE01C196DD
:100B40000E947A01CD57DF4F19821882C358D040D6
:100B500088248394912C4EC061E082E692E00E944A
:100B600023110E944407019761F080910002909147
:100B70000102892B31F40E9459079092070280925A
:100B800006028091040290910502892B69F40E946B
:100B90004407019749F4AE014F575F4F60E070E0A2
:100BA000CE01C1960E942902809104029091050213
:100BB000019721F40E944407019731F080910002CF
:100BC000909101020197B1F4CE01C0965C010197AA
:100BD0006C0102977C018E01055D1F4F9E01275D10
:100BE0003F4FAE014D575F4FBE016B5E7F4F8C97FD
:100BF0000E94C702CD57DF4F28813981C358D040AA
:100C00008091F7019091F8012817390709F0A4CFD6
:100C10001092FF011092FE01CF57DF4F1982188208
:100C2000C158D04061E082E692E00E9423110E9408
:100C30004407019719F00E9459070DC00E9444070C
:100C4000019749F4AE014F575F4F63E070E0CE016A
:100C5000C1960E9429028091FE019091FF010197A7
:100C600009F7CC57DF4F0FB6F894DEBF0FBECDBFEC
:100C7000DF91CF911F910F91FF90EF90DF90CF9078
:100C8000BF90AF909F908F900895009719F00197B3
:100C900021F008950E94DB0808950E946C050895D4
:100CA00082E30E94850F803109F18032D9F18230D0
:100CB00009F05AC00E94050EE091F901E150E0935D
:100CC000F901F0E0EE0FFF1FEC5EFE4F8081918195
:100CD0000E94140E4FE064E670E080E991E00E940B
:100CE000F80A88EC90E00E94E71008954FE064E66F
:100CF00070E084E992E00E94F80A86E990E00E94A0
:100D0000E7104FE064E670E084E992E00E94F80AA0
:100D100082E390E00E94E7108091F90190E00E9448
:100D2000450608950E94050E8091F9018F5F83307A
:100D300018F48093F90102C01092F901E091F901D1
:100D4000F0E0EE0FFF1FEC5EFE4F808191810E946C
:100D5000140E4FE064E670E080E293E00E94F80A2F
:100D600088EC90E00E94E71008950E94BA060E9465
:100D70005006FDCFCF93DF93109201021092000234
:100D800010920702109206021092050210920402BD
:100D90001092FF011092FE0180ED97E00E94661113
:100DA0001BC00E94DD09EC010E94050EBE01DD0F93
:100DB000880B990B0E94690E85E691E00E94140E43
:100DC00061E080E00E948C0E88E691E00E94140EA3
:100DD00084E690E00E94E71080E10E94850F88235E
:100DE00001F380E10E94710F88EE93E00E94E7100A
:100DF000CCEEDFEFC832D10538F068ED7FEF88E246
:100E000090E00E94420F06C068E270E088ED9FEF1C
:100E10000E94420F81E00E942A1184E190E00E942A
:100E2000E7102196CC33D10529F760E070E080E02F
:100E300090E00E94420F15C061E082E692E00E94BD
:100E40003011EC010E94050E8FE691E00E94140E15
:100E5000BE0180E090E00E94690E84E690E00E946E
:100E6000E71080E10E94850F882331F380E10E9422
:100E7000710F0E94050E60E875E280E090E00E942C
:100E80003510DF91CF9108958091620290916302B5
:100E90008032934058F481E090E020916A023091D2
:100EA0006B022032334020F480E0089581E090E02E
:100EB0000895CF93DF9361E082E692E00E943011C3
:100EC000805D974020916E0230916F02AC01421B11
:100ED000530B9A01E0917202F0917302E80FF91F2F
:100EE000F0937302E093720290936F0280936E020C
:100EF00064E170E00E949616EB01CF0160E177E2B9
:100F00000E949616CE01860F971FB901660F771FB4
:100F1000260F371F332314F42F5F3F4F3595279546
:100F2000820F931F8D33910514F08CE390E0843C85
:100F30005FEF950714F484EC9FEF992334F46CE38E
:100F400070E0CC960E94420F08C06CE370E0681B12
:100F5000790B8CE390E00E94420FDF91CF910895CE
:100F60002F923F924F925F926F927F928F929F92B9
:100F7000AF92BF92CF92DF92EF92FF920F931F93A7
:100F8000CF93DF9300D01F92CDB7DEB7E82EF92EB6
:100F9000C62ED72E8A010E94050EEA82FB826C2C97
:100FA0007D2C8C2C9D2CAE2CBF2CC12CD12C0F2E2B
:100FB000F5E65F2EF02D212C0F2EFAE03F2EF02DBE
:100FC000422C59820F2EFAE0EF2EF02DF22C61E028
:100FD000CE0101960E94DE0FF80180819181892B5C
:100FE00041F489818536C9F090E0918380835982EC
:100FF000EECF89818536A1F08336A9F0FAE0EF16AD
:10100000F10441F4E82EF12C80E3E81AF108832D75
:10101000942D0BC090E0C09708C0832D942D05C07F
:10102000832D942D02C0832D942D59828A309105F1
:1010300071F2F501819391935F01F401E192F192D4
:101040004F01FFEFCF1ADF0AF80180819181C816A6
:10105000D9060CF4B6CF81E891E00E94140E88EE18
:1010600093E00E94E710C8010E94140E88EE93E0FE
:101070000E94E7100E94050EF801808191811816E8
:1010800019069CF5E12CF12C61E080E00E948C0EA9
:10109000EA81FB8161917191FB83EA83072E000C49
:1010A000880B990B0E94690E88EE93E00E94E7106E
:1010B00060E080E00E948C0EF301619171913F012C
:1010C000072E000C880B990B0E94690E88EE93E0A6
:1010D0000E94E7100E94050EFFEFEF1AFF0AF801C9
:1010E00080819181E816F9067CF20F900F900F90A5
:1010F000DF91CF911F910F91FF90EF90DF90CF90F4
:10110000BF90AF909F908F907F906F905F904F9027
:101110003F902F90089590E0FC01E355F109E532EE
:10112000F10508F047C0EC5CFF4F0C94EB16809182
:101130001A0190911B01BC010E94420F08958091F9
:101140001A0190911B01919581959109BC010E9412
:10115000420F089580911A0190911B01BC01919555
:10116000819591090E94420F089580911A019091F2
:101170001B0166277727681B790B0E94420F089591
:1011800080911A0190911B010A9690931B01809304
:101190001A01089580911A0190911B010A9690936B
:1011A0001B0180931A01089560E070E080E090E0F8
:1011B0000E94420F0895FF920F931F93CF93DF93E6
:1011C0001F92CDB7DEB789818335B9F08E010F5FED
:1011D0001F4F0F2EF5E6FF2EF02D61E0C8010E9493
:1011E000DE0F0E94050EF982802F0E94950D8981E5
:1011F0000E948B088981833581F760E070E080E090
:1012000090E00E94420F0E94D40F0F90DF91CF9187
:101210001F910F91FF900895ECE7F0E080818F7DA2
:1012200080830895811103C00E940C090895809164
:101230007C00806280937C00089580917C0085FB17
:10124000882780F908950E941D09882321F0809144
:10125000790090E008958091780090917900089548
:101260008032A0F497E890937A0090917C006623F6
:1012700011F0906C02C09F779064907E982B9093B1
:101280007C0080917A00806480937A000895A0E0C9
:10129000B0E0EDE4F9E00C941D17EB0160E00E9472
:1012A000300980917A0086FDFCCF8E01C12CD12CB3
:1012B000760180917A00806480937A0080917A0030
:1012C00086FDFCCF0E942309C80ED91EE11CF11C2B
:1012D000015011090115110561F7CE019695879509
:1012E000C034D10538F48C0D9D1DBE010E948216BC
:1012F000CB010EC0A7019601280F391F411D511DBA
:10130000CA01B9019E0140E050E00E94AA16C9013D
:10131000CDB7DEB7E8E00C943917CF92DF92EF92A9
:10132000FF92A0910001B09101019C010E94F11671
:101330006B017C010E941D09882359F0C701B60189
:1013400061587F4F8F4F9F4F2FEF30E040E050E0CC
:101350000AC0C701B60161507E4F8F4F9F4F2FEFDC
:1013600033E040E050E00E94AA16C901FF90EF90E0
:10137000DF90CF9008950E9447090E948D0908953B
:101380001F93CF93DF930E941D09182F0E940C0911
:101390006AE070E086E00E94BB09EC01812F0E94A8
:1013A0001209CE01880F991F8C0F9D1F01969695EB
:1013B0008795DF91CF911F9108950E94C0090895EC
:1013C00090918F01E0918A01F0918B01992311F0A6
:1013D000849101C080812FEB280F2A3110F4805EA8
:1013E0000895803249F49F012F5F3F4F30938B0166
:1013F00020938A01EF2B31F708951F93CF93DF934A
:101400000E94E009C0E0D0E01AE090ED980F9A3019
:10141000B8F49E01129FE001139FD00D1124C80F54
:10142000D11D87FDDA95E09780918A0190918B011B
:10143000019690938B0180938A010E94E009E5CF89
:10144000CE01DF91CF911F91089510926F0083E23A
:101450008093800081E1809381001092820080E17E
:1014600097E2909389008093880010928B001092ED
:101470008A00229A789408958F929F92AF92BF9299
:10148000DF92EF92FF920F931F93CF93DF935C0154
:101490008B01D42E80918C01811105C081E0809355
:1014A0008C010E94250A10920B01B7FE05C0E8943A
:1014B000B7F82AE0F22E02C0FF24F394E0908100F6
:1014C0002E2D287FE22E48ECF49EC00111248A15AF
:1014D0009B05E0F4E50151E1A51657E2B50610F0D1
:1014E000C0E1D7E2BE017695679580E090E0605854
:1014F000794687469F4F4E01A12CB12CA50194013E
:101500000E94AA1659018E2D816024C0C8E2FC9E5B
:10151000C02D1124D0E0CA15DB0508F4E501BE0199
:10152000769567959E0140E050E08AE0F81207C08A
:1015300080E090E0605E734481449F4F06C080E08D
:1015400090E060537D4E8C4E9F4F0E94AA16590129
:101550008E2D8260882E2AE0F21207C0CE010596F9
:101560006AE070E00E948216EB01C83E43E0D407B7
:1015700059F09801DE010E94F11628EE33E040E0B8
:1015800050E00E94CC16890110926F008092810079
:10159000B0928900A0928800209188003091890043
:1015A0004D2D403108F04FE080E190E0841B91091F
:1015B000A90102C0569547958A95E2F750938B0092
:1015C00040938A00109392010093910186B38FEFAC
:1015D00086BB81E080936F00DF91CF911F910F91C7
:1015E000FF90EF90DF90BF90AF909F908F90089505
:1015F0000E943C0A0895CF93DF93EB018F3F11F0D7
:10160000411105C040E0BE0188EE93E043C0813146
:1016100030F050EF580F503618F05FE501C050E041
:10162000852F6CE00E947616682F74EF7603900188
:101630001124250F311D2C30310540F4F901EE0F36
:10164000FF1FE45DFE4F2081318102C020E030E0C9
:10165000873081F0082E02C0220F331F0A94E2F770
:10166000823028F0C90105966AE070E00CC0C9011B
:1016700090580CC0C90136E0880F991F3A95E1F7E0
:10168000029665E070E00E948216CB01403108F0BE
:101690004FE0BE010E943C0ADF91CF910895A2E085
:1016A000B0E0E5E5FBE00C94151790900A018091FD
:1016B0008E01882321F060918D01611117C077247C
:1016C0007394B0ECAB2EBDE5BB2E1AE0612E04E0A6
:1016D000802E80EDC82E87E0D82E94E0E92EF12CE4
:1016E00004EF11E02FE0422E512C15C070E040E0D5
:1016F00088EE93E00E943C0A10928D0117C1863655
:10170000D4F5813609F4A9C07CF58C3309F460C0A6
:101710008E3381F493940E94E00920918A013091E4
:101720008B012F5F3F4F30938B0120938A018536C9
:1017300031F752C0813209F08BC080920A01D092F9
:101740000901C0920801F0920701E092060110938E
:10175000050100930401509203014092020110928E
:101760008E01A4E09A2ED7CF8336A1F10CF478C075
:1017700010E082E077C08D36C1F194F4873691F1A4
:1017800074F18C3609F064C00E94FD09BC0190938D
:10179000070180930601809108019091090151C0D1
:1017A0008237C9F14CF48F3609F052C00E94FD090E
:1017B000982E80930A01AFCF843781F1863709F0E4
:1017C00047C00E94FD099093030180930201A3CFBB
:1017D0009A94A1CF10E020C010E084E043C010E054
:1017E00085E040C010E087E03DC00E94E0098C36F3
:1017F00019F410928E0104C070928E0110928D0126
:1018000020918A0130918B012F5F3F4F30938B01E4
:1018100020938A0180CF11E080E024C00E94FD095E
:10182000BC01C5010E948216669EC001679E900D94
:101830001124909309018093080160910601709131
:1018400007010E948216709305016093040163CF23
:1018500010928B0110928A0169C010E089E002C0E9
:1018600010E08BE0082F9CE0999E000D11240E944F
:10187000E009982F977F933261F420918A0130918B
:101880008B012F5F3F4F30938B0120938A010F5FB5
:10189000EECF8D3271F420918A0130918B012F5F50
:1018A0003F4F30938B0120938A0101500E94E00941
:1018B000F0CF60910401709105018153883050F49C
:1018C000E0900801F09009010E94FD09BC01C701E8
:1018D0000E9482167B01F694E79469837A830E94C2
:1018E000E00969817A818E3269F420918A01309110
:1018F0008B012F5F3F4F30938B0120938A016E0D38
:101900007F1DE9CF80918E01882339F09B013695A8
:10191000279520938D01621B7109409102011123CB
:1019200011F08FEF01C0802F0E94FB0A2296E0E1A8
:101930000C9431171F920F920FB60F9211242F9310
:101940003F934F935F936F937F938F939F93AF9347
:10195000BF93EF93FF9380919101909192019C012D
:10196000215031093093920120939101892B11F577
:1019700010926F00789480918100887F81608093BD
:10198000810080E197E29093890080938800109213
:101990008B0010928A0081E080930B0180918A0174
:1019A00090918B01892B31F080919001811102C0BF
:1019B0000E944F0BFF91EF91BF91AF919F918F913B
:1019C0007F916F915F914F913F912F910F900FBE3B
:1019D0000F901F90189510926F0090938B01809339
:1019E0008A0181E080938F0110928D010E944F0B3C
:1019F00008950E94EB0C089581E090E06F9364E0FD
:101A00006A95F1F76F910197C9F708950F931F93A6
:101A1000CF93DF931AB157985A98289AC0E0D0E034
:101A20000E94FC0C5C9A0E94FC0C09B15C980E941C
:101A3000FC0C5C9A0E94FC0C5C98249607FF10C07A
:101A4000AE0160E070E08091930190919401A091CB
:101A50009501B0919601481759076A077B0700F373
:101A60001AB9DF91CF911F910F91089595B1282F49
:101A7000217030E0220F331F482F467068E0469FE8
:101A8000A0011124242B9D7C292B25B99BB18870A2
:101A90008295807F9F77892B8BB95C9A0E94FC0C82
:101AA0005C980E94FC0C0895A0E0B0E0EAE5FDE03F
:101AB0000C941E17C82FD62EE42E8091FA018111A6
:101AC00005C081E08093FA010E949D0D0E94060DE1
:101AD00014B1D5B1FAB00BB12898DD2011F05A9AA3
:101AE00001C05A9894B1926394B9579A81E0E8166C
:101AF00029F08C2F82958F700E94360D8C2F8F705D
:101B00000E94360DFAB80BB914B9D5B9CDB7DEB706
:101B1000E7E00C943A1742E060E00E94540D08950B
:101B200042E061E00E94540D08950E94900D0895D6
:101B300041E060E00E94540D089580E197E2A0E04A
:101B4000B0E08093930190939401A0939501B0939A
:101B50009601529A209A549A8EE190E00E94E710E2
:101B600083E00E94980D86E090E00E94E71083E0F9
:101B70000E94980D82E090E00E94E71083E00E94AE
:101B8000980D82E090E00E94E71082E00E94980D9C
:101B900082E090E00E94E71088E20E948B0D88E0CE
:101BA0000E948B0D81E00E948B0D86E00E948B0DC0
:101BB0008CE00E948B0D089581E00E948B0D809136
:101BC000990190919A01892BF9F060E0A0E2262F0B
:101BD00030E070910C0180910D0190E00197789FA9
:101BE000A001799F500D1124241735074CF4E09182
:101BF0009901F0919A01E20FF31FA0836F5FE7CF85
:101C0000109297011092980108950E94DC0D08959A
:101C1000CF93DF93EC018991882319F00E94900DF6
:101C2000FACFDF91CF9108950E94080E0895AAE09F
:101C3000B0E0EDE1FEE00C941D171AE05AE0C52E6D
:101C4000D12CE12CF12C062FA70196010E94AA1697
:101C5000CA01B9011150E1E0F0E0EC0FFD1FE10F06
:101C6000F11D005D2AE0629F0019112400836115B7
:101C700071058105910539F71A3058F4E1E0F0E07B
:101C8000EC0FFD1FE10FF11D80810E94900D1F5F81
:101C9000F3CF2A96E8E00C943917CF92DF92EF92B7
:101CA000FF926B017C0197FF0BC0F094E094D094FD
:101CB000C094C11CD11CE11CF11C8DE20E94900D4E
:101CC000C701B6010E94170EFF90EF90DF90CF90F2
:101CD00008950E944D0E0895A5E0B0E0E2E7FEE011
:101CE0000C942217182F80E8898380EC8A8384E97A
:101CF0008B8384ED8C83FE01E60FF11D8181810FC2
:101D00006D830E948B0D109397016D8160939801F4
:101D10002596E3E00C943E170E946C0E08958830DF
:101D200058F491E001C0990F8A95EAF7892FAAE249
:101D3000B0E0EBE2F0E021C08E3060F498EF980F55
:101D400081E001C0880F9A95EAF7A4E2B0E0E5E2ED
:101D5000F0E013C0853160F492EF980F81E001C08C
:101D6000880F9A95EAF7A7E2B0E0E8E2F0E005C054
:101D700080E0A0E0B0E0E0E0F0E06F3F19F4908197
:101D8000982709C0662319F09081982B04C0208100
:101D9000982F9095922390839C91982B9C930895D3
:101DA00083EF8093B00084BD82E08093B10085BD55
:101DB0001092B4001092B30018BC17BC60E086E02B
:101DC0000E948F0E60E085E00E948F0E60E08BE045
:101DD0000E948F0E60E083E00E948F0E0895809134
:101DE000FB01811105C081E08093FB010E94D00EB0
:101DF0000895CF93DF93EC010E94EF0ED7FF05C04B
:101E0000D195C195D10981E001C080E0CF3FD105D6
:101E100019F014F0CFEFD0E0882319F018BCC7BD3B
:101E200002C0C8BD17BCDF91CF910895CF93DF9357
:101E3000EC010E94EF0ED7FF05C0D195C195D109E5
:101E400081E001C080E0CF3FD10519F014F0CFEF61
:101E5000D0E0882329F01092B400C093B30004C0EE
:101E6000C093B4001092B300DF91CF910895CF9347
:101E7000DF93EB010E94F90ECE010E94160FDF9155
:101E8000CF9108950E94370F089584B18D7C84B955
:101E900085B1826385B985E090E06F9364E06A95CF
:101EA000F1F76F910197C9F708958091FC018111B5
:101EB00005C081E08093FC010E94450F0895CF93F7
:101EC000C82F0E94550F83B18C23E9F38AE090E07C
:101ED0000E94E71083B18C23B1F383B18C23CF919F
:101EE00008950E945F0F0895A1E0B0E0EAE7FFE0E7
:101EF0000C94231789830E94550F93B19095898183
:101F000089232196E2E00C943F170E94740F0895F4
:101F1000282F30E09AE0899FF0011124E556FE4F0A
:101F200080859185009721F052814481541780F07B
:101F30008AE0829FF001839FF00D1124E556FE4F49
:101F40009281848198130EC0858181110AC0089501
:101F50004281DC01A40FB11D6C9382818F5F82836B
:101F6000E7CF128208959091C1009F779093C100AE
:101F70009AE0899FF0011124E556FE4F7187608732
:101F80001282448325838081811105C08091C10024
:101F900080688093C100089520E040E060E070E038
:101FA00080E00E94B30F08950E94CC0F0895462F41
:101FB00020E0BC0180E00E94B30F08950E94D70F7B
:101FC00008951F920F920FB60F9211242F933F93F3
:101FD0004F935F936F937F938F939F93AF93BF9331
:101FE000EF93FF936091C60080E00E94880FFF91FD
:101FF000EF91BF91AF919F918F917F916F915F9181
:102000004F913F912F910F900FBE0F901F901895F9
:102010009AE0899FF0011124E556FE4F8681978151
:10202000892B59F091818381981738F4808181112F
:1020300004C08091C100806203C08091C1008F7D87
:102040008093C10008959AE0899FF0011124E5561C
:10205000FE4F9081911102C098E901C098E19093E0
:10206000C1000E94081078940895CF92DF92EF92F9
:10207000FF926B017C0180E00E942310A8EFBFEF6C
:10208000A70196010E940E17735D8E4C9E4FE4E0EF
:10209000220F331F441F551FEA95D1F70E94AA163D
:1020A0003093C5002093C400FF90EF90DF90CF9055
:1020B00008959AE0899FF0011124E556FE4F26818C
:1020C00037812115310541F041819381491720F471
:1020D0009091C00095FD03C00E9408100895918161
:1020E000D901A90FB11D9C919093C60091819F5F6A
:1020F0009183F2CF1F920F920FB60F9211242F935C
:102100003F934F935F936F937F938F939F93AF937F
:10211000BF93EF93FF9380E00E945910FF91EF91DE
:10212000BF91AF919F918F917F916F915F914F91EF
:102130003F912F910F900FBE0F901F9018952F92E7
:102140008F939F932FB68091AC019091AD01019632
:102150008093AC019093AD0190E08091AE01891F16
:102160008093AE019091A6019C5F9093A60180910F
:10217000A50180519742C0F09093A6018093A501DC
:102180008091A7019091A80101968093A701909357
:10219000A80190E08091A901891F8093A9018091F5
:1021A000AA01891F8093AA012FBE9F918F912F9022
:1021B000189528EE33E0019748F0F9016F9364E039
:1021C0006A95F1F76F913197C9F7F5CF08950E949D
:1021D000D9100895E0E7F0E080818E7F8083A0EB46
:1021E000B0E08C9183608C93A1EBB0E08C91807F08
:1021F0008C938C9182608C93B89A8081816080836B
:10220000789408958091FD01811105C081E080934B
:10221000FD010E94EA1008950E940211E0E7F0E03B
:1022200080818E7F80831092A7011092A801109266
:10223000A9011092AA011092A6011092A501808115
:10224000816080830895462FBC018FEA91E00E944F
:10225000B4130895682F8FEA91E00E941215089533
:10226000462F20E0BC018FEA91E00E94E31508951B
:102270000F93CF93DF9300D000D01F92CDB7DEB77E
:102280009C0185E0E4E4F1E0DE01119601900D92FD
:102290008A95E1F7662311F00FEF01C003E145E0F5
:1022A000BE016F5F7F4F8FEA91E00E940A128FEAB2
:1022B00091E00E94E1110E940C110F900F900F907D
:1022C0000F900F90DF91CF910F91089560E00E94E1
:1022D000381108958FEA91E00E94581608956F937F
:1022E00064E06A95F1F76F910197C9F70895FC01D1
:1022F0001182108213821282158214821682683033
:1023000068F489E290E0918380838BE290E093838C
:1023100082838AE290E0958384831FC06E3070F4DC
:1023200083E290E09183808385E290E093838283CF
:1023300084E290E09583848368500FC0653198F4FF
:1023400086E290E09183808388E290E093838283A9
:1023500087E290E0958384836E5081E001C0880F0E
:102360006A95EAF786830895A7E0B0E0EAEBF1E129
:102370000C9421178C01FC011182108213821282AD
:102380001582148217821682613118F080E18087ED
:1023900002C0FC016087F801208B642FCE010196FA
:1023A0000E9477118F81F80181878B819C819387AF
:1023B00082878D819E81958784872796E4E00C949F
:1023C0003D17FC01A485B585109779F08C91918516
:1023D000892B8C93A285B3859C91818580958923D7
:1023E0008C9388EC90E00E946F110895FC01A48505
:1023F000B585109771F08C919185892B8C93A2856E
:10240000B3858C919185892B8C9388EC90E00E9408
:102410006F110895A7E0B0E0E0E1F2E10C94161727
:102420007C014B01642F3901402F20E00E94B41140
:1024300087010F5B1F4FF80110826701F2E4CF0E96
:10244000D11CF60110825701F3E4AF0EB11CF50167
:102450001082F70177866686512CF7018085581621
:1024600050F5652C712CF401E60DF71D6081CE014D
:1024700001960E9477112F81F701E60DF71D218B40
:1024800089819A81F301EE0FFF1FEE0DFF1D92A3CC
:1024900081A38332910511F4F80108C086329105B9
:1024A00011F4F60103C0899721F4F5018081822B94
:1024B00080835394D2CF2796EFE00C943217A0E09C
:1024C000B0E0E5E6F2E10C941817EC015B016C0159
:1024D00081E4C80ED11CF60180807E01F2E4EF0E8B
:1024E000F11CF70170808E010D5B1F4FF801908089
:1024F00080E09885891748F4F501E80FF11DE80F91
:10250000F11D118210828F5FF4CF84B1F6019081AA
:10251000892B84B987B1F7019081892B87B98AB15A
:10252000F8019081892B8AB985B1F6019081892BB8
:1025300085B988B1F7019081892B88B98BB1F801F1
:102540009081892B8BB98AE090E00E946F1194B141
:10255000F60180818095892384B997B1F701808144
:102560008095892387B99AB1F80180818095892364
:102570008AB995B1F60180818095892385B998B192
:10258000F70180818095892388B99BB1F80180810A
:10259000809589238BB9E090B000D090B1008091F4
:1025A000B00083608093B00082E08093B1004091DE
:1025B000B20080E090E02E853F858217930720F5DA
:1025C000C090B2002C2D241B820F911D03B1081165
:1025D00032C0F6B0F7102FC029B129112CC010C09D
:1025E000212F30E0A901440F551FF501E40FF51F1D
:1025F00060817181672B21F11F5F2885121780F39D
:102600007F2C802E4C2DD7CFE092B000D092B1001D
:1026100020E08885281730F5F501E20FF11DE20F63
:10262000F11D80819181892B21F48E859F85918375
:1026300080832F5FEECF03B1F6B099B010E0DDCF0D
:10264000DE01A40FB51F91960D90BC91A02D4C9169
:10265000DE01A20FB31F51962C91422369F691839C
:102660008083CACFCDB7DEB7EDE00C943417EF927C
:10267000FF920F931F93CF93DF93FC019B01F09088
:102680007C0000917A0047B118B180917A0086FDF4
:10269000FCCF80E09085891748F4D901A80FB11DBF
:1026A000A80FB11D1D921C928F5FF4CF97B182A12C
:1026B0008095892387B998B182A18095892388B9AB
:1026C00087E880937A00E12C81A1E81610F0E12CD4
:1026D00029C050E08085581718F5A52FB0E0EF010C
:1026E000CA0FDB1F8989806480937C0080917A0007
:1026F000806480937A0080917A0086FDFCCF60919F
:10270000780070917900AA0FBB1FA20FB31F8D91A3
:102710009C911197860F971F8D939C935F5FDACFE3
:10272000E394D2CF8085E816A0F4E901CE0DD11D47
:10273000CE0DD11D61A170E0CB0195958795A88143
:10274000B9818A0F9B1F0E94821679836883E39464
:10275000E9CFF0927C0000937A0018B947B9CDB761
:10276000DEB7E6E00C943B17A0E2B0E0EAEBF3E161
:102770000C941E178C017B01D42E8FEF840F8230B6
:1027800018F4C8010E94F611D80150968C91B70137
:10279000811110C0C8010E945F12C8010E94E1119E
:1027A000B2E0DB123AC0BE016F5F7F4FC8010E94EA
:1027B0005F120FC0C8010E943713C8010E94E111C7
:1027C000E2E0DE122AC0BE016F5F7F4FC8010E94A7
:1027D000371340E0F80180854817F8F4842F90E023
:1027E000880F991FF701E80FF91F21E030E02C0F47
:1027F0003D1F820F931FD8011E962D913C911F976C
:10280000DC018D919C91281B390B80819181820F75
:10281000931F918380834F5FDDCFA096E7E00C94F8
:102820003A172F923F925F926F927F928F929F9270
:10283000AF92BF92CF92DF92EF92FF920F931F93CE
:10284000CF93DF93CDB7DEB7C056D1090FB6F8945A
:10285000DEBF0FBECDBF8C014B015A01522EDA01F3
:102860008D919C91892B31F0F40180819181892B8C
:10287000F1F424C0D80118968C9190E0880F991F2C
:102880000E944A17F50191838083009709F4B1C033
:10289000FC0120E030E0D80118968C9190E02817D8
:1028A000390714F7119211922F5F3F4FF4CFE12CAB
:1028B000F12C6E01B1E2CB0ED11C21C0F801808554
:1028C00090E0880F991F0E944A17D4018D939C9322
:1028D000009709F48EC0FC0120E030E0D801189682
:1028E0008C9190E02817390714F7D8011E968D9126
:1028F0009C911F97819391932F5F3F4FEFCF452D71
:10290000BE016F5B7F4FC8010E94B413F801608461
:10291000712CFE01EF5BFF4FC6019E012F5F3F4F01
:10292000190120E030E0261537054CF5E114F104DB
:1029300089F0DC016D917C914081518164177507AC
:1029400048F0D1016D917C91408151814617570724
:1029500048F00DC040815181DC014D935C93E1143E
:10296000F10479F740815181D1014D935C932F5F40
:102970003F4FB2E02B0E311C32960296D4CFEFEFD0
:10298000EE1AFE0AFAE0EF16F10409F0B8CF9E0144
:102990002F5F3F4F7901360180E090E0F8012085FC
:1029A00030E0821793072CF5D7012D913D917D01E1
:1029B000B3016C197D09D501ED91FC91E60FF71F6C
:1029C000408151814217530710F431832083F30172
:1029D000219131913F01D401ED91FC91E60FF71F58
:1029E000408151812417350710F4318320830196EB
:1029F000D5CFC05ADF4F0FB6F894DEBF0FBECDBFA4
:102A0000DF91CF911F910F91FF90EF90DF90CF90CA
:102A1000BF90AF909F908F907F906F905F903F900E
:102A20002F9008951F93CF93DF93EC01162F8FEF14
:102A3000860F823018F0662359F014C021E0AE01F1
:102A40004E5F5F4FBE01CE010E941114123051F44F
:102A5000AE014A5F5F4FBE016C5F7F4F20E0CE0149
:102A60000E941114DF91CF911F910895A0E0B0E072
:102A7000ECE3F5E10C941C17EC018B01B42E842FD0
:102A80008D7F51F48C819D81892B09F497C08E81B3
:102A90009F81892B09F492C08FEF8B0D823050F407
:102AA00088819981892B09F489C08A819B81892B2E
:102AB00009F484C04B2DB801CE010E94B4137801F3
:102AC00000E010E0C12CD12C888590E0C816D90612
:102AD0000CF074C081E0B8120AC0EA81FB81E00FFB
:102AE000F11F0190F081E02DA881B9810DC08C818A
:102AF0009D812E813F81B1100CC0F901E00FF11FC3
:102B00000190F081E02DDC01A00FB11F8D919C910F
:102B100028C0FC01E00FF11F40815181E881F9815B
:102B2000E00FF11F80819181EE85FF8548175907DD
:102B300010F4CF0104C08E0F9F1F841B950BD90189
:102B4000A00FB11F2D913C91AA81BB81A00FB11F95
:102B50004D915C912417350720F0E40FF51FE21B1F
:102B6000F30BE81BF90BA9F0D7012D913C9140E044
:102B700050E0281B390B41095109A8EEB3E00E942F
:102B800000179F0140E050E00E94CC1637FD0AC0BC
:102B900002C020E030E0293EB3E03B072CF028EEF5
:102BA00033E002C020E030E0F701219331937F0150
:102BB000FFEFCF1ADF0A0E5F1F4F86CFCDB7DEB70C
:102BC000E9E00C943817A0E0B0E0E9EEF5E10C94F0
:102BD0001317EC018B01822E0E9436152884E80120
:102BE000412C512C320100E010E0C12CD12C760197
:102BF000312C912C58EEA52E53E0B52E921421F1D4
:102C0000E991F991882021F0C5018E1B9F0BFC01F1
:102C1000E93CF10524F4E333F10574F002C03324F8
:102C20003394DF01A30192010E940B17C60ED71E39
:102C3000E81EF91E0E0F1F1F939498EE490E93E0A5
:102C4000591E611C711CDACF31101EC0492D50E095
:102C50004150510924EF31E0429FC001439F900D44
:102C6000529F900D11242091F3013091F401281707
:102C70003907B4F088EE93E0489F9001499F300DEA
:102C8000589F300D11240EC0980140E050E0C7015C
:102C9000B6010E94AA163093F4012093F30102C0FA
:102CA00020E030E0C901CDB7DEB7E2E10C942F1788
:102CB000CF93DF93EC018A819B81009711F00E94F2
:102CC000E2178E819F81009711F00E94E2178881A0
:102CD0009981009711F00E94E2178C819D810097E5
:102CE00011F00E94E217DF91CF910895991B79E0CE
:102CF00004C0991F961708F0961B881F7A95C9F78C
:102D000080950895AA1BBB1B51E107C0AA1FBB1FDA
:102D1000A617B70710F0A61BB70B881F991F5A9567
:102D2000A9F780959095BC01CD01089597FB072EDA
:102D300016F4009407D077FD09D00E94821607FC94
:102D400005D03EF4909581959F4F089570956195BB
:102D50007F4F0895A1E21A2EAA1BBB1BFD010DC0D7
:102D6000AA1FBB1FEE1FFF1FA217B307E407F5073B
:102D700020F0A21BB30BE40BF50B661F771F881F17
:102D8000991F1A9469F760957095809590959B01AD
:102D9000AC01BD01CF010895052E97FB1EF40094F0
:102DA0000E94E31657FD07D00E94AA1607FC03D025
:102DB0004EF40C94E31650954095309521953F4F75
:102DC0004F4F5F4F089590958095709561957F4F17
:102DD0008F4F9F4F0895EE0FFF1F0590F491E02D48
:102DE0000994A29FB001B39FC001A39F700D811DE4
:102DF0001124911DB29F700D811D1124911D089504
:102E00000E94F116A59F900DB49F900DA49F800D78
:102E1000911D11240895B7FF0C9400170E9400170C
:102E2000821B930B08952F923F924F925F926F9265
:102E30007F928F929F92AF92BF92CF92DF92EF924A
:102E4000FF920F931F93CF93DF93CDB7DEB7CA1BCB
:102E5000DB0B0FB6F894DEBF0FBECDBF09942A88F6
:102E6000398848885F846E847D848C849B84AA849E
:102E7000B984C884DF80EE80FD800C811B81AA812B
:102E8000B981CE0FD11D0FB6F894DEBF0FBECDBFF6
:102E9000ED0108950F931F93CF93DF938230910537
:102EA00010F482E090E0E0917602F091770220E069
:102EB00030E0A0E0B0E0309719F14081518102810B
:102EC000138148175907C8F08417950769F41097BC
:102ED00031F012960C93129713961C9327C000930F
:102EE00076021093770222C02115310519F042179E
:102EF000530718F49A01BD01EF01DF01F801DBCFA0
:102F000021153105F9F0281B390B2430310580F4E7
:102F10008A819B816115710521F0FB019383828376
:102F200004C09093770280937602FE01329644C0EB
:102F3000FE01E20FF31F81939193225031093983EF
:102F400028833AC02091740230917502232B41F4FA
:102F50002091100130911101309375022093740279
:102F600020910E0130910F012115310541F42DB74B
:102F70003EB74091120150911301241B350BE09193
:102F80007402F0917502E217F307A0F42E1B3F0BB9
:102F90002817390778F0AC014E5F5F4F24173507CB
:102FA00048F04E0F5F1F5093750240937402819357
:102FB000919302C0E0E0F0E0CF01DF91CF911F914B
:102FC0000F910895CF93DF93009709F481C0FC011E
:102FD000329713821282A0917602B09177021097F5
:102FE00081F420813181820F931F209174023091EE
:102FF00075022817390751F5F0937502E0937402B2
:1030000067C0ED0120E030E0CE17DF0740F44A81D1
:103010005B819E0141155105F1F0EA01F5CFD383A3
:10302000C28340815181840F951FC817D90759F475
:1030300088819981840F951F0296918380838A816C
:103040009B81938382832115310529F4F0937702C4
:10305000E09376023DC0E901FB83EA8349915991EF
:10306000C40FD51FEC17FD0761F480819181840F97
:10307000951F0296E90199838883828193819B83BE
:103080008A83E0E0F0E012968D919C91139700976F
:1030900019F0FD01DC01F7CF8D919C9111979D01F5
:1030A0002E5F3F4F820F931F209174023091750263
:1030B0002817390769F4309729F410927702109293
:1030C000760202C013821282B0937502A09374023A
:1030D000DF91CF91089510E0CEE5D0E004C0FE016D
:1030E0000E94EB162196CF35D107C9F7F894FFCF90
:1030F00088130F00F4010400D00704010802000047
:1031000078022000510158015E01320003010002E3
:103110000203010000020301010002039C01B5014A
:10312000CF01EA0107022602470269028E02B502B8
:10313000DE020A030E0F10111250726F6475637471
:103140000048616E646D2E00576972432E00566F01
:103150006C676572006D56006472756B20420020CA
:1031600020006472756B206F700042206B6E6F7070
:0A317000004578697420796573004A
:00000001FF
