:100000000C9462000C947F000C947F000C947F0091
:100010000C947F000C947F000C947F000C947F0064
:100020000C947F000C94F1100C947F000C947F00D2
:100030000C947F000C94530D0C947F000C947F0063
:100040000C947F000C947F000C9469100C94CC10DD
:100050000C947F000C947F000C947F000C947F0024
:100060000C947F000C947F0005A84CCDB2D44EB9FF
:100070003836A9020C50B9918688083CA6AAAA2A4B
:10008000BE000000803F3E6633323E3E61333200A8
:100090003E6633323E3E613332003E6633323E3E90
:1000A000613332003E6633323E3E613332003E669B
:1000B00033323E3E613332003E6733323E3E63337D
:1000C0003200D21111241FBECFEFD8E0DEBFCDBF6A
:1000D00011E0A0E0B1E0E8E7F6E302C005900D9280
:1000E000AC37B107D9F722E0ACE7B1E001C01D920F
:1000F000A536B207E1F70E942C010C942F1B0C943B
:100100000000FC0162E070E07183608321E030E078
:1001100033832283758364833783268331872087E3
:1001200083E090E0938782877587648745E050E09D
:1001300057874687318B208B338B228B558B448B93
:1001400091A380A393A382A355A344A391AB80ABB7
:1001500033AB22AB75AB64AB57AB46ABE05CFF4F48
:1001600091838083738362839583848357834683DB
:100170000895EF92FF921F93CF93DF93CDB7DEB731
:1001800060970FB6F894DEBF0FBECDBF90E1E4E1FB
:10019000F1E0DE01119601900D929A95E1F7FB01D5
:1001A0009081981709F44CC07B01182FE1E0F0E032
:1001B000EC0FFD1F84E0189FE00DF11D1124E90FE5
:1001C000F11D8081813021F048F18230A1F038C0EA
:1001D00064EC7FEF8CE390E00E94F80F8EE091E0FA
:1001E0000E94391160E070E080E090E00E94F80F1A
:1001F000F701108325C06CE370E084EC9FEF0E9450
:10020000F80F8EE091E00E94391160E070E080E02C
:1002100090E00E94F80FF701108312C064EC7FEFAA
:100220008CE390E00E94F80F8CE192E00E9439117B
:1002300060E070E080E090E00E94F80FF70110832A
:1002400060960FB6F894DEBF0FBECDBFDF91CF91A1
:100250001F91FF90EF9008952F923F924F925F92DF
:100260006F927F928F929F92AF92BF92CF92DF92C6
:10027000EF92FF920F931F93CF93DF93CDB7DEB72B
:10028000C756D1090FB6F894DEBF0FBECDBF0E948E
:10029000700888E0E4E2F1E0DE01119601900D9231
:1002A0008A95E1F788E0ECE2F1E0DE011996019031
:1002B0000D928A95E1F7CE0141960E948100A296A7
:1002C0001FAEA297E12CF12CA4961FAE1EAEA497F0
:1002D000A6961FAE1EAEA697212C312CA12CB12CB8
:1002E000C12CD12C00E010E0A8961FAE1EAEA8973E
:1002F0000E946C0961E08FE492E00E948B110E94E1
:10030000E408019791F0E114F10479F40E94BB0E26
:1003100081E591E00E94CA0E0E94F90881E0A3964F
:100320008FAFA397A4961FAEA4970115110509F0EE
:10033000A2C00E94E408019709F0A6C0A896EEADFD
:10034000FFADA897EE0FFF1F81E090E08C0F9D1F7F
:10035000E80FF91F8089918982309105D1F11CF451
:10036000019749F088C08330910509F460C0059772
:1003700009F470C080C06CE370E08CE390E00E94F0
:10038000F80F84EA90E00E94B20D8AEA90E00E94A1
:10039000391160E070E080E090E00E94F80F64ECBA
:1003A0007FEF8CE390E00E94F80F8EE091E00E94D6
:1003B000391160E070E080E090E00E94F80FA896AC
:1003C0008EAD9FADA8970196A8969FAF8EAFA897C8
:1003D0005BC06CE370E08CE390E00E94F80F8AE968
:1003E00090E00E94B20D8AEA90E00E94391160E02C
:1003F00070E080E090E00E94F80F6CE370E084EC25
:100400009FEF0E94F80F8EE091E00E94391160E0AA
:1004100070E080E090E00E94F80FA8968EAD9FAD4E
:10042000A8970196A8969FAF8EAFA8972DC02AE0F7
:1004300037ED43E65FE366E48CE390E00E9423043B
:10044000A8968EAD9FADA8970196A8969FAF8EAF48
:10045000A8971AC05F9A579A60E070E080E090E039
:100460000E94F80F88EE93E00E943911A4961FAE07
:100470001EAEA49703C00130110531F40E94E408B8
:10048000019741F001E010E091E0E916F10409F074
:100490004DC152C10E94BB0E60E080E00E94420F3D
:1004A000B5010B2C000C880B990B0E941F0F61E00B
:1004B00080E00E94420F2101032C000C660877089F
:1004C000C301B2010E941F0FE114F104B9F46CE3FF
:1004D00070E08CE390E00E94F80F80E990E00E94C9
:1004E000B20D8AEA90E00E94391160E070E080E08D
:1004F00090E00E94F80F01E010E00BC081E0E816E8
:10050000F10429F401E010E0E12CF12C02C001E03B
:1005100010E0F601EE0FFF1F81E090E08C0F9D1FB1
:10052000E80FF91F808091808A149B0409F458C158
:10053000A6968EAD9FADA697892B09F02FC1A81462
:10054000B90444F5BE016F597F4F83E00E94B900A2
:10055000A4968EAD9FADA497019739F49FEFA91A89
:10056000B90AA4961FAE1EAEA4970E94BB0E60E00F
:1005700080E00E94420FB5010B2C000C880B990BF8
:100580000E941F0F61E080E00E94420FC301B20190
:100590000E941F0F8A149B0444F5BE016F597F4FC0
:1005A00081E00E94B900A4968EAD9FADA4970197FB
:1005B00039F491E0A91AB108A4961FAE1EAEA49713
:1005C0000E94BB0E60E080E00E94420FB5010B2C40
:1005D000000C880B990B0E941F0F61E080E00E94C5
:1005E000420FC301B2010E941F0FA814B90409F001
:1005F000E6C0BFC0A6968EAD9FADA697019709F045
:1006000095C0261437045CF5BE016F597F4F80E01A
:100610000E94B900A4968EAD9FADA497019739F4BE
:100620009FEF291A390AA4961FAE1EAEA4970E9406
:10063000BB0E60E080E00E94420FB5010B2C000C65
:10064000880B990B0E941F0F61E080E00E94420F0F
:10065000B101032C000C880B990B0E941F0F621430
:1006600073045CF5BE016F597F4F82E00E94B900B0
:10067000A4968EAD9FADA497019739F491E0291A05
:100680003108A4961FAE1EAEA4970E94BB0E60E078
:1006900080E00E94420FB5010B2C000C880B990BD7
:1006A0000E941F0F61E080E00E94420FB101032C05
:1006B000000C880B990B0E941F0F8A149B0431F5C4
:1006C0002614370459F5130101C0450160E070E0BC
:1006D00080E090E00E94F80F0E94BB0E87E591E059
:1006E0000E94CA0E8FEFC81AD80A86E890E00E94CE
:1006F000B20D88EB9BE00E9439115401EE24E39483
:10070000F12CA6961FAE1EAEA69710C091E0A5963E
:100710009FAFA597A6961FAEA69708C0540181E08B
:10072000A5968FAFA597A6961FAEA69794E0C9167B
:10073000D10409F0DDCD6BC00E94BB0E60E080E00B
:100740000E94420FB5010B2C000C880B990B0E94E4
:100750001F0F61E080E00E94420F2101032C000C7A
:1007600066087708C301B2010E941F0FE12CF12C2B
:10077000D0CEF601EE0FFF1F81E090E08C0F9D1FA1
:10078000E80FF91F608471842614370409F039CF0B
:1007900013019CCF8A149B0449F697CFF601EE0F04
:1007A000FF1F81E090E08C0F9D1FE80FF91F608410
:1007B00071846214730409F01DCF1301B7CFF601E1
:1007C000EE0FFF1F81E090E08C0F9D1FE80FF91FD7
:1007D000808591858215930509F0A8CF1C01DACF99
:1007E000F601EE0FFF1F81E090E08C0F9D1FE80FD8
:1007F000F91F608471842614370409F002CF91E058
:10080000A5969FAFA597A6961FAEA697C3CF80E0EB
:1008100090E0C959DF4F0FB6F894DEBF0FBECDBFD1
:10082000DF91CF911F910F91FF90EF90DF90CF90CC
:10083000BF90AF909F908F907F906F905F904F9000
:100840003F902F9008952F923F924F925F926F9218
:100850007F928F929F92AF92BF92CF92DF92EF9250
:10086000FF920F931F93CF93DF93CDB7DEB76697B9
:100870000FB6F894DEBF0FBECDBF1C0129833A83AB
:100880004B835C83663461F020F4623409F495C0D4
:1008900008C46C3409F4A9C2623509F41BC101C44F
:1008A0008091ED019091EE019101281B390B45E6F5
:1008B00050E05A874987412C512C3201032E000CFD
:1008C000440B550B2D833E834F8358870E94711133
:1008D0008B012BED3FE049EC50E4C301B2010E94D3
:1008E00011190E947E1923E839EF42E25EE30E946B
:1008F00011199B01AC01C301B2010E94B2174B0157
:100900005C016D817E818F8198850E945C189B01BE
:10091000AC01C501B4010E9411194B015C01609149
:10092000ED017091EE01072E000C880B990B0E94CF
:100930005C189B01AC01C501B4010E94B3170E9471
:100940002418DC01CB01BC010E94F80F4801110FF3
:10095000AA08BB080E947111681979098A099B09C4
:100960000E945A186B017C0120E030E040E251E423
:1009700069817A818B819C810E9411199B01AC0154
:10098000C701B6010E941F18882324F32AE037ED1F
:1009900043E25CE3C301B2010E94B3172B013C01A7
:1009A000A985BA851197BA87A987AB2B09F08ECF95
:1009B0003092EE012092ED017AC38091ED01909189
:1009C000EE019101281B390B45E650E05A87498713
:1009D000412C512C3201032E000C440B550B2D835E
:1009E0003E834F8358870E9471118B012BED3FE0AE
:1009F00049EC50E4C301B2010E9411190E947E1912
:100A000023E839EF42E25EE30E9411199B01AC0139
:100A1000C301B2010E94B2174B015C016D817E815E
:100A20008F8198850E945C189B01AC01C501B401BF
:100A30000E9411194B015C016091ED017091EE0172
:100A4000072E000C880B990B0E945C189B01AC01CF
:100A5000C501B4010E94B3170E942418DC01CB0128
:100A6000BC010E94F80F4801110FAA08BB080E94A0
:100A70007111681979098A099B090E945A186B013A
:100A80007C0120E030E040E251E469817A818B8191
:100A90009C810E9411199B01AC01C701B6010E9403
:100AA0001F18882324F32AE037ED43E25CE3C301F7
:100AB000B2010E94B3172B013C01A985BA85119799
:100AC000BA87A987AB2B09F08ECF3092EE01209226
:100AD000ED01EDC28091EB019091EC01820D931D2F
:100AE0002091E9013091EA01A101421B530B9A01C7
:100AF00005E610E01D821E821F821886AC01990F48
:100B0000660B770B4D875E876F87788BB901330F44
:100B1000880B990B698B7A8B8B8B9C8B0E94711144
:100B20007E8B6D8B6091ED017091EE01072E000CB4
:100B3000880B990B0E945C1869877A878B879C8742
:100B40002BED3FE049EC50E46D817E818F819885EB
:100B50000E9411190E947E1923E839EF42E25EE3F8
:100B60000E9411192D813E814F8158850E94B31733
:100B70004B015C016091EB017091EC01072E000CC0
:100B8000880B990B0E945C182B013C016D857E85BA
:100B90008F8598890E945C18A50194010E94111903
:100BA0009B01AC01C301B2010E94B21729853A85AD
:100BB0004B855C850E94B3170E9424182B013C01D1
:100BC0006091E9017091EA01072E000C880B990BE6
:100BD0000E945C186B017C0169897A898B899C89E8
:100BE0000E945C18A50194010E9411199B01AC019F
:100BF000C701B6010E94B31729853A854B855C85EC
:100C00000E94B3170E942418DC01CB01B2010E949C
:100C1000F80F8D899E894C01990FAA08BB080E9484
:100C200071116B017C0120E030E040E251E4698108
:100C30007A818B819C810E9411192B013C01C70193
:100C4000B601681979098A099B090E945A18A301FB
:100C500092010E941F18882314F32AE037ED43E223
:100C60005CE36D817E818F8198850E94B3176D83CF
:100C70007E838F8398870150110909F04FCF882711
:100C80009927821993099093EC018093EB0130929C
:100C9000EA012092E90105E610E019821A821B821E
:100CA0001C829C01990F440B550B29873A874B876F
:100CB0005C87C12CD12C76010E9471117E876D87D3
:100CC0006091ED017091EE01072E000C880B990BDD
:100CD0000E945C1869837A838B839C832BED3FE0B1
:100CE00049EC50E4C701B6010E9411190E947E1917
:100CF00023E839EF42E25EE30E941119A701960151
:100D00000E94B3174B015C0169857A858B859C85B0
:100D10000E945C189B01AC01C501B4010E9411192D
:100D20004B015C016091EB017091EC01072E000C0E
:100D3000880B990B0E945C18A50194010E94B217C0
:100D400029813A814B815C810E94B3170E9424184B
:100D50006D837E838F8398876091E9017091EA01AA
:100D6000072E000C880B990B0E945C18A5019401BA
:100D70000E94B31729813A814B815C810E94B3178D
:100D80000E942418DC01CB016D817E810E94F80F46
:100D90004D855E854A01550FAA08BB080E94711156
:100DA000681979098A099B090E945A189B01AC01AC
:100DB000C301B2010E940C19181684F32AE037ED22
:100DC00043E25CE3C701B6010E94B3176B017C01EB
:100DD0000150110909F070CF1092EC011092EB0153
:100DE0001092EA011092E90162C18091EB019091A9
:100DF000EC019101281B390B8091E9019091EA01E6
:100E0000820D931D65E670E07A8B698B1D821E82D0
:100E10001F821886A901330F660B770B49875A8703
:100E20006B877C879C01990F440B550B2D873E8760
:100E30004F87588B0E9471118B012BED3FE049ECDD
:100E400050E46D817E818F8198850E9411190E94E6
:100E50007E1923E839EF42E25EE30E9411192D81E9
:100E60003E814F8158850E94B3176B017C016091D0
:100E7000EB017091EC01072E000C880B990B0E947E
:100E80005C184B015C0169857A858B859C850E9485
:100E90005C18A70196010E9411199B01AC01C501C4
:100EA000B4010E94B3170E9424184B015C016091A9
:100EB000E9017091EA01072E000C880B990B0E9442
:100EC0005C182B013C016D857E858F8598890E9479
:100ED0005C18A70196010E9411199B01AC01C30186
:100EE000B2010E94B2170E942418DC01CB01B401A8
:100EF0000E94F80F4801110FAA08BB080E94711147
:100F00002B013C0120E030E040E251E469817A812C
:100F10008B819C810E9411196B017C01C301B2017C
:100F2000681979098A099B090E945A18A701960134
:100F30000E941F18882314F32AE037ED43E25CE394
:100F40006D817E818F8198850E94B3176D837E832A
:100F50008F839887A989BA891197BA8BA98BAB2BF4
:100F600009F068CF3092EC012092EB01319421948A
:100F700031083092EA012092E90125E630E0198239
:100F80001A821B821C82A101330C660B770B4D83E6
:100F90005E836F8378873A872987812C912C54014F
:100FA0000E9471118B012BED3FE049EC50E4C5012B
:100FB000B4010E9411190E947E1923E839EF42E220
:100FC0005EE30E941119A50194010E94B3172B0141
:100FD0003C016D817E818F8198850E945C189B0108
:100FE000AC01C301B2010E9411192B013C016091B7
:100FF000EB017091EC01072E000C880B990B0E94FD
:101000005C18A30192010E94B3170E9424186983FF
:101010007A838B839C836091E9017091EA01072EAA
:10102000000C880B990B0E945C18A30192010E948E
:10103000B2170E942418DC01CB0169817A810E94D9
:10104000F80F2801110F660877080E9471116419C2
:101050007509860997090E945A189B01AC01C701BE
:10106000B6010E940C19181684F32AE037ED43E20A
:101070005CE3C501B4010E94B3174B015C016985B3
:101080007A85615071097A876987672B09F088CF63
:101090001092EC011092EB011092EA011092E9011A
:1010A00006C060E070E080E090E00E94F80F669675
:1010B0000FB6F894DEBF0FBECDBFDF91CF911F9169
:1010C0000F91FF90EF90DF90CF90BF90AF909F90E7
:1010D0008F907F906F905F904F903F902F900895EA
:1010E000CF93DF9380ED97E00E94CE111BC00E944A
:1010F000990AEC010E94BB0EBE01DD0F880B990B13
:101100000E941F0F8FE591E00E94CA0E61E080E00F
:101110000E94420F82E691E00E94CA0E84E690E0AF
:101120000E94391180E10E943B10882301F380E185
:101130000E94271088EE93E00E943911CCEEDFEF79
:10114000C832D10538F068ED7FEF88E290E00E9468
:10115000F80F06C068E270E088ED9FEF0E94F80F7C
:1011600081E00E94921184E190E00E943911219661
:10117000CC33D10529F760E070E080E090E00E9478
:10118000F80F15C061E08FE492E00E949811EC0125
:101190000E94BB0E89E691E00E94CA0EBE0180E06B
:1011A00090E00E941F0F84E690E00E94391180E1D8
:1011B0000E943B10882331F380E10E9427100E9497
:1011C000BB0EDF91CF91089580914F029091500214
:1011D0008032934058F481E090E0209157023091A2
:1011E00058022032334020F480E0089581E090E0FE
:1011F0000895CF93DF9361E08FE492E00E9498110D
:10120000805D974020915B0230915C02AC01421BF3
:10121000530B9A01E0915F02F0916002E80FF91F11
:10122000F0936002E0935F0290935C0280935B0214
:1012300064E170E00E94FE16EB01CF0160E177E20D
:101240000E94FE16CE01860F971FB901660F771F09
:10125000260F371F332314F42F5F3F4F3595279503
:10126000820F931F8D33910514F08CE390E0843C42
:101270005FEF950714F484EC9FEF992334F46CE34B
:1012800070E0CC960E94F80F08C06CE370E0681B19
:10129000790B8CE390E00E94F80FDF91CF910895D5
:1012A00012C00E94BB0E8CE691E00E94CA0E61E063
:1012B00080E00E94420F84E791E00E94CA0E84E61B
:1012C00090E00E94391180E10E943B10882349F38D
:1012D00080E10E942710089585E00E94000A909303
:1012E000F4018093F30187E00E94000A9C0190932F
:1012F000F8018093F7016091F3017091F4016B5054
:101300007109ECE1F8E0CF010E94FE167093F6013E
:101310006093F501B9016B507109CF010E94FE166F
:101320007093FA016093F9010E94BB0E8091F50160
:101330009091F6019C012B5031092930310538F488
:101340000E94BB0E88EB90E00E94B20D11C0019785
:10135000099770F40E94BB0E8EEA90E00E94B20DD5
:1013600060E070E080E090E00E94F80F0E94500979
:1013700080E090E00895ECE7F0E080818F7D80834D
:101380000895811103C00E94BB09089580917C00DB
:10139000806280937C00089580917C0085FB882783
:1013A00080F908950E94CC09882321F0809179006A
:1013B00090E00895809178009091790008958032AE
:1013C000A0F497E890937A0090917C00662311F046
:1013D000906C02C09F779064907E982B90937C00D5
:1013E00080917A00806480937A00089560E00E9482
:1013F000DF0980917A0086FDFCCF0E94D209089512
:101400000E94F6090895A0E0B0E0E9E0FAE00C944B
:101410008517EB0160E00E94DF0980917A0086FD6C
:10142000FCCF8E01C12CD12C760180917A00806492
:1014300080937A0080917A0086FDFCCF0E94D209C9
:10144000C80ED91EE11CF11C01501109011511052E
:1014500061F7CE0196958795C034D10538F48C0D8F
:101460009D1DBE010E94EA16CB010EC0A701960188
:10147000280F391F411D511DCA01B9019E0140E0CD
:1014800050E00E941217C901CDB7DEB7E8E00C9416
:10149000A117CF92DF92EF92FF92A0910001B0913D
:1014A00001019C010E9459176B017C010E94CC092B
:1014B000882359F0C701B60161587F4F8F4F9F4F66
:1014C0002FEF30E040E050E00AC0C701B6016150A4
:1014D0007E4F8F4F9F4F2FEF33E040E050E00E9450
:1014E0001217C901FF90EF90DF90CF9008950E94EE
:1014F000030A0E94490A08951F93CF93DF930E9425
:10150000CC09182F0E94BB096AE070E086E00E94B7
:10151000770AEC01812F0E94C109CE01880F991F23
:101520008C0F9D1F019696958795DF91CF911F9106
:1015300008950E947C0A089590918101E0917C01B8
:10154000F0917D01992311F0849101C080812FEBEE
:10155000280F2A3110F4805E0895803249F49F01EB
:101560002F5F3F4F30937D0120937C01EF2B31F7AC
:1015700008951F93CF93DF930E949C0AC0E0D0E0B0
:101580001AE090ED980F9A30B8F49E01129FE00196
:10159000139FD00D1124C80FD11D87FDDA95E09758
:1015A00080917C0190917D01019690937D018093C3
:1015B0007C010E949C0AE5CFCE01DF91CF911F9163
:1015C000089510926F0083E28093800081E1809300
:1015D00081001092820080E197E2909389008093CD
:1015E000880010928B0010928A00229A78940895B5
:1015F0008F929F92AF92BF92DF92EF92FF920F93E2
:101600001F93CF93DF935C018B01D42E80917E01D9
:10161000811105C081E080937E010E94E10A109251
:101620000B01B7FE05C0E894B7F82AE0F22E02C01D
:10163000FF24F394E09081002E2D287FE22E48ECC9
:10164000F49EC00111248A159B05E0F4E50151E1E7
:10165000A51657E2B50610F0C0E1D7E2BE017695B7
:10166000679580E090E06058794687469F4F4E012D
:10167000A12CB12CA50194010E94121759018E2DA5
:10168000816024C0C8E2FC9EC02D1124D0E0CA15A0
:10169000DB0508F4E501BE01769567959E0140E003
:1016A00050E08AE0F81207C080E090E0605E73448A
:1016B00081449F4F06C080E090E060537D4E8C4E89
:1016C0009F4F0E94121759018E2D8260882E2AE0AA
:1016D000F21207C0CE0105966AE070E00E94EA1699
:1016E000EB01C83E43E0D40759F09801DE010E94A7
:1016F000591728EE33E040E050E00E94341789018A
:1017000010926F0080928100B0928900A0928800B0
:1017100020918800309189004D2D403108F04FE034
:1017200080E190E0841B9109A90102C0569547957C
:101730008A95E2F750938B0040938A0010938401BE
:101740000093830186B38FEF86BB81E080936F00A7
:10175000DF91CF911F910F91FF90EF90DF90BF909D
:10176000AF909F908F900895CF93DF93EB018F3FC1
:1017700011F0411105C040E0BE0188EE93E043C086
:10178000813130F050EF580F503618F05FE501C04E
:1017900050E0852F6CE00E94DE16682F74EF760310
:1017A00090011124250F311D2C30310540F4F90131
:1017B000EE0FFF1FEC5CFE4F2081318102C020E064
:1017C00030E0873081F0082E02C0220F331F0A94C8
:1017D000E2F7823028F0C90105966AE070E00CC09B
:1017E000C90190580CC0C90136E0880F991F3A957D
:1017F000E1F7029665E070E00E94EA16CB01403105
:1018000008F04FE0BE010E94F80ADF91CF910895E1
:10181000A2E0B0E0EEE0FCE00C947D1790900A01AD
:1018200080918001882321F060917F01611117C0B0
:1018300077247394B0ECAB2EBDE5BB2E1AE0612E7D
:1018400004E0802E80EDC82E87E0D82E94E0E92EAB
:10185000F12C04EF11E02FE0422E512C15C070E066
:1018600040E088EE93E00E94F80A10927F0117C1D1
:101870008636D4F5813609F4A9C07CF58C3309F499
:1018800060C08E3381F493940E949C0A20917C0165
:1018900030917D012F5F3F4F30937D0120937C017C
:1018A000853631F752C0813209F08BC080920A012F
:1018B000D0920901C0920801F0920701E09206015E
:1018C000109305010093040150920301409202011C
:1018D00010928001A4E09A2ED7CF8336A1F10CF4A8
:1018E00078C010E082E077C08D36C1F194F487367D
:1018F00091F174F18C3609F064C00E94B90ABC0100
:10190000909307018093060180910801909109014D
:1019100051C08237C9F14CF48F3609F052C00E9491
:10192000B90A982E80930A01AFCF843781F18637A8
:1019300009F047C00E94B90A909303018093020105
:10194000A3CF9A94A1CF10E020C010E084E043C060
:1019500010E085E040C010E087E03DC00E949C0A96
:101960008C3619F41092800104C07092800110929C
:101970007F0120917C0130917D012F5F3F4F30939B
:101980007D0120937C0180CF11E080E024C00E9483
:10199000B90ABC01C5010E94EA16669EC001679E95
:1019A000900D112490930901809308016091060124
:1019B000709107010E94EA1670930501609304017B
:1019C00063CF10927D0110927C0169C010E089E024
:1019D00002C010E08BE0082F9CE0999E000D1124BE
:1019E0000E949C0A982F977F933261F420917C018A
:1019F00030917D012F5F3F4F30937D0120937C011B
:101A00000F5FEECF8D3271F420917C0130917D011A
:101A10002F5F3F4F30937D0120937C0101500E9446
:101A20009C0AF0CF609104017091050181538830C8
:101A300050F4E0900801F09009010E94B90ABC013D
:101A4000C7010E94EA167B01F694E79469837A83C2
:101A50000E949C0A69817A818E3269F420917C010E
:101A600030917D012F5F3F4F30937D0120937C01AA
:101A70006E0D7F1DE9CF80918001882339F09B0195
:101A80003695279520937F01621B710940910201D1
:101A9000112311F08FEF01C0802F0E94B40B22960A
:101AA000E0E10C9499171F920F920FB60F92112438
:101AB0002F933F934F935F936F937F938F939F9356
:101AC000AF93BF93EF93FF93809183019091840133
:101AD0009C01215031093093840120938301892B8B
:101AE00011F510926F00789480918100887F816059
:101AF0008093810080E197E2909389008093880031
:101B000010928B0010928A0081E080930B018091EB
:101B10007C0190917D01892B31F0809182018111AE
:101B200002C00E94080CFF91EF91BF91AF919F916D
:101B30008F917F916F915F914F913F912F910F9076
:101B40000FBE0F901F90189510926F0090937D011B
:101B500080937C0181E08093810110927F010E943B
:101B6000080C08950E94A40D089581E090E06F9301
:101B700064E06A95F1F76F910197C9F708950F93A3
:101B80001F93CF93DF931AB157985A98289AC0E0C1
:101B9000D0E00E94B50D5C9A0E94B50D09B15C9829
:101BA0000E94B50D5C9A0E94B50D5C98249607FFC3
:101BB00010C0AE0160E070E08091850190918601D7
:101BC000A0918701B0918801481759076A077B07E0
:101BD00000F31AB9DF91CF911F910F91089595B13C
:101BE000282F217030E0220F331F482F467068E005
:101BF000469FA0011124242B9D7C292B25B99BB144
:101C000088708295807F9F77892B8BB95C9A0E9420
:101C1000B50D5C980E94B50D0895A0E0B0E0E3E139
:101C2000FEE00C948617C82FD62EE42E8091EF018B
:101C3000811105C081E08093EF010E94530E0E9444
:101C4000BF0D14B1D5B1FAB00BB12898DD2011F059
:101C50005A9A01C05A9894B1926394B9579A81E004
:101C6000E81629F08C2F82958F700E94EF0D8C2F33
:101C70008F700E94EF0DFAB80BB914B9D5B9CDB772
:101C8000DEB7E7E00C94A21742E060E00E940D0E80
:101C9000089542E061E00E940D0E089541E060E089
:101CA0000E940D0E089580E197E2A0E0B0E08093DD
:101CB000850190938601A0938701B0938801529A81
:101CC000209A549A8EE190E00E94391183E00E949C
:101CD0004E0E86E090E00E94391183E00E944E0E85
:101CE00082E090E00E94391183E00E944E0E82E073
:101CF00090E00E94391182E00E944E0E82E090E056
:101D00000E94391188E20E94440E88E00E94440E2D
:101D100081E00E94440E86E00E94440E8CE00E9406
:101D2000440E089581E00E94440E80918B019091B1
:101D30008C01892BF9F060E0A0E2262F30E0709151
:101D40000C0180910D0190E00197789FA001799F8F
:101D5000500D1124241735074CF4E0918B01F091BC
:101D60008C01E20FF31FA0836F5FE7CF1092890110
:101D700010928A0108950E94920E0895CF93DF93E6
:101D8000EC018991882319F00E94490EFACFDF9166
:101D9000CF9108950E94BE0E0895AAE0B0E0E3ED51
:101DA000FEE00C9485171AE05AE0C52ED12CE12CE8
:101DB000F12C062FA70196010E941217CA01B90142
:101DC0001150E1E0F0E0EC0FFD1FE10FF11D005DAF
:101DD0002AE0629F001911240083611571058105B5
:101DE000910539F71A3058F4E1E0F0E0EC0FFD1FEF
:101DF000E10FF11D80810E94490E1F5FF3CF2A96EB
:101E0000E8E00C94A117CF92DF92EF92FF926B0162
:101E10007C0197FF0BC0F094E094D094C094C11C57
:101E2000D11CE11CF11C8DE20E94490EC701B601D4
:101E30000E94CD0EFF90EF90DF90CF9008950E940A
:101E4000030F0895A5E0B0E0E8E2FFE00C948A17E4
:101E5000182F80E8898380EC8A8384E98B8384ED62
:101E60008C83FE01E60FF11D8181810F6D830E943D
:101E7000440E109389016D8160938A012596E3E0F9
:101E80000C94A6170E94220F0895883058F491E010
:101E900001C0990F8A95EAF7892FAAE2B0E0EBE238
:101EA000F0E021C08E3060F498EF980F81E001C01F
:101EB000880F9A95EAF7A4E2B0E0E5E2F0E013C0FB
:101EC000853160F492EF980F81E001C0880F9A95F8
:101ED000EAF7A7E2B0E0E8E2F0E005C080E0A0E0C9
:101EE000B0E0E0E0F0E06F3F19F49081982709C07E
:101EF000662319F09081982B04C02081982F90952B
:101F0000922390839C91982B9C93089583EF8093C8
:101F1000B00084BD82E08093B10085BD1092B40012
:101F20001092B30018BC17BC60E086E00E94450F19
:101F300060E085E00E94450F60E08BE00E94450F65
:101F400060E083E00E94450F08958091F0018111C7
:101F500005C081E08093F0010E94860F0895CF9321
:101F6000DF93EC010E94A50FD7FF05C0D195C19565
:101F7000D10981E001C080E0CF3FD10519F014F014
:101F8000CFEFD0E0882319F018BCC7BD02C0C8BD90
:101F900017BCDF91CF910895CF93DF93EC010E949E
:101FA000A50FD7FF05C0D195C195D10981E001C02A
:101FB00080E0CF3FD10519F014F0CFEFD0E08823B7
:101FC00029F01092B400C093B30004C0C093B400D1
:101FD0001092B300DF91CF910895CF93DF93EB017F
:101FE0000E94AF0FCE010E94CC0FDF91CF910895D8
:101FF0000E94ED0F089584B18D7C84B985B1826310
:1020000085B985E090E06F9364E06A95F1F76F9190
:102010000197C9F708958091F101811105C081E010
:102020008093F1010E94FB0F0895CF93C82F0E9467
:102030000B1083B18C23E9F38AE090E00E94391100
:1020400083B18C23B1F383B18C23CF9108950E9487
:1020500015100895A1E0B0E0E0E3F0E10C948B17D7
:1020600089830E940B1093B19095898189232196D1
:10207000E2E00C94A7170E942A100895282F30E060
:102080009AE0899FF0011124E357FE4F80859185E6
:10209000009721F052814481541780F08AE0829F9A
:1020A000F001839FF00D1124E357FE4F928184814C
:1020B00098130EC0858181110AC008954281DC0108
:1020C000A40FB11D6C9382818F5F8283E7CF128250
:1020D00008951F920F920FB60F9211242F933F93E2
:1020E0004F935F936F937F938F939F93AF93BF9320
:1020F000EF93FF936091C60080E00E943E10FF9135
:10210000EF91BF91AF919F918F917F916F915F916F
:102110004F913F912F910F900FBE0F901F901895E8
:102120009AE0899FF0011124E357FE4F8681978141
:10213000892B59F091818381981738F4808181111E
:1021400004C08091C100806203C08091C1008F7D76
:102150008093C10008959AE0899FF0011124E3570C
:10216000FE4F268137812115310541F04181938150
:10217000491720F49091C00095FD03C00E94901073
:1021800008959181D901A90FB11D9C919093C6002A
:1021900091819F5F9183F2CF1F920F920FB60F92A2
:1021A00011242F933F934F935F936F937F938F935C
:1021B0009F93AF93BF93EF93FF9380E00E94AB1088
:1021C000FF91EF91BF91AF919F918F917F916F910F
:1021D0005F914F913F912F910F900FBE0F901F90E5
:1021E00018952F928F939F932FB680919E01909177
:1021F0009F01019680939E0190939F0190E08091B2
:10220000A001891F8093A001909198019C5F9093F9
:1022100098018091970180519742C0F09093980166
:10222000809397018091990190919A0101968093F2
:10223000990190939A0190E080919B01891F80936E
:102240009B0180919C01891F80939C012FBE9F91CF
:102250008F912F90189528EE33E0019748F0F901FF
:102260006F9364E06A95F1F76F913197C9F7F5CFF5
:1022700008950E942B110895E0E7F0E080818E7FA1
:102280008083A0EBB0E08C9183608C93A1EBB0E0F5
:102290008C91807F8C938C9182608C93B89A808192
:1022A00081608083789408958091F201811105C046
:1022B00081E08093F2010E943C1108950E94541124
:1022C000E0E7F0E080818E7F8083609199017091DA
:1022D0009A0180919B0190919C0120812160208333
:1022E00008950E945E1108950E945411E0E7F0E005
:1022F00080818E7F80831092990110929A011092B2
:102300009B0110929C01109298011092970180817C
:10231000816080830895462FBC0181EA91E00E948C
:102320001C140895682F81EA91E00E947A1508959F
:10233000462F20E0BC0181EA91E00E944B160895EF
:102340000F93CF93DF9300D000D01F92CDB7DEB7AD
:102350009C0185E0ECE4F1E0DE01119601900D9224
:102360008A95E1F7662311F00FEF01C003E145E024
:10237000BE016F5F7F4F81EA91E00E94721281EA95
:1023800091E00E9449120E9474110F900F900F90DB
:102390000F900F90DF91CF910F91089560E00E9410
:1023A000A011089581EA91E00E94C01608956F93EC
:1023B00064E06A95F1F76F910197C9F70895FC0100
:1023C0001182108213821282158214821682683062
:1023D00068F489E290E0918380838BE290E09383BC
:1023E00082838AE290E0958384831FC06E3070F40C
:1023F00083E290E09183808385E290E093838283FF
:1024000084E290E09583848368500FC0653198F42E
:1024100086E290E09183808388E290E093838283D8
:1024200087E290E0958384836E5081E001C0880F3D
:102430006A95EAF786830895A7E0B0E0E2E2F2E168
:102440000C9489178C01FC01118210821382128274
:102450001582148217821682613118F080E180871C
:1024600002C0FC016087F801208B642FCE01019629
:102470000E94DF118F81F80181878B819C81938776
:1024800082878D819E81958784872796E4E00C94CE
:10249000A517FC01A485B585109779F08C919185DD
:1024A000892B8C93A285B3859C9181858095892306
:1024B0008C9388EC90E00E94D7110895FC01A485CC
:1024C000B585109771F08C919185892B8C93A2859D
:1024D000B3858C919185892B8C9388EC90E00E9438
:1024E000D7110895A7E0B0E0E8E7F2E10C947E1779
:1024F0007C014B01642F3901402F20E00E941C1207
:1025000087010F5B1F4FF80110826701F2E4CF0EC5
:10251000D11CF60110825701F3E4AF0EB11CF50196
:102520001082F70177866686512CF7018085581650
:1025300050F5652C712CF401E60DF71D6081CE017C
:1025400001960E94DF112F81F701E60DF71D218B07
:1025500089819A81F301EE0FFF1FEE0DFF1D92A3FB
:1025600081A38332910511F4F80108C086329105E8
:1025700011F4F60103C0899721F4F5018081822BC3
:1025800080835394D2CF2796EFE00C949A17A0E063
:10259000B0E0EDECF2E10C948017EC015B016C0112
:1025A00081E4C80ED11CF60180807E01F2E4EF0EBA
:1025B000F11CF70170808E010D5B1F4FF8019080B8
:1025C00080E09885891748F4F501E80FF11DE80FC0
:1025D000F11D118210828F5FF4CF84B1F6019081DA
:1025E000892B84B987B1F7019081892B87B98AB18A
:1025F000F8019081892B8AB985B1F6019081892BE8
:1026000085B988B1F7019081892B88B98BB1F80120
:102610009081892B8BB98AE090E00E94D71194B108
:10262000F60180818095892384B997B1F701808173
:102630008095892387B99AB1F80180818095892393
:102640008AB995B1F60180818095892385B998B1C1
:10265000F70180818095892388B99BB1F801808139
:10266000809589238BB9E090B000D090B100809123
:10267000B00083608093B00082E08093B10040910D
:10268000B20080E090E02E853F858217930720F509
:10269000C090B2002C2D241B820F911D03B1081194
:1026A00032C0F6B0F7102FC029B129112CC010C0CC
:1026B000212F30E0A901440F551FF501E40FF51F4C
:1026C00060817181672B21F11F5F2885121780F3CC
:1026D0007F2C802E4C2DD7CFE092B000D092B1004D
:1026E00020E08885281730F5F501E20FF11DE20F93
:1026F000F11D80819181892B21F48E859F859183A5
:1027000080832F5FEECF03B1F6B099B010E0DDCF3C
:10271000DE01A40FB51F91960D90BC91A02D4C9198
:10272000DE01A20FB31F51962C91422369F69183CB
:102730008083CACFCDB7DEB7EDE00C949C17EF9243
:10274000FF920F931F93CF93DF93FC019B01F090B7
:102750007C0000917A0047B118B180917A0086FD23
:10276000FCCF80E09085891748F4D901A80FB11DEE
:10277000A80FB11D1D921C928F5FF4CF97B182A15B
:102780008095892387B998B182A18095892388B9DA
:1027900087E880937A00E12C81A1E81610F0E12C03
:1027A00029C050E08085581718F5A52FB0E0EF013B
:1027B000CA0FDB1F8989806480937C0080917A0036
:1027C000806480937A0080917A0086FDFCCF6091CE
:1027D000780070917900AA0FBB1FA20FB31F8D91D3
:1027E0009C911197860F971F8D939C935F5FDACF13
:1027F000E394D2CF8085E816A0F4E901CE0DD11D77
:10280000CE0DD11D61A170E0CB0195958795A88172
:10281000B9818A0F9B1F0E94EA1679836883E3942B
:10282000E9CFF0927C0000937A0018B947B9CDB790
:10283000DEB7E6E00C94A317A0E2B0E0E2E2F4E138
:102840000C9486178C017B01D42E8FEF840F82307D
:1028500018F4C8010E945E12D80150968C91B701FD
:10286000811110C0C8010E94C712C8010E944912FC
:10287000B2E0DB123AC0BE016F5F7F4FC8010E9419
:10288000C7120FC0C8010E949F13C8010E944912BD
:10289000E2E0DE122AC0BE016F5F7F4FC8010E94D6
:1028A0009F1340E0F80180854817F8F4842F90E0EA
:1028B000880F991FF701E80FF91F21E030E02C0F76
:1028C0003D1F820F931FD8011E962D913C911F979B
:1028D000DC018D919C91281B390B80819181820FA5
:1028E000931F918380834F5FDDCFA096E7E00C9428
:1028F000A2172F923F925F926F927F928F929F9238
:10290000AF92BF92CF92DF92EF92FF920F931F93FD
:10291000CF93DF93CDB7DEB7C056D1090FB6F89489
:10292000DEBF0FBECDBF8C014B015A01522EDA0122
:102930008D919C91892B31F0F40180819181892BBB
:10294000F1F424C0D80118968C9190E0880F991F5B
:102950000E940E1AF50191838083009709F4B1C09B
:10296000FC0120E030E0D80118968C9190E0281707
:10297000390714F7119211922F5F3F4FF4CFE12CDA
:10298000F12C6E01B1E2CB0ED11C21C0F801808583
:1029900090E0880F991F0E940E1AD4018D939C938A
:1029A000009709F48EC0FC0120E030E0D8011896B1
:1029B0008C9190E02817390714F7D8011E968D9155
:1029C0009C911F97819391932F5F3F4FEFCF452DA0
:1029D000BE016F5B7F4FC8010E941C14F801608428
:1029E000712CFE01EF5BFF4FC6019E012F5F3F4F31
:1029F000190120E030E0261537054CF5E114F1040B
:102A000089F0DC016D917C914081518164177507DB
:102A100048F0D1016D917C91408151814617570753
:102A200048F00DC040815181DC014D935C93E1146D
:102A3000F10479F740815181D1014D935C932F5F6F
:102A40003F4FB2E02B0E311C32960296D4CFEFEFFF
:102A5000EE1AFE0AFAE0EF16F10409F0B8CF9E0173
:102A60002F5F3F4F7901360180E090E0F80120852B
:102A700030E0821793072CF5D7012D913D917D0110
:102A8000B3016C197D09D501ED91FC91E60FF71F9B
:102A9000408151814217530710F431832083F301A1
:102AA000219131913F01D401ED91FC91E60FF71F87
:102AB000408151812417350710F43183208301961A
:102AC000D5CFC05ADF4F0FB6F894DEBF0FBECDBFD3
:102AD000DF91CF911F910F91FF90EF90DF90CF90FA
:102AE000BF90AF909F908F907F906F905F903F903E
:102AF0002F9008951F93CF93DF93EC01162F8FEF44
:102B0000860F823018F0662359F014C021E0AE0120
:102B10004E5F5F4FBE01CE010E947914123051F416
:102B2000AE014A5F5F4FBE016C5F7F4F20E0CE0178
:102B30000E947914DF91CF911F910895A0E0B0E039
:102B4000E4EAF5E10C948417EC018B01B42E842F98
:102B50008D7F51F48C819D81892B09F497C08E81E2
:102B60009F81892B09F492C08FEF8B0D823050F436
:102B700088819981892B09F489C08A819B81892B5D
:102B800009F484C04B2DB801CE010E941C147801B9
:102B900000E010E0C12CD12C888590E0C816D90641
:102BA0000CF074C081E0B8120AC0EA81FB81E00F2A
:102BB000F11F0190F081E02DA881B9810DC08C81B9
:102BC0009D812E813F81B1100CC0F901E00FF11FF2
:102BD0000190F081E02DDC01A00FB11F8D919C913F
:102BE00028C0FC01E00FF11F40815181E881F9818B
:102BF000E00FF11F80819181EE85FF85481759070D
:102C000010F4CF0104C08E0F9F1F841B950BD901B8
:102C1000A00FB11F2D913C91AA81BB81A00FB11FC4
:102C20004D915C912417350720F0E40FF51FE21B4E
:102C3000F30BE81BF90BA9F0D7012D913C9140E073
:102C400050E0281B390B41095109A8EEB3E00E945E
:102C500068179F0140E050E00E94341737FD0AC01A
:102C600002C020E030E0293EB3E03B072CF028EE24
:102C700033E002C020E030E0F701219331937F017F
:102C8000FFEFCF1ADF0A0E5F1F4F86CFCDB7DEB73B
:102C9000E9E00C94A017A0E0B0E0E1E5F6E10C94C7
:102CA0007B17EC018B01822E0E949E152884E8017F
:102CB000412C512C320100E010E0C12CD12C7601C6
:102CC000312C912C58EEA52E53E0B52E921421F103
:102CD000E991F991882021F0C5018E1B9F0BFC0121
:102CE000E93CF10524F4E333F10574F002C0332428
:102CF0003394DF01A30192010E947317C60ED71E01
:102D0000E81EF91E0E0F1F1F939498EE490E93E0D4
:102D1000591E611C711CDACF31101EC0492D50E0C4
:102D20004150510924EF31E0429FC001439F900D73
:102D3000529F900D11242091E5013091E601281752
:102D40003907B4F088EE93E0489F9001499F300D19
:102D5000589F300D11240EC0980140E050E0C7018B
:102D6000B6010E9412173093E6012093E50102C0DC
:102D700020E030E0C901CDB7DEB7E2E10C9497174F
:102D8000CF93DF93EC018A819B81009711F00E9421
:102D9000A61A8E819F81009711F00E94A61A888141
:102DA0009981009711F00E94A61A8C819D8100974D
:102DB00011F00E94A61ADF91CF910895991B79E036
:102DC00004C0991F961708F0961B881F7A95C9F7BB
:102DD00080950895AA1BBB1B51E107C0AA1FBB1F0A
:102DE000A617B70710F0A61BB70B881F991F5A9597
:102DF000A9F780959095BC01CD01089597FB072E0A
:102E000016F4009407D077FD09D00E94EA1607FC5B
:102E100005D03EF4909581959F4F089570956195EA
:102E20007F4F0895A1E21A2EAA1BBB1BFD010DC006
:102E3000AA1FBB1FEE1FFF1FA217B307E407F5076A
:102E400020F0A21BB30BE40BF50B661F771F881F46
:102E5000991F1A9469F760957095809590959B01DC
:102E6000AC01BD01CF010895052E97FB1EF400941F
:102E70000E944B1757FD07D00E94121707FC03D082
:102E80004EF40C944B1750954095309521953F4F3B
:102E90004F4F5F4F089590958095709561957F4F46
:102EA0008F4F9F4F0895EE0FFF1F0590F491E02D77
:102EB0000994A29FB001B39FC001A39F700D811D13
:102EC0001124911DB29F700D811D1124911D089533
:102ED0000E945917A59F900DB49F900DA49F800D3F
:102EE000911D11240895B7FF0C9468170E9468176C
:102EF000821B930B08952F923F924F925F926F9295
:102F00007F928F929F92AF92BF92CF92DF92EF9279
:102F1000FF920F931F93CF93DF93CDB7DEB7CA1BFA
:102F2000DB0B0FB6F894DEBF0FBECDBF09942A8825
:102F3000398848885F846E847D848C849B84AA84CD
:102F4000B984C884DF80EE80FD800C811B81AA815A
:102F5000B981CE0FD11D0FB6F894DEBF0FBECDBF25
:102F6000ED0108955058BB27AA270E94CA170C9458
:102F7000D2180E94C41838F00E94CB1820F039F4FF
:102F80009F3F19F426F40C94C1180EF4E095E7FB6A
:102F90000C94BB18E92F0E94E31858F3BA17620784
:102FA00073078407950720F079F4A6F50C940519AA
:102FB0000EF4E0950B2EBA2FA02D0B01B901900154
:102FC0000C01CA01A0011124FF27591B99F0593F98
:102FD00050F4503E68F11A16F040A22F232F342FE0
:102FE0004427585FF3CF469537952795A795F0402E
:102FF0005395C9F77EF41F16BA0B620B730B840B43
:10300000BAF09150A1F0FF0FBB1F661F771F881FFA
:10301000C2F70EC0BA0F621F731F841F48F4879552
:1030200077956795B795F7959E3F08F0B0CF939544
:10303000880F08F09927EE0F9795879508950E94BD
:10304000971808F481E008950E942B186894B11134
:103050000C94061908950E94EB1888F09F5798F079
:10306000B92F9927B751B0F0E1F0660F771F881F8D
:10307000991F1AF0BA95C9F714C0B13091F00E94A7
:103080000519B1E008950C940519672F782F88274A
:10309000B85F39F0B93FCCF3869577956795B395CE
:1030A000D9F73EF490958095709561957F4F8F4F3D
:1030B0009F4F0895E89409C097FB3EF49095809542
:1030C000709561957F4F8F4F9F4F9923A9F0F92FEE
:1030D00096E9BB279395F695879577956795B7956C
:1030E000F111F8CFFAF4BB0F11F460FF1BC06F5F52
:1030F0007F4F8F4F9F4F16C0882311F096E911C064
:10310000772321F09EE8872F762F05C0662371F084
:1031100096E8862F70E060E02AF09A95660F771F98
:10312000881FDAF7880F9695879597F90895990F74
:103130000008550FAA0BE0E8FEEF16161706E80781
:10314000F907C0F012161306E407F50798F0621BA2
:10315000730B840B950B39F40A2661F0232B242B77
:10316000252B21F408950A2609F4A140A6958FEF96
:10317000811D811D089597F99F6780E870E060E0E8
:1031800008959FEF80EC089500240A941616170600
:1031900018060906089500240A9412161306140648
:1031A00005060895092E0394000C11F4882352F0AB
:1031B000BB0F40F4BF2B11F460FF04C06F5F7F4F63
:1031C0008F4F9F4F089557FD9058440F551F59F04A
:1031D0005F3F71F04795880F97FB991F61F09F3F04
:1031E00079F087950895121613061406551FF2CF2D
:1031F0004695F1DF08C0161617061806991FF1CF7D
:1032000086957105610508940895E894BB276627A3
:103210007727CB0197F908950E94971808F48FEF4C
:1032200008950E9424190C94D2180E94C41838F0F2
:103230000E94CB1820F0952311F00C94BB180C942D
:10324000C11811240C9406190E94E31870F3959F7D
:10325000C1F3950F50E0551F629FF001729FBB278D
:10326000F00DB11D639FAA27F00DB11DAA1F649F29
:103270006627B00DA11D661F829F2227B00DA11DDC
:10328000621F739FB00DA11D621F839FA00D611D62
:10329000221F749F3327A00D611D231F849F600D83
:1032A000211D822F762F6A2F11249F5750409AF0AC
:1032B000F1F088234AF0EE0FFF1FBB1F661F771F38
:1032C000881F91505040A9F79E3F510580F00C9403
:1032D000BB180C9406195F3FE4F3983ED4F386952F
:1032E00077956795B795F795E7959F5FC1F7FE2BA3
:1032F000880F911D9695879597F908959F930E9441
:1033000096190F9007FCEE5F0C94BF199F3F31F0A8
:10331000915020F4879577956795B795880F911D03
:103320009695879597F908950C94C1180E94EB180B
:10333000D8F3E894E0E0BB279F57F0F02AED3FE098
:1033400049EC06C0EE0FBB0F661F771F881F28F0E1
:10335000B23A62077307840728F0B25A620B730B04
:10336000840BE3959A9572F7803830F49A95BB0FE9
:10337000661F771F881FD2F790480C948819EF9327
:10338000E0FF07C0A2EA2AED3FE049EC5FEB0E94B4
:10339000CA170E94D2180F90039401FC9058E8E6D7
:1033A000F0E00C94D3199F938F937F936F93FF93C7
:1033B000EF939B01AC010E941119EF91FF910E94C4
:1033C000E7192F913F914F915F910C941119DF9361
:1033D000CF931F930F93FF92EF92DF927B018C01AB
:1033E000689406C0DA2EEF010E942419FE01E894C9
:1033F000A5912591359145915591A6F3EF010E9434
:10340000CA17FE019701A801DA9469F7DF90EF90DF
:10341000FF900F911F91CF91DF9108950F931F930C
:10342000CF93DF938230910510F482E090E0E09139
:103430006302F091640220E030E0A0E0B0E0309759
:1034400019F1408151810281138148175907C8F051
:103450008417950769F4109731F012960C93129720
:1034600013961C9327C0009363021093640222C03A
:103470002115310519F04217530718F49A01BD01BF
:10348000EF01DF01F801DBCF21153105F9F0281B31
:10349000390B2430310580F48A819B8161157105D7
:1034A00021F0FB019383828304C090936402809394
:1034B0006302FE01329644C0FE01E20FF31F8193C6
:1034C000919322503109398328833AC020916102B7
:1034D00030916202232B41F42091100130911101AF
:1034E000309362022093610220910E0130910F010E
:1034F0002115310541F42DB73EB74091120150918D
:103500001301241B350BE0916102F0916202E21776
:10351000F307A0F42E1B3F0B2817390778F0AC01F6
:103520004E5F5F4F2417350748F04E0F5F1F5093D3
:103530006202409361028193919302C0E0E0F0E067
:10354000CF01DF91CF911F910F910895CF93DF931A
:10355000009709F481C0FC01329713821282A09176
:103560006302B0916402109781F420813181820F4F
:10357000931F20916102309162022817390751F59B
:10358000F0936202E093610267C0ED0120E030E059
:10359000CE17DF0740F44A815B819E01411551053A
:1035A000F1F0EA01F5CFD383C28340815181840FCA
:1035B000951FC817D90759F488819981840F951FE1
:1035C0000296918380838A819B81938382832115D4
:1035D000310529F4F0936402E09363023DC0E901F0
:1035E000FB83EA8349915991C40FD51FEC17FD075E
:1035F00061F480819181840F951F0296E90199837E
:103600008883828193819B838A83E0E0F0E0129635
:103610008D919C911397009719F0FD01DC01F7CF74
:103620008D919C9111979D012E5F3F4F820F931FAB
:1036300020916102309162022817390769F43097AE
:1036400029F4109264021092630202C01382128263
:10365000B0936202A0936102DF91CF91089510E0D0
:10366000C1E6D0E004C0FE010E9453172196C23685
:08367000D107C9F7F894FFCF60
:1036780088130F00F4010400D007040108020000B9
:103688006502200003010002020301000002030199
:10369800010002030400010004000200040003000A
:1036A800010001009C01B501CF01EA0107022602D1
:1036B800470269028E02B502DE020A030E0F1011DC
:1036C800124C696E65210050726F64756374006DE9
:1036D80056006472756B2042002020006472756B7E
:0C36E800206F700042206B6E6F700000BD
:00000001FF
