:100000000C944E000C946B000C946B000C946B00E1
:100010000C946B000C946B000C946B000C946B00B4
:100020000C946B000C94BC100C946B000C946B0043
:100030000C946B000C941E0D0C946B000C946B00D4
:100040000C946B000C946B000C9434100C9497106F
:100050000C946B000C946B000C946B000C946B0074
:100060000C946B000C946B0005A84CCDB2D44EB927
:100070003836A9020C50B9918688083CA6AAAA2A4B
:10008000BE000000803F3E6633323E3E61333200A8
:100090003E6733323E3E633332009D1111241FBE52
:1000A000CFEFD8E0DEBFCDBF11E0A0E0B1E0E6E5E4
:1000B000F1E302C005900D92A236B107D9F722E014
:1000C000A2E6B1E001C01D92A534B207E1F70E949B
:1000D0000B010C949E180C940000FC0142E050E0CF
:1000E0005183408383E090E09383828355834483EC
:1000F00025E030E03783268361E070E07187608718
:100100007387628735872487918B808B938B828B53
:10011000358B248B918F808F738F628F558F448F97
:10012000378F268F91A380A353A342A395A384A3C3
:1001300037A326A30895EF92FF920F931F93CF93B7
:10014000DF93EB01CC0FDD1FCC0FDD1FCC0FDD1FCC
:10015000C80FD91F00E010E0EE24E394F12C02C098
:100160000E2D1F2D0E94F1050E943706892BD1F319
:100170000E94370602974CF0599A519A0E94C40681
:100180000E943706892B51F43FC00E94C4060E948A
:100190003706892BC9F101301105B1F58991999183
:1001A00082309105A1F01CF4019739F02DC0833005
:1001B0009105B9F00597F9F027C02AE939E949E92D
:1001C0005EE362E586E490E00E942C01C9CF2AE953
:1001D00039E949E95EE36CE486E490E00E942C0191
:1001E000BFCF2AE037ED43E65FE366E480E590E0C9
:1001F0000E942C01B5CF2AE037ED43E65FE366E4C9
:1002000080E090E00E942C01DF91CF911F910F912F
:10021000FF90EF900895CF93DF93CDB7DEB7A0970F
:100220000FB6F894DEBF0FBECDBF0E947905CE0198
:1002300001960E946D0061E070E0CE0101960E947F
:100240009B0080E090E0A0960FB6F894DEBF0FBE52
:10025000CDBFDF91CF9108952F923F924F925F9241
:100260006F927F928F929F92AF92BF92CF92DF92C6
:10027000EF92FF920F931F93CF93DF93CDB7DEB72B
:1002800066970FB6F894DEBF0FBECDBF1C01298361
:100290003A834B835C83663461F020F4623409F462
:1002A00095C008C46C3409F4A9C2623509F41BC1B5
:1002B00001C48091D3019091D4019101281B390B85
:1002C00045E650E05A874987412C512C3201032ED4
:1002D000000C440B550B2D833E834F8358870E949F
:1002E0003C118B012BED3FE049EC50E4C301B2011E
:1002F0000E9489080E94F60823E839EF42E25EE393
:100300000E9489089B01AC01C301B2010E942A0727
:100310004B015C016D817E818F8198850E94D4079D
:100320009B01AC01C501B4010E9489084B015C012D
:100330006091D3017091D401072E000C880B990BAA
:100340000E94D4079B01AC01C501B4010E942B0798
:100350000E949C07DC01CB01BC010E94C30F480135
:10036000110FAA08BB080E943C11681979098A0973
:100370009B090E94D2076B017C0120E030E040E243
:1003800051E469817A818B819C810E9489089B015B
:10039000AC01C701B6010E949707882324F32AE025
:1003A00037ED43E25CE3C301B2010E942B072B014E
:1003B0003C01A985BA851197BA87A987AB2B09F0AB
:1003C0008ECF3092D4012092D3017AC38091D30191
:1003D0009091D4019101281B390B45E650E05A87D2
:1003E0004987412C512C3201032E000C440B550B34
:1003F0002D833E834F8358870E943C118B012BED48
:100400003FE049EC50E4C301B2010E9489080E9418
:10041000F60823E839EF42E25EE30E9489089B0177
:10042000AC01C301B2010E942A074B015C016D813E
:100430007E818F8198850E94D4079B01AC01C50104
:10044000B4010E9489084B015C016091D301709155
:10045000D401072E000C880B990B0E94D4079B0136
:10046000AC01C501B4010E942B070E949C07DC016E
:10047000CB01BC010E94C30F4801110FAA08BB08A1
:100480000E943C11681979098A099B090E94D207C8
:100490006B017C0120E030E040E251E469817A8127
:1004A0008B819C810E9489089B01AC01C701B60128
:1004B0000E949707882324F32AE037ED43E25CE3A8
:1004C000C301B2010E942B072B013C01A985BA850B
:1004D0001197BA87A987AB2B09F08ECF3092D40140
:1004E0002092D301EDC28091D1019091D201820D71
:1004F000931D2091CF013091D001A101421B530BDC
:100500009A0105E610E01D821E821F821886AC014A
:10051000990F660B770B4D875E876F87788BB901D4
:10052000330F880B990B698B7A8B8B8B9C8B0E947A
:100530003C117E8B6D8B6091D3017091D401072E9D
:10054000000C880B990B0E94D40769877A878B87E8
:100550009C872BED3FE049EC50E46D817E818F81DB
:1005600098850E9489080E94F60823E839EF42E244
:100570005EE30E9489082D813E814F8158850E944B
:100580002B074B015C016091D1017091D201072EC4
:10059000000C880B990B0E94D4072B013C016D8540
:1005A0007E858F8598890E94D407A50194010E94B9
:1005B00089089B01AC01C301B2010E942A07298569
:1005C0003A854B855C850E942B070E949C072B0176
:1005D0003C016091CF017091D001072E000C880B77
:1005E000990B0E94D4076B017C0169897A898B89F8
:1005F0009C890E94D407A50194010E9489089B014F
:10060000AC01C701B6010E942B0729853A854B85AD
:100610005C850E942B070E949C07DC01CB01B20184
:100620000E94C30F8D899E894C01990FAA08BB08AF
:100630000E943C116B017C0120E030E040E251E47B
:1006400069817A818B819C810E9489082B013C0100
:10065000C701B601681979098A099B090E94D20766
:10066000A30192010E949707882314F32AE037ED33
:1006700043E25CE36D817E818F8198850E942B0728
:100680006D837E838F8398870150110909F04FCFC6
:1006900088279927821993099093D2018093D101D9
:1006A0003092D0012092CF0105E610E019821A8223
:1006B0001B821C829C01990F440B550B29873A879A
:1006C0004B875C87C12CD12C76010E943C117E8720
:1006D0006D876091D3017091D401072E000C880BB7
:1006E000990B0E94D40769837A838B839C832BEDBB
:1006F0003FE049EC50E4C701B6010E9489080E941E
:10070000F60823E839EF42E25EE30E948908A70178
:1007100096010E942B074B015C0169857A858B85C8
:100720009C850E94D4079B01AC01C501B4010E94C5
:1007300089084B015C016091D1017091D201072EB3
:10074000000C880B990B0E94D407A50194010E940C
:100750002A0729813A814B815C810E942B070E94E4
:100760009C076D837E838F8398876091CF01709102
:10077000D001072E000C880B990B0E94D407A5010D
:1007800094010E942B0729813A814B815C810E9450
:100790002B070E949C07DC01CB016D817E810E94AA
:1007A000C30F4D855E854A01550FAA08BB080E94FC
:1007B0003C11681979098A099B090E94D2079B019B
:1007C000AC01C301B2010E948408181684F32AE028
:1007D00037ED43E25CE3C701B6010E942B076B01D2
:1007E0007C010150110909F070CF1092D2011092D2
:1007F000D1011092D0011092CF0162C18091D1013C
:100800009091D2019101281B390B8091CF019091D9
:10081000D001820D931D65E670E07A8B698B1D8295
:100820001E821F821886A901330F660B770B49873A
:100830005A876B877C879C01990F440B550B2D873A
:100840003E874F87588B0E943C118B012BED3FE078
:1008500049EC50E46D817E818F8198850E948908E2
:100860000E94F60823E839EF42E25EE30E9489081D
:100870002D813E814F8158850E942B076B017C01A1
:100880006091D1017091D201072E000C880B990B59
:100890000E94D4074B015C0169857A858B859C8514
:1008A0000E94D407A70196010E9489089B01AC0110
:1008B000C501B4010E942B070E949C074B015C01FB
:1008C0006091CF017091D001072E000C880B990B1D
:1008D0000E94D4072B013C016D857E858F85988908
:1008E0000E94D407A70196010E9489089B01AC01D0
:1008F000C301B2010E942A070E949C07DC01CB01C0
:10090000B4010E94C30F4801110FAA08BB080E943E
:100910003C112B013C0120E030E040E251E46981D0
:100920007A818B819C810E9489086B017C01C301C3
:10093000B201681979098A099B090E94D207A701A7
:1009400096010E949707882314F32AE037ED43E2CB
:100950005CE36D817E818F8198850E942B076D837A
:100960007E838F839887A989BA891197BA8BA98BBF
:10097000AB2B09F068CF3092D2012092D101319493
:10098000219431083092D0012092CF0125E630E049
:1009900019821A821B821C82A101330C660B770B11
:1009A0004D835E836F8378873A872987812C912CCA
:1009B00054010E943C118B012BED3FE049EC50E4C7
:1009C000C501B4010E9489080E94F60823E839EFA6
:1009D00042E25EE30E948908A50194010E942B0770
:1009E0002B013C016D817E818F8198850E94D40707
:1009F0009B01AC01C301B2010E9489082B013C019B
:100A00006091D1017091D201072E000C880B990BD7
:100A10000E94D407A30192010E942B070E949C0709
:100A200069837A838B839C836091CF017091D0011D
:100A3000072E000C880B990B0E94D407A30192018A
:100A40000E942A070E949C07DC01CB0169817A8100
:100A50000E94C30F2801110F660877080E943C11FD
:100A600064197509860997090E94D2079B01AC0198
:100A7000C701B6010E948408181684F32AE037EDF6
:100A800043E25CE3C501B4010E942B074B015C010A
:100A900069857A85615071097A876987672B09F0C2
:100AA00088CF1092D2011092D1011092D0011092F1
:100AB000CF0106C060E070E080E090E00E94C30FCC
:100AC00066960FB6F894DEBF0FBECDBFDF91CF9113
:100AD0001F910F91FF90EF90DF90CF90BF90AF905C
:100AE0009F908F907F906F905F904F903F902F904E
:100AF0000895CF93DF9380ED97E00E9499111BC07A
:100B00000E94640AEC010E94860EBE01DD0F880B74
:100B1000990B0E94EA0E81E391E00E94950E61E03C
:100B200080E00E940D0F84E391E00E94950E84E620
:100B300090E00E94041180E10E940610882301F3D6
:100B400080E10E94F20F88EE93E00E940411CCEE47
:100B5000DFEFC832D10538F068ED7FEF88E290E032
:100B60000E94C30F06C068E270E088ED9FEF0E940C
:100B7000C30F81E00E945D1184E190E00E940411A6
:100B80002196CC33D10529F760E070E080E090E059
:100B90000E94C30F15C061E087E392E00E946311D9
:100BA000EC010E94860E8BE391E00E94950EBE013F
:100BB00080E090E00E94EA0E84E690E00E9404113A
:100BC00080E10E940610882331F380E10E94F20F39
:100BD0000E94860E8EE391E00E94950EDF91CF91E8
:100BE0000895CF93DF9361E087E392E00E94631161
:100BF000EC0161E087E392E00E9456110E94860EAC
:100C0000CE3987E0D80798F45F9A579AC830D74012
:100C100038F46CE370E080E090E00E94C30F24C0E1
:100C20006CE370E087E390E00E94C30F1DC0C33007
:100C300088E0D80798F0599A519AC939D84038F0C5
:100C400060E070E08CE390E00E94C30F0DC067E3AA
:100C500070E081E490E00E94C30F06C067E370E09B
:100C600087E390E00E94C30FDF91CF9108950F9327
:100C70001F93CF93DF93E5EDF1E011821082138291
:100C800012821582148261E087E392E00E9456117D
:100C90008091370290913802893E934048F081E07C
:100CA00090E09093D6018093D501C1E0D0E002C0DE
:100CB000C0E0D0E080913B0290913C02893E93409D
:100CC00040F081E090E09093D8018093D701C2E09A
:100CD000D0E080913F0290914002893E934040F0E5
:100CE00081E090E09093DA018093D901C3E0D0E0F5
:100CF000BE010D2E000C880B990B0E94EA0E61E0DC
:100D000080E00E940D0F05ED11E0F8016081718116
:100D1000072E000C880B990B0E94EA0EF8016281E5
:100D20007381072E000C880B990B0E94EA0EF801C4
:100D300064817581072E000C880B990B0E94EA0EC6
:100D40000E94860ECE01DF91CF911F910F910895E1
:100D500012C00E94860E82E491E00E94950E61E02E
:100D600080E00E940D0F8AE491E00E94950E84E6D7
:100D700090E00E94041180E10E940610882349F34C
:100D800080E10E94F20F089585E00E94CB099093C4
:100D9000E0018093DF0187E00E94CB099C019093E2
:100DA000E4018093E3016091DF017091E0016B50F9
:100DB0007109ECE1F8E0CF010E94C9167093E201DD
:100DC0006093E101B9016B507109CF010E94C9160E
:100DD0007093E6016093E5010E94860E8091E10127
:100DE0009091E2019C012B5031092930310578F4B2
:100DF0000E94860E80E990E00E947D0D81E591E0E1
:100E00000E94950E88EC90E00E94041120C001978A
:100E10000997E8F40E94860E86E890E00E947D0D16
:100E20008AE591E00E94950E61E080E00E940D0F3E
:100E300081E591E00E94950E2AE037ED43E65FE3FD
:100E400066E480E090E00E942C010E94A80680E009
:100E500090E008955058BB27AA270E9442070C949F
:100E60004A080E943C0838F00E94430820F039F4F8
:100E70009F3F19F426F40C9439080EF4E095E7FB33
:100E80000C943308E92F0E945B0858F3BA176207E5
:100E900073078407950720F079F4A6F50C947D0874
:100EA0000EF4E0950B2EBA2FA02D0B01B901900185
:100EB0000C01CA01A0011124FF27591B99F0593FC9
:100EC00050F4503E68F11A16F040A22F232F342F11
:100ED0004427585FF3CF469537952795A795F0405F
:100EE0005395C9F77EF41F16BA0B620B730B840B74
:100EF000BAF09150A1F0FF0FBB1F661F771F881F2C
:100F0000C2F70EC0BA0F621F731F841F48F4879583
:100F100077956795B795F7959E3F08F0B0CF939575
:100F2000880F08F09927EE0F9795879508950E94EE
:100F30000F0808F481E008950E94A3076894B11196
:100F40000C947E0808950E94630888F09F5798F0DB
:100F5000B92F9927B751B0F0E1F0660F771F881FBE
:100F6000991F1AF0BA95C9F714C0B13091F00E94D8
:100F70007D08B1E008950C947D08672F782F8827AD
:100F8000B85F39F0B93FCCF3869577956795B395FF
:100F9000D9F73EF490958095709561957F4F8F4F6E
:100FA0009F4F0895E89409C097FB3EF49095809573
:100FB000709561957F4F8F4F9F4F9923A9F0F92F1F
:100FC00096E9BB279395F695879577956795B7959D
:100FD000F111F8CFFAF4BB0F11F460FF1BC06F5F83
:100FE0007F4F8F4F9F4F16C0882311F096E911C095
:100FF000772321F09EE8872F762F05C0662371F0B6
:1010000096E8862F70E060E02AF09A95660F771FC9
:10101000881FDAF7880F9695879597F90895990FA5
:101020000008550FAA0BE0E8FEEF16161706E807B2
:10103000F907C0F012161306E407F50798F0621BD3
:10104000730B840B950B39F40A2661F0232B242BA8
:10105000252B21F408950A2609F4A140A6958FEFC7
:10106000811D811D089597F99F6780E870E060E019
:1010700008959FEF80EC089500240A941616170631
:1010800018060906089500240A9412161306140679
:1010900005060895092E0394000C11F4882352F0DC
:1010A000BB0F40F4BF2B11F460FF04C06F5F7F4F94
:1010B0008F4F9F4F089557FD9058440F551F59F07B
:1010C0005F3F71F04795880F97FB991F61F09F3F35
:1010D00079F087950895121613061406551FF2CF5E
:1010E0004695F1DF08C0161617061806991FF1CFAE
:1010F00086957105610508940895E894BB276627D5
:101100007727CB0197F908950E940F0808F48FEF15
:1011100008950E949C080C944A080E943C0838F0EC
:101120000E94430820F0952311F00C9433080C948E
:10113000390811240C947E080E945B0870F3959F77
:10114000C1F3950F50E0551F629FF001729FBB27BE
:10115000F00DB11D639FAA27F00DB11DAA1F649F5A
:101160006627B00DA11D661F829F2227B00DA11D0D
:10117000621F739FB00DA11D621F839FA00D611D93
:10118000221F749F3327A00D611D231F849F600DB4
:10119000211D822F762F6A2F11249F5750409AF0DD
:1011A000F1F088234AF0EE0FFF1FBB1F661F771F69
:1011B000881F91505040A9F79E3F510580F00C9434
:1011C00033080C947E085F3FE4F3983ED4F3869591
:1011D00077956795B795F795E7959F5FC1F7FE2BD4
:1011E000880F911D9695879597F908959F930E9472
:1011F0000E090F9007FCEE5F0C9437099F3F31F00A
:10120000915020F4879577956795B795880F911D34
:101210009695879597F908950C9439080E9463086C
:10122000D8F3E894E0E0BB279F57F0F02AED3FE0C9
:1012300049EC06C0EE0FBB0F661F771F881F28F012
:10124000B23A62077307840728F0B25A620B730B35
:10125000840BE3959A9572F7803830F49A95BB0F1A
:10126000661F771F881FD2F790480C940009EF93F0
:10127000E0FF07C0A2EA2AED3FE049EC5FEB0E94E5
:1012800042070E944A080F90039401FC9058E8E638
:10129000F0E00C944B099F938F937F936F93FF9390
:1012A000EF939B01AC010E948908EF91FF910E948E
:1012B0005F092F913F914F915F910C948908DF93C3
:1012C000CF931F930F93FF92EF92DF927B018C01DC
:1012D000689406C0DA2EEF010E949C08FE01E89493
:1012E000A5912591359145915591A6F3EF010E9465
:1012F0004207FE019701A801DA9469F7DF90EF90A9
:10130000FF900F911F91CF91DF910895ECE7F0E0EE
:1013100080818F7D80830895811103C00E9486099A
:10132000089580917C00806280937C000895809174
:101330007C0085FB882780F908950E9497098823FF
:1013400021F08091790090E008958091780090914B
:10135000790008958032A0F497E890937A009091F4
:101360007C00662311F0906C02C09F779064907EA1
:10137000982B90937C0080917A00806480937A000F
:10138000089560E00E94AA0980917A0086FDFCCF52
:101390000E949D0908950E94C1090895A0E0B0E04F
:1013A000E4EDF9E00C944A17EB0160E00E94AA0911
:1013B00080917A0086FDFCCF8E01C12CD12C760164
:1013C00080917A00806480937A0080917A0086FD13
:1013D000FCCF0E949D09C80ED91EE11CF11C0150D2
:1013E00011090115110561F7CE0196958795C03455
:1013F000D10538F48C0D9D1DBE010E94B516CB01A0
:101400000EC0A7019601280F391F411D511DCA01A9
:10141000B9019E0140E050E00E94DD16C901CDB740
:10142000DEB7E8E00C946617CF92DF92EF92FF925E
:10143000A0910001B09101019C010E941E176B0157
:101440007C010E949709882359F0C701B6016158B1
:101450007F4F8F4F9F4F2FEF30E040E050E00AC0AA
:10146000C701B60161507E4F8F4F9F4F2FEF33E082
:1014700040E050E00E94DD16C901FF90EF90DF9040
:10148000CF9008950E94CE090E94140A08951F93D8
:10149000CF93DF930E949709182F0E9486096AE074
:1014A00070E086E00E94420AEC01812F0E948C09C4
:1014B000CE01880F991F8C0F9D1F019696958795D9
:1014C000DF91CF911F9108950E94470A089590914E
:1014D0006701E0916201F0916301992311F0849119
:1014E00001C080812FEB280F2A3110F4805E08950F
:1014F000803249F49F012F5F3F4F30936301209367
:101500006201EF2B31F708951F93CF93DF930E9471
:10151000670AC0E0D0E01AE090ED980F9A30B8F476
:101520009E01129FE001139FD00D1124C80FD11D01
:1015300087FDDA95E09780916201909163010196B1
:1015400090936301809362010E94670AE5CFCE0108
:10155000DF91CF911F91089510926F0083E28093E5
:10156000800081E1809381001092820080E197E207
:10157000909389008093880010928B0010928A00CB
:10158000229A789408958F929F92AF92BF92DF92A1
:10159000EF92FF920F931F93CF93DF935C018B0128
:1015A000D42E80916401811105C081E08093640193
:1015B0000E94AC0A10920B01B7FE05C0E894B7F880
:1015C0002AE0F22E02C0FF24F394E09081002E2D39
:1015D000287FE22E48ECF49EC00111248A159B0559
:1015E000E0F4E50151E1A51657E2B50610F0C0E1BF
:1015F000D7E2BE017695679580E090E06058794625
:1016000087469F4F4E01A12CB12CA50194010E9449
:10161000DD1659018E2D816024C0C8E2FC9EC02DCC
:101620001124D0E0CA15DB0508F4E501BE0176956A
:1016300067959E0140E050E08AE0F81207C080E024
:1016400090E0605E734481449F4F06C080E090E06C
:1016500060537D4E8C4E9F4F0E94DD1659018E2D9A
:101660008260882E2AE0F21207C0CE0105966AE059
:1016700070E00E94B516EB01C83E43E0D40759F074
:101680009801DE010E941E1728EE33E040E050E092
:101690000E94FF16890110926F0080928100B09223
:1016A0008900A092880020918800309189004D2DFA
:1016B000403108F04FE080E190E0841B9109A901DE
:1016C00002C0569547958A95E2F750938B00409358
:1016D0008A0010936A010093690186B38FEF86BB7D
:1016E00081E080936F00DF91CF911F910F91FF9068
:1016F000EF90DF90BF90AF909F908F900895CF9321
:10170000DF93EB018F3F11F0411105C040E0BE01B6
:1017100088EE93E043C0813130F050EF580F5036DF
:1017200018F05FE501C050E0852F6CE00E94A9161B
:10173000682F74EF760390011124250F311D2C3092
:10174000310540F4F901EE0FFF1FEC5EFE4F2081E2
:10175000318102C020E030E0873081F0082E02C0E5
:10176000220F331F0A94E2F7823028F0C901059650
:101770006AE070E00CC0C90190580CC0C90136E0A5
:10178000880F991F3A95E1F7029665E070E00E9494
:10179000B516CB01403108F04FE0BE010E94C30AEC
:1017A000DF91CF910895A2E0B0E0E9EDFBE00C9469
:1017B000421790900A0180916601882321F0609180
:1017C0006501611117C077247394B0ECAB2EBDE5B1
:1017D000BB2E1AE0612E04E0802E80EDC82E87E03B
:1017E000D82E94E0E92EF12C04EF11E02FE0422EE8
:1017F000512C15C070E040E088EE93E00E94C30ACF
:101800001092650117C18636D4F5813609F4A9C056
:101810007CF58C3309F460C08E3381F493940E947C
:10182000670A20916201309163012F5F3F4F30932F
:10183000630120936201853631F752C0813209F08D
:101840008BC080920A01D0920901C0920801F092E7
:101850000701E092060110930501009304015092E4
:1018600003014092020110926601A4E09A2ED7CFA4
:101870008336A1F10CF478C010E082E077C08D3699
:10188000C1F194F4873691F174F18C3609F064C09B
:101890000E94840ABC019093070180930601809105
:1018A00008019091090151C08237C9F14CF48F367B
:1018B00009F052C00E94840A982E80930A01AFCF8B
:1018C000843781F1863709F047C00E94840A9093DB
:1018D000030180930201A3CF9A94A1CF10E020C00E
:1018E00010E084E043C010E085E040C010E087E0F5
:1018F0003DC00E94670A8C3619F41092660104C03C
:10190000709266011092650120916201309163012D
:101910002F5F3F4F309363012093620180CF11E02E
:1019200080E024C00E94840ABC01C5010E94B51653
:10193000669EC001679E900D1124909309018093CB
:10194000080160910601709107010E94B51670931D
:1019500005016093040163CF10926301109262014C
:1019600069C010E089E002C010E08BE0082F9CE025
:10197000999E000D11240E94670A982F977F933239
:1019800061F420916201309163012F5F3F4F3093EA
:101990006301209362010F5FEECF8D3271F42091CD
:1019A0006201309163012F5F3F4F309363012093B9
:1019B000620101500E94670AF0CF609104017091AA
:1019C00005018153883050F4E0900801F09009013E
:1019D0000E94840ABC01C7010E94B5167B01F694DF
:1019E000E79469837A830E94670A69817A818E32DB
:1019F00069F420916201309163012F5F3F4F309372
:101A00006301209362016E0D7F1DE9CF8091660115
:101A1000882339F09B013695279520936501621B39
:101A2000710940910201112311F08FEF01C0802F45
:101A30000E947F0B2296E0E10C945E171F920F929A
:101A40000FB60F9211242F933F934F935F936F9391
:101A50007F938F939F93AF93BF93EF93FF93809167
:101A6000690190916A019C012150310930936A010A
:101A700020936901892B11F510926F007894809161
:101A80008100887F81608093810080E197E290935C
:101A900089008093880010928B0010928A0081E068
:101AA00080930B018091620190916301892B31F049
:101AB00080916801811102C00E94D30BFF91EF91C8
:101AC000BF91AF919F918F917F916F915F914F9156
:101AD0003F912F910F900FBE0F901F90189510926D
:101AE0006F00909363018093620181E080936701AE
:101AF000109265010E94D30B08950E946F0D089506
:101B000081E090E06F9364E06A95F1F76F9101973F
:101B1000C9F708950F931F93CF93DF931AB1579886
:101B20005A98289AC0E0D0E00E94800D5C9A0E94EA
:101B3000800D09B15C980E94800D5C9A0E94800D16
:101B40005C98249607FF10C0AE0160E070E08091C1
:101B50006B0190916C01A0916D01B0916E014817DD
:101B600059076A077B0700F31AB9DF91CF911F91DC
:101B70000F91089595B1282F217030E0220F331F67
:101B8000482F467068E0469FA0011124242B9D7CBD
:101B9000292B25B99BB188708295807F9F77892BEF
:101BA0008BB95C9A0E94800D5C980E94800D08950C
:101BB000A0E0B0E0EEEDFDE00C944B17C82FD62E60
:101BC000E42E8091DB01811105C081E08093DB016F
:101BD0000E941E0E0E948A0D14B1D5B1FAB00BB14D
:101BE0002898DD2011F05A9A01C05A9894B1926356
:101BF00094B9579A81E0E81629F08C2F82958F705E
:101C00000E94BA0D8C2F8F700E94BA0DFAB80BB9D2
:101C100014B9D5B9CDB7DEB7E7E00C94671742E049
:101C200060E00E94D80D089542E061E00E94D80D66
:101C3000089541E060E00E94D80D089580E197E2A8
:101C4000A0E0B0E080936B0190936C01A0936D01D4
:101C5000B0936E01529A209A549A8EE190E00E94BD
:101C6000041183E00E94190E86E090E00E940411A6
:101C700083E00E94190E82E090E00E94041183E04C
:101C80000E94190E82E090E00E94041182E00E94FE
:101C9000190E82E090E00E94041188E20E940F0E6B
:101CA00088E00E940F0E81E00E940F0E86E00E94E5
:101CB0000F0E8CE00E940F0E089581E00E940F0E1F
:101CC0008091710190917201892BF9F060E0A0E29E
:101CD000262F30E070910C0180910D0190E001976A
:101CE000789FA001799F500D1124241735074CF4DB
:101CF000E0917101F0917201E20FF31FA0836F5F19
:101D0000E7CF10926F011092700108950E945D0E4E
:101D10000895CF93DF93EC018991882319F00E94F5
:101D2000140EFACFDF91CF9108950E94890E089585
:101D3000AAE0B0E0EEE9FEE00C944A171AE05AE09F
:101D4000C52ED12CE12CF12C062FA70196010E9463
:101D5000DD16CA01B9011150E1E0F0E0EC0FFD1F02
:101D6000E10FF11D005D2AE0629F0019112400833C
:101D7000611571058105910539F71A3058F4E1E0D4
:101D8000F0E0EC0FFD1FE10FF11D80810E94140EA9
:101D90001F5FF3CF2A96E8E00C946617CF92DF928C
:101DA000EF92FF926B017C0197FF0BC0F094E094DF
:101DB000D094C094C11CD11CE11CF11C8DE20E9486
:101DC000140EC701B6010E94980EFF90EF90DF90AD
:101DD000CF9008950E94CE0E0895A5E0B0E0E3EF05
:101DE000FEE00C944F17182F80E8898380EC8A83DB
:101DF00084E98B8384ED8C83FE01E60FF11D8181E4
:101E0000810F6D830E940F0E10936F016D8160939F
:101E100070012596E3E00C946B170E94ED0E089577
:101E2000883058F491E001C0990F8A95EAF7892F1C
:101E3000AAE2B0E0EBE2F0E021C08E3060F498EF6F
:101E4000980F81E001C0880F9A95EAF7A4E2B0E00C
:101E5000E5E2F0E013C0853160F492EF980F81E085
:101E600001C0880F9A95EAF7A7E2B0E0E8E2F0E057
:101E700005C080E0A0E0B0E0E0E0F0E06F3F19F4E2
:101E80009081982709C0662319F09081982B04C08F
:101E90002081982F9095922390839C91982B9C93CE
:101EA000089583EF8093B00084BD82E08093B100F9
:101EB00085BD1092B4001092B30018BC17BC60E04E
:101EC00086E00E94100F60E085E00E94100F60E045
:101ED0008BE00E94100F60E083E00E94100F0895D5
:101EE0008091DC01811105C081E08093DC010E94BA
:101EF000510F0895CF93DF93EC010E94700FD7FF2D
:101F000005C0D195C195D10981E001C080E0CF3FE6
:101F1000D10519F014F0CFEFD0E0882319F018BCE8
:101F2000C7BD02C0C8BD17BCDF91CF910895CF9344
:101F3000DF93EC010E94700FD7FF05C0D195C195CA
:101F4000D10981E001C080E0CF3FD10519F014F044
:101F5000CFEFD0E0882329F01092B400C093B300F3
:101F600004C0C093B4001092B300DF91CF910895E4
:101F7000CF93DF93EB010E947A0FCE010E94970F5F
:101F8000DF91CF9108950E94B80F089584B18D7CA0
:101F900084B985B1826385B985E090E06F9364E090
:101FA0006A95F1F76F910197C9F708958091DD0166
:101FB000811105C081E08093DD010E94C60F089564
:101FC000CF93C82F0E94D60F83B18C23E9F38AE008
:101FD00090E00E94041183B18C23B1F383B18C2370
:101FE000CF9108950E94E00F0895A1E0B0E0EBEFDB
:101FF000FFE00C94501789830E94D60F93B19095FF
:10200000898189232196E2E00C946C170E94F50FD8
:102010000895282F30E09AE0899FF0011124ED58AF
:10202000FE4F80859185009721F05281448154179D
:1020300080F08AE0829FF001839FF00D1124ED581B
:10204000FE4F9281848198130EC0858181110AC050
:1020500008954281DC01A40FB11D6C9382818F5FD2
:102060008283E7CF128208951F920F920FB60F92CC
:1020700011242F933F934F935F936F937F938F938D
:102080009F93AF93BF93EF93FF936091C60080E05F
:102090000E940910FF91EF91BF91AF919F918F9195
:1020A0007F916F915F914F913F912F910F900FBE54
:1020B0000F901F9018959AE0899FF0011124ED5818
:1020C000FE4F86819781892B59F0918183819817E2
:1020D00038F48081811104C08091C100806203C006
:1020E0008091C1008F7D8093C10008959AE0899FFF
:1020F000F0011124ED58FE4F26813781211531055D
:1021000041F041819381491720F49091C00095FDE1
:1021100003C00E945B1008959181D901A90FB11DE0
:102120009C919093C60091819F5F9183F2CF1F9203
:102130000F920FB60F9211242F933F934F935F93FB
:102140006F937F938F939F93AF93BF93EF93FF937F
:1021500080E00E947610FF91EF91BF91AF919F9127
:102160008F917F916F915F914F913F912F910F9040
:102170000FBE0F901F9018952F928F939F932FB69D
:1021800080918401909185010196809384019093C0
:10219000850190E080918601891F8093860190914E
:1021A0007E019C5F90937E0180917D0180519742DA
:1021B000C0F090937E0180937D0180917F0190918A
:1021C0008001019680937F019093800190E080913F
:1021D0008101891F8093810180918201891F8093F1
:1021E00082012FBE9F918F912F90189528EE33E09A
:1021F000019748F0F9016F9364E06A95F1F76F91E8
:102200003197C9F7F5CF08950E94F6100895E0E7D9
:10221000F0E080818E7F8083A0EBB0E08C918360C2
:102220008C93A1EBB0E08C91807F8C938C91826039
:102230008C93B89A8081816080837894089580918E
:10224000DE01811105C081E08093DE010E9407114B
:1022500008950E941F11E0E7F0E080818E7F808367
:1022600060917F0170918001809181019091820144
:1022700020812160208308950E94291108950E94E1
:102280001F11E0E7F0E080818E7F808310927F0154
:1022900010928001109281011092820110927E01B1
:1022A00010927D018081816080830895462FBC015A
:1022B00087E891E00E94E7130895682F87E891E08E
:1022C0000E9445150895462F20E0BC0187E891E063
:1022D0000E94161608950F93CF93DF9300D000D07D
:1022E0001F92CDB7DEB79C0185E0ECE2F1E0DE01A4
:1022F000119601900D928A95E1F7662311F00FEF88
:1023000001C003E145E0BE016F5F7F4F87E891E0C8
:102310000E943D1287E891E00E9414120E943F1132
:102320000F900F900F900F900F90DF91CF910F9122
:10233000089560E00E946B11089587E891E00E9483
:102340008B1608956F9364E06A95F1F76F9101978A
:10235000C9F70895FC01118210821382128215823E
:1023600014821682683068F489E290E09183808359
:102370008BE290E0938382838AE290E0958384836A
:102380001FC06E3070F483E290E09183808385E219
:1023900090E09383828384E290E095838483685005
:1023A0000FC0653198F486E290E09183808388E2E3
:1023B00090E09383828387E290E0958384836E50DC
:1023C00081E001C0880F6A95EAF786830895A7E047
:1023D000B0E0EDEEF1E10C944E178C01FC0111829E
:1023E0001082138212821582148217821682613142
:1023F00018F080E1808702C0FC016087F801208B23
:10240000642FCE0101960E94AA118F81F801818765
:102410008B819C81938782878D819E81958784871C
:102420002796E4E00C946A17FC01A485B585109703
:1024300079F08C919185892B8C93A285B3859C91A1
:102440008185809589238C9388EC90E00E94A2116D
:102450000895FC01A485B585109771F08C91918544
:10246000892B8C93A285B3858C919185892B8C9334
:1024700088EC90E00E94A2110895A7E0B0E0E3E4A8
:10248000F2E10C9443177C014B01642F3901402F7A
:1024900020E00E94E71187010F5B1F4FF8011082B7
:1024A0006701F2E4CF0ED11CF60110825701F3E46C
:1024B000AF0EB11CF5011082F70177866686512CAC
:1024C000F7018085581650F5652C712CF401E60D46
:1024D000F71D6081CE0101960E94AA112F81F7019C
:1024E000E60DF71D218B89819A81F301EE0FFF1F05
:1024F000EE0DFF1D92A381A38332910511F4F80123
:1025000008C08632910511F4F60103C0899721F4C1
:10251000F5018081822B80835394D2CF2796EFE000
:102520000C945F17A0E0B0E0E8E9F2E10C944517E5
:10253000EC015B016C0181E4C80ED11CF6018080C6
:102540007E01F2E4EF0EF11CF70170808E010D5B4D
:102550001F4FF801908080E09885891748F4F501B5
:10256000E80FF11DE80FF11D118210828F5FF4CF8B
:1025700084B1F6019081892B84B987B1F7019081EC
:10258000892B87B98AB1F8019081892B8AB985B1E5
:10259000F6019081892B85B988B1F7019081892B4B
:1025A00088B98BB1F8019081892B8BB98AE090E0D2
:1025B0000E94A21194B1F60180818095892384B98B
:1025C00097B1F70180818095892387B99AB1F80185
:1025D0008081809589238AB995B1F60180818095A3
:1025E000892385B998B1F70180818095892388B9BD
:1025F0009BB1F8018081809589238BB9E090B00070
:10260000D090B1008091B00083608093B00082E0F0
:102610008093B1004091B20080E090E02E853F852C
:102620008217930720F5C090B2002C2D241B820F37
:10263000911D03B1081132C0F6B0F7102FC029B1B7
:1026400029112CC010C0212F30E0A901440F551FC3
:10265000F501E40FF51F60817181672B21F11F5F88
:102660002885121780F37F2C802E4C2DD7CFE09237
:10267000B000D092B10020E08885281730F5F50130
:10268000E20FF11DE20FF11D80819181892B21F470
:102690008E859F85918380832F5FEECF03B1F6B047
:1026A00099B010E0DDCFDE01A40FB51F91960D901B
:1026B000BC91A02D4C91DE01A20FB31F51962C911D
:1026C000422369F691838083CACFCDB7DEB7EDE0B0
:1026D0000C946117EF92FF920F931F93CF93DF93A8
:1026E000FC019B01F0907C0000917A0047B118B189
:1026F00080917A0086FDFCCF80E09085891748F4B0
:10270000D901A80FB11DA80FB11D1D921C928F5F9A
:10271000F4CF97B182A18095892387B998B182A11E
:102720008095892388B987E880937A00E12C81A17C
:10273000E81610F0E12C29C050E08085581718F5F4
:10274000A52FB0E0EF01CA0FDB1F89898064809359
:102750007C0080917A00806480937A0080917A0076
:1027600086FDFCCF6091780070917900AA0FBB1FA5
:10277000A20FB31F8D919C911197860F971F8D9378
:102780009C935F5FDACFE394D2CF8085E816A0F404
:10279000E901CE0DD11DCE0DD11D61A170E0CB019F
:1027A00095958795A881B9818A0F9B1F0E94B516C0
:1027B00079836883E394E9CFF0927C0000937A00F8
:1027C00018B947B9CDB7DEB7E6E00C946817A0E2B8
:1027D000B0E0EDEEF3E10C944B178C017B01D42EAD
:1027E0008FEF840F823018F4C8010E942912D8019B
:1027F00050968C91B701811110C0C8010E949212AD
:10280000C8010E941412B2E0DB123AC0BE016F5F31
:102810007F4FC8010E9492120FC0C8010E946A1324
:10282000C8010E941412E2E0DE122AC0BE016F5FEE
:102830007F4FC8010E946A1340E0F8018085481765
:10284000F8F4842F90E0880F991FF701E80FF91F23
:1028500021E030E02C0F3D1F820F931FD8011E9600
:102860002D913C911F97DC018D919C91281B390B78
:1028700080819181820F931F918380834F5FDDCF91
:10288000A096E7E00C9467172F923F925F926F92A9
:102890007F928F929F92AF92BF92CF92DF92EF92F0
:1028A000FF920F931F93CF93DF93CDB7DEB7C05640
:1028B000D1090FB6F894DEBF0FBECDBF8C014B011E
:1028C0005A01522EDA018D919C91892B31F0F4013D
:1028D00080819181892BF1F424C0D80118968C91C4
:1028E00090E0880F991F0E947D17F50191838083E6
:1028F000009709F4B1C0FC0120E030E0D80118963F
:102900008C9190E02817390714F7119211922F5FDC
:102910003F4FF4CFE12CF12C6E01B1E2CB0ED11C74
:1029200021C0F801808590E0880F991F0E947D17D3
:10293000D4018D939C93009709F48EC0FC0120E094
:1029400030E0D80118968C9190E02817390714F7D9
:10295000D8011E968D919C911F97819391932F5F23
:102960003F4FEFCF452DBE016F5B7F4FC8010E94E7
:10297000E713F8016084712CFE01EF5BFF4FC60185
:102980009E012F5F3F4F190120E030E026153705EB
:102990004CF5E114F10489F0DC016D917C914081EA
:1029A00051816417750748F0D1016D917C91408188
:1029B00051814617570748F00DC040815181DC0115
:1029C0004D935C93E114F10479F740815181D10179
:1029D0004D935C932F5F3F4FB2E02B0E311C32962C
:1029E0000296D4CFEFEFEE1AFE0AFAE0EF16F104EA
:1029F00009F0B8CF9E012F5F3F4F7901360180E08B
:102A000090E0F801208530E0821793072CF5D7017C
:102A10002D913D917D01B3016C197D09D501ED9199
:102A2000FC91E60FF71F408151814217530710F4C4
:102A300031832083F301219131913F01D401ED9144
:102A4000FC91E60FF71F408151812417350710F4E0
:102A5000318320830196D5CFC05ADF4F0FB6F8944B
:102A6000DEBF0FBECDBFDF91CF911F910F91FF90C1
:102A7000EF90DF90CF90BF90AF909F908F907F901E
:102A80006F905F903F902F9008951F93CF93DF93A7
:102A9000EC01162F8FEF860F823018F0662359F065
:102AA00014C021E0AE014E5F5F4FBE01CE010E9417
:102AB0004414123051F4AE014A5F5F4FBE016C5FA7
:102AC0007F4F20E0CE010E944414DF91CF911F91EF
:102AD0000895A0E0B0E0EFE6F5E10C944917EC01B1
:102AE0008B01B42E842F8D7F51F48C819D81892B95
:102AF00009F497C08E819F81892B09F492C08FEFD2
:102B00008B0D823050F488819981892B09F489C01A
:102B10008A819B81892B09F484C04B2DB801CE0199
:102B20000E94E713780100E010E0C12CD12C8885C9
:102B300090E0C816D9060CF074C081E0B8120AC043
:102B4000EA81FB81E00FF11F0190F081E02DA88167
:102B5000B9810DC08C819D812E813F81B1100CC047
:102B6000F901E00FF11F0190F081E02DDC01A00FD1
:102B7000B11F8D919C9128C0FC01E00FF11F408195
:102B80005181E881F981E00FF11F80819181EE850B
:102B9000FF854817590710F4CF0104C08E0F9F1FFF
:102BA000841B950BD901A00FB11F2D913C91AA81D7
:102BB000BB81A00FB11F4D915C912417350720F008
:102BC000E40FF51FE21BF30BE81BF90BA9F0D7018B
:102BD0002D913C9140E050E0281B390B41095109EF
:102BE000A8EEB3E00E942D179F0140E050E00E9444
:102BF000FF1637FD0AC002C020E030E0293EB3E0F6
:102C00003B072CF028EE33E002C020E030E0F70173
:102C1000219331937F01FFEFCF1ADF0A0E5F1F4F21
:102C200086CFCDB7DEB7E9E00C946517A0E0B0E041
:102C3000ECE1F6E10C944017EC018B01822E0E942E
:102C400069152884E801412C512C320100E010E084
:102C5000C12CD12C7601312C912C58EEA52E53E0AD
:102C6000B52E921421F1E991F991882021F0C50146
:102C70008E1B9F0BFC01E93CF10524F4E333F105C5
:102C800074F002C033243394DF01A30192010E9447
:102C90003817C60ED71EE81EF91E0E0F1F1F93947D
:102CA00098EE490E93E0591E611C711CDACF311069
:102CB0001EC0492D50E04150510924EF31E0429FA0
:102CC000C001439F900D529F900D11242091CB0184
:102CD0003091CC0128173907B4F088EE93E0489F73
:102CE0009001499F300D589F300D11240EC098015E
:102CF00040E050E0C701B6010E94DD163093CC01E0
:102D00002093CB0102C020E030E0C901CDB7DEB78F
:102D1000E2E10C945C17CF93DF93EC018A819B81F5
:102D2000009711F00E9415188E819F81009711F075
:102D30000E94151888819981009711F00E9415183A
:102D40008C819D81009711F00E941518DF91CF9121
:102D50000895991B79E004C0991F961708F0961BF7
:102D6000881F7A95C9F780950895AA1BBB1B51E16E
:102D700007C0AA1FBB1FA617B70710F0A61BB70BEB
:102D8000881F991F5A95A9F780959095BC01CD0190
:102D9000089597FB072E16F4009407D077FD09D00D
:102DA0000E94B51607FC05D03EF4909581959F4F83
:102DB0000895709561957F4F0895A1E21A2EAA1B80
:102DC000BB1BFD010DC0AA1FBB1FEE1FFF1FA217DB
:102DD000B307E407F50720F0A21BB30BE40BF50BD8
:102DE000661F771F881F991F1A9469F76095709561
:102DF000809590959B01AC01BD01CF010895052EF2
:102E000097FB1EF400940E94161757FD07D00E94EE
:102E1000DD1607FC03D04EF40C9416175095409520
:102E2000309521953F4F4F4F5F4F08959095809576
:102E3000709561957F4F8F4F9F4F0895A29FB0016E
:102E4000B39FC001A39F700D811D1124911DB29FDE
:102E5000700D811D1124911D08950E941E17A59FBC
:102E6000900DB49F900DA49F800D911D1124089585
:102E7000B7FF0C942D170E942D17821B930B0895FA
:102E80002F923F924F925F926F927F928F929F927A
:102E9000AF92BF92CF92DF92EF92FF920F931F9368
:102EA000CF93DF93CDB7DEB7CA1BDB0B0FB6F89419
:102EB000DEBF0FBECDBF09942A88398848885F8459
:102EC0006E847D848C849B84AA84B984C884DF80CA
:102ED000EE80FD800C811B81AA81B981CE0FD11DAE
:102EE0000FB6F894DEBF0FBECDBFED010895EE0F13
:102EF000FF1F0590F491E02D09940F931F93CF933A
:102F0000DF938230910510F482E090E0E09143027B
:102F1000F091440220E030E0A0E0B0E0309719F1F9
:102F2000408151810281138148175907C8F08417E5
:102F3000950769F4109731F012960C931297139637
:102F40001C9327C0009343021093440222C0211512
:102F5000310519F04217530718F49A01BD01EF012A
:102F6000DF01F801DBCF21153105F9F0281B390B02
:102F70002430310580F48A819B816115710521F02F
:102F8000FB019383828304C09093440280934302A5
:102F9000FE01329644C0FE01E20FF31F819391932C
:102FA00022503109398328833AC02091410230915F
:102FB0004202232B41F420911001309111013093F2
:102FC00042022093410220910E0130910F01211500
:102FD000310541F42DB73EB74091120150911301D4
:102FE000241B350BE0914102F0914202E217F307F6
:102FF000A0F42E1B3F0B2817390778F0AC014E5F69
:103000005F4F2417350748F04E0F5F1F5093420261
:10301000409341028193919302C0E0E0F0E0CF0140
:10302000DF91CF911F910F910895CF93DF93009778
:1030300009F481C0FC01329713821282A0914302ED
:10304000B0914402109781F420813181820F931F47
:1030500020914102309142022817390751F5F0932F
:103060004202E093410267C0ED0120E030E0CE175C
:10307000DF0740F44A815B819E0141155105F1F063
:10308000EA01F5CFD383C28340815181840F951F1C
:10309000C817D90759F488819981840F951F029622
:1030A000918380838A819B8193838283211531055B
:1030B00029F4F0934402E09343023DC0E901FB830D
:1030C000EA8349915991C40FD51FEC17FD0761F4AC
:1030D00080819181840F951F0296E90199838883ED
:1030E000828193819B838A83E0E0F0E012968D9148
:1030F0009C911397009719F0FD01DC01F7CF8D919A
:103100009C9111979D012E5F3F4F820F931F20913D
:103110004102309142022817390769F4309729F4A7
:10312000109244021092430202C013821282B093A2
:103130004202A0934102DF91CF91089510E0CDE4C7
:10314000D0E004C0FE010E9477172196CE34D1074B
:06315000C9F7F894FFCF5F
:1031560088130F00F4010400D007040108020000E0
:10316600450220009C01B501CF01EA0107022602B3
:10317600470269028E02B502DE020A030E0F101123
:10318600126D56006472756B204200202000476F56
:1031960021006472756B206F700042206B6E6F7039
:1031A60000646963687462696A0068656565656C70
:0231B600000017
:00000001FF
