:100000000C9463000C9480000C9480000C9480008D
:100010000C9480000C9480000C9480000C94800060
:100020000C9480000C942D130C9480000C94800090
:100030000C9480000C945E100C9480000C94800052
:100040000C9480000C9480000C94A5120C9408135E
:100050000C9480000C9480000C9480000C94800020
:100060000C9480000C948000EA01FC010E02200236
:100070003102420254026E02A302B202C102E50240
:1000800009032D037203560305A84CCDB2D44EB913
:100090003836A9020C50B9918688083CA6AAAA2A2B
:1000A000BE000000803F3E6733323E3E6333320085
:1000B0003E6733323E3E633332003E6733323E3E6C
:1000C00063333200B81311241FBECFEFD8E0DEBF78
:1000D000CDBF11E0A0E0B1E0ECE9F1E302C0059092
:1000E0000D92AA32B107D9F722E0AAE2B1E001C02D
:1000F0001D92A630B207E1F70E94E2040C94C118E9
:100100000C94000086EA90E00E94BD100895CF9202
:10011000DF92EF92FF920F931F93FB0100811181F9
:1001200022813381FC01C080D180E280F380FB0119
:10013000C082D182E282F382FC0100831183228398
:1001400033831F910F91FF90EF90DF90CF90089530
:100150002F923F924F925F926F927F928F929F92D7
:10016000AF92BF92CF92DF92EF92FF920F931F93C5
:10017000CF93DF93CDB7DEB7A5970FB6F894DEBF68
:100180000FBECDBF9BA38AA36CA37DA3069698A3A5
:100190008F8FB6C07E8E6D8EF3010190F081E02DC1
:1001A000FA8FE98FBF01FF0F880B990B0E94A80BF4
:1001B0006B017C013C8E2B8EF10100811181B80115
:1001C000012E000C880B990B0E94A80B4B015C01BF
:1001D0009B01AC010E945D0C698B7A8B8B8B9C8B95
:1001E000A5019401C501B4010E945D0C4B015C01A5
:1001F000A7019601C701B6010E945D0C9B01AC01ED
:10020000C501B4010E94FF0A0E94D80C6B017C0159
:10021000F20161937193819391932F01E98B59A21C
:1002200080809180A280B380A50194010E94580C27
:100230001816D4F4B2018D899E890E948700F301BB
:1002400082819381208131813383228391838083D2
:10025000F1018281938120813181338322839183D3
:1002600080831F8A188E36C0C701B6010E94700BAA
:100270007B01C501B4010E94700BE616F70651F52B
:10028000EB8DFC8D828193810817190719F5ED8D8F
:10029000FE8D82819381298D3A8D28173907D4F4F8
:1002A000698979A18D899E890E948700ED8DFE8DD7
:1002B0008281938120813181338322839183808362
:1002C000EB8DFC8D82819381208131813383228368
:1002D00091838083F2E06F0E711C22E0220E311CAC
:1002E0008D899E8904969E8B8D8BEF8DF8A16E165D
:1002F0007F0609F04FCF2F89388D2130310569F005
:100300006AA07BA02CA03DA0CE0101962C019E8B63
:100310008D8B91E09F8B188E3DCFA5960FB6F894EC
:10032000DEBF0FBECDBFDF91CF911F910F91FF9028
:10033000EF90DF90CF90BF90AF909F908F907F9085
:100340006F905F904F903F902F9008952F923F9223
:100350004F925F926F927F928F929F92AF92BF92D5
:10036000CF92DF92EF92FF920F931F93CF93DF9381
:100370008C0185E090E0F80191A780A7C1E0D0E072
:100380000F2EF7E08F2E912CF02D0F2EF6E0AF2ED2
:10039000B12CF02D0F2EF5E0CF2ED12CF02D68943E
:1003A000EE24E2F8F12C0F2EF3E06F2E712CF02DDD
:1003B0006894442441F8512C22242394312C0E9427
:1003C000C709019788309105D0F78C5C9F4FFC01DD
:1003D0000C944117FE01EE0FFF1FE00FF11F318259
:1003E00020822AE037ED43E65FE362E586E490E0B1
:1003F0000E9426052196E3CFFE01EE0FFF1FE00FBE
:10040000F11F518240822AE037ED43E65FE36CE45E
:1004100086E490E00E9426052196D1CF2AE037EDB0
:1004200043E65FE36CE486E490E00E942605FE016B
:10043000EE0FFF1FE00FF11F718260822196BFCF88
:10044000FE01EE0FFF1FE00FF11FF182E0822AE0B4
:1004500037ED43E65FE366E480E590E00E94260521
:10046000AECFFE01EE0FFF1FE00FF11FD182C08261
:100470002AE037ED43E65FE366E480E590E00E9422
:1004800026059DCF2AE037ED43E65FE36CE486E482
:1004900090E00E9426052196FE01EE0FFF1FE00F5F
:1004A000F11FB182A0828BCFFE01EE0FFF1FE00F84
:1004B000F11F918280822AE037ED43E65FE362E537
:1004C00086E490E00E9426052AE037ED43E65FE3EC
:1004D00062E586E490E00E94260571CFFE01EE0FF2
:1004E000FF1FE00FF11F88E090E0918380831C16CE
:1004F0001D060CF0FCC0D80121E030E0E12CF12C0D
:1005000080E090E048E26894662463F8712C0F2E36
:10051000F6E04F2E512CF02D0F2EF3E02F2E312C24
:10052000F02D6894CC24C1F8D12CAA24A394B12C2A
:10053000ED91FD913197E830F10508F0D3C0E45C0E
:10054000FF4F0C944117429FF001439FF00D11247F
:10055000E00FF11FBC01660F771FE60FF71FB18296
:10056000A082C0C0429FF001439FF00D1124E00F14
:10057000F11FBC01660F771FE60FF71FD182C08203
:10058000B1C06D917C9111976730710579F4429FEC
:10059000F001439FF00D1124E00FF11FBC01660F25
:1005A000771FE60FF71FB182A0829CC0429FF00127
:1005B000439FF00D1124E00FF11FBC01660F771F60
:1005C000E60FF71FD182C0828DC06D917C9111978B
:1005D0006730710579F4429FF001439FF00D1124BB
:1005E000E00FF11FBC01660F771FE60FF71FB18206
:1005F000A08278C0429FF001439FF00D1124E00FCC
:10060000F11FBC01660F771FE60FF71F31822082B2
:1006100069C06D917C9111976730710579F4429FA3
:10062000F001439FF00D1124E00FF11FBC01660F94
:10063000771FE60FF71FB182A08254C0429FF001DE
:10064000439FF00D1124E00FF11FBC01660F771FCF
:10065000E60FF71FD182C08245C0FFEFEF1AFF0AF5
:10066000429F4001439F900C1124800E911EFC017B
:10067000EE0FFF1FE80DF91D5182408252E0E51692
:10068000F10481F5BC0161507109660F771FF40117
:10069000E60FF71F608171816630710519F5959637
:1006A0003C922E929497E12CF12C1CC0429FF001B9
:1006B000439FF00D1124E00FF11FBC01660F771F5F
:1006C000E60FF71F7182608264E170E0615071098A
:1006D000E9F7FD013297118210822430310514F4BC
:1006E0002F5F3F4F0196C817D90709F021CFCE01E0
:1006F000DF91CF911F910F91FF90EF90DF90CF90FE
:10070000BF90AF909F908F907F906F905F904F9031
:100710003F902F900895CF92DF92EF92FF920F9328
:100720001F93CF93DF936C01EB017A018901413074
:10073000510511F001E010E0C230D10549F42AE082
:1007400037ED43E65FE362E586E490E00E9426052C
:1007500028E22C9FC0012D9F900D1124E801CC0FA1
:10076000DD1FC80FD91FCC0DDD1D0E9473090E942B
:10077000C709892BD1F30E94C709892BC9F1E1145C
:10078000F104B1F58991999182309105A1F01CF4A1
:10079000019739F02DC083309105B9F00597F9F034
:1007A00027C02AE037ED43E65FE362E586E490E0A8
:1007B0000E942605DACF2AE037ED43E65FE36CE4DA
:1007C00086E490E00E942605D0CF2AE037ED43E68C
:1007D0005FE366E480E590E00E942605C6CF2AE04C
:1007E00037ED43E65FE366E480E090E00E94260593
:1007F000DF91CF911F910F91FF90EF90DF90CF90FD
:1008000008954F925F926F927F928F929F92AF92D4
:10081000BF92CF92DF92EF92FF920F931F93CF93ED
:10082000DF93082F192FD62FC72F4A01CA010E9424
:10083000A6013C019C0140E050E061E070E0C40191
:100840000E948B032AE037ED43E65FE362E586E42E
:1008500090E00E94260582E390E00E9475132AE052
:1008600037ED43E65FE362E580E090E00E94260515
:10087000C02ED12EED2EFC2EA12CB12C00E010E0CC
:1008800044244394512C0CC084E0A816B10411F404
:10089000042D152DE2E0CE0ED11CF2E0EF0EF11C7E
:1008A000E60188819981992354F42AE037ED43E6E3
:1008B0005FE36CE486E490E00E94260519C01816F8
:1008C00019061CF00130110599F42AE037ED43E6D2
:1008D0005FE362E586E490E00E94260509C02AE015
:1008E00037ED43E65FE366E48AE590E00E94260583
:1008F00088819981892B99F70130110581F32AE0CC
:1009000037ED43E65FE366E480E090E00E94260571
:10091000E70188819981992374F42AE037ED43E651
:100920005FE36CE486E490E00E942605888199816B
:10093000892B71F41AC018161906C4F72AE037ED8E
:1009400043E65FE362E586E490E00E942605EECF91
:100950002AE037ED43E65FE366E48AE590E00E9433
:10096000260588819981892B99F78AEB90E00E946E
:10097000BD1088EC90E00E9475138FEFA81AB80A9A
:10098000E5E0AE16B10409F07FCF930141E050E0FD
:1009900061E070E0C4010E948B0380EB90E00E9454
:1009A000BD10DF91CF911F910F91FF90EF90DF90DD
:1009B000CF90BF90AF909F908F907F906F905F90FF
:1009C0004F9008950F931F93CF93DF93CDB7DEB76A
:1009D000C056D1090FB6F894DEBF0FBECDBFCE0111
:1009E00001960E94A6018C01BE01675A7F4FCE017D
:1009F0008F5A9F4F0E948200BE01675A7F4FCE01DF
:100A00008F5A9F4F0E94A800980140E050E061E09B
:100A100070E0CE0101960E948B03AE014F5F5F4FE5
:100A2000BE01675A7F4FCE018F5A9F4F0E9401042B
:100A300080E090E0C05ADF4F0FB6F894DEBF0FBEE3
:100A4000CDBFDF91CF911F910F9108952F923F92CB
:100A50004F925F926F927F928F929F92AF92BF92CE
:100A6000CF92DF92EF92FF920F931F93CF93DF937A
:100A7000CDB7DEB766970FB6F894DEBF0FBECDBF19
:100A80001C0129833A834B835C83663461F020F434
:100A9000623409F495C008C46C3409F4A9C2623503
:100AA00009F41BC101C480919B0190919C019101AB
:100AB000281B390B45E650E05A874987412C512CB9
:100AC0003201032E000C440B550B2D833E834F83C4
:100AD00058870E94AD138B012BED3FE049EC50E4A9
:100AE000C301B2010E945D0C0E94CA0C23E839EFD9
:100AF00042E25EE30E945D0C9B01AC01C301B201C6
:100B00000E94FE0A4B015C016D817E818F81988578
:100B10000E94A80B9B01AC01C501B4010E945D0CB1
:100B20004B015C0160919B0170919C01072E000CB0
:100B3000880B990B0E94A80B9B01AC01C501B40165
:100B40000E94FF0A0E94700BDC01CB01BC010E94D5
:100B500077124801110FAA08BB080E94AD1368194B
:100B600079098A099B090E94A60B6B017C0120E090
:100B700030E040E251E469817A818B819C810E945E
:100B80005D0C9B01AC01C701B6010E946B0B882371
:100B900024F32AE037ED43E25CE3C301B2010E9493
:100BA000FF0A2B013C01A985BA851197BA87A9874D
:100BB000AB2B09F08ECF30929C0120929B017AC31F
:100BC00080919B0190919C019101281B390B45E676
:100BD00050E05A874987412C512C3201032E000CDA
:100BE000440B550B2D833E834F8358870E94AD13D2
:100BF0008B012BED3FE049EC50E4C301B2010E94B0
:100C00005D0C0E94CA0C23E839EF42E25EE30E94C9
:100C10005D0C9B01AC01C301B2010E94FE0A4B01B5
:100C20005C016D817E818F8198850E94A80B9B015C
:100C3000AC01C501B4010E945D0C4B015C016091E7
:100C40009B0170919C01072E000C880B990B0E9450
:100C5000A80B9B01AC01C501B4010E94FF0A0E94D0
:100C6000700BDC01CB01BC010E9477124801110F0F
:100C7000AA08BB080E94AD13681979098A099B0963
:100C80000E94A60B6B017C0120E030E040E251E4C1
:100C900069817A818B819C810E945D0C9B01AC01F2
:100CA000C701B6010E946B0B882324F32AE037EDBD
:100CB00043E25CE3C301B2010E94FF0A2B013C0145
:100CC000A985BA851197BA87A987AB2B09F08ECF72
:100CD00030929C0120929B01EDC2809199019091EC
:100CE0009A01820D931D2091970130919801A101E5
:100CF000421B530B9A0105E610E01D821E821F82E3
:100D00001886AC01990F660B770B4D875E876F874E
:100D1000788BB901330F880B990B698B7A8B8B8B8E
:100D20009C8B0E94AD137E8B6D8B60919B017091AB
:100D30009C01072E000C880B990B0E94A80B698759
:100D40007A878B879C872BED3FE049EC50E46D81DF
:100D50007E818F8198850E945D0C0E94CA0C23E8D9
:100D600039EF42E25EE30E945D0C2D813E814F81AE
:100D700058850E94FF0A4B015C01609199017091B6
:100D80009A01072E000C880B990B0E94A80B2B01CF
:100D90003C016D857E858F8598890E94A80BA501F1
:100DA00094010E945D0C9B01AC01C301B2010E9441
:100DB000FE0A29853A854B855C850E94FF0A0E94C0
:100DC000700B2B013C016091970170919801072EE7
:100DD000000C880B990B0E94A80B6B017C016989A0
:100DE0007A898B899C890E94A80BA50194010E9495
:100DF0005D0C9B01AC01C701B6010E94FF0A298569
:100E00003A854B855C850E94FF0A0E94700BDC01CD
:100E1000CB01B2010E9477128D899E894C01990FF6
:100E2000AA08BB080E94AD136B017C0120E030E0F2
:100E300040E251E469817A818B819C810E945D0C42
:100E40002B013C01C701B601681979098A099B0980
:100E50000E94A60BA30192010E946B0B882314F33E
:100E60002AE037ED43E25CE36D817E818F819885D6
:100E70000E94FF0A6D837E838F839887015011093A
:100E800009F04FCF882799278219930990939A01E7
:100E900080939901309298012092970105E610E025
:100EA00019821A821B821C829C01990F440B550BDC
:100EB00029873A874B875C87C12CD12C76010E9409
:100EC000AD137E876D8760919B0170919C01072E09
:100ED000000C880B990B0E94A80B69837A838B8383
:100EE0009C832BED3FE049EC50E4C701B6010E9422
:100EF0005D0C0E94CA0C23E839EF42E25EE30E94D7
:100F00005D0CA70196010E94FF0A4B015C016985F7
:100F10007A858B859C850E94A80B9B01AC01C5013D
:100F2000B4010E945D0C4B015C01609199017091CC
:100F30009A01072E000C880B990B0E94A80BA501A3
:100F400094010E94FE0A29813A814B815C810E94B2
:100F5000FF0A0E94700B6D837E838F839887609158
:100F6000970170919801072E000C880B990B0E9435
:100F7000A80BA50194010E94FF0A29813A814B81A7
:100F80005C810E94FF0A0E94700BDC01CB016D8125
:100F90007E810E9477124D855E854A01550FAA0811
:100FA000BB080E94AD13681979098A099B090E9440
:100FB000A60B9B01AC01C301B2010E94580C18168C
:100FC00084F32AE037ED43E25CE3C701B6010E94F7
:100FD000FF0A6B017C010150110909F070CF1092DA
:100FE0009A0110929901109298011092970162C192
:100FF0008091990190919A019101281B390B809160
:10100000970190919801820D931D65E670E07A8BAF
:10101000698B1D821E821F821886A901330F660B01
:10102000770B49875A876B877C879C01990F440B04
:10103000550B2D873E874F87588B0E94AD138B0130
:101040002BED3FE049EC50E46D817E818F819885E6
:101050000E945D0C0E94CA0C23E839EF42E25EE375
:101060000E945D0C2D813E814F8158850E94FF0AB0
:101070006B017C016091990170919A01072E000C1F
:10108000880B990B0E94A80B4B015C0169857A853E
:101090008B859C850E94A80BA70196010E945D0C80
:1010A0009B01AC01C501B4010E94FF0A0E94700BB4
:1010B0004B015C016091970170919801072E000C23
:1010C000880B990B0E94A80B2B013C016D857E8536
:1010D0008F8598890E94A80BA70196010E945D0C3C
:1010E0009B01AC01C301B2010E94FE0A0E94700B79
:1010F000DC01CB01B4010E9477124801110FAA084C
:10110000BB080E94AD132B013C0120E030E040E21F
:1011100051E469817A818B819C810E945D0C6B0115
:101120007C01C301B201681979098A099B090E94EF
:10113000A60BA70196010E946B0B882314F32AE0EB
:1011400037ED43E25CE36D817E818F8198850E945B
:10115000FF0A6D837E838F839887A989BA89119747
:10116000BA8BA98BAB2B09F068CF30929A012092F1
:10117000990131942194310830929801209297017D
:1011800025E630E019821A821B821C82A101330CF1
:10119000660B770B4D835E836F8378873A87298749
:1011A000812C912C54010E94AD138B012BED3FE05B
:1011B00049EC50E4C501B4010E945D0C0E94CA0CC8
:1011C00023E839EF42E25EE30E945D0CA501940141
:1011D0000E94FF0A2B013C016D817E818F819885E1
:1011E0000E94A80B9B01AC01C301B2010E945D0CDF
:1011F0002B013C016091990170919A01072E000C1E
:10120000880B990B0E94A80BA30192010E94FF0A70
:101210000E94700B69837A838B839C836091970112
:1012200070919801072E000C880B990B0E94A80B57
:10123000A30192010E94FE0A0E94700BDC01CB0107
:1012400069817A810E9477122801110F6608770858
:101250000E94AD1364197509860997090E94A60BAF
:101260009B01AC01C701B6010E94580C181684F30B
:101270002AE037ED43E25CE3C501B4010E94FF0AB6
:101280004B015C0169857A85615071097A876987AC
:10129000672B09F088CF10929A0110929901109251
:1012A00098011092970106C060E070E080E090E045
:1012B0000E94771266960FB6F894DEBF0FBECDBFC0
:1012C000DF91CF911F910F91FF90EF90DF90CF9022
:1012D000BF90AF909F908F907F906F905F904F9056
:1012E0003F902F900895CF93DF9361E088EF91E0D6
:1012F0000E94B013EC010E94C111CE3987E0D807DB
:10130000C8F45F9A579AC830D74050F42AE037EDB6
:1013100043E65FE36CE48CE390E00E94260534C072
:101320002AE037ED43E65FE36CE48DE290E00E9453
:1013300026052AC0C33088E0D807C8F0599A519AC8
:10134000C939D84050F02AE037ED43E65FE362E563
:101350008CE390E00E94260517C02AE037ED43E6B3
:101360005FE362E58DE290E00E9426050DC059988A
:10137000519A5F98579A2AE037ED43E65FE366E4B7
:101380008CE390E00E942605DF91CF91089561E003
:1013900088EF91E00E94B0138091F8019091F901DB
:1013A000893027E0920700F12091FA013091FB018A
:1013B000283E3340C8F42091FC013091FD01283EC5
:1013C000334008F0FBC02091FE013091FF01283E20
:1013D000334008F0F3C02091000230910102283E12
:1013E000334008F4CAC0EAC0883E23E0920700F503
:1013F0002091FA013091FB01283E3340C8F420913E
:10140000FC013091FD01283E334008F0DDC0209101
:10141000FE013091FF01283E334008F0D5C02091F5
:101420000002309101022930374008F4CDC0A8C035
:10143000893027E0920708F4D3C02091FA01309157
:10144000FB01283E3340B0F42091FC013091FD01B6
:101450002930374078F02091FE013091FF01283E7D
:10146000334040F42091000230910102293037408E
:1014700008F089C02091FA013091FB01293047E042
:101480003407B0F04091FC015091FD01483E5340BB
:1014900078F44091FE015091FF014930574040F0EF
:1014A00040910002509101024930574008F06EC04F
:1014B000283E3340C8F42091FC013091FD012930D1
:1014C000374008F495C02091FE013091FF01283E7D
:1014D000334008F07FC02091000230910102283E85
:1014E000334008F456C076C0883E23E0920718F5D2
:1014F0002091FA013091FB01283E3340E0F4209125
:10150000FA013091FB01283E3340A8F42091FC0100
:101510003091FD01283E334070F42091FE0130915E
:10152000FF01283E334038F420910002309101023F
:10153000283E334088F18930974088F18091FA0144
:101540009091FB018930974068F18091FC01909166
:10155000FD018930974048F18091FE019091FF0193
:101560008930974028F180910002909101028930E2
:10157000974008F188E090E0089582E090E00895B7
:1015800081E090E0089586E090E0089583E090E0A7
:10159000089585E090E0089587E090E0089580E068
:1015A00090E0089580E090E0089580E090E0089554
:1015B00080E090E0089580E090E00895883E43E068
:1015C000940708F03ACF1BCF893067E0960708F000
:1015D0003BCF06C0883E23E0920708F490CFABCF04
:1015E000883E43E0940708F483CF80E090E00895BC
:1015F000883E63E0960708F482CF9DCF5058BB2702
:10160000AA270E94160B0C941E0C0E94100C38F096
:101610000E94170C20F039F49F3F19F426F40C9423
:101620000D0C0EF4E095E7FB0C94070CE92F0E94DB
:101630002F0C58F3BA17620773078407950720F039
:1016400079F4A6F50C94510C0EF4E0950B2EBA2FFC
:10165000A02D0B01B90190010C01CA01A0011124B8
:10166000FF27591B99F0593F50F4503E68F11A1664
:10167000F040A22F232F342F4427585FF3CF4695F5
:1016800037952795A795F0405395C9F77EF41F1617
:10169000BA0B620B730B840BBAF09150A1F0FF0FE1
:1016A000BB1F661F771F881FC2F70EC0BA0F621FCD
:1016B000731F841F48F4879577956795B795F795BD
:1016C0009E3F08F0B0CF9395880F08F09927EE0F52
:1016D0009795879508950E94E30B08F481E008959B
:1016E0000E94770B6894B1110C94520C08950E94DB
:1016F000370C88F09F5798F0B92F9927B751B0F061
:10170000E1F0660F771F881F991F1AF0BA95C9F785
:1017100014C0B13091F00E94510CB1E008950C94C6
:10172000510C672F782F8827B85F39F0B93FCCF379
:10173000869577956795B395D9F73EF49095809502
:10174000709561957F4F8F4F9F4F0895E89409C022
:1017500097FB3EF490958095709561957F4F8F4FE4
:101760009F4F9923A9F0F92F96E9BB279395F695FA
:10177000879577956795B795F111F8CFFAF4BB0F78
:1017800011F460FF1BC06F5F7F4F8F4F9F4F16C0DC
:10179000882311F096E911C0772321F09EE8872F66
:1017A000762F05C0662371F096E8862F70E060E022
:1017B0002AF09A95660F771F881FDAF7880F96959B
:1017C000879597F90895990F0008550FAA0BE0E83F
:1017D000FEEF16161706E807F907C0F012161306F3
:1017E000E407F50798F0621B730B840B950B39F433
:1017F0000A2661F0232B242B252B21F408950A2699
:1018000009F4A140A6958FEF811D811D089597F9D8
:101810009F6780E870E060E008959FEF80EC089596
:1018200000240A94161617061806090608950024BF
:101830000A9412161306140605060895092E039439
:10184000000C11F4882352F0BB0F40F4BF2B11F4AD
:1018500060FF04C06F5F7F4F8F4F9F4F089557FD0C
:101860009058440F551F59F05F3F71F04795880F0E
:1018700097FB991F61F09F3F79F0879508951216A5
:1018800013061406551FF2CF4695F1DF08C0161651
:1018900017061806991FF1CF869571056105089402
:1018A0000895E894BB2766277727CB0197F9089519
:1018B0000E94E30B08F48FEF08950E94700C0C94C3
:1018C0001E0C0E94100C38F00E94170C20F095237B
:1018D00011F00C94070C0C940D0C11240C94520C68
:1018E0000E942F0C70F3959FC1F3950F50E0551F88
:1018F000629FF001729FBB27F00DB11D639FAA2765
:10190000F00DB11DAA1F649F6627B00DA11D661FB3
:10191000829F2227B00DA11D621F739FB00DA11DD4
:10192000621F839FA00D611D221F749F3327A00D8E
:10193000611D231F849F600D211D822F762F6A2F2A
:1019400011249F5750409AF0F1F088234AF0EE0F8F
:10195000FF1FBB1F661F771F881F91505040A9F7BC
:101960009E3F510580F00C94070C0C94520C5F3F85
:10197000E4F3983ED4F3869577956795B795F795F8
:10198000E7959F5FC1F7FE2B880F911D9695879570
:1019900097F908959F930E942F0D0F9007FCEE5F1B
:1019A0000C94580D19F416F40C940D0C0C94180D9D
:1019B0000E94370CB8F39923C9F3B6F39F57550B20
:1019C00087FF0E94260D0024A0E640EA900180587F
:1019D0005695979528F4805C660F771F881F20F036
:1019E00026173707480730F4621B730B840B202936
:1019F00031294A2BA69517940794202531254A278B
:101A000058F7660F771F881F20F0261737074807FB
:101A100030F4620B730B840B200D311D411DA0951A
:101A200081F7B901842F9158880F9695879508956D
:101A30009F3F31F0915020F4879577956795B79542
:101A4000880F911D9695879597F90895915050406C
:101A5000660F771F881FD2F708950C940D0C0E9413
:101A6000370CD8F3E894E0E0BB279F57F0F02AED5D
:101A70003FE049EC06C0EE0FBB0F661F771F881FC3
:101A800028F0B23A62077307840728F0B25A620B53
:101A9000730B840BE3959A9572F7803830F49A951E
:101AA000BB0F661F771F881FD2F790480C941A0D42
:101AB000EF93E0FF07C0A2EA2AED3FE049EC5FEBBD
:101AC0000E94160B0E941E0C0F90039401FC90586C
:101AD000E8E8F0E00C946C0D9F938F937F936F93E5
:101AE000FF93EF939B01AC010E945D0CEF91FF917E
:101AF0000E94800D2F913F914F915F910C945D0C4E
:101B0000DF93CF931F930F93FF92EF92DF927B01AE
:101B10008C01689406C0DA2EEF010E94700CFE0161
:101B2000E894A5912591359145915591A6F3EF0142
:101B30000E94160BFE019701A801DA9469F7DF9065
:101B4000EF90FF900F911F91CF91DF9108959091A9
:101B50002F01E0912A01F0912B01992311F084913A
:101B600001C080812FEB280F2A3110F4805E089588
:101B7000803249F49F012F5F3F4F30932B01209318
:101B80002A01EF2B31F708951F93CF93DF930E9423
:101B9000A70DC0E0D0E01AE090ED980F9A30B8F4AD
:101BA0009E01129FE001139FD00D1124C80FD11D7B
:101BB00087FDDA95E09780912A0190912B0101969B
:101BC00090932B0180932A010E94A70DE5CFCE01AF
:101BD000DF91CF911F91089510926F0083E280935F
:101BE000800081E1809381001092820080E197E281
:101BF000909389008093880010928B0010928A0045
:101C0000229A789408958F929F92AF92BF92DF921A
:101C1000EF92FF920F931F93CF93DF935C018B01A1
:101C2000D42E80912C01811105C081E080932C017C
:101C30000E94EC0D10920901B7FE05C0E894B7F8B8
:101C40002AE0F22E02C0FF24F394E09081002E2DB2
:101C5000287FE22E48ECF49EC00111248A159B05D2
:101C6000E0F4E50151E1A51657E2B50610F0C0E138
:101C7000D7E2BE017695679580E090E0605879469E
:101C800087469F4F4E01A12CB12CA50194010E94C3
:101C9000001759018E2D816024C0C8E2FC9EC02D22
:101CA0001124D0E0CA15DB0508F4E501BE017695E4
:101CB00067959E0140E050E08AE0F81207C080E09E
:101CC00090E0605E734481449F4F06C080E090E0E6
:101CD00060537D4E8C4E9F4F0E94001759018E2DF0
:101CE0008260882E2AE0F21207C0CE0105966AE0D3
:101CF00070E00E94EC16EB01C83E43E0D40759F0B7
:101D00009801DE010E94471728EE33E040E050E0E2
:101D10000E942217890110926F0080928100B09278
:101D20008900A092880020918800309189004D2D73
:101D3000403108F04FE080E190E0841B9109A90157
:101D400002C0569547958A95E2F750938B004093D1
:101D50008A00109332010093310186B38FEF86BB66
:101D600081E080936F00DF91CF911F910F91FF90E1
:101D7000EF90DF90BF90AF909F908F900895CF939A
:101D8000DF93EB018F3F11F0411105C040E0BE0130
:101D900088EE93E043C0813130F050EF580F503659
:101DA00018F05FE501C050E0852F6CE00E94E0165E
:101DB000682F74EF760390011124250F311D2C300C
:101DC000310540F4F901EE0FFF1FEE5EFE4F20815A
:101DD000318102C020E030E0873081F0082E02C05F
:101DE000220F331F0A94E2F7823028F0C9010596CA
:101DF0006AE070E00CC0C90190580CC0C90136E01F
:101E0000880F991F3A95E1F7029665E070E00E940D
:101E1000EC16CB01403108F04FE0BE010E94030EEA
:101E2000DF91CF910895A2E0B0E0E9E1FFE00C94EA
:101E30006B179090080180912E01882321F060910A
:101E40002D01611117C077247394B0ECAB2EBDE562
:101E5000BB2E1AE0612E04E0802E80EDC82E87E0B4
:101E6000D82E94E0E92EF12C04EF11E02FE0422E61
:101E7000512C15C070E040E088EE93E00E94030E04
:101E800010922D0117C18636D4F5813609F4A9C008
:101E90007CF58C3309F460C08E3381F493940E94F6
:101EA000A70D20912A0130912B012F5F3F4F3093D6
:101EB0002B0120932A01853631F752C0813209F077
:101EC0008BC080920801D0920701C0920601F09267
:101ED0000501E09204011093030100930201509266
:101EE00001014092000110922E01A4E09A2ED7CF5A
:101EF0008336A1F10CF478C010E082E077C08D3613
:101F0000C1F194F4873691F174F18C3609F064C014
:101F10000E94C40DBC01909305018093040180913F
:101F200006019091070151C08237C9F14CF48F36F8
:101F300009F052C00E94C40D982E80930801AFCFC3
:101F4000843781F1863709F047C00E94C40D909311
:101F5000010180930001A3CF9A94A1CF10E020C08B
:101F600010E084E043C010E085E040C010E087E06E
:101F70003DC00E94A70D8C3619F410922E0104C0AA
:101F800070922E0110922D0120912A0130912B0187
:101F90002F5F3F4F30932B0120932A0180CF11E018
:101FA00080E024C00E94C40DBC01C5010E94EC1653
:101FB000669EC001679E900D112490930701809347
:101FC000060160910401709105010E94EC16709366
:101FD00003016093020163CF10922B0110922A013A
:101FE00069C010E089E002C010E08BE0082F9CE09F
:101FF000999E000D11240E94A70D982F977F933270
:1020000061F420912A0130912B012F5F3F4F3093D3
:102010002B0120932A010F5FEECF8D3271F42091B6
:102020002A0130912B012F5F3F4F30932B012093DA
:102030002A0101500E94A70DF0CF6091020170911A
:1020400003018153883050F4E0900601F0900701BD
:102050000E94C40DBC01C7010E94EC167B01F694DE
:10206000E79469837A830E94A70D69817A818E3211
:1020700069F420912A0130912B012F5F3F4F30935B
:102080002B0120932A016E0D7F1DE9CF80912E0137
:10209000882339F09B013695279520932D01621BEB
:1020A000710940910001112311F08FEF01C0802FC1
:1020B0000E94BF0E2296E0E10C9487171F920F92A8
:1020C0000FB60F9211242F933F934F935F936F930B
:1020D0007F938F939F93AF93BF93EF93FF938091E1
:1020E0003101909132019C0121503109309332012C
:1020F00020933101892B11F510926F007894809113
:102100008100887F81608093810080E197E29093D5
:1021100089008093880010928B0010928A0081E0E1
:102120008093090180912A0190912B01892B31F034
:1021300080913001811102C00E94130FFF91EF9135
:10214000BF91AF919F918F917F916F915F914F91CF
:102150003F912F910F900FBE0F901F9018951092E6
:102160006F0090932B0180932A0181E080932F01CF
:1021700010922D010E94130F08950E94AF10089530
:1021800081E090E06F9364E06A95F1F76F910197B9
:10219000C9F708950F931F93CF93DF931AB1579800
:1021A0005A98289AC0E0D0E00E94C0105C9A0E9421
:1021B000C01009B15C980E94C0105C9A0E94C010C7
:1021C0005C98249607FF10C0AE0160E070E080913B
:1021D000330190913401A0913501B0913601481737
:1021E00059076A077B0700F31AB9DF91CF911F9156
:1021F0000F91089595B1282F217030E0220F331FE1
:10220000482F467068E0469FA0011124242B9D7C36
:10221000292B25B99BB188708295807F9F77892B68
:102220008BB95C9A0E94C0105C980E94C0100895FF
:10223000A0E0B0E0EEE1F1E10C947417C82FD62EC7
:10224000E42E80919D01811105C081E080939D0164
:102250000E9459110E94CA1014B1D5B1FAB00BB145
:102260002898DD2011F05A9A01C05A9894B19263CF
:1022700094B9579A81E0E81629F08C2F82958F70D7
:102280000E94FA108C2F8F700E94FA10FAB80BB9C6
:1022900014B9D5B9CDB7DEB7E7E00C94901742E09A
:1022A00060E00E941811089541E060E00E9418115A
:1022B000089580E197E2A0E0B0E08093330190932D
:1022C0003401A0933501B0933601529A209A549A62
:1022D0008EE190E00E94751383E00E94541186E025
:1022E00090E00E94751383E00E94541182E090E018
:1022F0000E94751383E00E94541182E090E00E94D6
:10230000751382E00E94541182E090E00E947513E0
:1023100088E20E944F1188E00E944F1181E00E94E4
:102320004F1186E00E944F118CE00E944F110895DA
:1023300081E00E944F118091390190913A01892BDF
:10234000F9F060E0A0E2262F30E070910A01809160
:102350000B0190E00197789FA001799F500D112407
:10236000241735074CF4E0913901F0913A01E20F5E
:10237000F31FA0836F5FE7CF1092370110923801EF
:1023800008950E9498110895883058F491E001C092
:10239000990F8A95EAF7892FAAE2B0E0EBE2F0E024
:1023A00021C08E3060F498EF980F81E001C0880F53
:1023B0009A95EAF7A4E2B0E0E5E2F0E013C08531D7
:1023C00060F492EF980F81E001C0880F9A95EAF7C8
:1023D000A7E2B0E0E8E2F0E005C080E0A0E0B0E015
:1023E000E0E0F0E06F3F19F49081982709C0662380
:1023F00019F09081982B04C02081982F90959223FA
:1024000090839C91982B9C93089583EF8093B000C8
:1024100084BD82E08093B10085BD1092B40010921B
:10242000B30018BC17BC60E086E00E94C41160E0F5
:1024300085E00E94C41160E08BE00E94C41160E05E
:1024400083E00E94C411089580919E01811105C00E
:1024500081E080939E010E9405120895CF93DF933F
:10246000EC010E942412D7FF05C0D195C195D10976
:1024700081E001C080E0CF3FD10519F014F0CFEF2B
:10248000D0E0882319F018BCC7BD02C0C8BD17BC76
:10249000DF91CF910895CF93DF93EC010E94241236
:1024A000D7FF05C0D195C195D10981E001C080E079
:1024B000CF3FD10519F014F0CFEFD0E0882329F0F9
:1024C0001092B400C093B30004C0C093B400109243
:1024D000B300DF91CF910895CF93DF93EB010E947A
:1024E0002E12CE010E944B12DF91CF9108950E94CF
:1024F0006C120895282F30E09AE0899FF001112492
:10250000E55CFE4F80859185009721F052814481E2
:10251000541780F08AE0829FF001839FF00D112410
:10252000E55CFE4F9281848198130EC085818111F4
:102530000AC008954281DC01A40FB11D6C93828111
:102540008F5F8283E7CF128208951F920F920FB69A
:102550000F9211242F933F934F935F936F937F9329
:102560008F939F93AF93BF93EF93FF936091C600B8
:1025700080E00E947A12FF91EF91BF91AF919F91FD
:102580008F917F916F915F914F913F912F910F901C
:102590000FBE0F901F9018959AE0899FF0011124AB
:1025A000E55CFE4F86819781892B59F0918183816B
:1025B000981738F48081811104C08091C100806235
:1025C00003C08091C1008F7D8093C10008959AE07F
:1025D000899FF0011124E55CFE4F2681378121158A
:1025E000310541F041819381491720F49091C00059
:1025F00095FD03C00E94CC1208959181D901A90FC5
:10260000B11D9C919093C60091819F5F9183F2CF01
:102610001F920F920FB60F9211242F933F934F9357
:102620005F936F937F938F939F93AF93BF93EF933A
:10263000FF9380E00E94E712FF91EF91BF91AF916D
:102640009F918F917F916F915F914F913F912F91CA
:102650000F900FBE0F901F9018952F928F939F93FE
:102660002FB680914C0190914D01019680934C01C1
:1026700090934D0190E080914E01891F80934E010F
:10268000909146019C5F9093460180914501805155
:102690009742C0F090934601809345018091470195
:1026A000909148010196809347019093480190E0F2
:1026B00080914901891F8093490180914A01891FB6
:1026C00080934A012FBE9F918F912F90189528EEED
:1026D00033E0019748F0F9016F9364E06A95F1F7F0
:1026E0006F913197C9F7F5CF08950E946713089548
:1026F000E0E7F0E080818E7F8083A0EBB0E08C91FA
:1027000083608C93A1EBB0E08C91807F8C938C9153
:1027100082608C93B89A80818160808378940895D8
:1027200080919F01811105C081E080939F010E94EB
:10273000781308950E949013E0E7F0E080818E7F87
:102740008083609147017091480180914901909187
:102750004A0120812160208308950E949A130895E0
:10276000462F20E0BC018FE491E00E944D160895B1
:102770008FE491E00E94C21608956F9364E06A9519
:10278000F1F76F910197C9F70895FC01A485B5850C
:10279000109779F08C919185892B8C93A285B385C4
:1027A0009C918185809589238C9388EC90E00E9490
:1027B000BD130895FC01A485B585109771F08C9127
:1027C0009185892B8C93A285B3858C919185892BDA
:1027D0008C9388EC90E00E94BD130895A0E0B0E0D7
:1027E000E4EFF3E10C946E17EC015B016C0181E402
:1027F000C80ED11CF60180807E01F2E4EF0EF11CC0
:10280000F70170808E010D5B1F4FF801908080E012
:102810009885891748F4F501E80FF11DE80FF11DBF
:10282000118210828F5FF4CF84B1F6019081892BE1
:1028300084B987B1F7019081892B87B98AB1F801F2
:102840009081892B8AB985B1F6019081892B85B950
:1028500088B1F7019081892B88B98BB1F8019081FB
:10286000892B8BB98AE090E00E94BD1394B1F601E8
:1028700080818095892384B997B1F7018081809503
:10288000892387B99AB1F8018081809589238AB913
:1028900095B1F60180818095892385B998B1F701BA
:1028A00080818095892388B99BB1F80180818095CA
:1028B00089238BB9E090B000D090B1008091B00036
:1028C00083608093B00082E08093B1004091B200B9
:1028D00080E090E02E853F858217930720F5C09019
:1028E000B2002C2D241B820F911D03B1081132C0A0
:1028F000F6B0F7102FC029B129112CC010C0212F1C
:1029000030E0A901440F551FF501E40FF51F608168
:102910007181672B21F11F5F2885121780F37F2CAF
:10292000802E4C2DD7CFE092B000D092B10020E0A5
:102930008885281730F5F501E20FF11DE20FF11D32
:1029400080819181892B21F48E859F85918380835D
:102950002F5FEECF03B1F6B099B010E0DDCFDE010E
:10296000A40FB51F91960D90BC91A02D4C91DE0146
:10297000A20FB31F51962C91422369F69183808355
:10298000CACFCDB7DEB7EDE00C948A17EF92FF9275
:102990000F931F93CF93DF93FC019B01F0907C007A
:1029A00000917A0047B118B180917A0086FDFCCF82
:1029B00080E09085891748F4D901A80FB11DA80FB0
:1029C000B11D1D921C928F5FF4CF97B182A18095AB
:1029D000892387B998B182A18095892388B987E82E
:1029E00080937A00E12C81A1E81610F0E12C29C037
:1029F00050E08085581718F5A52FB0E0EF01CA0FF9
:102A0000DB1F8989806480937C0080917A008064D8
:102A100080937A0080917A0086FDFCCF60917800E7
:102A200070917900AA0FBB1FA20FB31F8D919C91CB
:102A30001197860F971F8D939C935F5FDACFE39476
:102A4000D2CF8085E816A0F4E901CE0DD11DCE0DC0
:102A5000D11D61A170E0CB0195958795A881B981C1
:102A60008A0F9B1F0E94EC1679836883E394E9CF59
:102A7000F0927C0000937A0018B947B9CDB7DEB761
:102A8000E6E00C949117A0E2B0E0E9E4F5E10C94E3
:102A900074178C017B01D42E8FEF840F823018F4D1
:102AA000C8010E94DA13D80150968C91B7018111A8
:102AB00010C0C8010E94EE13C8010E94C513B2E005
:102AC000DB123AC0BE016F5F7F4FC8010E94EE1358
:102AD0000FC0C8010E94C614C8010E94C513E2E0DD
:102AE000DE122AC0BE016F5F7F4FC8010E94C6146C
:102AF00040E0F80180854817F8F4842F90E0880FB3
:102B0000991FF701E80FF91F21E030E02C0F3D1F5E
:102B1000820F931FD8011E962D913C911F97DC01C7
:102B20008D919C91281B390B80819181820F931F7D
:102B3000918380834F5FDDCFA096E7E00C949017E0
:102B4000A0E0B0E0E6EAF5E10C947217EC018B012D
:102B5000B42E842F8D7F51F48C819D81892B09F4B3
:102B600097C08E819F81892B09F492C08FEF8B0DC6
:102B7000823050F488819981892B09F489C08A8137
:102B80009B81892B09F484C04B2DB801CE010E9492
:102B90004315780100E010E0C12CD12C888590E02D
:102BA000C816D9060CF074C081E0B8120AC0EA81D8
:102BB000FB81E00FF11F0190F081E02DA881B98128
:102BC0000DC08C819D812E813F81B1100CC0F90117
:102BD000E00FF11F0190F081E02DDC01A00FB11F8B
:102BE0008D919C9128C0FC01E00FF11F4081518123
:102BF000E881F981E00FF11F80819181EE85FF85E9
:102C00004817590710F4CF0104C08E0F9F1F841B73
:102C1000950BD901A00FB11F2D913C91AA81BB81C9
:102C2000A00FB11F4D915C912417350720F0E40FE0
:102C3000F51FE21BF30BE81BF90BA9F0D7012D914F
:102C40003C9140E050E0281B390B41095109A8EEA6
:102C5000B3E00E9456179F0140E050E00E94221707
:102C600037FD0AC002C020E030E0293EB3E03B0758
:102C70002CF028EE33E002C020E030E0F701219391
:102C800031937F01FFEFCF1ADF0A0E5F1F4F86CF10
:102C9000CDB7DEB7E9E00C948E17A0E0B0E0E3E535
:102CA000F6E10C946917EC018B01822E0E94A015AD
:102CB0002884E801412C512C320100E010E0C12CA5
:102CC000D12C7601312C912C58EEA52E53E0B52E47
:102CD000921421F1E991F991882021F0C5018E1B10
:102CE0009F0BFC01E93CF10524F4E333F10574F09A
:102CF00002C033243394DF01A30192010E946117C3
:102D0000C60ED71EE81EF91E0E0F1F1F939498EED5
:102D1000490E93E0591E611C711CDACF31101EC0A0
:102D2000492D50E04150510924EF31E0429FC0014C
:102D3000439F900D529F900D11242091930130914B
:102D4000940128173907B4F088EE93E0489F90016A
:102D5000499F300D589F300D11240EC0980140E05E
:102D600050E0C701B6010E940017309394012093F0
:102D7000930102C020E030E0C901CDB7DEB7E2E147
:102D80000C948517CF93DF93EC018A819B81009788
:102D900011F00E9438188E819F81009711F00E94D7
:102DA000381888819981009711F00E9438188C8119
:102DB0009D81009711F00E943818DF91CF910895FE
:102DC000991B79E004C0991F961708F0961B881F7D
:102DD0007A95C9F780950895AA1BBB1B51E107C0DE
:102DE000AA1FBB1FA617B70710F0A61BB70B881F9B
:102DF000991F5A95A9F780959095BC01CD0108952A
:102E0000A1E21A2EAA1BBB1BFD010DC0AA1FBB1FEE
:102E1000EE1FFF1FA217B307E407F50720F0A21B60
:102E2000B30BE40BF50B661F771F881F991F1A94CD
:102E300069F760957095809590959B01AC01BD01F7
:102E4000CF010895052E97FB1EF400940E943917B8
:102E500057FD07D00E94001707FC03D04EF40C94D6
:102E6000391750954095309521953F4F4F4F5F4F03
:102E7000089590958095709561957F4F8F4F9F4FE6
:102E80000895EE0FFF1F0590F491E02D0994A29F85
:102E9000B001B39FC001A39F700D811D1124911D2E
:102EA000B29F700D811D1124911D08950E94471736
:102EB000A59F900DB49F900DA49F800D911D11248E
:102EC0000895B7FF0C9456170E945617821B930B58
:102ED00008952F923F924F925F926F927F928F92BE
:102EE0009F92AF92BF92CF92DF92EF92FF920F9399
:102EF0001F93CF93DF93CDB7DEB7CA1BDB0B0FB6A3
:102F0000F894DEBF0FBECDBF09942A88398848885F
:102F10005F846E847D848C849B84AA84B984C884F5
:102F2000DF80EE80FD800C811B81AA81B981CE0FEC
:102F3000D11D0FB6F894DEBF0FBECDBFED010895D1
:102F40000F931F93CF93DF938230910510F482E0AB
:102F500090E0E0910402F091050220E030E0A0E072
:102F6000B0E0309719F140815181028113814817F7
:102F70005907C8F08417950769F4109731F0129635
:102F80000C93129713961C9327C00093040210937E
:102F9000050222C02115310519F04217530718F414
:102FA0009A01BD01EF01DF01F801DBCF21153105E9
:102FB000F9F0281B390B2430310580F48A819B817C
:102FC0006115710521F0FB019383828304C0909306
:102FD000050280930402FE01329644C0FE01E20F16
:102FE000F31F8193919322503109398328833AC08A
:102FF0002091020230910302232B41F420910E0113
:1030000030910F01309303022093020220910C01B2
:1030100030910D012115310541F42DB73EB7409196
:10302000100150911101241B350BE0910202F09127
:103030000302E217F307A0F42E1B3F0B28173907F2
:1030400078F0AC014E5F5F4F2417350748F04E0F04
:103050005F1F50930302409302028193919302C039
:10306000E0E0F0E0CF01DF91CF911F910F91089543
:10307000CF93DF93009709F481C0FC01329713824C
:103080001282A0910402B0910502109781F4208170
:103090003181820F931F2091020230910302281781
:1030A000390751F5F0930302E093020267C0ED0186
:1030B00020E030E0CE17DF0740F44A815B819E01BB
:1030C00041155105F1F0EA01F5CFD383C283408168
:1030D0005181840F951FC817D90759F488819981A8
:1030E000840F951F0296918380838A819B819383AD
:1030F00082832115310529F4F0930502E09304023F
:103100003DC0E901FB83EA8349915991C40FD51F62
:10311000EC17FD0761F480819181840F951F029661
:10312000E90199838883828193819B838A83E0E08C
:10313000F0E012968D919C911397009719F0FD0184
:10314000DC01F7CF8D919C9111979D012E5F3F4F30
:10315000820F931F20910202309103022817390732
:1031600069F4309729F4109205021092040202C00B
:1031700013821282B0930302A0930202DF91CF91D7
:10318000089510E0C2E6D0E004C0FE010E9441179D
:0C3190002196C336D107C9F7F894FFCF91
:10319C000F00F4010400D00704010802000006022D
:1031AC0020009C01B501CF01EA010702260247026B
:0A31BC0069028E02B502DE020A036A
:00000001FF
