:100000000C9462000C947F000C947F000C947F0091
:100010000C947F000C947F000C947F000C947F0064
:100020000C947F000C9414120C947F000C947F00AD
:100030000C947F000C94320E0C947F000C947F0083
:100040000C947F000C947F000C948C110C94EF1195
:100050000C947F000C947F000C947F000C947F0024
:100060000C947F000C947F0005A84CCDB2D44EB9FF
:100070003836A9020C50B9918688083CA6AAAA2A4B
:10008000BE000000803F3E6633323E3E61333200A8
:100090003E6633323E3E613332003E6633323E3E90
:1000A000613332003E6633323E3E613332003E669B
:1000B00033323E3E613332003E6733323E3E63337D
:1000C0003200F51211241FBECFEFD8E0DEBFCDBF46
:1000D00011E0A0E0B1E0EEEBF8E302C005900D9274
:1000E000A637B107D9F722E0A6E7B1E001C01D921B
:1000F000AF35B207E1F70E942C010C94521C0C940E
:100100000000FC0162E070E07183608321E030E078
:1001100033832283758364833783268331872087E3
:1001200083E090E0938782877587648745E050E09D
:1001300057874687318B208B338B228B558B448B93
:1001400091A380A393A382A355A344A391AB80ABB7
:1001500033AB22AB75AB64AB57AB46ABE05CFF4F48
:1001600091838083738362839583848357834683DB
:100170000895EF92FF921F93CF93DF93CDB7DEB731
:1001800060970FB6F894DEBF0FBECDBF90E1E4E1FB
:10019000F1E0DE01119601900D929A95E1F7FB01D5
:1001A0009081981709F44CC07B01182FE1E0F0E032
:1001B000EC0FFD1F84E0189FE00DF11D1124E90FE5
:1001C000F11D8081813021F048F18230A1F038C0EA
:1001D00064EC7FEF8CE390E00E94F8108EE091E0F9
:1001E0000E945C1260E070E080E090E00E94F810F5
:1001F000F701108325C06CE370E084EC9FEF0E9450
:10020000F8108EE091E00E945C1260E070E080E007
:1002100090E00E94F810F701108312C064EC7FEFA9
:100220008CE390E00E94F8108CE192E00E945C1256
:1002300060E070E080E090E00E94F810F701108329
:1002400060960FB6F894DEBF0FBECDBFDF91CF91A1
:100250001F91FF90EF9008952F923F924F925F92DF
:100260006F927F928F929F92AF92BF92CF92DF92C6
:10027000EF92FF920F931F93CF93DF93CDB7DEB72B
:10028000C756D1090FB6F894DEBF0FBECDBF0E948E
:10029000D10888E0E4E2F1E0DE01119601900D92D0
:1002A0008A95E1F788E0ECE2F1E0DE011996019031
:1002B0000D928A95E1F7AE014F5E5F4FBE01675F19
:1002C0007F4FCE0101960E941C0A89899A891816CF
:1002D00019067CF59E012F5F3F4F69017E0139E0D1
:1002E000E30EF11C00E010E061E080E00E944210AB
:1002F000F601819191916F010E941F1088EE93E0A9
:100300000E945C1260E080E00E944210F70181913F
:1003100091917F010E941F1088EE93E00E945C1271
:100320000E949A0F0F5F1F4F89899A890817190732
:10033000DCF2CE0143960E948100A4961FAEA497E2
:10034000C12CD12CA6961FAE1EAEA697212C312C07
:10035000812C912CA12CB12CE12CF12C00E010E08F
:10036000A8961FAE1EAEA89761E089E492E00E94B5
:10037000AE120E944509019771F0C114D10459F4DD
:100380000E94CD090E945A09F1E0A596FFAFA597FA
:10039000A6961FAEA6970115110509F093C00E94FD
:1003A0004509019709F097C0A896EEADFFADA89753
:1003B000EE0FFF1F21E030E02C0F3D1FE20FF31F77
:1003C000828993898230910599F11CF4019749F053
:1003D00079C08330910509F452C0059709F463C0D0
:1003E00071C06CE370E08CE390E00E94F81084EA46
:1003F00090E00E94910E8AEA90E00E945C1260E018
:1004000070E080E090E00E94F81020E030E040E8EA
:100410005EE362E58CE390E00E948404A8968EADD2
:100420009FADA8970196A8969FAF8EAFA89753C08F
:100430006CE370E08CE390E00E94F8108AE990E0B1
:100440000E94910E8AEA90E00E945C1260E070E0E7
:1004500080E090E00E94F81020E030E040E85EE3A9
:100460006CE48CE390E00E948404A896EEADFFADAE
:10047000A8973196A896FFAFEEAFA8972CC02AE0B8
:1004800037ED43E65FE366E48CE390E00E9484048A
:10049000A8962EAD3FADA8972F5F3F4FA8963FAFD0
:1004A0002EAFA89718C060E070E080E090E00E9456
:1004B000F81088EE93E00E945C12A6961FAE1EAE66
:1004C000A69703C00130110531F40E944509019738
:1004D00041F001E010E031E0C316D10409F074C12D
:1004E00079C10E949A0F60E080E00E944210B5013D
:1004F0000B2C000C880B990B0E94FE0F61E080E032
:100500000E9442102401092C000C66087708C301E0
:10051000B2010E94FE0FC114D104B9F46CE370E083
:100520008CE390E00E94F81080E990E00E94910E28
:100530008AEA90E00E945C1260E070E080E090E067
:100540000E94F81001E010E00BC081E0C816D10451
:1005500029F401E010E0C12CD12C02C001E010E030
:10056000F701EE0FFF1F21E030E02C0F3D1FE20FDF
:10057000F31F808191818A159B0509F479C12114AB
:10058000310409F064C1A816B90644F5BE016D59DD
:100590007F4F83E00E94B900A6968EAD9FADA697CF
:1005A000019739F49FEFA91AB90AA6961FAE1EAE9D
:1005B000A6970E949A0F60E080E00E944210B50169
:1005C0000B2C000C880B990B0E94FE0F61E080E061
:1005D0000E944210C301B2010E94FE0FF701EE0F0C
:1005E000FF1F21E030E02C0F3D1FE20FF31F808141
:1005F00091818A159B0544F5BE016D597F4F81E0BD
:100600000E94B900A6968EAD9FADA697019739F4CA
:1006100091E0A91AB108A6961FAE1EAEA6970E9439
:100620009A0F60E080E00E944210B5010B2C000C94
:10063000880B990B0E94FE0F61E080E00E9442103F
:10064000C301B2010E94FE0FF701EE0FFF1F21E070
:1006500030E02C0F3D1FE20FF31F80819181A8161F
:10066000B90609F018C1D3C031E02316310409F0EE
:10067000ABC0881699065CF5BE016D597F4F80E0CE
:100680000E94B900A6968EAD9FADA697019739F44A
:100690009FEF891A990AA6961FAE1EAEA6970E94D2
:1006A0009A0F60E080E00E944210B5010B2C000C14
:1006B000880B990B0E94FE0F61E080E00E944210BF
:1006C000B401092C000C880B990B0E94FE0FF70156
:1006D000EE0FFF1F21E030E02C0F3D1FE20FF31F54
:1006E00080859185881599055CF5BE016D597F4F10
:1006F00082E00E94B900A6968EAD9FADA6970197A5
:1007000039F491E0891A9108A6961FAE1EAEA697FD
:100710000E949A0F60E080E00E944210B5010B2C0D
:10072000000C880B990B0E94FE0F61E080E00E9494
:100730004210B401092C000C880B990B0E94FE0F8B
:10074000F701EE0FFF1F21E030E02C0F3D1FE20FFD
:10075000F31F808191818A159B0579F55C01F70172
:10076000EE0FFF1F81E090E08C0F9D1FE80FF91F37
:10077000608471846814790421F501C0340160E05B
:1007800070E080E090E00E94F8100E949A0F81E5EE
:1007900091E00E94A90F9FEFE91AF90A86E890E01C
:1007A0000E94910E88EB9BE00E945C124301CC24D6
:1007B000C394D12C212C312C07C022242394312C1A
:1007C00003C022242394312CE4E0EE16F10409F056
:1007D000CBCD7EC00E949A0F60E080E00E94421064
:1007E000B5010B2C000C880B990B0E94FE0F61E0E9
:1007F00080E00E9442102401092C000C6608770852
:10080000C301B2010E94FE0FC12CD12CA9CEF70169
:10081000EE0FFF1F21E030E02C0F3D1FE20FF31F12
:10082000808591858816990609F023CF44C0F70189
:10083000EE0FFF1F81E090E08C0F9D1FE80FF91F66
:10084000808191818A159B0509F0BECF97CFF70172
:10085000EE0FFF1F21E030E02C0F3D1FE20FF31FD2
:10086000808591858815990509F0FECE4C01ACCFA5
:10087000F701EE0FFF1F81E090E08C0F9D1FE80F46
:10088000F91F808591858816990609F0F2CE2224F9
:100890002394312CCCCFF701EE0FFF1F21E030E085
:1008A0002C0F3D1FE20FF31F808591858816990656
:1008B00009F08ACFBCCFF701EE0FFF1F21E030E037
:1008C0002C0F3D1FE20FF31FA080B1804C0147CFDA
:1008D00080E090E0C959DF4F0FB6F894DEBF0FBE3D
:1008E000CDBFDF91CF911F910F91FF90EF90DF90DF
:1008F000CF90BF90AF909F908F907F906F905F90C0
:100900004F903F902F9008952F923F924F925F9279
:100910006F927F928F929F92AF92BF92CF92DF920F
:10092000EF92FF920F931F93CF93DF93CDB7DEB774
:1009300066970FB6F894DEBF0FBECDBF1C012983AA
:100940003A834B835C83663461F020F4623409F4AB
:1009500095C008C46C3409F4A9C2623509F41BC1FE
:1009600001C48091E7019091E8019101281B390BA6
:1009700045E650E05A874987412C512C3201032E1D
:10098000000C440B550B2D833E834F8358870E94E8
:1009900094128B012BED3FE049EC50E4C301B2010E
:1009A0000E94341A0E94A11A23E839EF42E25EE362
:1009B0000E94341A9B01AC01C301B2010E94D518F8
:1009C0004B015C016D817E818F8198850E947F192A
:1009D0009B01AC01C501B4010E94341A4B015C01BA
:1009E0006091E7017091E801072E000C880B990BCC
:1009F0000E947F199B01AC01C501B4010E94D61869
:100A00000E944719DC01CB01BC010E94F81048018B
:100A1000110FAA08BB080E949412681979098A0963
:100A20009B090E947D196B017C0120E030E040E2CF
:100A300051E469817A818B819C810E94341A9B01E7
:100A4000AC01C701B6010E944219882324F32AE0B1
:100A500037ED43E25CE3C301B2010E94D6182B01DB
:100A60003C01A985BA851197BA87A987AB2B09F0F4
:100A70008ECF3092E8012092E7017AC38091E7019E
:100A80009091E8019101281B390B45E650E05A8707
:100A90004987412C512C3201032E000C440B550B7D
:100AA0002D833E834F8358870E9494128B012BED38
:100AB0003FE049EC50E4C301B2010E94341A0E94A5
:100AC000A11A23E839EF42E25EE30E94341A9B0147
:100AD000AC01C301B2010E94D5184B015C016D81CC
:100AE0007E818F8198850E947F199B01AC01C50191
:100AF000B4010E94341A4B015C016091E7017091CE
:100B0000E801072E000C880B990B0E947F199B01AE
:100B1000AC01C501B4010E94D6180E944719DC013E
:100B2000CB01BC010E94F8104801110FAA08BB08B4
:100B30000E949412681979098A099B090E947D19FB
:100B40006B017C0120E030E040E251E469817A8170
:100B50008B819C810E94341A9B01AC01C701B601B4
:100B60000E944219882324F32AE037ED43E25CE334
:100B7000C301B2010E94D6182B013C01A985BA8598
:100B80001197BA87A987AB2B09F08ECF3092E80175
:100B90002092E701EDC28091E5019091E601820D7E
:100BA000931D2091E3013091E401A101421B530BFD
:100BB0009A0105E610E01D821E821F821886AC0194
:100BC000990F660B770B4D875E876F87788BB9011E
:100BD000330F880B990B698B7A8B8B8B9C8B0E94C4
:100BE00094127E8B6D8B6091E7017091E801072E66
:100BF000000C880B990B0E947F1969877A878B8775
:100C00009C872BED3FE049EC50E46D817E818F8124
:100C100098850E94341A0E94A11A23E839EF42E213
:100C20005EE30E94341A2D813E814F8158850E94D7
:100C3000D6184B015C016091E5017091E601072E29
:100C4000000C880B990B0E947F192B013C016D85CC
:100C50007E858F8598890E947F19A50194010E9445
:100C6000341A9B01AC01C301B2010E94D518298539
:100C70003A854B855C850E94D6180E9447192B0146
:100C80003C016091E3017091E401072E000C880B98
:100C9000990B0E947F196B017C0169897A898B8984
:100CA0009C890E947F19A50194010E94341A9B011E
:100CB000AC01C701B6010E94D61829853A854B853B
:100CC0005C850E94D6180E944719DC01CB01B20155
:100CD0000E94F8108D899E894C01990FAA08BB08C3
:100CE0000E9494126B017C0120E030E040E251E46C
:100CF00069817A818B819C810E94341A2B013C018D
:100D0000C701B601681979098A099B090E947D19F2
:100D1000A30192010E944219882314F32AE037EDBF
:100D200043E25CE36D817E818F8198850E94D618B5
:100D30006D837E838F8398870150110909F04FCF0F
:100D400088279927821993099093E6018093E501FA
:100D50003092E4012092E30105E610E019821A8244
:100D60001B821C829C01990F440B550B29873A87E3
:100D70004B875C87C12CD12C76010E9494127E8710
:100D80006D876091E7017091E801072E000C880BD8
:100D9000990B0E947F1969837A838B839C832BED47
:100DA0003FE049EC50E4C701B6010E94341A0E94AA
:100DB000A11A23E839EF42E25EE30E94341AA70148
:100DC00096010E94D6184B015C0169857A858B8556
:100DD0009C850E947F199B01AC01C501B4010E9452
:100DE000341A4B015C016091E5017091E601072E18
:100DF000000C880B990B0E947F19A50194010E9499
:100E0000D51829813A814B815C810E94D6180E94B5
:100E100047196D837E838F8398876091E30170917A
:100E2000E401072E000C880B990B0E947F19A50185
:100E300094010E94D61829813A814B815C810E94DD
:100E4000D6180E944719DC01CB016D817E810E947A
:100E5000F8104D855E854A01550FAA08BB080E940F
:100E60009412681979098A099B090E947D199B01CE
:100E7000AC01C301B2010E942F1A181684F32AE0B4
:100E800037ED43E25CE3C701B6010E94D6186B015F
:100E90007C010150110909F070CF1092E601109207
:100EA000E5011092E4011092E30162C18091E50135
:100EB0009091E6019101281B390B8091E3019091FB
:100EC000E401820D931D65E670E07A8B698B1D82CB
:100ED0001E821F821886A901330F660B770B498784
:100EE0005A876B877C879C01990F440B550B2D8784
:100EF0003E874F87588B0E9494128B012BED3FE069
:100F000049EC50E46D817E818F8198850E94341A6E
:100F10000E94A11A23E839EF42E25EE30E94341AEC
:100F20002D813E814F8158850E94D6186B017C012E
:100F30006091E5017091E601072E000C880B990B7A
:100F40000E947F194B015C0169857A858B859C85A0
:100F50000E947F19A70196010E94341A9B01AC01DF
:100F6000C501B4010E94D6180E9447194B015C01CB
:100F70006091E3017091E401072E000C880B990B3E
:100F80000E947F192B013C016D857E858F85988994
:100F90000E947F19A70196010E94341A9B01AC019F
:100FA000C301B2010E94D5180E944719DC01CB0190
:100FB000B4010E94F8104801110FAA08BB080E9452
:100FC00094122B013C0120E030E040E251E46981C1
:100FD0007A818B819C810E94341A6B017C01C30150
:100FE000B201681979098A099B090E947D19A70134
:100FF00096010E944219882314F32AE037ED43E258
:101000005CE36D817E818F8198850E94D6186D8307
:101010007E838F839887A989BA891197BA8BA98B08
:10102000AB2B09F068CF3092E6012092E5013194B4
:10103000219431083092E4012092E30125E630E06A
:1010400019821A821B821C82A101330C660B770B5A
:101050004D835E836F8378873A872987812C912C13
:1010600054010E9494128B012BED3FE049EC50E4B7
:10107000C501B4010E94341A0E94A11A23E839EF75
:1010800042E25EE30E94341AA50194010E94D61840
:101090002B013C016D817E818F8198850E947F1993
:1010A0009B01AC01C301B2010E94341A2B013C0127
:1010B0006091E5017091E601072E000C880B990BF9
:1010C0000E947F19A30192010E94D6180E9447191D
:1010D00069837A838B839C836091E3017091E4013F
:1010E000072E000C880B990B0E947F19A301920117
:1010F0000E94D5180E944719DC01CB0169817A81D1
:101100000E94F8102801110F660877080E949412B7
:1011100064197509860997090E947D199B01AC0124
:10112000C701B6010E942F1A181684F32AE037ED82
:1011300043E25CE3C501B4010E94D6184B015C0197
:1011400069857A85615071097A876987672B09F00B
:1011500088CF1092E6011092E5011092E4011092FE
:10116000E30106C060E070E080E090E00E94F810CB
:1011700066960FB6F894DEBF0FBECDBFDF91CF915C
:101180001F910F91FF90EF90DF90CF90BF90AF90A5
:101190009F908F907F906F905F904F903F902F9097
:1011A0000895CF93DF9380ED97E00E94F1121BC06A
:1011B0000E94780BEC010E949A0FBE01DD0F880B94
:1011C000990B0E94FE0F89E591E00E94A90F61E052
:1011D00080E00E9442108CE591E00E94A90F84E615
:1011E00090E00E945C1280E10E943B11882301F391
:1011F00080E10E94271188EE93E00E945C12CCEE01
:10120000DFEFC832D10538F068ED7FEF88E290E07B
:101210000E94F81006C068E270E088ED9FEF0E941F
:10122000F81081E00E94B51284E190E00E945C1207
:101230002196CC33D10529F760E070E080E090E0A2
:101240000E94F81015C061E089E492E00E94BB1290
:10125000EC010E949A0F83E691E00E94A90FBE0163
:1012600080E090E00E94FE0F84E690E00E945C1215
:1012700080E10E943B11882331F380E10E94271115
:101280000E949A0FDF91CF91089580914902909129
:101290004A028032934058F481E090E0209151025C
:1012A000309152022032334020F480E0089581E0F2
:1012B00090E00895CF93DF9361E089E492E00E948B
:1012C000BB12805D97402091550230915602AC01CF
:1012D000421B530B9A01E0915902F0915A02E80F18
:1012E000F91FF0935A02E0935902909356028093AB
:1012F000550264E170E00E942118EB01CF0160E12A
:1013000077E20E942118CE01860F971FB901660F60
:10131000771F260F371F332314F42F5F3F4F359568
:101320002795820F931F8D33910514F08CE390E085
:10133000843C5FEF950714F484EC9FEF992334F419
:101340006CE370E0CC960E94F81008C06CE370E08B
:10135000681B790B8CE390E00E94F810DF91CF912D
:10136000089512C00E949A0F86E691E00E94A90F8C
:1013700061E080E00E9442108EE691E00E94A90F99
:1013800084E690E00E945C1280E10E943B11882379
:1013900049F380E10E942711089585E00E94DF0A49
:1013A0009093EE018093ED0187E00E94DF0A9C019B
:1013B0009093F2018093F1016091ED017091EE0143
:1013C0006B507109ECE1F8E0CF010E942118709395
:1013D000F0016093EF01B9016B507109CF010E94D8
:1013E00021187093F4016093F3010E949A0F809189
:1013F000EF019091F0019C012B503109293031050A
:1014000038F40E949A0F88EB90E00E94910E11C070
:101410000197099770F40E949A0F8EEA90E00E945B
:10142000910E60E070E080E090E00E94F8100E9471
:10143000B10980E090E008953F924F925F926F92E1
:101440007F928F929F92AF92BF92CF92DF92EF9254
:10145000FF920F931F93CF93DF931F92CDB7DEB709
:10146000C82ED92EE62EF72E8A010E949A0F8C2CB8
:101470009D2CAE2CBF2CC12CD12C0F2EF5E67F2E2F
:10148000F02D0F2EFAE03F2EF02D412C532C642C22
:101490007982E32CF42C61E0CE0101960E9489113F
:1014A0000115110539F489818536A1F0082F10E066
:1014B0007982F1CF8981853681F0833689F09AE08F
:1014C000E916F10429F4E82EF12C852D962D0AC099
:1014D00090E008C0852D962D05C0852D962D02C063
:1014E000852D962D79828A309105A9F2F401819398
:1014F00091934F01F501E192F1925F01FFEFCF1A55
:10150000DF0AF80180819181C816D9060CF20F908C
:10151000DF91CF911F910F91FF90EF90DF90CF90CF
:10152000BF90AF909F908F907F906F905F904F9003
:101530003F900895ECE7F0E080818F7D80830895EF
:10154000811103C00E949A0A089580917C008062F4
:1015500080937C00089580917C0085FB882780F92A
:1015600008950E94AB0A882321F08091790090E0D1
:101570000895809178009091790008958032A0F4C8
:1015800097E890937A0090917C00662311F0906C1C
:1015900002C09F779064907E982B90937C008091FE
:1015A0007A00806480937A00089560E00E94BE0A09
:1015B00080917A0086FDFCCF0E94B10A08950E94B6
:1015C000D50A0895A0E0B0E0E8EEFAE00C94A8187F
:1015D000EB0160E00E94BE0A80917A0086FDFCCF9C
:1015E0008E01C12CD12C760180917A008064809389
:1015F0007A0080917A0086FDFCCF0E94B10AC80E65
:10160000D91EE11CF11C015011090115110561F7EA
:10161000CE0196958795C034D10538F48C0D9D1D6B
:10162000BE010E940D18CB010EC0A7019601280F24
:10163000391F411D511DCA01B9019E0140E050E012
:101640000E943518C901CDB7DEB7E8E00C94C41884
:10165000CF92DF92EF92FF92A0910001B091010131
:101660009C010E947C186B017C010E94AB0A8823BC
:1016700059F0C701B60161587F4F8F4F9F4F2FEF31
:1016800030E040E050E00AC0C701B60161507E4F33
:101690008F4F9F4F2FEF33E040E050E00E9435180E
:1016A000C901FF90EF90DF90CF9008950E94E20A69
:1016B0000E94280B08951F93CF93DF930E94AB0ADB
:1016C000182F0E949A0A6AE070E086E00E94560B8A
:1016D000EC01812F0E94A00ACE01880F991F8C0F68
:1016E0009D1F019696958795DF91CF911F91089543
:1016F0000E945B0B089590917B01E0917601F0913F
:101700007701992311F0849101C080812FEB280F7C
:101710002A3110F4805E0895803249F49F012F5FD2
:101720003F4F3093770120937601EF2B31F70895E7
:101730001F93CF93DF930E947B0BC0E0D0E01AE0B1
:1017400090ED980F9A30B8F49E01129FE001139F1C
:10175000D00D1124C80FD11D87FDDA95E097809137
:1017600076019091770101969093770180937601AD
:101770000E947B0BE5CFCE01DF91CF911F910895A1
:1017800010926F0083E28093800081E1809381005A
:101790001092820080E197E2909389008093880004
:1017A00010928B0010928A00229A789408958F925A
:1017B0009F92AF92BF92DF92EF92FF920F931F938F
:1017C000CF93DF935C018B01D42E8091780181113E
:1017D00005C081E0809378010E94C00B10920B013C
:1017E000B7FE05C0E894B7F82AE0F22E02C0FF2445
:1017F000F394E09081002E2D287FE22E48ECF49E99
:10180000C00111248A159B05E0F4E50151E1A516FC
:1018100057E2B50610F0C0E1D7E2BE0176956795B4
:1018200080E090E06058794687469F4F4E01A12C9A
:10183000B12CA50194010E94351859018E2D8160AB
:1018400024C0C8E2FC9EC02D1124D0E0CA15DB05DF
:1018500008F4E501BE01769567959E0140E050E0F1
:101860008AE0F81207C080E090E0605E7344814433
:101870009F4F06C080E090E060537D4E8C4E9F4F9E
:101880000E94351859018E2D8260882E2AE0F212AE
:1018900007C0CE0105966AE070E00E940D18EB01CA
:1018A000C83E43E0D40759F09801DE010E947C183D
:1018B00028EE33E040E050E00E9457188901109272
:1018C0006F0080928100B0928900A09288002091E0
:1018D0008800309189004D2D403108F04FE080E1C3
:1018E00090E0841B9109A90102C0569547958A95FD
:1018F000E2F750938B0040938A0010937E0100938F
:101900007D0186B38FEF86BB81E080936F00DF910E
:10191000CF911F910F91FF90EF90DF90BF90AF900C
:101920009F908F900895CF93DF93EB018F3F11F03D
:10193000411105C040E0BE0188EE93E043C0813113
:1019400030F050EF580F503618F05FE501C050E00E
:10195000852F6CE00E940118682F74EF76039001C8
:101960001124250F311D2C30310540F4F901EE0F03
:10197000FF1FEC5CFE4F2081318102C020E030E08F
:10198000873081F0082E02C0220F331F0A94E2F73D
:10199000823028F0C90105966AE070E00CC0C901E8
:1019A00090580CC0C90136E0880F991F3A95E1F7AD
:1019B000029665E070E00E940D18CB01403108F0FE
:1019C0004FE0BE010E94D70BDF91CF910895A2E0B6
:1019D000B0E0EDEEFCE00C94A01890900A0180912C
:1019E0007A01882321F060917901611117C0772471
:1019F0007394B0ECAB2EBDE5BB2E1AE0612E04E073
:101A0000802E80EDC82E87E0D82E94E0E92EF12CB0
:101A100004EF11E02FE0422E512C15C070E040E0A1
:101A200088EE93E00E94D70B1092790117C1863699
:101A3000D4F5813609F4A9C07CF58C3309F460C073
:101A40008E3381F493940E947B0B20917601309128
:101A500077012F5F3F4F30937701209376018536D2
:101A600031F752C0813209F08BC080920A01D092C6
:101A70000901C0920801F0920701E092060110935B
:101A8000050100930401509203014092020110925B
:101A90007A01A4E09A2ED7CF8336A1F10CF478C056
:101AA00010E082E077C08D36C1F194F4873691F171
:101AB00074F18C3609F064C00E94980BBC019093BD
:101AC000070180930601809108019091090151C09E
:101AD0008237C9F14CF48F3609F052C00E94980B3E
:101AE000982E80930A01AFCF843781F1863709F0B1
:101AF00047C00E94980B9093030180930201A3CFEB
:101B00009A94A1CF10E020C010E084E043C010E020
:101B100085E040C010E087E03DC00E947B0B8C3622
:101B200019F410927A0104C070927A01109279012E
:101B300020917601309177012F5F3F4F30937701ED
:101B40002093760180CF11E080E024C00E94980BA2
:101B5000BC01C5010E940D18669EC001679E900DD4
:101B600011249093090180930801609106017091FE
:101B700007010E940D18709305016093040163CF63
:101B8000109277011092760169C010E089E002C0DE
:101B900010E08BE0082F9CE0999E000D11240E941C
:101BA0007B0B982F977F933261F4209176013091CF
:101BB00077012F5F3F4F30937701209376010F5FBE
:101BC000EECF8D3271F420917601309177012F5F45
:101BD0003F4F309377012093760101500E947B0B99
:101BE000F0CF60910401709105018153883050F469
:101BF000E0900801F09009010E94980BBC01C70118
:101C00000E940D187B01F694E79469837A830E9401
:101C10007B0B69817A818E3269F420917601309153
:101C200077012F5F3F4F30937701209376016E0D40
:101C30007F1DE9CF80917A01882339F09B01369589
:101C4000279520937901621B7109409102011123AC
:101C500011F08FEF01C0802F0E94930C2296E0E1DB
:101C60000C94BC181F920F920FB60F9211242F9351
:101C70003F934F935F936F937F938F939F93AF9314
:101C8000BF93EF93FF9380917D0190917E019C0122
:101C90002150310930937E0120937D01892B11F56C
:101CA00010926F00789480918100887F816080938A
:101CB000810080E197E290938900809388001092E0
:101CC0008B0010928A0081E080930B018091760155
:101CD00090917701892B31F080917C01811102C0B4
:101CE0000E94E70CFF91EF91BF91AF919F918F916F
:101CF0007F916F915F914F913F912F910F900FBE08
:101D00000F901F90189510926F0090937701809319
:101D1000760181E080937B01109279010E94E70CAB
:101D200008950E94830E089581E090E06F9364E02F
:101D30006A95F1F76F910197C9F708950F931F9373
:101D4000CF93DF931AB157985A98289AC0E0D0E001
:101D50000E94940E5C9A0E94940E09B15C980E94B5
:101D6000940E5C9A0E94940E5C98249607FF10C013
:101D7000AE0160E070E080917F0190918001A091C0
:101D80008101B0918201481759076A077B0700F368
:101D90001AB9DF91CF911F910F91089595B1282F16
:101DA000217030E0220F331F482F467068E0469FB5
:101DB000A0011124242B9D7C292B25B99BB188706F
:101DC0008295807F9F77892B8BB95C9A0E94940EB5
:101DD0005C980E94940E0895A0E0B0E0E2EFFEE06F
:101DE0000C94A918C82FD62EE42E8091E9018111F8
:101DF00005C081E08093E9010E94320F0E949E0E8F
:101E000014B1D5B1FAB00BB12898DD2011F05A9A6F
:101E100001C05A9894B1926394B9579A81E0E81638
:101E200029F08C2F82958F700E94CE0E8C2F8F7090
:101E30000E94CE0EFAB80BB914B9D5B9CDB7DEB73A
:101E4000E7E00C94C51842E060E00E94EC0E0895B3
:101E500042E061E00E94EC0E089541E060E00E94E3
:101E6000EC0E089580E197E2A0E0B0E080937F015E
:101E700090938001A0938101B0938201529A209A9D
:101E8000549A8EE190E00E945C1283E00E942D0F34
:101E900086E090E00E945C1283E00E942D0F82E0B9
:101EA00090E00E945C1283E00E942D0F82E090E09F
:101EB0000E945C1282E00E942D0F82E090E00E945E
:101EC0005C1288E20E94230F88E00E94230F81E0C9
:101ED0000E94230F86E00E94230F8CE00E94230FB4
:101EE000089581E00E94230F8091850190918601E1
:101EF000892BF9F060E0A0E2262F30E070910C0110
:101F000080910D0190E00197789FA001799F500D7D
:101F10001124241735074CF4E0918501F0918601D6
:101F2000E20FF31FA0836F5FE7CF1092830110923F
:101F3000840108950E94710F0895CF93DF93EC01FF
:101F40008991882319F00E94280FFACFDF91CF9151
:101F500008950E949D0F0895AAE0B0E0E2EBFFE033
:101F60000C94A8181AE05AE0C52ED12CE12CF12CC3
:101F7000062FA70196010E943518CA01B901115018
:101F8000E1E0F0E0EC0FFD1FE10FF11D005D2AE044
:101F9000629F001911240083611571058105910567
:101FA00039F71A3058F4E1E0F0E0EC0FFD1FE10FD3
:101FB000F11D80810E94280F1F5FF3CF2A96E8E071
:101FC0000C94C418CF92DF92EF92FF926B017C01C8
:101FD00097FF0BC0F094E094D094C094C11CD11C26
:101FE000E11CF11C8DE20E94280FC701B6010E947E
:101FF000AC0FFF90EF90DF90CF9008950E94E20F1A
:1020000008958A3010F4805D01C0895C0E94280F19
:102010000895CF93C82F82958F700E9401108C2F46
:102020008F700E940110CF910895CF93C82F892FF0
:102030000E9409108C2F0E940910CF9108950E94D0
:1020400015100895A5E0B0E0E8E2F0E10C94AD18B9
:10205000182F80E8898380EC8A8384E98B8384ED60
:102060008C83FE01E60FF11D8181810F6D830E943B
:10207000230F109383016D81609384012596E3E023
:102080000C94C9180E9422100895883058F491E0E9
:1020900001C0990F8A95EAF7892FAAE2B0E0EBE236
:1020A000F0E021C08E3060F498EF980F81E001C01D
:1020B000880F9A95EAF7A4E2B0E0E5E2F0E013C0F9
:1020C000853160F492EF980F81E001C0880F9A95F6
:1020D000EAF7A7E2B0E0E8E2F0E005C080E0A0E0C7
:1020E000B0E0E0E0F0E06F3F19F49081982709C07C
:1020F000662319F09081982B04C02081982F909529
:10210000922390839C91982B9C93089583EF8093C6
:10211000B00084BD82E08093B10085BD1092B40010
:102120001092B30018BC17BC60E086E00E94451016
:1021300060E085E00E94451060E08BE00E94451061
:1021400060E083E00E94451008958091EA018111CA
:1021500005C081E08093EA010E9486100895CF9324
:10216000DF93EC010E94A510D7FF05C0D195C19562
:10217000D10981E001C080E0CF3FD10519F014F012
:10218000CFEFD0E0882319F018BCC7BD02C0C8BD8E
:1021900017BCDF91CF910895CF93DF93EC010E949C
:1021A000A510D7FF05C0D195C195D10981E001C027
:1021B00080E0CF3FD10519F014F0CFEFD0E08823B5
:1021C00029F01092B400C093B30004C0C093B400CF
:1021D0001092B300DF91CF910895CF93DF93EB017D
:1021E0000E94AF10CE010E94CC10DF91CF910895D4
:1021F0000E94ED10089584B18D7C84B985B182630D
:1022000085B985E090E06F9364E06A95F1F76F918E
:102210000197C9F708958091EB01811105C081E014
:102220008093EB010E94FB100895CF93C82F0E946A
:102230000B1183B18C23E9F38AE090E00E945C12D9
:1022400083B18C23B1F383B18C23CF9108950E9485
:1022500015110895A1E0B0E0E0E3F1E10C94AE18AF
:1022600089830E940B1193B19095898189232196CE
:10227000E2E00C94CA180E942A110895282F30E039
:102280009AE0899FF0011124E957FE4F80859185DE
:10229000009721F052814481541780F08AE0829F98
:1022A000F001839FF00D1124E957FE4F9281848144
:1022B00098130EC0858181110AC008954281DC0106
:1022C000A40FB11D6C9382818F5F8283E7CF12824E
:1022D00008959091C1009F779093C1009AE0899FE3
:1022E000F0011124E957FE4F718760871282448301
:1022F00025838081811105C08091C1008068809311
:10230000C1000895462F20E0BC0180E00E946911C1
:1023100008950E94821108951F920F920FB60F9296
:1023200011242F933F934F935F936F937F938F93DA
:102330009F93AF93BF93EF93FF936091C60080E0AC
:102340000E943E11FF91EF91BF91AF919F918F91AC
:102350007F916F915F914F913F912F910F900FBEA1
:102360000F901F9018959AE0899FF0011124E9576A
:10237000FE4F86819781892B59F09181838198172F
:1023800038F48081811104C08091C100806203C053
:102390008091C1008F7D8093C10008959AE0899F4C
:1023A000F0011124E957FE4F2681378121153105AF
:1023B00041F041819381491720F49091C00095FD2F
:1023C00003C00E94B31108959181D901A90FB11DD5
:1023D0009C919093C60091819F5F9183F2CF1F9251
:1023E0000F920FB60F9211242F933F934F935F9349
:1023F0006F937F938F939F93AF93BF93EF93FF93CD
:1024000080E00E94CE11FF91EF91BF91AF919F911B
:102410008F917F916F915F914F913F912F910F908D
:102420000FBE0F901F9018952F928F939F932FB6EA
:1024300080919801909199010196809398019093D1
:10244000990190E080919A01891F80939A0190915F
:1024500092019C5F909392018091910180519742EB
:10246000C0F090939201809391018091930190919B
:1024700094010196809393019093940190E0809150
:102480009501891F8093950180919601891F809302
:1024900096012FBE9F918F912F90189528EE33E0D3
:1024A000019748F0F9016F9364E06A95F1F76F9135
:1024B0003197C9F7F5CF08950E944E120895E0E7CD
:1024C000F0E080818E7F8083A0EBB0E08C91836010
:1024D0008C93A1EBB0E08C91807F8C938C91826087
:1024E0008C93B89A808181608083789408958091DC
:1024F000EC01811105C081E08093EC010E945F1224
:1025000008950E947712E0E7F0E080818E7F80835B
:102510006091930170919401809195019091960141
:1025200020812160208308950E94811208950E94D5
:102530007712E0E7F0E080818E7F80831092930134
:1025400010929401109295011092960110929201AE
:10255000109291018081816080830895462FBC0193
:102560008BE991E00E943F150895682F8BE991E077
:102570000E949D160895462F20E0BC018BE991E052
:102580000E946E1708950F93CF93DF9300D000D071
:102590001F92CDB7DEB79C0185E0ECE4F1E0DE01EF
:1025A000119601900D928A95E1F7662311F00FEFD5
:1025B00001C003E145E0BE016F5F7F4F8BE991E011
:1025C0000E9495138BE991E00E946C130E94971270
:1025D0000F900F900F900F900F90DF91CF910F9170
:1025E000089560E00E94C31208958BE991E00E9473
:1025F000E31708956F9364E06A95F1F76F9101977F
:10260000C9F70895FC01118210821382128215828B
:1026100014821682683068F489E290E091838083A6
:102620008BE290E0938382838AE290E095838483B7
:102630001FC06E3070F483E290E09183808385E266
:1026400090E09383828384E290E095838483685052
:102650000FC0653198F486E290E09183808388E230
:1026600090E09383828387E290E0958384836E5029
:1026700081E001C0880F6A95EAF786830895A7E094
:10268000B0E0E5E4F3E10C94AC188C01FC0111829C
:10269000108213821282158214821782168261318F
:1026A00018F080E1808702C0FC016087F801208B70
:1026B000642FCE0101960E9402138F81F801818759
:1026C0008B819C81938782878D819E81958784876A
:1026D0002796E4E00C94C818FC01A485B5851097F2
:1026E00079F08C919185892B8C93A285B3859C91EF
:1026F0008185809589238C9388EC90E00E94FA1262
:102700000895FC01A485B585109771F08C91918591
:10271000892B8C93A285B3858C919185892B8C9381
:1027200088EC90E00E94FA120895A7E0B0E0EBE98F
:10273000F3E10C94A1187C014B01642F3901402F67
:1027400020E00E943F1387010F5B1F4FF8011082AA
:102750006701F2E4CF0ED11CF60110825701F3E4B9
:10276000AF0EB11CF5011082F70177866686512CF9
:10277000F7018085581650F5652C712CF401E60D93
:10278000F71D6081CE0101960E9402132F81F7018F
:10279000E60DF71D218B89819A81F301EE0FFF1F52
:1027A000EE0DFF1D92A381A38332910511F4F80170
:1027B00008C08632910511F4F60103C0899721F40F
:1027C000F5018081822B80835394D2CF2796EFE04E
:1027D0000C94BD18A0E0B0E0E0EFF3E10C94A31876
:1027E000EC015B016C0181E4C80ED11CF601808014
:1027F0007E01F2E4EF0EF11CF70170808E010D5B9B
:102800001F4FF801908080E09885891748F4F50102
:10281000E80FF11DE80FF11D118210828F5FF4CFD8
:1028200084B1F6019081892B84B987B1F701908139
:10283000892B87B98AB1F8019081892B8AB985B132
:10284000F6019081892B85B988B1F7019081892B98
:1028500088B98BB1F8019081892B8BB98AE090E01F
:102860000E94FA1294B1F60180818095892384B97F
:1028700097B1F70180818095892387B99AB1F801D2
:102880008081809589238AB995B1F60180818095F0
:10289000892385B998B1F70180818095892388B90A
:1028A0009BB1F8018081809589238BB9E090B000BD
:1028B000D090B1008091B00083608093B00082E03E
:1028C0008093B1004091B20080E090E02E853F857A
:1028D0008217930720F5C090B2002C2D241B820F85
:1028E000911D03B1081132C0F6B0F7102FC029B105
:1028F00029112CC010C0212F30E0A901440F551F11
:10290000F501E40FF51F60817181672B21F11F5FD5
:102910002885121780F37F2C802E4C2DD7CFE09284
:10292000B000D092B10020E08885281730F5F5017D
:10293000E20FF11DE20FF11D80819181892B21F4BD
:102940008E859F85918380832F5FEECF03B1F6B094
:1029500099B010E0DDCFDE01A40FB51F91960D9068
:10296000BC91A02D4C91DE01A20FB31F51962C916A
:10297000422369F691838083CACFCDB7DEB7EDE0FD
:102980000C94BF18EF92FF920F931F93CF93DF9396
:10299000FC019B01F0907C0000917A0047B118B1D6
:1029A00080917A0086FDFCCF80E09085891748F4FD
:1029B000D901A80FB11DA80FB11D1D921C928F5FE8
:1029C000F4CF97B182A18095892387B998B182A16C
:1029D0008095892388B987E880937A00E12C81A1CA
:1029E000E81610F0E12C29C050E08085581718F542
:1029F000A52FB0E0EF01CA0FDB1F898980648093A7
:102A00007C0080917A00806480937A0080917A00C3
:102A100086FDFCCF6091780070917900AA0FBB1FF2
:102A2000A20FB31F8D919C911197860F971F8D93C5
:102A30009C935F5FDACFE394D2CF8085E816A0F451
:102A4000E901CE0DD11DCE0DD11D61A170E0CB01EC
:102A500095958795A881B9818A0F9B1F0E940D18B3
:102A600079836883E394E9CFF0927C0000937A0045
:102A700018B947B9CDB7DEB7E6E00C94C618A0E2A6
:102A8000B0E0E5E4F5E10C94A9188C017B01D42EAB
:102A90008FEF840F823018F4C8010E948113D8018F
:102AA00050968C91B701811110C0C8010E94EA13A1
:102AB000C8010E946C13B2E0DB123AC0BE016F5F26
:102AC0007F4FC8010E94EA130FC0C8010E94C214C0
:102AD000C8010E946C13E2E0DE122AC0BE016F5FE3
:102AE0007F4FC8010E94C21440E0F801808548175A
:102AF000F8F4842F90E0880F991FF701E80FF91F71
:102B000021E030E02C0F3D1F820F931FD8011E964D
:102B10002D913C911F97DC018D919C91281B390BC5
:102B200080819181820F931F918380834F5FDDCFDE
:102B3000A096E7E00C94C5182F923F925F926F9297
:102B40007F928F929F92AF92BF92CF92DF92EF923D
:102B5000FF920F931F93CF93DF93CDB7DEB7C0568D
:102B6000D1090FB6F894DEBF0FBECDBF8C014B016B
:102B70005A01522EDA018D919C91892B31F0F4018A
:102B800080819181892BF1F424C0D80118968C9111
:102B900090E0880F991F0E94311BF501918380837B
:102BA000009709F4B1C0FC0120E030E0D80118968C
:102BB0008C9190E02817390714F7119211922F5F2A
:102BC0003F4FF4CFE12CF12C6E01B1E2CB0ED11CC2
:102BD00021C0F801808590E0880F991F0E94311B69
:102BE000D4018D939C93009709F48EC0FC0120E0E2
:102BF00030E0D80118968C9190E02817390714F727
:102C0000D8011E968D919C911F97819391932F5F70
:102C10003F4FEFCF452DBE016F5B7F4FC8010E9434
:102C20003F15F8016084712CFE01EF5BFF4FC60178
:102C30009E012F5F3F4F190120E030E02615370538
:102C40004CF5E114F10489F0DC016D917C91408137
:102C500051816417750748F0D1016D917C914081D5
:102C600051814617570748F00DC040815181DC0162
:102C70004D935C93E114F10479F740815181D101C6
:102C80004D935C932F5F3F4FB2E02B0E311C329679
:102C90000296D4CFEFEFEE1AFE0AFAE0EF16F10437
:102CA00009F0B8CF9E012F5F3F4F7901360180E0D8
:102CB00090E0F801208530E0821793072CF5D701CA
:102CC0002D913D917D01B3016C197D09D501ED91E7
:102CD000FC91E60FF71F408151814217530710F412
:102CE00031832083F301219131913F01D401ED9192
:102CF000FC91E60FF71F408151812417350710F42E
:102D0000318320830196D5CFC05ADF4F0FB6F89498
:102D1000DEBF0FBECDBFDF91CF911F910F91FF900E
:102D2000EF90DF90CF90BF90AF909F908F907F906B
:102D30006F905F903F902F9008951F93CF93DF93F4
:102D4000EC01162F8FEF860F823018F0662359F0B2
:102D500014C021E0AE014E5F5F4FBE01CE010E9464
:102D60009C15123051F4AE014A5F5F4FBE016C5F9B
:102D70007F4F20E0CE010E949C15DF91CF911F91E3
:102D80000895A0E0B0E0E7ECF6E10C94A718EC01A0
:102D90008B01B42E842F8D7F51F48C819D81892BE2
:102DA00009F497C08E819F81892B09F492C08FEF1F
:102DB0008B0D823050F488819981892B09F489C068
:102DC0008A819B81892B09F484C04B2DB801CE01E7
:102DD0000E943F15780100E010E0C12CD12C8885BD
:102DE00090E0C816D9060CF074C081E0B8120AC091
:102DF000EA81FB81E00FF11F0190F081E02DA881B5
:102E0000B9810DC08C819D812E813F81B1100CC094
:102E1000F901E00FF11F0190F081E02DDC01A00F1E
:102E2000B11F8D919C9128C0FC01E00FF11F4081E2
:102E30005181E881F981E00FF11F80819181EE8558
:102E4000FF854817590710F4CF0104C08E0F9F1F4C
:102E5000841B950BD901A00FB11F2D913C91AA8124
:102E6000BB81A00FB11F4D915C912417350720F055
:102E7000E40FF51FE21BF30BE81BF90BA9F0D701D8
:102E80002D913C9140E050E0281B390B410951093C
:102E9000A8EEB3E00E948B189F0140E050E00E9432
:102EA000571837FD0AC002C020E030E0293EB3E0E9
:102EB0003B072CF028EE33E002C020E030E0F701C1
:102EC000219331937F01FFEFCF1ADF0A0E5F1F4F6F
:102ED00086CFCDB7DEB7E9E00C94C318A0E0B0E030
:102EE000E4E7F7E10C949E18EC018B01822E0E941E
:102EF000C1162884E801412C512C320100E010E079
:102F0000C12CD12C7601312C912C58EEA52E53E0FA
:102F1000B52E921421F1E991F991882021F0C50193
:102F20008E1B9F0BFC01E93CF10524F4E333F10512
:102F300074F002C033243394DF01A30192010E9494
:102F40009618C60ED71EE81EF91E0E0F1F1F93946B
:102F500098EE490E93E0591E611C711CDACF3110B6
:102F60001EC0492D50E04150510924EF31E0429FED
:102F7000C001439F900D529F900D11242091DF01BD
:102F80003091E00128173907B4F088EE93E0489FAC
:102F90009001499F300D589F300D11240EC09801AB
:102FA00040E050E0C701B6010E9435183093E001BF
:102FB0002093DF0102C020E030E0C901CDB7DEB7C9
:102FC000E2E10C94BA18CF93DF93EC018A819B81E4
:102FD000009711F00E94C91B8E819F81009711F00C
:102FE0000E94C91B88819981009711F00E94C91B1A
:102FF0008C819D81009711F00E94C91BDF91CF91B8
:103000000895991B79E004C0991F961708F0961B44
:10301000881F7A95C9F780950895AA1BBB1B51E1BB
:1030200007C0AA1FBB1FA617B70710F0A61BB70B38
:10303000881F991F5A95A9F780959095BC01CD01DD
:10304000089597FB072E16F4009407D077FD09D05A
:103050000E940D1807FC05D03EF4909581959F4F76
:103060000895709561957F4F0895A1E21A2EAA1BCD
:10307000BB1BFD010DC0AA1FBB1FEE1FFF1FA21728
:10308000B307E407F50720F0A21BB30BE40BF50B25
:10309000661F771F881F991F1A9469F760957095AE
:1030A000809590959B01AC01BD01CF010895052E3F
:1030B00097FB1EF400940E946E1857FD07D00E94E3
:1030C000351807FC03D04EF40C946E1850954095BB
:1030D000309521953F4F4F4F5F4F089590958095C4
:1030E000709561957F4F8F4F9F4F0895EE0FFF1F93
:1030F0000590F491E02D0994A29FB001B39FC00107
:10310000A39F700D811D1124911DB29F700D811D13
:103110001124911D08950E947C18A59F900DB49FC5
:10312000900DA49F800D911D11240895B7FF0C945C
:103130008B180E948B18821B930B08952F923F923D
:103140004F925F926F927F928F929F92AF92BF92B7
:10315000CF92DF92EF92FF920F931F93CF93DF9363
:10316000CDB7DEB7CA1BDB0B0FB6F894DEBF0FBEC0
:10317000CDBF09942A88398848885F846E847D840D
:103180008C849B84AA84B984C884DF80EE80FD800F
:103190000C811B81AA81B981CE0FD11D0FB6F89485
:1031A000DEBF0FBECDBFED0108955058BB27AA2743
:1031B0000E94ED180C94F5190E94E71938F00E944E
:1031C000EE1920F039F49F3F19F426F40C94E41919
:1031D0000EF4E095E7FB0C94DE19E92F0E94061A25
:1031E00058F3BA17620773078407950720F079F43C
:1031F000A6F50C94281A0EF4E0950B2EBA2FA02DEC
:103200000B01B90190010C01CA01A0011124FF2793
:10321000591B99F0593F50F4503E68F11A16F0408E
:10322000A22F232F342F4427585FF3CF469537958D
:103230002795A795F0405395C9F77EF41F16BA0B52
:10324000620B730B840BBAF09150A1F0FF0FBB1F00
:10325000661F771F881FC2F70EC0BA0F621F731F49
:10326000841F48F4879577956795B795F7959E3FA6
:1032700008F0B0CF9395880F08F09927EE0F979537
:10328000879508950E94BA1908F481E008950E9474
:103290004E196894B1110C94291A08950E940E1ABF
:1032A00088F09F5798F0B92F9927B751B0F0E1F007
:1032B000660F771F881F991F1AF0BA95C9F714C0B7
:1032C000B13091F00E94281AB1E008950C94281AA8
:1032D000672F782F8827B85F39F0B93FCCF38695F0
:1032E00077956795B395D9F73EF49095809570954D
:1032F00061957F4F8F4F9F4F0895E89409C097FBCA
:103300003EF490958095709561957F4F8F4F9F4FBC
:103310009923A9F0F92F96E9BB279395F695879500
:1033200077956795B795F111F8CFFAF4BB0F11F4C3
:1033300060FF1BC06F5F7F4F8F4F9F4F16C088236A
:1033400011F096E911C0772321F09EE8872F762FA0
:1033500005C0662371F096E8862F70E060E02AF0E1
:103360009A95660F771F881FDAF7880F96958795CD
:1033700097F90895990F0008550FAA0BE0E8FEEFA2
:1033800016161706E807F907C0F012161306E40729
:10339000F50798F0621B730B840B950B39F40A2622
:1033A00061F0232B242B252B21F408950A2609F400
:1033B000A140A6958FEF811D811D089597F99F6704
:1033C00080E870E060E008959FEF80EC08950024AD
:1033D0000A941616170618060906089500240A947A
:1033E00012161306140605060895092E0394000C00
:1033F00011F4882352F0BB0F40F4BF2B11F460FF8F
:1034000004C06F5F7F4F8F4F9F4F089557FD9058B7
:10341000440F551F59F05F3F71F04795880F97FB98
:10342000991F61F09F3F79F0879508951216130652
:103430001406551FF2CF4695F1DF08C01616170681
:103440001806991FF1CF86957105610508940895B6
:10345000E894BB2766277727CB0197F908950E9448
:10346000BA1908F48FEF08950E94471A0C94F519C1
:103470000E94E71938F00E94EE1920F0952311F010
:103480000C94DE190C94E41911240C94291A0E944E
:10349000061A70F3959FC1F3950F50E0551F629F78
:1034A000F001729FBB27F00DB11D639FAA27F00D9D
:1034B000B11DAA1F649F6627B00DA11D661F829FC4
:1034C0002227B00DA11D621F739FB00DA11D621FA9
:1034D000839FA00D611D221F749F3327A00D611DC6
:1034E000231F849F600D211D822F762F6A2F1124A8
:1034F0009F5750409AF0F1F088234AF0EE0FFF1FDB
:10350000BB1F661F771F881F91505040A9F79E3F31
:10351000510580F00C94DE190C94291A5F3FE4F3F6
:10352000983ED4F3869577956795B795F795E79587
:103530009F5FC1F7FE2B880F911D9695879597F990
:1035400008959F930E94B91A0F9007FCEE5F0C94A8
:10355000E21A9F3F31F0915020F487957795679557
:10356000B795880F911D9695879597F908950C94B6
:10357000E4190E940E1AD8F3E894E0E0BB279F57A5
:10358000F0F02AED3FE049EC06C0EE0FBB0F661FDE
:10359000771F881F28F0B23A62077307840728F064
:1035A000B25A620B730B840BE3959A9572F78038CD
:1035B00030F49A95BB0F661F771F881FD2F790488B
:1035C0000C94AB1AEF93E0FF07C0A2EA2AED3FE0AC
:1035D00049EC5FEB0E94ED180E94F5190F900394DF
:1035E00001FC9058E8E6F0E00C94F61A9F938F9354
:1035F0007F936F93FF93EF939B01AC010E94341A6A
:10360000EF91FF910E940A1B2F913F914F915F9183
:103610000C94341ADF93CF931F930F93FF92EF9282
:10362000DF927B018C01689406C0DA2EEF010E94C4
:10363000471AFE01E894A591259135914591559140
:10364000A6F3EF010E94ED18FE019701A801DA949C
:1036500069F7DF90EF90FF900F911F91CF91DF916D
:1036600008950F931F93CF93DF938230910510F449
:1036700082E090E0E0915D02F0915E0220E030E0B7
:10368000A0E0B0E0309719F14081518102811381AF
:1036900048175907C8F08417950769F4109731F057
:1036A00012960C93129713961C9327C000935D02F9
:1036B00010935E0222C02115310519F042175307FD
:1036C00018F49A01BD01EF01DF01F801DBCF2115EC
:1036D0003105F9F0281B390B2430310580F48A813B
:1036E0009B816115710521F0FB019383828304C0E6
:1036F00090935E0280935D02FE01329644C0FE010B
:10370000E20FF31F8193919322503109398328836B
:103710003AC020915B0230915C02232B41F420914E
:1037200010013091110130935C0220935B022091D3
:103730000E0130910F012115310541F42DB73EB72F
:103740004091120150911301241B350BE0915B0253
:10375000F0915C02E217F307A0F42E1B3F0B281731
:10376000390778F0AC014E5F5F4F2417350748F0FA
:103770004E0F5F1F50935C0240935B0281939193C5
:1037800002C0E0E0F0E0CF01DF91CF911F910F91F7
:103790000895CF93DF93009709F481C0FC0132971D
:1037A00013821282A0915D02B0915E02109781F4A3
:1037B00020813181820F931F20915B0230915C0246
:1037C0002817390751F5F0935C02E0935B0267C05C
:1037D000ED0120E030E0CE17DF0740F44A815B8145
:1037E0009E0141155105F1F0EA01F5CFD383C28363
:1037F00040815181840F951FC817D90759F48881DA
:103800009981840F951F0296918380838A819B8181
:10381000938382832115310529F4F0935E02E093AE
:103820005D023DC0E901FB83EA8349915991C40FD0
:10383000D51FEC17FD0761F480819181840F951FDE
:103840000296E90199838883828193819B838A838D
:10385000E0E0F0E012968D919C911397009719F09B
:10386000FD01DC01F7CF8D919C9111979D012E5F99
:103870003F4F820F931F20915B0230915C0228170B
:10388000390769F4309729F410925E0210925D02B4
:1038900002C013821282B0935C02A0935B02DF919C
:1038A000CF91089510E0C1E6D0E004C0FE010E946F
:0E38B00076182196C236D107C9F7F894FFCFDB
:1038BE0088130F00F4010400D00704010802000071
:1038CE005F02200003010002020301000002030157
:1038DE0001000203040001000400020004000300C2
:1038EE00010001009C01B501CF01EA010702260289
:1038FE00470269028E02B502DE020A030E0F101194
:10390E001250726F64756374006D56006472756B3D
:10391E002042002020006472756B206F70004220E0
:06392E006B6E6F700000DB
:00000001FF
