S0140000526F626F7452756E477269642E737265634F
S11300000C945E000C947B000C947B000C947B009D
S11300100C947B000C947B000C947B000C947B0070
S11300200C947B000C943B120C947B000C947B008E
S11300300C947B000C941F100C947B000C947B009C
S11300400C947B000C947B000C947B000C947B0040
S11300500C947B000C947B000C947B000C947B0030
S11300600C947B000C947B00FA01060212021E021F
S11300702F0240024C025A028F029E02AD02D102AC
S1130080F50219035103420305A84CCDB2D44EB96D
S11300903836A9020C50B9918688083CA6AAAA2A27
S11300A0BE000000803F3E6733323E3E6333320081
S11300B03E6733323E3E63333200C61211241FBE04
S11300C0CFEFD8E0DEBFCDBF11E0A0E0B1E0E8EBB8
S11300D0FFE202C005900D92AA33B107D9F722E0DE
S11300E0AAE3B1E001C01D92AC30B207E1F70E946F
S11300F097040C94CF170C940000CF92DF92EF92E8
S1130100FF920F931F93FB010081118122813381A0
S1130110FC01C080D180E280F380FB01C082D182E7
S1130120E282F382FC0100831183228333831F91D3
S11301300F91FF90EF90DF90CF9008952F923F9210
S11301404F925F926F927F928F929F92AF92BF92E3
S1130150CF92DF92EF92FF920F931F93CF93DF938F
S1130160CDB7DEB7A5970FB6F894DEBF0FBECDBFEF
S11301709BA38AA36CA37DA3069698A38F8FB6C076
S11301807E8E6D8EF3010190F081E02DFA8FE98F60
S1130190BF01FF0F880B990B0E94690B6B017C0157
S11301A03C8E2B8EF10100811181B801012E000CCF
S11301B0880B990B0E94690B4B015C019B01AC01FC
S11301C00E941E0C698B7A8B8B8B9C8BA5019401EE
S11301D0C501B4010E941E0C4B015C01A7019601EC
S11301E0C701B6010E941E0C9B01AC01C501B401FC
S11301F00E94C00A0E94990C6B017C01F201619378
S11302007193819391932F01E98B59A280809180FE
S1130210A280B380A50194010E94190C1816D4F48D
S1130220B2018D899E890E947D00F30182819381B0
S1130230208131813383228391838083F101828100
S113024093812081318133832283918380831F8A28
S1130250188E36C0C701B6010E94310B7B01C5015F
S1130260B4010E94310BE616F70651F5EB8DFC8DB7
S1130270828193810817190719F5ED8DFE8D82810E
S11302809381298D3A8D28173907D4F4698979A186
S11302908D899E890E947D00ED8DFE8D82819381E2
S11302A0208131813383228391838083EB8DFC8D84
S11302B0828193812081318133832283918380835E
S11302C0F2E06F0E711C22E0220E311C8D899E8992
S11302D004969E8B8D8BEF8DF8A16E167F0609F028
S11302E04FCF2F89388D2130310569F06AA07BA06A
S11302F02CA03DA0CE0101962C019E8B8D8B91E00C
S11303009F8B188E3DCFA5960FB6F894DEBF0FBE17
S1130310CDBFDF91CF911F910F91FF90EF90DF90B0
S1130320CF90BF90AF909F908F907F906F905F9091
S11303304F903F902F900895CF93C82F2AE037ED28
S113034043E65FE3682F86E490E00E94E70482E3DB
S113035090E00E9483122AE037ED43E65FE36C2FBE
S113036080E090E00E94E704CF9108952F923F929D
S11303704F925F926F927F928F929F92AF92BF92B1
S1130380CF92DF92EF92FF920F931F93CF93DF935D
S11303908C0185E090E0F80191A780A7C1E0D0E04E
S11303A00F2EF7E08F2E912CF02D0F2EF6E0AF2EAE
S11303B0B12CF02D0F2EF5E0CF2ED12CF02D68941A
S11303C0EE24E2F8F12C0F2EF3E06F2E712CF02DB9
S11303D06894442441F8512C22242394312C0E9403
S11303E08809019788309105D0F78C5C9F4FFC01F8
S11303F00C944F16FE01EE0FFF1FE00FF11F318228
S1130400208282E50E949C012196E9CFFE01EE0F35
S1130410FF1FE00FF11F518240828CE40E949C0177
S11304202196DDCF8CE40E949C01FE01EE0FFF1F9C
S1130430E00FF11F718260822196D1CFFE01EE0F91
S1130440FF1FE00FF11FF182E0822AE037ED43E65F
S11304505FE366E480E590E00E94E704C0CFFE011C
S1130460EE0FFF1FE00FF11FD182C0822AE037EDAB
S113047043E65FE366E480E590E00E94E704AFCFE3
S11304808CE40E949C012196FE01EE0FFF1FE00FF9
S1130490F11FB182A082A3CFFE01EE0FFF1FE00F78
S11304A0F11F9182808282E50E949C0182E50E9474
S11304B09C0195CFFE01EE0FFF1FE00FF11F88E0B6
S11304C090E0918380831C161D060CF0EFC0D801C8
S11304D021E030E0E12CF12C80E090E06894662487
S11304E063F8712C48E20F2EF6E04F2E512CF02DBC
S11304F00F2EF3E02F2E312CF02D6894CC24C1F86C
S1130500D12CAA24A394B12CED91FD913197E8301C
S1130510F10508F0C6C0E45CFF4F0C944F16429FEF
S1130520F001439FF00D1124E00FF11FBC01660F91
S1130530771FE60FF71FB182A082B3C0429FF0017C
S1130540439FF00D1124E00FF11FBC01660F771FCC
S1130550E60FF71FD182C082A4C06D917C911197E0
S11305606730710579F4429FF001439FF00D112427
S1130570E00FF11FBC01660F771FE60FF71FB18272
S1130580A0828FC0429FF001439FF00D1124E00F21
S1130590F11FBC01660F771FE60FF71FD182C082DF
S11305A080C06D917C9111976730710579F4429FF9
S11305B0F001439FF00D1124E00FF11FBC01660F01
S11305C0771FE60FF71FB182A0826BC0429FF00134
S11305D0439FF00D1124E00FF11FBC01660F771F3C
S11305E0E60FF71F318220825CC06D917C911197D8
S11305F06730710579F4429FF001439FF00D112497
S1130600E00FF11FBC01660F771FE60FF71FB182E1
S1130610A08247C0429FF001439FF00D1124E00FD8
S1130620F11FBC01660F771FE60FF71FD182C0824E
S113063038C0FFEFEF1AFF0A429F4001439F900C1E
S11306401124800E911EFC01EE0FFF1FE80DF91D11
S11306505182408252E0E516F10419F5BC01615063
S11306607109660F771FF401E60FF71F608171812E
S113067066307105B1F495963C922E929497E12CD4
S1130680F12C0FC0FD0197967C926E92969764E1CF
S113069070E061507109E9F73297118210822F5F7F
S11306A03F4F0196C817D90709F02ECFCE01DF912D
S11306B0CF911F910F91FF90EF90DF90CF90BF905B
S11306C0AF909F908F907F906F905F904F903F90EE
S11306D02F900895CF92DF92EF92FF920F931F9382
S11306E0CF93DF936C01EB017A018901413051050D
S11306F011F001E010E0C230D10519F482E50E9446
S11307009C0128E22C9FC0012D9F900D1124E8012B
S1130710CC0FDD1FC80FD91FCC0DDD1D0E9434097D
S11307200E948809892BD1F30E948809892B69F1D9
S1130730E114F10451F5899199918230910571F098
S11307401CF4019739F021C08330910559F00597C5
S113075099F01BC082E50E949C01E0CF8CE40E94CA
S11307609C01DCCF2AE037ED43E65FE366E480E5F5
S113077090E00E94E704D2CF2AE037ED43E65FE33E
S113078066E480E090E00E94E704DF91CF911F913E
S11307900F91FF90EF90DF90CF9008954F925F926A
S11307A06F927F928F929F92AF92BF92CF92DF927D
S11307B0EF92FF920F931F93CF93DF93082F192F7C
S11307C0D62FC72F4A01CA010E94B6013C019C01E1
S11307D040E050E061E070E0C4010E946A032AE056
S11307E037ED43E65FE362E586E490E00E94E704C8
S11307F082E390E00E9483122AE037ED43E65FE350
S113080062E580E090E00E94E704C02ED12EED2E38
S1130810FC2EA12CB12C00E010E044244394512C74
S11308200CC084E0A816B10411F4042D152DE2E0E7
S1130830CE0ED11CF2E0EF0EF11CE6018881998105
S1130840992324F48CE40E949C0113C01816190601
S11308501CF00130110569F482E50E949C0109C075
S11308602AE037ED43E65FE366E48AE590E00E9420
S1130870E70488819981892B99F70130110581F367
S11308802AE037ED43E65FE366E480E090E00E940F
S1130890E704E70188819981992344F48CE40E9458
S11308A09C0188819981892B41F414C0181619067A
S11308B0C4F782E50E949C01F4CF2AE037ED43E6B9
S11308C05FE366E48AE590E00E94E7048881998109
S11308D0892B99F780EB90E00E947E1088EC90E0E1
S11308E00E9483128FEFA81AB80AE5E0AE16B1048D
S11308F009F097CF930141E050E061E070E0C4015A
S11309000E946A0386EA90E00E947E10DF91CF91F4
S11309101F910F91FF90EF90DF90CF90BF90AF9019
S11309209F908F907F906F905F904F9008950F935A
S11309301F93CF93DF93CDB7DEB7C056D1090FB65F
S1130940F894DEBF0FBECDBFCE0101960E94B60162
S11309508C0188E0E2E1F1E0DE01AF5ABF4F019083
S11309600D928A95E1F788E0EAE1F1E0DE01A75A09
S1130970BF4F01900D928A95E1F7BE01675A7F4FF0
S1130980CE018F5A9F4F0E949E00980140E050E094
S113099061E070E0CE0101960E946A03AE014F5FF0
S11309A05F4FBE01675A7F4FCE018F5A9F4F0E94FF
S11309B0CE0380E090E0C05ADF4F0FB6F894DEBF5C
S11309C00FBECDBFDF91CF911F910F9108952F924C
S11309D03F924F925F926F927F928F929F92AF92CB
S11309E0BF92CF92DF92EF92FF920F931F93CF9318
S11309F0DF93CDB7DEB766970FB6F894DEBF0FBEB0
S1130A00CDBF1C0129833A834B835C83663461F038
S1130A1020F4623409F495C008C46C3409F4A9C202
S1130A20623509F41BC101C48091A1019091A20116
S1130A309101281B390B45E650E05A874987412C20
S1130A40512C3201032E000C440B550B2D833E8395
S1130A504F8358870E94BB128B012BED3FE049EC7A
S1130A6050E4C301B2010E941E0C0E948B0C23E8C7
S1130A7039EF42E25EE30E941E0C9B01AC01C3010C
S1130A80B2010E94BF0A4B015C016D817E818F819E
S1130A9098850E94690B9B01AC01C501B4010E94B9
S1130AA01E0C4B015C016091A1017091A201072E03
S1130AB0000C880B990B0E94690B9B01AC01C501CA
S1130AC0B4010E94C00A0E94310BDC01CB01BC01BD
S1130AD00E9438124801110FAA08BB080E94BB12D9
S1130AE0681979098A099B090E94670B6B017C01CB
S1130AF020E030E040E251E469817A818B819C817D
S1130B000E941E0C9B01AC01C701B6010E942C0B74
S1130B10882324F32AE037ED43E25CE3C301B20106
S1130B200E94C00A2B013C01A985BA851197BA8796
S1130B30A987AB2B09F08ECF3092A2012092A1019C
S1130B407AC38091A1019091A2019101281B390BD4
S1130B5045E650E05A874987412C512C3201032E37
S1130B60000C440B550B2D833E834F8358870E9402
S1130B70BB128B012BED3FE049EC50E4C301B20101
S1130B800E941E0C0E948B0C23E839EF42E25EE3C4
S1130B900E941E0C9B01AC01C301B2010E94BF0A5A
S1130BA04B015C016D817E818F8198850E94690B68
S1130BB09B01AC01C501B4010E941E0C4B015C01F8
S1130BC06091A1017091A201072E000C880B990B72
S1130BD00E94690B9B01AC01C501B4010E94C00ACB
S1130BE00E94310BDC01CB01BC010E943812480188
S1130BF0110FAA08BB080E94BB12681979098A0957
S1130C009B090E94670B6B017C0120E030E040E20D
S1130C1051E469817A818B819C810E941E0C9B0125
S1130C20AC01C701B6010E942C0B882324F32AE0EF
S1130C3037ED43E25CE3C301B2010E94C00A2B0119
S1130C403C01A985BA851197BA87A987AB2B09F00E
S1130C508ECF3092A2012092A101EDC280919F011A
S1130C609091A001820D931D20919D0130919E01D0
S1130C70A101421B530B9A0105E610E01D821E825E
S1130C801F821886AC01990F660B770B4D875E8720
S1130C906F87788BB901330F880B990B698B7A8B2B
S1130CA08B8B9C8B0E94BB127E8B6D8B6091A10100
S1130CB07091A201072E000C880B990B0E94690BFE
S1130CC069877A878B879C872BED3FE049EC50E45A
S1130CD06D817E818F8198850E941E0C0E948B0CF1
S1130CE023E839EF42E25EE30E941E0C2D813E812F
S1130CF04F8158850E94C00A4B015C0160919F019D
S1130D007091A001072E000C880B990B0E94690BAF
S1130D102B013C016D857E858F8598890E94690B26
S1130D20A50194010E941E0C9B01AC01C301B201F8
S1130D300E94BF0A29853A854B855C850E94C00ABA
S1130D400E94310B2B013C0160919D0170919E0129
S1130D50072E000C880B990B0E94690B6B017C0118
S1130D6069897A898B899C890E94690BA501940100
S1130D700E941E0C9B01AC01C701B6010E94C00A6F
S1130D8029853A854B855C850E94C00A0E94310BF7
S1130D90DC01CB01B2010E9438128D899E894C017D
S1130DA0990FAA08BB080E94BB126B017C0120E0CA
S1130DB030E040E251E469817A818B819C810E9418
S1130DC01E0C2B013C01C701B601681979098A0977
S1130DD09B090E94670BA30192010E942C0B88239C
S1130DE014F32AE037ED43E25CE36D817E818F8169
S1130DF098850E94C00A6D837E838F8398870150F3
S1130E00110909F04FCF88279927821993099093E4
S1130E10A00180939F0130929E0120929D0105E6DE
S1130E2010E019821A821B821C829C01990F440BC8
S1130E30550B29873A874B875C87C12CD12C7601C7
S1130E400E94BB127E876D876091A1017091A201FF
S1130E50072E000C880B990B0E94690B69837A8317
S1130E608B839C832BED3FE049EC50E4C701B60132
S1130E700E941E0C0E948B0C23E839EF42E25EE3D1
S1130E800E941E0CA70196010E94C00A4B015C013E
S1130E9069857A858B859C850E94690B9B01AC01D1
S1130EA0C501B4010E941E0C4B015C0160919F01BD
S1130EB07091A001072E000C880B990B0E94690BFE
S1130EC0A50194010E94BF0A29813A814B815C816A
S1130ED00E94C00A0E94310B6D837E838F839887A2
S1130EE060919D0170919E01072E000C880B990B57
S1130EF00E94690BA50194010E94C00A29813A81CC
S1130F004B815C810E94C00A0E94310BDC01CB0141
S1130F106D817E810E9438124D855E854A01550F90
S1130F20AA08BB080E94BB12681979098A099B099F
S1130F300E94670B9B01AC01C301B2010E94190C12
S1130F40181684F32AE037ED43E25CE3C701B601E7
S1130F500E94C00A6B017C010150110909F070CF95
S1130F601092A00110929F0110929E0110929D0177
S1130F7062C180919F019091A0019101281B390BBE
S1130F8080919D0190919E01820D931D65E670E014
S1130F907A8B698B1D821E821F821886A901330FEA
S1130FA0660B770B49875A876B877C879C01990F5F
S1130FB0440B550B2D873E874F87588B0E94BB12DD
S1130FC08B012BED3FE049EC50E46D817E818F81F4
S1130FD098850E941E0C0E948B0C23E839EF42E294
S1130FE05EE30E941E0C2D813E814F8158850E9434
S1130FF0C00A6B017C0160919F017091A001072ED2
S1131000000C880B990B0E94690B4B015C016985EC
S11310107A858B859C850E94690BA70196010E94A5
S11310201E0C9B01AC01C501B4010E94C00A0E94C0
S1131030310B4B015C0160919D0170919E01072E63
S1131040000C880B990B0E94690B2B013C016D85E8
S11310507E858F8598890E94690BA70196010E945D
S11310601E0C9B01AC01C301B2010E94BF0A0E9485
S1131070310BDC01CB01B4010E9438124801110F7D
S1131080AA08BB080E94BB122B013C0120E030E0FF
S113109040E251E469817A818B819C810E941E0C1B
S11310A06B017C01C301B201681979098A099B09A2
S11310B00E94670BA70196010E942C0B882314F34E
S11310C02AE037ED43E25CE36D817E818F81988570
S11310D00E94C00A6D837E838F839887A989BA8909
S11310E01197BA8BA98BAB2B09F068CF3092A00172
S11310F020929F0131942194310830929E012092D4
S11311009D0125E630E019821A821B821C82A1010E
S1131110330C660B770B4D835E836F8378873A8736
S11311202987812C912C54010E94BB128B012BED39
S11311303FE049EC50E4C501B4010E941E0C0E943A
S11311408B0C23E839EF42E25EE30E941E0CA501FA
S113115094010E94C00A2B013C016D817E818F8124
S113116098850E94690B9B01AC01C301B2010E94E6
S11311701E0C2B013C0160919F017091A001072E70
S1131180000C880B990B0E94690BA30192010E9429
S1131190C00A0E94310B69837A838B839C8360919C
S11311A09D0170919E01072E000C880B990B0E94E3
S11311B0690BA30192010E94BF0A0E94310BDC015A
S11311C0CB0169817A810E9438122801110F6608C7
S11311D077080E94BB1264197509860997090E9451
S11311E0670B9B01AC01C701B6010E94190C1816CC
S11311F084F32AE037ED43E25CE3C501B4010E94C5
S1131200C00A4B015C0169857A85615071097A874E
S11312106987672B09F088CF1092A00110929F0173
S113122010929E0110929D0106C060E070E080E083
S113123090E00E94381266960FB6F894DEBF0FBE97
S1131240CDBFDF91CF911F910F91FF90EF90DF9071
S1131250CF90BF90AF909F908F907F906F905F9052
S11312604F903F902F900895CF93DF9361E08EEFDE
S113127091E00E94BE12EC010E948211CE3987E0F7
S1131280D807C8F45F9A579AC830D74050F42AE078
S113129037ED43E65FE36CE48CE390E00E94E704FF
S11312A034C02AE037ED43E65FE36CE48DE290E07E
S11312B00E94E7042AC0C33088E0D807C8F0599ACE
S11312C0519AC939D84050F02AE037ED43E65FE33C
S11312D062E58CE390E00E94E70417C02AE037ED52
S11312E043E65FE362E58DE290E00E94E7040DC00F
S11312F05998519A5F98579A2AE037ED43E65FE38D
S113130066E48CE390E00E94E704DF91CF910895B6
S113131061E08EEF91E00E94BE128091FE019091F7
S1131320FF01893027E0920700F1209100023091FB
S11313300102283E3340C8F4209102023091030296
S1131340283E334008F0FBC020910402309105028E
S1131350283E334008F0F3C0209106023091070282
S1131360283E334008F4CAC0EAC0883E23E092070E
S113137000F52091000230910102283E3340C8F468
S11313802091020230910302283E334008F0DDC070
S11313902091040230910502283E334008F0D5C064
S11313A020910602309107022930374008F4CDC05D
S11313B0A8C0893027E0920708F4D3C02091000226
S11313C030910102283E3340B0F420910202309162
S11313D003022930374078F020910402309105024D
S11313E0283E334040F42091060230910702293010
S11313F0374008F089C02091000230910102293061
S113140047E03407B0F04091020250910302483E95
S1131410534078F4409104025091050249305740FA
S113142040F040910602509107024930574008F0BD
S11314306EC0283E3340C8F420910202309103026A
S11314402930374008F495C02091040230910502F8
S1131450283E334008F07FC02091060230910702F5
S1131460283E334008F456C076C0883E23E09207F5
S113147018F52091000230910102283E3340E0F437
S11314802091000230910102283E3340A8F42091BB
S1131490020230910302283E334070F4209104028A
S11314A030910502283E334038F4209106023091F1
S11314B00702283E334088F18930974088F18091B3
S11314C00002909101028930974068F180910202F4
S11314D0909103028930974048F1809104029091E1
S11314E005028930974028F1809106029091070205
S11314F08930974008F188E090E0089582E090E018
S1131500089581E090E0089586E090E0089583E0F6
S113151090E0089585E090E0089587E090E00895D4
S113152080E090E0089580E090E0089580E090E00D
S1131530089580E090E0089580E090E00895883E6A
S113154043E0940708F03ACF1BCF893067E0960751
S113155008F03BCF06C0883E23E0920708F490CF02
S1131560ABCF883E43E0940708F483CF80E090E05B
S11315700895883E63E0960708F482CF9DCF5058C3
S1131580BB27AA270E94D70A0C94DF0B0E94D10B19
S113159038F00E94D80B20F039F49F3F19F426F458
S11315A00C94CE0B0EF4E095E7FB0C94C80BE92FDA
S11315B00E94F00B58F3BA17620773078407950764
S11315C020F079F4A6F50C94120C0EF4E0950B2E91
S11315D0BA2FA02D0B01B90190010C01CA01A00181
S11315E01124FF27591B99F0593F50F4503E68F1DC
S11315F01A16F040A22F232F342F4427585FF3CF1D
S1131600469537952795A795F0405395C9F77EF4ED
S11316101F16BA0B620B730B840BBAF09150A1F036
S1131620FF0FBB1F661F771F881FC2F70EC0BA0FBC
S1131630621F731F841F48F4879577956795B79544
S1131640F7959E3F08F0B0CF9395880F08F099273F
S1131650EE0F9795879508950E94A40B08F481E0F6
S113166008950E94380B6894B1110C94130C0895DA
S11316700E94F80B88F09F5798F0B92F9927B7511B
S1131680B0F0E1F0660F771F881F991F1AF0BA9522
S1131690C9F714C0B13091F00E94120CB1E0089562
S11316A00C94120C672F782F8827B85F39F0B93F54
S11316B0CCF3869577956795B395D9F73EF49095D5
S11316C08095709561957F4F8F4F9F4F0895E89453
S11316D009C097FB3EF490958095709561957F4F76
S11316E08F4F9F4F9923A9F0F92F96E9BB27939524
S11316F0F695879577956795B795F111F8CFFAF434
S1131700BB0F11F460FF1BC06F5F7F4F8F4F9F4F64
S113171016C0882311F096E911C0772321F09EE8C2
S1131720872F762F05C0662371F096E8862F70E028
S113173060E02AF09A95660F771F881FDAF7880F02
S11317409695879597F90895990F0008550FAA0B58
S1131750E0E8FEEF16161706E807F907C0F01216C0
S11317601306E407F50798F0621B730B840B950BC3
S113177039F40A2661F0232B242B252B21F4089518
S11317800A2609F4A140A6958FEF811D811D0895B5
S113179097F99F6780E870E060E008959FEF80EC20
S11317A0089500240A9416161706180609060895C3
S11317B000240A9412161306140605060895092E29
S11317C00394000C11F4882352F0BB0F40F4BF2B98
S11317D011F460FF04C06F5F7F4F8F4F9F4F0895D8
S11317E057FD9058440F551F59F05F3F71F04795CE
S11317F0880F97FB991F61F09F3F79F087950895B3
S1131800121613061406551FF2CF4695F1DF08C0D1
S1131810161617061806991FF1CF869571056105EE
S113182008940895E894BB2766277727CB0197F996
S113183008950E94A40B08F48FEF08950E94310CC0
S11318400C94DF0B0E94D10B38F00E94D80B20F0CF
S1131850952311F00C94C80B0C94CE0B11240C940A
S1131860130C0E94F00B70F3959FC1F3950F50E099
S1131870551F629FF001729FBB27F00DB11D639F3E
S1131880AA27F00DB11DAA1F649F6627B00DA11DE4
S1131890661F829F2227B00DA11D621F739FB00D8A
S11318A0A11D621F839FA00D611D221F749F3327FA
S11318B0A00D611D231F849F600D211D822F762F93
S11318C06A2F11249F5750409AF0F1F088234AF070
S11318D0EE0FFF1FBB1F661F771F881F91505040DC
S11318E0A9F79E3F510580F00C94C80B0C94130C7F
S11318F05F3FE4F3983ED4F3869577956795B79563
S1131900F795E7959F5FC1F7FE2B880F911D96957C
S1131910879597F908959F930E94F00C0F9007FC08
S1131920EE5F0C94190D19F416F40C94CE0B0C9470
S1131930D90C0E94F80BB8F39923C9F3B6F39F5757
S1131940550B87FF0E94E70C0024A0E640EA9001B3
S113195080585695979528F4805C660F771F881FEA
S113196020F026173707480730F4621B730B840BEB
S1131970202931294A2BA69517940794202531252F
S11319804A2758F7660F771F881F20F02617370756
S1131990480730F4620B730B840B200D311D411D7D
S11319A0A09581F7B901842F9158880F9695879552
S11319B008959F3F31F0915020F48795779567956E
S11319C0B795880F911D9695879597F9089591502D
S11319D05040660F771F881FD2F708950C94CE0BE2
S11319E00E94F80BD8F3E894E0E0BB279F57F0F08F
S11319F02AED3FE049EC06C0EE0FBB0F661F771FD0
S1131A00881F28F0B23A62077307840728F0B25A95
S1131A10620B730B840BE3959A9572F7803830F45C
S1131A209A95BB0F661F771F881FD2F790480C94B6
S1131A30DB0CEF93E0FF07C0A2EA2AED3FE049EC9C
S1131A405FEB0E94D70A0E94DF0B0F90039401FC06
S1131A509058E8E8F0E00C942D0D9F938F937F93BA
S1131A606F93FF93EF939B01AC010E941E0CEF91C7
S1131A70FF910E94410D2F913F914F915F910C94E2
S1131A801E0CDF93CF931F930F93FF92EF92DF927D
S1131A907B018C01689406C0DA2EEF010E94310CA0
S1131AA0FE01E894A5912591359145915591A6F3B0
S1131AB0EF010E94D70AFE019701A801DA9469F7A1
S1131AC0DF90EF90FF900F911F91CF91DF910895D8
S1131AD090913F01E0913A01F0913B01992311F07B
S1131AE0849101C080812FEB280F2A3110F4805E8D
S1131AF00895803249F49F012F5F3F4F30933B019B
S1131B0020933A01EF2B31F708951F93CF93DF937E
S1131B100E94680DC0E0D0E01AE090ED980F9A3072
S1131B20B8F49E01129FE001139FD00D1124C80F39
S1131B30D11D87FDDA95E09780913A0190913B01A0
S1131B40019690933B0180933A010E94680DE5CF82
S1131B50CE01DF91CF911F91089510926F0083E21F
S1131B608093800081E1809381001092820080E163
S1131B7097E2909389008093880010928B001092D2
S1131B808A00229A789408958F929F92AF92BF927E
S1131B90DF92EF92FF920F931F93CF93DF935C0139
S1131BA08B01D42E80913C01811105C081E080938A
S1131BB03C010E94AD0D10920901B7FE05C0E894E6
S1131BC0B7F82AE0F22E02C0FF24F394E0908100DB
S1131BD02E2D287FE22E48ECF49EC00111248A1594
S1131BE09B05E0F4E50151E1A51657E2B50610F0B6
S1131BF0C0E1D7E2BE017695679580E090E0605839
S1131C00794687469F4F4E01A12CB12CA501940122
S1131C100E940E1659018E2D816024C0C8E2FC9EDC
S1131C20C02D1124D0E0CA15DB0508F4E501BE017E
S1131C30769567959E0140E050E08AE0F81207C06F
S1131C4080E090E0605E734481449F4F06C080E072
S1131C5090E060537D4E8C4E9F4F0E940E165901AA
S1131C608E2D8260882E2AE0F21207C0CE010596DE
S1131C706AE070E00E94FA15EB01C83E43E0D40725
S1131C8059F09801DE010E94551628EE33E040E039
S1131C9050E00E943016890110926F0080928100FA
S1131CA0B0928900A0928800209188003091890028
S1131CB04D2D403108F04FE080E190E0841B910904
S1131CC0A90102C0569547958A95E2F750938B0077
S1131CD040938A00109342010093410186B38FEF31
S1131CE086BB81E080936F00DF91CF911F910F91AC
S1131CF0FF90EF90DF90BF90AF909F908F900895EA
S1131D00CF93DF93EB018F3F11F0411105C040E009
S1131D10BE0188EE93E043C0813130F050EF580F9C
S1131D20503618F05FE501C050E0852F6CE00E944A
S1131D30EE15682F74EF760390011124250F311DE1
S1131D402C30310540F4F901EE0FFF1FEE5DFE4F1C
S1131D502081318102C020E030E0873081F0082EFC
S1131D6002C0220F331F0A94E2F7823028F0C9011F
S1131D7005966AE070E00CC0C90190580CC0C90116
S1131D8036E0880F991F3A95E1F7029665E070E016
S1131D900E94FA15CB01403108F04FE0BE010E94C9
S1131DA0C40DDF91CF910895A2E0B0E0EAEDFEE02A
S1131DB00C9479169090080180913E01882321F0BB
S1131DC060913D01611117C077247394B0ECAB2E80
S1131DD0BDE5BB2E1AE0612E04E0802E80EDC82EF6
S1131DE087E0D82E94E0E92EF12C04EF11E02FE0E7
S1131DF0422E512C15C070E040E088EE93E00E9422
S1131E00C40D10923D0117C18636D4F5813609F40C
S1131E10A9C07CF58C3309F460C08E3381F49394AB
S1131E200E94680D20913A0130913B012F5F3F4F92
S1131E3030933B0120933A01853631F752C0813209
S1131E4009F08BC080920801D0920701C09206016C
S1131E50F0920501E0920401109303010093020142
S1131E60509201014092000110923E01A4E09A2E8A
S1131E70D7CF8336A1F10CF478C010E082E077C0AC
S1131E808D36C1F194F4873691F174F18C3609F0F2
S1131E9064C00E94850DBC019093050180930401E8
S1131EA0809106019091070151C08237C9F14CF429
S1131EB08F3609F052C00E94850D982E8093080138
S1131EC0AFCF843781F1863709F047C00E94850D72
S1131ED09093010180930001A3CF9A94A1CF10E0C5
S1131EE020C010E084E043C010E085E040C010E072
S1131EF087E03DC00E94680D8C3619F410923E01B3
S1131F0004C070923E0110923D0120913A0130913B
S1131F103B012F5F3F4F30933B0120933A0180CF29
S1131F2011E080E024C00E94850DBC01C5010E941F
S1131F30FA15669EC001679E900D112490930701C7
S1131F408093060160910401709105010E94FA15C5
S1131F50709303016093020163CF10923B011092CE
S1131F603A0169C010E089E002C010E08BE0082F5C
S1131F709CE0999E000D11240E94680D982F977F74
S1131F80933261F420913A0130913B012F5F3F4F2E
S1131F9030933B0120933A010F5FEECF8D3271F401
S1131FA020913A0130913B012F5F3F4F30933B0129
S1131FB020933A0101500E94680DF0CF6091020114
S1131FC0709103018153883050F4E0900601F09041
S1131FD007010E94850DBC01C7010E94FA157B010F
S1131FE0F694E79469837A830E94680D69817A8103
S1131FF08E3269F420913A0130913B012F5F3F4FBB
S113200030933B0120933A016E0D7F1DE9CF8091FF
S11320103E01882339F09B013695279520933D0195
S1132020621B710940910001112311F08FEF01C06F
S1132030802F0E94800E2296E0E10C9495161F9248
S11320400F920FB60F9211242F933F934F935F93E8
S11320506F937F938F939F93AF93BF93EF93FF936C
S113206080914101909142019C01215031093093AA
S1132070420120934101892B11F510926F0078944D
S113208080918100887F81608093810080E197E264
S1132090909389008093880010928B0010928A009C
S11320A081E08093090180913A0190913B01892B51
S11320B031F080914001811102C00E94D40EFF9141
S11320C0EF91BF91AF919F918F917F916F915F91AC
S11320D04F913F912F910F900FBE0F901F90189525
S11320E010926F0090933B0180933A0181E08093BA
S11320F03F0110923D010E94D40E08950E94701079
S1132100089581E090E06F9364E06A95F1F76F9130
S11321100197C9F708950F931F93CF93DF931AB1D3
S113212057985A98289AC0E0D0E00E9481105C9A8F
S11321300E94811009B15C980E9481105C9A0E94EF
S113214081105C98249607FF10C0AE0160E070E037
S11321508091430190914401A0914501B0914601C1
S1132160481759076A077B0700F31AB9DF91CF9123
S11321701F910F91089595B1282F217030E0220FFF
S1132180331F482F467068E0469FA0011124242B7A
S11321909D7C292B25B99BB188708295807F9F7780
S11321A0892B8BB95C9A0E9481105C980E948110E3
S11321B00895A0E0B0E0EFEDF0E10C948216C82F92
S11321C0D62EE42E8091A301811105C081E0809375
S11321D0A3010E941A110E948B1014B1D5B1FAB058
S11321E00BB12898DD2011F05A9A01C05A9894B185
S11321F0926394B9579A81E0E81629F08C2F82955E
S11322008F700E94BB108C2F8F700E94BB10FAB885
S11322100BB914B9D5B9CDB7DEB7E7E00C949E1667
S113222042E060E00E94D910089541E060E00E941D
S1132230D910089580E197E2A0E0B0E080934301D3
S113224090934401A0934501B0934601529A209A79
S1132250549A8EE190E00E94831283E00E9415114B
S113226086E090E00E94831283E00E94151182E0D0
S113227090E00E94831283E00E94151182E090E0B6
S11322800E94831282E00E94151182E090E00E9475
S1132290831288E20E94101188E00E94101181E0EC
S11322A00E94101186E00E9410118CE00E9410110F
S11322B0089581E00E9410118091490190914A0192
S11322C0892BF9F060E0A0E2262F30E070910A013A
S11322D080910B0190E00197789FA001799F500DA8
S11322E01124241735074CF4E0914901F0914A0177
S11322F0E20FF31FA0836F5FE7CF109247011092A4
S1132300480108950E9459110895883058F491E0C5
S113231001C0990F8A95EAF7892FAAE2B0E0EBE2AF
S1132320F0E021C08E3060F498EF980F81E001C096
S1132330880F9A95EAF7A4E2B0E0E5E2F0E013C072
S1132340853160F492EF980F81E001C0880F9A956F
S1132350EAF7A7E2B0E0E8E2F0E005C080E0A0E040
S1132360B0E0E0E0F0E06F3F19F49081982709C0F5
S1132370662319F09081982B04C02081982F9095A2
S1132380922390839C91982B9C93089583EF809340
S1132390B00084BD82E08093B10085BD1092B4008A
S11323A01092B30018BC17BC60E086E00E9485114F
S11323B060E085E00E94851160E08BE00E94851159
S11323C060E083E00E94851108958091A401811149
S11323D005C081E08093A4010E94C6110895CF93A3
S11323E0DF93EC010E94E511D7FF05C0D195C1959B
S11323F0D10981E001C080E0CF3FD10519F014F08C
S1132400CFEFD0E0882319F018BCC7BD02C0C8BD07
S113241017BCDF91CF910895CF93DF93EC010E9415
S1132420E511D7FF05C0D195C195D10981E001C05F
S113243080E0CF3FD10519F014F0CFEFD0E088232E
S113244029F01092B400C093B30004C0C093B40048
S11324501092B300DF91CF910895CF93DF93EB01F6
S11324600E94EF11CE010E940C12DF91CF910895CA
S11324700E942D1208952F928F939F932FB68091CF
S1132480520190915301019680935201909353010C
S113249090E080915401891F8093540190914C01E4
S11324A09C5F90934C0180914B0180519742C0F006
S11324B090934C0180934B0180914D0190914E017A
S11324C0019680934D0190934E0190E080914F01CD
S11324D0891F80934F0180915001891F809350017F
S11324E02FBE9F918F912F90189528EE33E001977E
S11324F048F0F9016F9364E06A95F1F76F913197B1
S1132500C9F7F5CF08950E9475120895E0E7F0E049
S113251080818E7F8083A0EBB0E08C9183608C936C
S1132520A1EBB0E08C91807F8C938C9182608C9332
S1132530B89A808181608083789408958091A50100
S1132540811105C081E08093A5010E94861208953F
S11325500E949E12E0E7F0E080818E7F808360918C
S11325604D0170914E0180914F0190915001208155
S11325702160208308950E94A8120895462F20E028
S1132580BC0185E591E00E945B15089585E591E025
S11325900E94D01508956F9364E06A95F1F76F91E6
S11325A00197C9F70895FC01A485B585109779F0C2
S11325B08C919185892B8C93A285B3859C9181857F
S11325C0809589238C9388EC90E00E94CB12089527
S11325D0FC01A485B585109771F08C919185892BA8
S11325E08C93A285B3858C919185892B8C9388ECEF
S11325F090E00E94CB120895A0E0B0E0E2E0F3E1A5
S11326000C947C16EC015B016C0181E4C80ED11CB6
S1132610F60180807E01F2E4EF0EF11CF701708078
S11326208E010D5B1F4FF801908080E0988589171B
S113263048F4F501E80FF11DE80FF11D1182108235
S11326408F5FF4CF84B1F6019081892B84B987B16F
S1132650F7019081892B87B98AB1F8019081892B80
S11326608AB985B1F6019081892B85B988B1F701C2
S11326709081892B88B98BB1F8019081892B8BB912
S11326808AE090E00E94CB1294B1F601808180959B
S1132690892384B997B1F70180818095892387B90B
S11326A09AB1F8018081809589238AB995B1F601A0
S11326B080818095892385B998B1F70180818095BF
S11326C0892388B99BB1F8018081809589238BB9CE
S11326D0E090B000D090B1008091B000836080930E
S11326E0B00082E08093B1004091B20080E090E0BD
S11326F02E853F858217930720F5C090B2002C2DBC
S1132700241B820F911D03B1081132C0F6B0F710DB
S11327102FC029B129112CC010C0212F30E0A901EC
S1132720440F551FF501E40FF51F60817181672B7C
S113273021F11F5F2885121780F37F2C802E4C2DEA
S1132740D7CFE092B000D092B10020E0888528175E
S113275030F5F501E20FF11DE20FF11D8081918149
S1132760892B21F48E859F85918380832F5FEECF03
S113277003B1F6B099B010E0DDCFDE01A40FB51FB0
S113278091960D90BC91A02D4C91DE01A20FB31F28
S113279051962C91422369F691838083CACFCDB799
S11327A0DEB7EDE00C949816EF92FF920F931F930F
S11327B0CF93DF93FC019B01F0907C0000917A00A1
S11327C047B118B180917A0086FDFCCF80E09085F6
S11327D0891748F4D901A80FB11DA80FB11D1D9286
S11327E01C928F5FF4CF97B182A18095892387B91A
S11327F098B182A18095892388B987E880937A006B
S1132800E12C81A1E81610F0E12C29C050E080856C
S1132810581718F5A52FB0E0EF01CA0FDB1F8989FF
S1132820806480937C0080917A00806480937A0035
S113283080917A0086FDFCCF6091780070917900D8
S1132840AA0FBB1FA20FB31F8D919C911197860FE6
S1132850971F8D939C935F5FDACFE394D2CF8085EB
S1132860E816A0F4E901CE0DD11DCE0DD11D61A154
S113287070E0CB0195958795A881B9818A0F9B1F3C
S11328800E94FA1579836883E394E9CFF0927C007F
S113289000937A0018B947B9CDB7DEB7E6E00C94D7
S11328A09F16A0E2B0E0E7E5F4E10C9482168C01F7
S11328B07B01D42E8FEF840F823018F4C8010E945C
S11328C0E812D80150968C91B701811110C0C8014B
S11328D00E94FC12C8010E94D312B2E0DB123AC07B
S11328E0BE016F5F7F4FC8010E94FC120FC0C80178
S11328F00E94D413C8010E94D312E2E0DE122AC05F
S1132900BE016F5F7F4FC8010E94D41340E0F801FD
S113291080854817F8F4842F90E0880F991FF701F9
S1132920E80FF91F21E030E02C0F3D1F820F931FA9
S1132930D8011E962D913C911F97DC018D919C919D
S1132940281B390B80819181820F931F918380838F
S11329504F5FDDCFA096E7E00C949E16A0E0B0E0B8
S1132960E4EBF4E10C948016EC018B01B42E842F7B
S11329708D7F51F48C819D81892B09F497C08E81C0
S11329809F81892B09F492C08FEF8B0D823050F414
S113299088819981892B09F489C08A819B81892B3B
S11329A009F484C04B2DB801CE010E945114780162
S11329B000E010E0C12CD12C888590E0C816D9061F
S11329C00CF074C081E0B8120AC0EA81FB81E00F08
S11329D0F11F0190F081E02DA881B9810DC08C8197
S11329E09D812E813F81B1100CC0F901E00FF11FD0
S11329F00190F081E02DDC01A00FB11F8D919C911D
S1132A0028C0FC01E00FF11F40815181E881F98168
S1132A10E00FF11F80819181EE85FF8548175907EA
S1132A2010F4CF0104C08E0F9F1F841B950BD90196
S1132A30A00FB11F2D913C91AA81BB81A00FB11FA2
S1132A404D915C912417350720F0E40FF51FE21B2C
S1132A50F30BE81BF90BA9F0D7012D913C9140E051
S1132A6050E0281B390B41095109A8EEB3E00E943C
S1132A7064169F0140E050E00E94301637FD0AC002
S1132A8002C020E030E0293EB3E03B072CF028EE02
S1132A9033E002C020E030E0F701219331937F015D
S1132AA0FFEFCF1ADF0A0E5F1F4F86CFCDB7DEB719
S1132AB0E9E00C949C16A0E0B0E0E1E6F5E10C94AA
S1132AC07716EC018B01822E0E94AE142884E80153
S1132AD0412C512C320100E010E0C12CD12C7601A4
S1132AE0312C912C58EEA52E53E0B52E921421F1E1
S1132AF0E991F991882021F0C5018E1B9F0BFC01FF
S1132B00E93CF10524F4E333F10574F002C0332405
S1132B103394DF01A30192010E946F16C60ED71EE3
S1132B20E81EF91E0E0F1F1F939498EE490E93E0B2
S1132B30591E611C711CDACF31101EC0492D50E0A2
S1132B404150510924EF31E0429FC001439F900D51
S1132B50529F900D11242091990130919A012817C8
S1132B603907B4F088EE93E0489F9001499F300DF7
S1132B70589F300D11240EC0980140E050E0C70169
S1132B80B6010E940E1630939A012093990102C057
S1132B9020E030E0C901CDB7DEB7E2E10C94931632
S1132BA0CF93DF93EC018A819B81009711F00E94FF
S1132BB046178E819F81009711F00E9446178881E5
S1132BC09981009711F00E9446178C819D8100978E
S1132BD011F00E944617DF91CF910895991B79E077
S1132BE004C0991F961708F0961B881F7A95C9F799
S1132BF080950895AA1BBB1B51E107C0AA1FBB1FE8
S1132C00A617B70710F0A61BB70B881F991F5A9574
S1132C10A9F780959095BC01CD010895A1E21A2EE3
S1132C20AA1BBB1BFD010DC0AA1FBB1FEE1FFF1F6C
S1132C30A217B307E407F50720F0A21BB30BE40BBC
S1132C40F50B661F771F881F991F1A9469F7609503
S1132C507095809590959B01AC01BD01CF010895BD
S1132C60052E97FB1EF400940E94471657FD07D0CB
S1132C700E940E1607FC03D04EF40C944716509590
S1132C804095309521953F4F4F4F5F4F0895909554
S1132C908095709561957F4F8F4F9F4F0895EE0FEC
S1132CA0FF1F0590F491E02D0994A29FB001B39FFA
S1132CB0C001A39F700D811D1124911DB29F700D41
S1132CC0811D1124911D08950E945516A59F900DF4
S1132CD0B49F900DA49F800D911D11240895B7FFFA
S1132CE00C9464160E946416821B930B08952F9211
S1132CF03F924F925F926F927F928F929F92AF9288
S1132D00BF92CF92DF92EF92FF920F931F93CF93D4
S1132D10DF93CDB7DEB7CA1BDB0B0FB6F894DEBF6B
S1132D200FBECDBF09942A88398848885F846E8491
S1132D307D848C849B84AA84B984C884DF80EE80DB
S1132D40FD800C811B81AA81B981CE0FD11D0FB6E4
S1132D50F894DEBF0FBECDBFED0108950F931F930E
S1132D60CF93DF938230910510F482E090E0E091FC
S1132D700A02F0910B0220E030E0A0E0B0E03097CE
S1132D8019F1408151810281138148175907C8F014
S1132D908417950769F4109731F012960C931297E3
S1132DA013961C9327C000930A0210930B0222C0AF
S1132DB02115310519F04217530718F49A01BD0182
S1132DC0EF01DF01F801DBCF21153105F9F0281BF4
S1132DD0390B2430310580F48A819B81611571059A
S1132DE021F0FB019383828304C090930B028093B0
S1132DF00A02FE01329644C0FE01E20FF31F8193E2
S1132E00919322503109398328833AC020910802D2
S1132E1030910902232B41F420910E0130910F01CE
S1132E20309309022093080220910C0130910D0186
S1132E302115310541F42DB73EB740911001509151
S1132E401101241B350BE0910802F0910902E217ED
S1132E50F307A0F42E1B3F0B2817390778F0AC01B9
S1132E604E5F5F4F2417350748F04E0F5F1F509396
S1132E700902409308028193919302C0E0E0F0E0DC
S1132E80CF01DF91CF911F910F910895CF93DF93DD
S1132E90009709F481C0FC01329713821282A09139
S1132EA00A02B0910B02109781F420813181820FC4
S1132EB0931F20910802309109022817390751F510
S1132EC0F0930902E093080267C0ED0120E030E0CE
S1132ED0CE17DF0740F44A815B819E0141155105FD
S1132EE0F1F0EA01F5CFD383C28340815181840F8D
S1132EF0951FC817D90759F488819981840F951FA4
S1132F000296918380838A819B8193838283211596
S1132F10310529F4F0930B02E0930A023DC0E90164
S1132F20FB83EA8349915991C40FD51FEC17FD0720
S1132F3061F480819181840F951F0296E901998340
S1132F408883828193819B838A83E0E0F0E01296F8
S1132F508D919C911397009719F0FD01DC01F7CF37
S1132F608D919C9111979D012E5F3F4F820F931F6E
S1132F7020910802309109022817390769F4309723
S1132F8029F410920B0210920A0202C013821282D8
S1132F90B0930902A0930802DF91CF91089510E045
S1132FA0CDE5D0E004C0FE010E944F162196CE3537
S10B2FB0D107C9F7F894FFCF23
S1132FB80F00F4010400D0070401080200000C0209
S1132FC820000200050003000400030001000400BF
S1132FD802009C01B501CF01EA010702260247025B
S10D2FE869028E02B502DE020A033C
S9030000FC
