:100000000C9452000C946F000C946F000C946F00D1
:100010000C946F000C946F000C946F000C946F00A4
:100020000C946F000C94160B0C946F000C946F00E2
:100030000C946F000C94FE090C946F000C946F00EC
:100040000C946F000C946F000C946F000C946F0074
:100050000C946F000C946F000C946F000C946F0064
:100060000C946F000C946F0005A84CCDB2D44EB91F
:100070003836A9020C50B9918688083CA6AAAA2A4B
:10008000BE000000803F3E6733323E3E63333200A5
:100090003E6733323E3E633332003E6733323E3E8C
:1000A0006333320011241FBECFEFD8E0DEBFCDBFD7
:1000B00011E0A0E0B1E0E4E8F8E102C005900D92A3
:1000C000A232B107D9F721E0A2E2B1E001C01D924E
:1000D000AD33B207E1F70E94BE040C94400C0C94BF
:1000E00000002F923F924F925F926F927F928F9279
:1000F0009F92AF92BF92CF92DF92EF92FF920F93B7
:100100001F93CF93DF93CDB7DEB766970FB6F89402
:10011000DEBF0FBECDBF1C0129833A834B835C83B6
:10012000663461F020F4623409F495C008C46C347C
:1001300009F4A9C2623509F41BC101C480913901D7
:1001400090913A019101281B390B45E650E05A87FE
:100150004987412C512C3201032E000C440B550BC6
:100160002D833E834F8358870E94960B8B012BED86
:100170003FE049EC50E4C301B2010E944A060E94EC
:10018000B70623E839EF42E25EE30E944A069B018C
:10019000AC01C301B2010E94EB044B015C016D8113
:1001A0007E818F8198850E9495059B01AC01C501D8
:1001B000B4010E944A064B015C01609139017091C3
:1001C0003A01072E000C880B990B0E9495059B01A4
:1001D000AC01C501B4010E94EC040E945D05DC0184
:1001E000CB01BC010E94130B4801110FAA08BB08E8
:1001F0000E94960B681979098A099B090E94930548
:100200006B017C0120E030E040E251E469817A81B9
:100210008B819C810E944A069B01AC01C701B601FB
:100220000E945805882324F32AE037ED43E25CE37B
:10023000C301B2010E94EC042B013C01A985BA85DF
:100240001197BA87A987AB2B09F08ECF30923A016C
:10025000209239017AC38091390190913A0191013C
:10026000281B390B45E650E05A874987412C512C11
:100270003201032E000C440B550B2D833E834F831C
:1002800058870E94960B8B012BED3FE049EC50E420
:10029000C301B2010E944A060E94B70623E839EF63
:1002A00042E25EE30E944A069B01AC01C301B20137
:1002B0000E94EB044B015C016D817E818F819885EA
:1002C0000E9495059B01AC01C501B4010E944A063C
:1002D0004B015C016091390170913A01072E000CCD
:1002E000880B990B0E9495059B01AC01C501B401D7
:1002F0000E94EC040E945D05DC01CB01BC010E9460
:10030000130B4801110FAA08BB080E94960B68192D
:1003100079098A099B090E9493056B017C0120E001
:1003200030E040E251E469817A818B819C810E94B6
:100330004A069B01AC01C701B6010E9458058823FB
:1003400024F32AE037ED43E25CE3C301B2010E94EB
:10035000EC042B013C01A985BA851197BA87A987BE
:10036000AB2B09F08ECF30923A0120923901EDC2C9
:100370008091370190913801820D931D20913501B4
:1003800030913601A101421B530B9A0105E610E0A2
:100390001D821E821F821886AC01990F660B770B97
:1003A0004D875E876F87788BB901330F880B990B68
:1003B000698B7A8B8B8B9C8B0E94960B7E8B6D8BC3
:1003C0006091390170913A01072E000C880B990B4E
:1003D0000E94950569877A878B879C872BED3FE084
:1003E00049EC50E46D817E818F8198850E944A0698
:1003F0000E94B70623E839EF42E25EE30E944A0614
:100400002D813E814F8158850E94EC044B015C0197
:100410006091370170913801072E000C880B990B01
:100420000E9495052B013C016D857E858F859889FD
:100430000E949505A50194010E944A069B01AC010A
:10044000C301B2010E94EB0429853A854B855C8586
:100450000E94EC040E945D052B013C016091350176
:1004600070913601072E000C880B990B0E949505A0
:100470006B017C0169897A898B899C890E94950529
:10048000A50194010E944A069B01AC01C701B60177
:100490000E94EC0429853A854B855C850E94EC041A
:1004A0000E945D05DC01CB01B2010E94130B8D8916
:1004B0009E894C01990FAA08BB080E94960B6B01FC
:1004C0007C0120E030E040E251E469817A818B8157
:1004D0009C810E944A062B013C01C701B6016819A4
:1004E00079098A099B090E949305A30192010E9440
:1004F0005805882314F32AE037ED43E25CE36D816D
:100500007E818F8198850E94EC046D837E838F832A
:1005100098870150110909F04FCF88279927821930
:1005200093099093380180933701309236012092DD
:10053000350105E610E019821A821B821C829C019B
:10054000990F440B550B29873A874B875C87C12C41
:10055000D12C76010E94960B7E876D8760913901C0
:1005600070913A01072E000C880B990B0E9495059B
:1005700069837A838B839C832BED3FE049EC50E4C5
:10058000C701B6010E944A060E94B70623E839EF68
:1005900042E25EE30E944A06A70196010E94EC0433
:1005A0004B015C0169857A858B859C850E94950548
:1005B0009B01AC01C501B4010E944A064B015C01DC
:1005C0006091370170913801072E000C880B990B50
:1005D0000E949505A50194010E94EB0429813A81AE
:1005E0004B815C810E94EC040E945D056D837E83DB
:1005F0008F8398876091350170913601072E000C2A
:10060000880B990B0E949505A50194010E94EC04AA
:1006100029813A814B815C810E94EC040E945D0536
:10062000DC01CB016D817E810E94130B4D855E85BF
:100630004A01550FAA08BB080E94960B6819790950
:100640008A099B090E9493059B01AC01C301B20179
:100650000E944506181684F32AE037ED43E25CE376
:10066000C701B6010E94EC046B017C010150110925
:1006700009F070CF109238011092370110923601B4
:100680001092350162C1809137019091380191013A
:10069000281B390B8091350190913601820D931DF5
:1006A00065E670E07A8B698B1D821E821F82188638
:1006B000A901330F660B770B49875A876B877C87B5
:1006C0009C01990F440B550B2D873E874F87588B04
:1006D0000E94960B8B012BED3FE049EC50E46D81BD
:1006E0007E818F8198850E944A060E94B70623E882
:1006F00039EF42E25EE30E944A062D813E814F813E
:1007000058850E94EC046B017C0160913701709167
:100710003801072E000C880B990B0E9495054B01A0
:100720005C0169857A858B859C850E949505A7016A
:1007300096010E944A069B01AC01C501B4010E94CA
:10074000EC040E945D054B015C01609135017091E4
:100750003601072E000C880B990B0E9495052B0182
:100760003C016D857E858F8598890E949505A7013E
:1007700096010E944A069B01AC01C301B2010E948E
:10078000EB040E945D05DC01CB01B4010E94130B58
:100790004801110FAA08BB080E94960B2B013C01CF
:1007A00020E030E040E251E469817A818B819C81D4
:1007B0000E944A066B017C01C301B20168197909E4
:1007C0008A099B090E949305A70196010E9458057A
:1007D000882314F32AE037ED43E25CE36D817E81E8
:1007E0008F8198850E94EC046D837E838F83988728
:1007F000A989BA891197BA8BA98BAB2B09F068CF5D
:10080000309238012092370131942194310830928E
:1008100036012092350125E630E019821A821B82CA
:100820001C82A101330C660B770B4D835E836F83B3
:1008300078873A872987812C912C54010E94960B46
:100840008B012BED3FE049EC50E4C501B4010E945F
:100850004A060E94B70623E839EF42E25EE30E94AF
:100860004A06A50194010E94EC042B013C016D8114
:100870007E818F8198850E9495059B01AC01C30103
:10088000B2010E944A062B013C0160913701709130
:100890003801072E000C880B990B0E949505A301C7
:1008A00092010E94EC040E945D0569837A838B8328
:1008B0009C836091350170913601072E000C880BE6
:1008C000990B0E949505A30192010E94EB040E94DE
:1008D0005D05DC01CB0169817A810E94130B28013F
:1008E000110F660877080E94960B6419750986092E
:1008F00097090E9493059B01AC01C701B6010E94B4
:100900004506181684F32AE037ED43E25CE3C5019F
:10091000B4010E94EC044B015C0169857A85615049
:1009200071097A876987672B09F088CF109238019F
:1009300010923701109236011092350106C060E026
:1009400070E080E090E00E94130B66960FB6F8947A
:10095000DEBF0FBECDBFDF91CF911F910F91FF90F2
:10096000EF90DF90CF90BF90AF909F908F907F904F
:100970006F905F904F903F902F90089588EE93E096
:100980000E945E0B8AE990E00E945D0A22E538EB46
:100990004EE95EE362E58CE390E00E94710080E93D
:1009A00090E00E945D0A88EE93E00E945E0B22E5D3
:1009B00038EB4EE95EE36CE48CE390E00E9471005A
:1009C00086E890E00E945D0A88EE93E00E945E0B4C
:1009D00080E090E008955058BB27AA270E940305A5
:1009E0000C940B060E94FD0538F00E94040620F0CE
:1009F00039F49F3F19F426F40C94FA050EF4E095AF
:100A0000E7FB0C94F405E92F0E941C0658F3BA1773
:100A1000620773078407950720F079F4A6F50C9414
:100A20003E060EF4E0950B2EBA2FA02D0B01B90156
:100A300090010C01CA01A0011124FF27591B99F054
:100A4000593F50F4503E68F11A16F040A22F232F60
:100A5000342F4427585FF3CF469537952795A795B0
:100A6000F0405395C9F77EF41F16BA0B620B730B57
:100A7000840BBAF09150A1F0FF0FBB1F661F771FC8
:100A8000881FC2F70EC0BA0F621F731F841F48F47D
:100A9000879577956795B795F7959E3F08F0B0CF06
:100AA0009395880F08F09927EE0F979587950895ED
:100AB0000E94D00508F481E008950E9464056894BE
:100AC000B1110C943F0608950E94240688F09F57A8
:100AD00098F0B92F9927B751B0F0E1F0660F771F62
:100AE000881F991F1AF0BA95C9F714C0B13091F058
:100AF0000E943E06B1E008950C943E06672F782FC1
:100B00008827B85F39F0B93FCCF38695779567951C
:100B1000B395D9F73EF490958095709561957F4F88
:100B20008F4F9F4F0895E89409C097FB3EF490952E
:100B30008095709561957F4F8F4F9F4F9923A9F0B6
:100B4000F92F96E9BB279395F69587957795679545
:100B5000B795F111F8CFFAF4BB0F11F460FF1BC089
:100B60006F5F7F4F8F4F9F4F16C0882311F096E91C
:100B700011C0772321F09EE8872F762F05C06623CA
:100B800071F096E8862F70E060E02AF09A95660F83
:100B9000771F881FDAF7880F9695879597F908953C
:100BA000990F0008550FAA0BE0E8FEEF161617067E
:100BB000E807F907C0F012161306E407F50798F0E6
:100BC000621B730B840B950B39F40A2661F0232BFF
:100BD000242B252B21F408950A2609F4A140A6957B
:100BE0008FEF811D811D089597F99F6780E870E060
:100BF00060E008959FEF80EC089500240A94161693
:100C0000170618060906089500240A9412161306FA
:100C1000140605060895092E0394000C11F4882388
:100C200052F0BB0F40F4BF2B11F460FF04C06F5FA4
:100C30007F4F8F4F9F4F089557FD9058440F551F7A
:100C400059F05F3F71F04795880F97FB991F61F04E
:100C50009F3F79F087950895121613061406551FC5
:100C6000F2CF4695F1DF08C0161617061806991F31
:100C7000F1CF86957105610508940895E894BB2726
:100C800066277727CB0197F908950E94D00508F4CD
:100C90008FEF08950E945D060C940B060E94FD05DF
:100CA00038F00E94040620F0952311F00C94F4050E
:100CB0000C94FA0511240C943F060E941C0670F354
:100CC000959FC1F3950F50E0551F629FF001729FF1
:100CD000BB27F00DB11D639FAA27F00DB11DAA1F00
:100CE000649F6627B00DA11D661F829F2227B00D4D
:100CF000A11D621F739FB00DA11D621F839FA00DD8
:100D0000611D221F749F3327A00D611D231F849F27
:100D1000600D211D822F762F6A2F11249F5750407E
:100D20009AF0F1F088234AF0EE0FFF1FBB1F661FF9
:100D3000771F881F91505040A9F79E3F510580F0C2
:100D40000C94F4050C943F065F3FE4F3983ED4F313
:100D5000869577956795B795F795E7959F5FC1F766
:100D6000FE2B880F911D9695879597F908959F936F
:100D70000E94C1060F9007FCEE5F0C94EA060C94EB
:100D8000FA050E942406D8F3E894E0E0BB279F57B9
:100D9000F0F02AED3FE049EC06C0EE0FBB0F661FF6
:100DA000771F881F28F0B23A62077307840728F07C
:100DB000B25A620B730B840BE3959A9572F78038E5
:100DC00030F49A95BB0F661F771F881FD2F79048A3
:100DD0000C940007EF93E0FF07C0A2EA2AED3FE082
:100DE00049EC5FEB0E9403050E940B060F900394F1
:100DF00001FC9058E8E6F0E00C940C079F3F31F0BE
:100E0000915020F4879577956795B795880F911D38
:100E10009695879597F908959F938F937F936F93F6
:100E2000FF93EF939B01AC010E944A06EF91FF9163
:100E30000E9420072F913F914F915F910C944A0699
:100E4000DF93CF931F930F93FF92EF92DF927B017B
:100E50008C01689406C0DA2EEF010E945D06FE0147
:100E6000E894A5912591359145915591A6F3EF010F
:100E70000E940305FE019701A801DA9469F7DF904B
:100E8000EF90FF900F911F91CF91DF910895909176
:100E90002701E0912201F0912301992311F084911F
:100EA00001C080812FEB280F2A3110F4805E089555
:100EB000803249F49F012F5F3F4F309323012093ED
:100EC0002201EF2B31F708951F93CF93DF930E94F8
:100ED0004707C0E0D0E01AE090ED980F9A30B8F4E0
:100EE0009E01129FE001139FD00D1124C80FD11D48
:100EF00087FDDA95E0978091220190912301019678
:100F000090932301809322010E944707E5CFCE01F1
:100F1000DF91CF911F91089510926F0083E280932B
:100F2000800081E1809381001092820080E197E24D
:100F3000909389008093880010928B0010928A0011
:100F4000229A789408958F929F92AF92BF92DF92E7
:100F5000EF92FF920F931F93CF93DF935C018B016E
:100F6000D42E80912401811105C081E08093240159
:100F70000E948C0710920901B7FE05C0E894B7F8EB
:100F80002AE0F22E02C0FF24F394E09081002E2D7F
:100F9000287FE22E48ECF49EC00111248A159B059F
:100FA000E0F4E50151E1A51657E2B50610F0C0E105
:100FB000D7E2BE017695679580E090E0605879466B
:100FC00087469F4F4E01A12CB12CA50194010E9490
:100FD000B90B59018E2D816024C0C8E2FC9EC02D42
:100FE0001124D0E0CA15DB0508F4E501BE017695B1
:100FF00067959E0140E050E08AE0F81207C080E06B
:1010000090E0605E734481449F4F06C080E090E0B2
:1010100060537D4E8C4E9F4F0E94B90B59018E2D0F
:101020008260882E2AE0F21207C0CE0105966AE09F
:1010300070E00E94A50BEB01C83E43E0D40759F0D5
:101040009801DE010E94FA0B28EE33E040E050E008
:101050000E94DB0B890110926F0080928100B09298
:101060008900A092880020918800309189004D2D40
:10107000403108F04FE080E190E0841B9109A90124
:1010800002C0569547958A95E2F750938B0040939E
:101090008A0010932A010093290186B38FEF86BB43
:1010A00081E080936F00DF91CF911F910F91FF90AE
:1010B000EF90DF90BF90AF909F908F900895CF9367
:1010C000DF93EB018F3F11F0411105C040E0BE01FD
:1010D00088EE93E043C0813130F050EF580F503626
:1010E00018F05FE501C050E0852F6CE00E94990B7D
:1010F000682F74EF760390011124250F311D2C30D9
:10110000310540F4F901EE0FFF1FE65FFE4F20812D
:10111000318102C020E030E0873081F0082E02C02B
:10112000220F331F0A94E2F7823028F0C901059696
:101130006AE070E00CC0C90190580CC0C90136E0EB
:10114000880F991F3A95E1F7029665E070E00E94DA
:10115000A50BCB01403108F04FE0BE010E94A30770
:10116000DF91CF910895A2E0B0E0E9EBF8E00C94B4
:101170000B0C9090080180912601882321F060914A
:101180002501611117C077247394B0ECAB2EBDE537
:10119000BB2E1AE0612E04E0802E80EDC82E87E081
:1011A000D82E94E0E92EF12C04EF11E02FE0422E2E
:1011B000512C15C070E040E088EE93E00E94A30738
:1011C0001092250117C18636D4F5813609F4A9C0DD
:1011D0007CF58C3309F460C08E3381F493940E94C3
:1011E000470720912201309123012F5F3F4F309319
:1011F000230120932201853631F752C0813209F054
:101200008BC080920801D0920701C0920601F09233
:101210000501E09204011093030100930201509232
:1012200001014092000110922601A4E09A2ED7CF2E
:101230008336A1F10CF478C010E082E077C08D36DF
:10124000C1F194F4873691F174F18C3609F064C0E1
:101250000E946407BC019093050180930401809172
:1012600006019091070151C08237C9F14CF48F36C5
:1012700009F052C00E946407982E80930801AFCFF6
:10128000843781F1863709F047C00E946407909344
:10129000010180930001A3CF9A94A1CF10E020C058
:1012A00010E084E043C010E085E040C010E087E03B
:1012B0003DC00E9447078C3619F41092260104C0E5
:1012C0007092260110922501209122013091230174
:1012D0002F5F3F4F309323012093220180CF11E0F5
:1012E00080E024C00E946407BC01C5010E94A50BD8
:1012F000669EC001679E900D112490930701809314
:10130000060160910401709105010E94A50B709384
:1013100003016093020163CF109223011092220116
:1013200069C010E089E002C010E08BE0082F9CE06B
:10133000999E000D11240E944707982F977F9332A2
:1013400061F420912201309123012F5F3F4F3093B0
:101350002301209322010F5FEECF8D3271F4209193
:101360002201309123012F5F3F4F309323012093BF
:10137000220101500E944707F0CF60910201709155
:1013800003018153883050F4E0900601F09007018A
:101390000E946407BC01C7010E94A50B7B01F69463
:1013A000E79469837A830E94470769817A818E3244
:1013B00069F420912201309123012F5F3F4F309338
:1013C0002301209322016E0D7F1DE9CF809126011C
:1013D000882339F09B013695279520932501621BC0
:1013E000710940910001112311F08FEF01C0802F8E
:1013F0000E945F082296E0E10C94270C1F920F9246
:101400000FB60F9211242F933F934F935F936F93D7
:101410007F938F939F93AF93BF93EF93FF938091AD
:10142000290190912A019C012150310930932A0110
:1014300020932901892B11F510926F0078948091E7
:101440008100887F81608093810080E197E29093A2
:1014500089008093880010928B0010928A0081E0AE
:10146000809309018091220190912301892B31F011
:1014700080912801811102C00E94B308FF91EF9171
:10148000BF91AF919F918F917F916F915F914F919C
:101490003F912F910F900FBE0F901F9018951092B3
:1014A0006F00909323018093220181E080932701B4
:1014B000109225010E94B30808950E944F0A0895D2
:1014C000883058F491E001C0990F8A95EAF7892F86
:1014D000AAE2B0E0EBE2F0E021C08E3060F498EFD9
:1014E000980F81E001C0880F9A95EAF7A4E2B0E076
:1014F000E5E2F0E013C0853160F492EF980F81E0EF
:1015000001C0880F9A95EAF7A7E2B0E0E8E2F0E0C0
:1015100005C080E0A0E0B0E0E0E0F0E06F3F19F44B
:101520009081982709C0662319F09081982B04C0F8
:101530002081982F9095922390839C91982B9C9337
:10154000089583EF8093B00084BD82E08093B10062
:1015500085BD1092B4001092B30018BC17BC60E0B7
:1015600086E00E94600A60E085E00E94600A60E018
:101570008BE00E94600A60E083E00E94600A0895A8
:1015800080913B01811105C081E080933B010E9465
:10159000A10A0895CF93DF93EC010E94C00AD7FF00
:1015A00005C0D195C195D10981E001C080E0CF3F50
:1015B000D10519F014F0CFEFD0E0882319F018BC52
:1015C000C7BD02C0C8BD17BCDF91CF910895CF93AE
:1015D000DF93EC010E94C00AD7FF05C0D195C195E9
:1015E000D10981E001C080E0CF3FD10519F014F0AE
:1015F000CFEFD0E0882329F01092B400C093B3005D
:1016000004C0C093B4001092B300DF91CF9108954D
:10161000CF93DF93EB010E94CA0ACE010E94E70A32
:10162000DF91CF9108950E94080B08952F928F9318
:101630009F932FB680913201909133010196809350
:1016400032019093330190E080913401891F80939F
:10165000340190912C019C5F90932C0180912B017F
:1016600080519742C0F090932C0180932B01809180
:101670002D0190912E01019680932D0190932E01C2
:1016800090E080912F01891F80932F01809130017C
:10169000891F809330012FBE9F918F912F901895B5
:1016A00028EE33E0019748F0F9016F9364E06A9502
:1016B000F1F76F913197C9F7F5CF08950E94500B5C
:1016C0000895E0E7F0E080818E7F8083A0EBB0E0BA
:1016D0008C9183608C93A1EBB0E08C91807F8C9394
:1016E0008C9182608C93B89A808181608083789499
:1016F000089580913C01811105C081E080933C01F7
:101700000E94610B08950E94790BE0E7F0E0808170
:101710008E7F808360912D0170912E0180912F0129
:101720009091300120812160208308950E94830BD5
:101730000895991B79E004C0991F961708F0961B2D
:10174000881F7A95C9F780950895AA1BBB1B51E1A4
:1017500007C0AA1FBB1FA617B70710F0A61BB70B21
:10176000881F991F5A95A9F780959095BC01CD01C6
:101770000895A1E21A2EAA1BBB1BFD010DC0AA1FD2
:10178000BB1FEE1FFF1FA217B307E407F50720F0EA
:10179000A21BB30BE40BF50B661F771F881F991F65
:1017A0001A9469F760957095809590959B01AC01AE
:1017B000BD01CF010895052E97FB1EF400940E94F1
:1017C000F20B57FD07D00E94B90B07FC03D04EF473
:1017D0000C94F20B50954095309521953F4F4F4F0B
:1017E0005F4F089590958095709561957F4F8F4FCD
:1017F0009F4F0895A29FB001B39FC001A39F700D9A
:10180000811D1124911DB29F700D811D1124911D08
:1018100008952F923F924F925F926F927F928F9294
:101820009F92AF92BF92CF92DF92EF92FF920F936F
:101830001F93CF93DF93CDB7DEB7CA1BDB0B0FB679
:10184000F894DEBF0FBECDBF09942A883988488836
:101850005F846E847D848C849B84AA84B984C884CC
:10186000DF80EE80FD800C811B81AA81B981CE0FC3
:10187000D11D0FB6F894DEBF0FBECDBFED010895A8
:04188000F894FFCF0A
:101884000F00F4010400D00704019C01B501CF014D
:10189400EA0107022602470269028E02B502DE024D
:0218A4000A0335
:00000001FF
