:100000000C943E000C945B000C945B000C945B0021
:100010000C945B000C945B000C945B000C945B00F4
:100020000C945B000C94C4050C945B000C945B0076
:100030000C945B000C9404040C945B000C945B0027
:100040000C945B000C945B000C945B000C945B00C4
:100050000C945B000C945B000C945B000C945B00B4
:100060000C945B000C945B003E6733323E3E63337E
:1000700032003E6733323E3E6333320011241FBEEE
:10008000CFEFD4E0DEBFCDBF11E0A0E0B1E0E0E70C
:10009000FDE002C005900D92A632B107D9F721E02C
:1000A000A6E2B1E001C01D92A234B207E1F70E94BE
:1000B0005D000C94B6060C94000082E790E00E946C
:1000C00063040E946C050E944A01BC0180E090E03C
:1000D0000E94C105599A519A88EC90E00E940C0642
:1000E0005998519A88EC90E00E940C0688E690E0BE
:1000F000E6CFECE7F0E080818F7D80830895811169
:1001000003C00E947900089580917C0080628093F2
:100110007C00089580917C0085FB882780F90895F4
:100120000E948A00882321F08091790090E0089550
:10013000809178009091790008958032A0F497E83A
:1001400090937A0090917C00662311F0906C02C02D
:100150009F779064907E982B90937C0080917A009A
:10016000806480937A000895A0E0B0E0EAEBF0E0CC
:100170000C948906EB0160E00E949D0080917A005A
:1001800086FDFCCF8E01C12CD12C760180917A00A6
:10019000806480937A0080917A0086FDFCCF0E9473
:1001A0009000C80ED91EE11CF11C01501109011567
:1001B000110561F7CE0196958795C034D10538F4C5
:1001C0008C0D9D1DBE010E941B06CB010EC0A70118
:1001D0009601280F391F411D511DCA01B9019E0109
:1001E00040E050E00E942F06C901CDB7DEB7E8E03D
:1001F0000C94A506CF92DF92EF92FF92A09100019E
:10020000B09101019C010E9470066B017C010E946B
:100210008A00882359F0C701B60161587F4F8F4F7C
:100220009F4F2FEF30E040E050E00AC0C701B60119
:1002300061507E4F8F4F9F4F2FEF33E040E050E0F3
:100240000E942F06C901FF90EF90DF90CF90089594
:100250000E94B4000E94FA0008951F93CF93DF9389
:100260000E948A00182F0E9479006AE070E086E000
:100270000E942801EC01812F0E947F00CE01880F8F
:10028000991F8C0F9D1F019696958795DF91CF91B1
:100290001F9108950E942D01089590912B01E091E6
:1002A0002601F0912701992311F0849101C08081EA
:1002B0002FEB280F2A3110F4805E0895803249F424
:1002C0009F012F5F3F4F3093270120932601EF2B93
:1002D00031F708951F93CF93DF930E944D01C0E043
:1002E000D0E01AE090ED980F9A30B8F49E01129F7A
:1002F000E001139FD00D1124C80FD11D87FDDA95A1
:10030000E097809126019091270101969093270113
:10031000809326010E944D01E5CFCE01DF91CF9160
:100320001F91089510926F0083E28093800081E115
:10033000809381001092820080E197E2909389007F
:100340008093880010928B0010928A00229A7894F1
:1003500008958F929F92AF92BF92DF92EF92FF9299
:100360000F931F93CF93DF935C018B01D42E809169
:100370002801811105C081E0809328010E9492012B
:1003800010920B01B7FE05C0E894B7F82AE0F22EF0
:1003900002C0FF24F394E09081002E2D287FE22EEE
:1003A00048ECF49EC00111248A159B05E0F4E50198
:1003B00051E1A51657E2B50610F0C0E1D7E2BE0143
:1003C0007695679580E090E06058794687469F4F24
:1003D0004E01A12CB12CA50194010E942F065901B8
:1003E0008E2D816024C0C8E2FC9EC02D1124D0E077
:1003F000CA15DB0508F4E501BE01769567959E01F7
:1004000040E050E08AE0F81207C080E090E0605ED3
:10041000734481449F4F06C080E090E060537D4E5E
:100420008C4E9F4F0E942F0659018E2D8260882E80
:100430002AE0F21207C0CE0105966AE070E00E9441
:100440001B06EB01C83E43E0D40759F09801DE01DA
:100450000E94700628EE33E040E050E00E94510612
:10046000890110926F0080928100B0928900A09261
:10047000880020918800309189004D2D403108F08E
:100480004FE080E190E0841B9109A90102C05695DC
:1004900047958A95E2F750938B0040938A0010931A
:1004A0002E0100932D0186B38FEF86BB81E08093F0
:1004B0006F00DF91CF911F910F91FF90EF90DF9030
:1004C000BF90AF909F908F900895CF93DF93EB01F3
:1004D0008F3F11F0411105C040E0BE0188EE93E06E
:1004E00043C0813130F050EF580F503618F05FE5BF
:1004F00001C050E0852F6CE00E940F06682F74EF5A
:10050000760390011124250F311D2C30310540F464
:10051000F901EE0FFF1FE25FFE4F2081318102C023
:1005200020E030E0873081F0082E02C0220F331F18
:100530000A94E2F7823028F0C90105966AE070E07B
:100540000CC0C90190580CC0C90136E0880F991F32
:100550003A95E1F7029665E070E00E941B06CB0138
:10056000403108F04FE0BE010E94A901DF91CF9118
:100570000895A2E0B0E0EFEBF2E00C9481069090D9
:100580000A0180912A01882321F0609129016111DB
:1005900017C077247394B0ECAB2EBDE5BB2E1AE0E8
:1005A000612E04E0802E80EDC82E87E0D82E94E0E6
:1005B000E92EF12C04EF11E02FE0422E512C15C052
:1005C00070E040E088EE93E00E94A90110922901BA
:1005D00017C18636D4F5813609F4A9C07CF58C3371
:1005E00009F460C08E3381F493940E944D012091F0
:1005F0002601309127012F5F3F4F30932701209331
:100600002601853631F752C0813209F08BC08092C5
:100610000A01D0920901C0920801F0920701E0920C
:1006200006011093050100930401509203014092CA
:10063000020110922A01A4E09A2ED7CF8336A1F1AD
:100640000CF478C010E082E077C08D36C1F194F4EC
:10065000873691F174F18C3609F064C00E946A010A
:10066000BC0190930701809306018091080190914D
:10067000090151C08237C9F14CF48F3609F052C0DC
:100680000E946A01982E80930A01AFCF843781F1CE
:10069000863709F047C00E946A0190930301809356
:1006A0000201A3CF9A94A1CF10E020C010E084E013
:1006B00043C010E085E040C010E087E03DC00E94EC
:1006C0004D018C3619F410922A0104C070922A014F
:1006D0001092290120912601309127012F5F3F4F71
:1006E000309327012093260180CF11E080E024C0C1
:1006F0000E946A01BC01C5010E941B06669EC001E2
:10070000679E900D112490930901809308016091D8
:100710000601709107010E941B067093050160930A
:10072000040163CF109227011092260169C010E0E6
:1007300089E002C010E08BE0082F9CE0999E000D3C
:1007400011240E944D01982F977F933261F42091DC
:100750002601309127012F5F3F4F309327012093CF
:1007600026010F5FEECF8D3271F42091260130917A
:1007700027012F5F3F4F309327012093260101501F
:100780000E944D01F0CF60910401709105018153E9
:10079000883050F4E0900801F09009010E946A014D
:1007A000BC01C7010E941B067B01F694E794698394
:1007B0007A830E944D0169817A818E3269F4209199
:1007C0002601309127012F5F3F4F3093270120935F
:1007D00026016E0D7F1DE9CF80912A01882339F013
:1007E0009B013695279520932901621B7109409141
:1007F0000201112311F08FEF01C0802F0E946502CA
:100800002296E0E10C949D061F920F920FB60F9274
:1008100011242F933F934F935F936F937F938F9305
:100820009F93AF93BF93EF93FF9380912D0190918E
:100830002E019C012150310930932E0120932D016E
:10084000892B11F510926F00789480918100887F38
:1008500081608093810080E197E29093890080938A
:10086000880010928B0010928A0081E080930B0127
:100870008091260190912701892B31F080912C01E4
:10088000811102C00E94B902FF91EF91BF91AF9117
:100890009F918F917F916F915F914F913F912F9198
:1008A0000F900FBE0F901F90189510926F009093AD
:1008B00027018093260181E080932B01109229016A
:1008C0000E94B90208950E945504089581E090E0C5
:1008D0006F9364E06A95F1F76F910197C9F70895F6
:1008E0000F931F93CF93DF931AB157985A98289A72
:1008F000C0E0D0E00E9466045C9A0E94660409B1E0
:100900005C980E9466045C9A0E9466045C98249637
:1009100007FF10C0AE0160E070E080912F01909160
:100920003001A0913101B0913201481759076A078F
:100930007B0700F31AB9DF91CF911F910F910895B2
:1009400095B1282F217030E0220F331F482F4670B9
:1009500068E0469FA0011124242B9D7C292B25B9FA
:100960009BB188708295807F9F77892B8BB95C9A29
:100970000E9466045C980E9466040895A0E0B0E0BE
:10098000E4ECF4E00C948A06C82FD62EE42E809175
:100990004101811105C081E0809341010E9404055D
:1009A0000E94700414B1D5B1FAB00BB12898DD20C3
:1009B00011F05A9A01C05A9894B1926394B9579A17
:1009C00081E0E81629F08C2F82958F700E94A00498
:1009D0008C2F8F700E94A004FAB80BB914B9D5B946
:1009E000CDB7DEB7E7E00C94A60642E060E00E94D7
:1009F000BE04089542E061E00E94BE04089541E013
:100A000060E00E94BE04089580E197E2A0E0B0E0BB
:100A100080932F0190933001A0933101B093320164
:100A2000529A209A549A8EE190E00E940C0683E03C
:100A30000E94FF0486E090E00E940C0683E00E9482
:100A4000FF0482E090E00E940C0683E00E94FF0415
:100A500082E090E00E940C0682E00E94FF0482E0A7
:100A600090E00E940C0688E20E94F50488E00E9453
:100A7000F50481E00E94F50486E00E94F5048CE014
:100A80000E94F504089581E00E94F50480913501EB
:100A900090913601892BF9F060E0A0E2262F30E03A
:100AA00070910C0180910D0190E00197789FA00159
:100AB000799F500D1124241735074CF4E09135012E
:100AC000F0913601E20FF31FA0836F5FE7CF109222
:100AD00033011092340108950E9443050895AAE05D
:100AE000B0E0E5E7F5E00C9489061AE05AE0C52E7F
:100AF000D12CE12CF12C062FA70196010E942F0684
:100B0000CA01B9011150E1E0F0E0EC0FFD1FE10F67
:100B1000F11D005D2AE0629F001911240083611518
:100B200071058105910539F71A3058F4E1E0F0E0DC
:100B3000EC0FFD1FE10FF11D80810E94FA041F5F81
:100B4000F3CF2A96E8E00C94A506CF92DF92EF92BD
:100B5000FF926B017C0197FF0BC0F094E094D0945E
:100B6000C094C11CD11CE11CF11C8DE20E94FA044E
:100B7000C701B6010E946F05FF90EF90DF90CF9004
:100B800008950E94A50508952F928F939F932FB6E5
:100B900080913E0190913F01019680933E01909398
:100BA0003F0190E080914001891F80934001909126
:100BB00038019C5F909338018091370180519742B2
:100BC000C0F0909338018093370180913901909162
:100BD0003A0101968093390190933A0190E0809117
:100BE0003B01891F80933B0180913C01891F8093C9
:100BF0003C012FBE9F918F912F90189528EE33E0E6
:100C0000019748F0F9016F9364E06A95F1F76F91ED
:100C10003197C9F7F5CF08950E94FE050895991BF5
:100C200079E004C0991F961708F0961B881F7A95E3
:100C3000C9F780950895AA1BBB1B51E107C0AA1FE5
:100C4000BB1FA617B70710F0A61BB70B881F991F6D
:100C50005A95A9F780959095BC01CD010895A1E220
:100C60001A2EAA1BBB1BFD010DC0AA1FBB1FEE1F26
:100C7000FF1FA217B307E407F50720F0A21BB30B71
:100C8000E40BF50B661F771F881F991F1A9469F7ED
:100C900060957095809590959B01AC01BD01CF0149
:100CA0000895052E97FB1EF400940E94680657FDD8
:100CB00007D00E942F0607FC03D04EF40C94680660
:100CC00050954095309521953F4F4F4F5F4F089578
:100CD00090958095709561957F4F8F4F9F4F0895A8
:100CE000A29FB001B39FC001A39F700D811D11246D
:100CF000911DB29F700D811D1124911D08952F9299
:100D00003F924F925F926F927F928F929F92AF929B
:100D1000BF92CF92DF92EF92FF920F931F93CF93E8
:100D2000DF93CDB7DEB7CA1BDB0B0FB6F894DEBF7F
:100D30000FBECDBF09942A88398848885F846E84A5
:100D40007D848C849B84AA84B984C884DF80EE80EF
:100D5000FD800C811B81AA81B981CE0FD11D0FB6F8
:100D6000F894DEBF0FBECDBFED010895F894FFCF1C
:100D700088130F00F4010400D007040108029C014D
:100D8000B501CF01EA0107022602470269028E027D
:060D9000B502DE020A03B9
:00000001FF
